{
  "contractName": "MerkleClaimERC20",
  "abi": [
    {
      "inputs": [
        {
          "internalType": "address",
          "name": "_ogunToken",
          "type": "address"
        },
        {
          "internalType": "bytes32",
          "name": "_merkleRoot",
          "type": "bytes32"
        }
      ],
      "stateMutability": "nonpayable",
      "type": "constructor"
    },
    {
      "inputs": [],
      "name": "AlreadyClaimed",
      "type": "error"
    },
    {
      "inputs": [],
      "name": "NotInMerkle",
      "type": "error"
    },
    {
      "anonymous": false,
      "inputs": [
        {
          "indexed": true,
          "internalType": "address",
          "name": "to",
          "type": "address"
        },
        {
          "indexed": false,
          "internalType": "uint256",
          "name": "amount",
          "type": "uint256"
        }
      ],
      "name": "Claim",
      "type": "event"
    },
    {
      "anonymous": false,
      "inputs": [
        {
          "indexed": true,
          "internalType": "address",
          "name": "previousOwner",
          "type": "address"
        },
        {
          "indexed": true,
          "internalType": "address",
          "name": "newOwner",
          "type": "address"
        }
      ],
      "name": "OwnershipTransferred",
      "type": "event"
    },
    {
      "inputs": [
        {
          "internalType": "address",
          "name": "",
          "type": "address"
        }
      ],
      "name": "hasClaimed",
      "outputs": [
        {
          "internalType": "bool",
          "name": "",
          "type": "bool"
        }
      ],
      "stateMutability": "view",
      "type": "function"
    },
    {
      "inputs": [],
      "name": "merkleRoot",
      "outputs": [
        {
          "internalType": "bytes32",
          "name": "",
          "type": "bytes32"
        }
      ],
      "stateMutability": "view",
      "type": "function"
    },
    {
      "inputs": [],
      "name": "ogunToken",
      "outputs": [
        {
          "internalType": "address",
          "name": "",
          "type": "address"
        }
      ],
      "stateMutability": "view",
      "type": "function"
    },
    {
      "inputs": [],
      "name": "owner",
      "outputs": [
        {
          "internalType": "address",
          "name": "",
          "type": "address"
        }
      ],
      "stateMutability": "view",
      "type": "function"
    },
    {
      "inputs": [],
      "name": "renounceOwnership",
      "outputs": [],
      "stateMutability": "nonpayable",
      "type": "function"
    },
    {
      "inputs": [
        {
          "internalType": "address",
          "name": "newOwner",
          "type": "address"
        }
      ],
      "name": "transferOwnership",
      "outputs": [],
      "stateMutability": "nonpayable",
      "type": "function"
    },
    {
      "inputs": [
        {
          "internalType": "address",
          "name": "to",
          "type": "address"
        },
        {
          "internalType": "uint256",
          "name": "amount",
          "type": "uint256"
        },
        {
          "internalType": "bytes32[]",
          "name": "proof",
          "type": "bytes32[]"
        }
      ],
      "name": "claim",
      "outputs": [],
      "stateMutability": "nonpayable",
      "type": "function"
    },
    {
      "inputs": [
        {
          "internalType": "address",
          "name": "to",
          "type": "address"
        },
        {
          "internalType": "uint256",
          "name": "value",
          "type": "uint256"
        }
      ],
      "name": "getLeafValue",
      "outputs": [
        {
          "internalType": "bytes32",
          "name": "",
          "type": "bytes32"
        }
      ],
      "stateMutability": "pure",
      "type": "function"
    },
    {
      "inputs": [
        {
          "internalType": "address",
          "name": "destination",
          "type": "address"
        }
      ],
      "name": "withdraw",
      "outputs": [],
      "stateMutability": "nonpayable",
      "type": "function"
    }
  ],
  "bytecode": "0x60c060405234801561001057600080fd5b506040516109d83803806109d883398101604081905261002f9161009c565b6100383361004c565b6080526001600160a01b031660a0526100d6565b600080546001600160a01b038381166001600160a01b0319831681178455604051919092169283917f8be0079c531659141344cd1fd0a4f28419497f9722a3daafe3b4186f6b6457e09190a35050565b600080604083850312156100af57600080fd5b82516001600160a01b03811681146100c657600080fd5b6020939093015192949293505050565b60805160a0516108c2610116600039600081816101b40152818161032a0152818161043001526104cc015260008181609d015261029b01526108c26000f3fe608060405234801561001057600080fd5b50600436106100935760003560e01c806373b2e80e1161006657806373b2e80e1461010257806382896140146101355780638da5cb5b1461018a578063b33c7fe3146101af578063f2fde38b146101d657600080fd5b80632eb4a7ab146100985780633d13f874146100d257806351cff8d9146100e7578063715018a6146100fa575b600080fd5b6100bf7f000000000000000000000000000000000000000000000000000000000000000081565b6040519081526020015b60405180910390f35b6100e56100e0366004610707565b6101e9565b005b6100e56100f5366004610791565b6103e5565b6100e5610540565b610125610110366004610791565b60016020526000908152604090205460ff1681565b60405190151581526020016100c9565b6100bf6101433660046107b3565b6040516bffffffffffffffffffffffff19606084901b1660208201526034810182905260009060540160405160208183030381529060405280519060200120905092915050565b6000546001600160a01b03165b6040516001600160a01b0390911681526020016100c9565b6101977f000000000000000000000000000000000000000000000000000000000000000081565b6100e56101e4366004610791565b610576565b6001600160a01b03841660009081526001602052604090205460ff161561022357604051630c8d9eab60e31b815260040160405180910390fd5b6040516bffffffffffffffffffffffff19606086901b1660208201526034810184905260009060540160405160208183030381529060405280519060200120905060006102c68484808060200260200160405190810160405280939291908181526020018383602002808284376000920191909152507f000000000000000000000000000000000000000000000000000000000000000092508691506106119050565b9050806102e65760405163452c2df160e11b815260040160405180910390fd5b6001600160a01b03868116600081815260016020819052604091829020805460ff191690911790555163a9059cbb60e01b81526004810191909152602481018790527f00000000000000000000000000000000000000000000000000000000000000009091169063a9059cbb906044016020604051808303816000875af1158015610375573d6000803e3d6000fd5b505050506040513d601f19601f8201168201806040525081019061039991906107dd565b50856001600160a01b03167f47cee97cb7acd717b3c0aa1435d004cd5b3c8c57d70dbceb4e4458bbd60e39d4866040516103d591815260200190565b60405180910390a2505050505050565b6000546001600160a01b031633146104185760405162461bcd60e51b815260040161040f906107ff565b60405180910390fd5b6040516370a0823160e01b81523060048201526000907f00000000000000000000000000000000000000000000000000000000000000006001600160a01b0316906370a0823190602401602060405180830381865afa15801561047f573d6000803e3d6000fd5b505050506040513d601f19601f820116820180604052508101906104a39190610834565b60405163a9059cbb60e01b81526001600160a01b038481166004830152602482018390529192507f00000000000000000000000000000000000000000000000000000000000000009091169063a9059cbb906044016020604051808303816000875af1158015610517573d6000803e3d6000fd5b505050506040513d601f19601f8201168201806040525081019061053b91906107dd565b505050565b6000546001600160a01b0316331461056a5760405162461bcd60e51b815260040161040f906107ff565b6105746000610627565b565b6000546001600160a01b031633146105a05760405162461bcd60e51b815260040161040f906107ff565b6001600160a01b0381166106055760405162461bcd60e51b815260206004820152602660248201527f4f776e61626c653a206e6577206f776e657220697320746865207a65726f206160448201526564647265737360d01b606482015260840161040f565b61060e81610627565b50565b60008261061e8584610677565b14949350505050565b600080546001600160a01b038381166001600160a01b0319831681178455604051919092169283917f8be0079c531659141344cd1fd0a4f28419497f9722a3daafe3b4186f6b6457e09190a35050565b600081815b84518110156106e35760008582815181106106995761069961084d565b602002602001015190508083116106bf57600083815260208290526040902092506106d0565b600081815260208490526040902092505b50806106db81610863565b91505061067c565b509392505050565b80356001600160a01b038116811461070257600080fd5b919050565b6000806000806060858703121561071d57600080fd5b610726856106eb565b935060208501359250604085013567ffffffffffffffff8082111561074a57600080fd5b818701915087601f83011261075e57600080fd5b81358181111561076d57600080fd5b8860208260051b850101111561078257600080fd5b95989497505060200194505050565b6000602082840312156107a357600080fd5b6107ac826106eb565b9392505050565b600080604083850312156107c657600080fd5b6107cf836106eb565b946020939093013593505050565b6000602082840312156107ef57600080fd5b815180151581146107ac57600080fd5b6020808252818101527f4f776e61626c653a2063616c6c6572206973206e6f7420746865206f776e6572604082015260600190565b60006020828403121561084657600080fd5b5051919050565b634e487b7160e01b600052603260045260246000fd5b600060001982141561088557634e487b7160e01b600052601160045260246000fd5b506001019056fea26469706673582212205a6b43b735988dbdeaef2f9655accef94d0a14872ab196e872f302a7bbd6bf2a64736f6c634300080a0033",
  "immutableReferences": {
    "309": [
      {
        "length": 32,
        "start": 157
      },
      {
        "length": 32,
        "start": 667
      }
    ],
    "311": [
      {
        "length": 32,
        "start": 436
      },
      {
        "length": 32,
        "start": 810
      },
      {
        "length": 32,
        "start": 1072
      },
      {
        "length": 32,
        "start": 1228
      }
    ]
  },
  "source": "// SPDX-License-Identifier: AGPL-3.0-only\npragma solidity ^0.8.10;\n\n/// ============ Imports ============\n\nimport \"@openzeppelin/contracts/token/ERC20/IERC20.sol\";\nimport \"@openzeppelin/contracts/access/Ownable.sol\";\nimport { MerkleProof } from \"@openzeppelin/contracts/utils/cryptography/MerkleProof.sol\"; // OZ: MerkleProof\n\n/// @title MerkleClaimERC20\n/// @notice ERC20 claimable by members of a merkle tree\ncontract MerkleClaimERC20 is Ownable {\n\n  /// ============ Immutable storage ============\n\n  /// @notice ERC20-claimee inclusion root\n  bytes32 public immutable merkleRoot;\n  address public immutable ogunToken;\n\n  /// ============ Mutable storage ============\n\n  /// @notice Mapping of addresses who have claimed tokens\n  mapping(address => bool) public hasClaimed;\n  /// ============ Errors ============\n\n  /// @notice Thrown if address has already claimed\n  error AlreadyClaimed();\n  /// @notice Thrown if address/amount are not part of Merkle tree\n  error NotInMerkle();\n\n  /// ============ Constructor ============\n\n  /// @notice Creates a new MerkleClaimERC20 contract\n  /// @param _ogunToken token\n  /// @param _merkleRoot of claimees\n  constructor(\n    address _ogunToken,\n    bytes32 _merkleRoot\n  ){\n    merkleRoot = _merkleRoot; // Update root\n    ogunToken = _ogunToken; // Update token Address\n  }\n\n  /// ============ Events ============\n\n  /// @notice Emitted after a successful token claim\n  /// @param to recipient of claim\n  /// @param amount of tokens claimed\n  event Claim(address indexed to, uint256 amount);\n\n  /// ============ Functions ============\n\n  /// @notice Allows claiming tokens if address is part of merkle tree\n  /// @param to address of claimee\n  /// @param amount of tokens owed to claimee\n  /// @param proof merkle proof to prove address and amount are in tree\n  function claim(address to, uint256 amount, bytes32[] calldata proof) external {\n    // Throw if address has already claimed tokens\n    if (hasClaimed[to]) revert AlreadyClaimed();\n\n    // Verify merkle proof, or revert if not in tree\n    bytes32 leaf = keccak256(abi.encodePacked(to, amount));\n    bool isValidLeaf = MerkleProof.verify(proof, merkleRoot, leaf);\n    if (!isValidLeaf) revert NotInMerkle();\n\n    // Set address to claimed\n    hasClaimed[to] = true;\n\n    // Mint tokens to address\n    IERC20(ogunToken).transfer(to, amount);\n\n    // Emit claim event\n    emit Claim(to, amount);\n  }\n\n  function getLeafValue(address to, uint256 value) public pure returns (bytes32) {\n      return keccak256(abi.encodePacked(to, value));\n  }\n\n  function withdraw(address destination) external onlyOwner {\n      uint256 balance = IERC20(ogunToken).balanceOf(address(this));\n      IERC20(ogunToken).transfer(destination, balance);\n  }\n}",
  "sourcePath": "/Users/klarkuo/AE Git/nonfungiblebusinesscards-smart-contracts/contracts/MerkleClaimERC20.sol",
  "compiler": {
    "name": "solc",
    "version": "0.8.10+commit.fc410830.Emscripten.clang"
  },
  "schemaVersion": "3.4.7",
  "updatedAt": "2022-05-30T23:37:38.975Z",
  "devdoc": {
    "events": {
      "Claim(address,uint256)": {
        "params": {
          "amount": "of tokens claimed",
          "to": "recipient of claim"
        }
      }
    },
    "kind": "dev",
    "methods": {
      "claim(address,uint256,bytes32[])": {
        "params": {
          "amount": "of tokens owed to claimee",
          "proof": "merkle proof to prove address and amount are in tree",
          "to": "address of claimee"
        }
      },
      "constructor": {
        "params": {
          "_merkleRoot": "of claimees",
          "_ogunToken": "token"
        }
      },
      "owner()": {
        "details": "Returns the address of the current owner."
      },
      "renounceOwnership()": {
        "details": "Leaves the contract without owner. It will not be possible to call `onlyOwner` functions anymore. Can only be called by the current owner. NOTE: Renouncing ownership will leave the contract without an owner, thereby removing any functionality that is only available to the owner."
      },
      "transferOwnership(address)": {
        "details": "Transfers ownership of the contract to a new account (`newOwner`). Can only be called by the current owner."
      }
    },
    "title": "MerkleClaimERC20",
    "version": 1
  },
  "userdoc": {
    "errors": {
      "AlreadyClaimed()": [
        {
          "notice": "Thrown if address has already claimed"
        }
      ],
      "NotInMerkle()": [
        {
          "notice": "Thrown if address/amount are not part of Merkle tree"
        }
      ]
    },
    "events": {
      "Claim(address,uint256)": {
        "notice": "Emitted after a successful token claim"
      }
    },
    "kind": "user",
    "methods": {
      "claim(address,uint256,bytes32[])": {
        "notice": "Allows claiming tokens if address is part of merkle tree"
      },
      "constructor": {
        "notice": "Creates a new MerkleClaimERC20 contract"
      },
      "hasClaimed(address)": {
        "notice": "Mapping of addresses who have claimed tokens"
      },
      "merkleRoot()": {
        "notice": "ERC20-claimee inclusion root"
      }
    },
    "notice": "ERC20 claimable by members of a merkle tree",
    "version": 1
  }
}