{
  "_format": "hh-sol-artifact-1",
  "contractName": "SoundchainAuction",
  "sourceName": "contracts/Auction.sol",
  "abi": [
    {
      "inputs": [
        {
          "internalType": "address payable",
          "name": "_platformFeeRecipient",
          "type": "address"
        },
        {
          "internalType": "address",
          "name": "_OGUNToken",
          "type": "address"
        },
        {
          "internalType": "uint16",
          "name": "_platformFee",
          "type": "uint16"
        }
      ],
      "stateMutability": "nonpayable",
      "type": "constructor"
    },
    {
      "anonymous": false,
      "inputs": [
        {
          "indexed": true,
          "internalType": "address",
          "name": "nftAddress",
          "type": "address"
        },
        {
          "indexed": true,
          "internalType": "uint256",
          "name": "tokenId",
          "type": "uint256"
        }
      ],
      "name": "AuctionCancelled",
      "type": "event"
    },
    {
      "anonymous": false,
      "inputs": [
        {
          "indexed": true,
          "internalType": "address",
          "name": "nftAddress",
          "type": "address"
        },
        {
          "indexed": true,
          "internalType": "uint256",
          "name": "tokenId",
          "type": "uint256"
        },
        {
          "indexed": false,
          "internalType": "address",
          "name": "owner",
          "type": "address"
        },
        {
          "indexed": false,
          "internalType": "uint256",
          "name": "reservePrice",
          "type": "uint256"
        },
        {
          "indexed": false,
          "internalType": "bool",
          "name": "isPaymentOGUN",
          "type": "bool"
        },
        {
          "indexed": false,
          "internalType": "uint256",
          "name": "startTimestamp",
          "type": "uint256"
        },
        {
          "indexed": false,
          "internalType": "uint256",
          "name": "endTimestamp",
          "type": "uint256"
        }
      ],
      "name": "AuctionCreated",
      "type": "event"
    },
    {
      "anonymous": false,
      "inputs": [
        {
          "indexed": false,
          "internalType": "address",
          "name": "oldOwner",
          "type": "address"
        },
        {
          "indexed": true,
          "internalType": "address",
          "name": "nftAddress",
          "type": "address"
        },
        {
          "indexed": true,
          "internalType": "uint256",
          "name": "tokenId",
          "type": "uint256"
        },
        {
          "indexed": true,
          "internalType": "address",
          "name": "winner",
          "type": "address"
        },
        {
          "indexed": false,
          "internalType": "uint256",
          "name": "winningBid",
          "type": "uint256"
        }
      ],
      "name": "AuctionResulted",
      "type": "event"
    },
    {
      "anonymous": false,
      "inputs": [
        {
          "indexed": true,
          "internalType": "address",
          "name": "nftAddress",
          "type": "address"
        },
        {
          "indexed": true,
          "internalType": "uint256",
          "name": "tokenId",
          "type": "uint256"
        },
        {
          "indexed": true,
          "internalType": "address",
          "name": "bidder",
          "type": "address"
        },
        {
          "indexed": false,
          "internalType": "uint256",
          "name": "bid",
          "type": "uint256"
        }
      ],
      "name": "BidPlaced",
      "type": "event"
    },
    {
      "anonymous": false,
      "inputs": [
        {
          "indexed": true,
          "internalType": "address",
          "name": "nftAddress",
          "type": "address"
        },
        {
          "indexed": true,
          "internalType": "uint256",
          "name": "tokenId",
          "type": "uint256"
        },
        {
          "indexed": true,
          "internalType": "address",
          "name": "bidder",
          "type": "address"
        },
        {
          "indexed": false,
          "internalType": "uint256",
          "name": "bid",
          "type": "uint256"
        }
      ],
      "name": "BidRefunded",
      "type": "event"
    },
    {
      "anonymous": false,
      "inputs": [
        {
          "indexed": true,
          "internalType": "address",
          "name": "previousOwner",
          "type": "address"
        },
        {
          "indexed": true,
          "internalType": "address",
          "name": "newOwner",
          "type": "address"
        }
      ],
      "name": "OwnershipTransferred",
      "type": "event"
    },
    {
      "anonymous": false,
      "inputs": [
        {
          "indexed": false,
          "internalType": "bool",
          "name": "isPaused",
          "type": "bool"
        }
      ],
      "name": "PauseToggled",
      "type": "event"
    },
    {
      "anonymous": false,
      "inputs": [
        {
          "indexed": true,
          "internalType": "address",
          "name": "nftAddress",
          "type": "address"
        },
        {
          "indexed": true,
          "internalType": "uint256",
          "name": "tokenId",
          "type": "uint256"
        },
        {
          "indexed": false,
          "internalType": "uint256",
          "name": "reservePrice",
          "type": "uint256"
        },
        {
          "indexed": false,
          "internalType": "bool",
          "name": "isPaymentOGUN",
          "type": "bool"
        },
        {
          "indexed": false,
          "internalType": "uint256",
          "name": "startTime",
          "type": "uint256"
        },
        {
          "indexed": false,
          "internalType": "uint256",
          "name": "endTime",
          "type": "uint256"
        }
      ],
      "name": "UpdateAuction",
      "type": "event"
    },
    {
      "anonymous": false,
      "inputs": [
        {
          "indexed": false,
          "internalType": "uint256",
          "name": "minBidIncrement",
          "type": "uint256"
        }
      ],
      "name": "UpdateMinBidIncrement",
      "type": "event"
    },
    {
      "anonymous": false,
      "inputs": [
        {
          "indexed": false,
          "internalType": "uint256",
          "name": "platformFee",
          "type": "uint256"
        }
      ],
      "name": "UpdatePlatformFee",
      "type": "event"
    },
    {
      "anonymous": false,
      "inputs": [
        {
          "indexed": false,
          "internalType": "address payable",
          "name": "platformFeeRecipient",
          "type": "address"
        }
      ],
      "name": "UpdatePlatformFeeRecipient",
      "type": "event"
    },
    {
      "inputs": [],
      "name": "OGUNToken",
      "outputs": [
        {
          "internalType": "contract IERC20",
          "name": "",
          "type": "address"
        }
      ],
      "stateMutability": "view",
      "type": "function"
    },
    {
      "inputs": [
        {
          "internalType": "address",
          "name": "",
          "type": "address"
        },
        {
          "internalType": "uint256",
          "name": "",
          "type": "uint256"
        }
      ],
      "name": "auctions",
      "outputs": [
        {
          "internalType": "address",
          "name": "owner",
          "type": "address"
        },
        {
          "internalType": "uint256",
          "name": "reservePrice",
          "type": "uint256"
        },
        {
          "internalType": "bool",
          "name": "isPaymentOGUN",
          "type": "bool"
        },
        {
          "internalType": "uint256",
          "name": "startTime",
          "type": "uint256"
        },
        {
          "internalType": "uint256",
          "name": "endTime",
          "type": "uint256"
        },
        {
          "internalType": "bool",
          "name": "resulted",
          "type": "bool"
        }
      ],
      "stateMutability": "view",
      "type": "function"
    },
    {
      "inputs": [
        {
          "internalType": "address",
          "name": "_nftAddress",
          "type": "address"
        },
        {
          "internalType": "uint256",
          "name": "_tokenId",
          "type": "uint256"
        }
      ],
      "name": "cancelAuction",
      "outputs": [],
      "stateMutability": "nonpayable",
      "type": "function"
    },
    {
      "inputs": [
        {
          "internalType": "address",
          "name": "_nftAddress",
          "type": "address"
        },
        {
          "internalType": "uint256",
          "name": "_tokenId",
          "type": "uint256"
        },
        {
          "internalType": "uint256",
          "name": "_reservePrice",
          "type": "uint256"
        },
        {
          "internalType": "bool",
          "name": "_isPaymentOGUN",
          "type": "bool"
        },
        {
          "internalType": "uint256",
          "name": "_startTimestamp",
          "type": "uint256"
        },
        {
          "internalType": "uint256",
          "name": "_endTimestamp",
          "type": "uint256"
        }
      ],
      "name": "createAuction",
      "outputs": [],
      "stateMutability": "nonpayable",
      "type": "function"
    },
    {
      "inputs": [
        {
          "internalType": "address",
          "name": "_nftAddress",
          "type": "address"
        },
        {
          "internalType": "uint256",
          "name": "_tokenId",
          "type": "uint256"
        }
      ],
      "name": "getAuction",
      "outputs": [
        {
          "internalType": "address",
          "name": "_owner",
          "type": "address"
        },
        {
          "internalType": "uint256",
          "name": "_reservePrice",
          "type": "uint256"
        },
        {
          "internalType": "bool",
          "name": "_isPaymentOGUN",
          "type": "bool"
        },
        {
          "internalType": "uint256",
          "name": "_startTime",
          "type": "uint256"
        },
        {
          "internalType": "uint256",
          "name": "_endTime",
          "type": "uint256"
        },
        {
          "internalType": "bool",
          "name": "_resulted",
          "type": "bool"
        }
      ],
      "stateMutability": "view",
      "type": "function"
    },
    {
      "inputs": [
        {
          "internalType": "address",
          "name": "_nftAddress",
          "type": "address"
        },
        {
          "internalType": "uint256",
          "name": "_tokenId",
          "type": "uint256"
        }
      ],
      "name": "getHighestBidder",
      "outputs": [
        {
          "internalType": "address payable",
          "name": "_bidder",
          "type": "address"
        },
        {
          "internalType": "uint256",
          "name": "_bid",
          "type": "uint256"
        },
        {
          "internalType": "uint256",
          "name": "_lastBidTime",
          "type": "uint256"
        }
      ],
      "stateMutability": "view",
      "type": "function"
    },
    {
      "inputs": [
        {
          "internalType": "address",
          "name": "",
          "type": "address"
        },
        {
          "internalType": "uint256",
          "name": "",
          "type": "uint256"
        }
      ],
      "name": "highestBids",
      "outputs": [
        {
          "internalType": "address payable",
          "name": "bidder",
          "type": "address"
        },
        {
          "internalType": "uint256",
          "name": "bid",
          "type": "uint256"
        },
        {
          "internalType": "uint256",
          "name": "lastBidTime",
          "type": "uint256"
        }
      ],
      "stateMutability": "view",
      "type": "function"
    },
    {
      "inputs": [],
      "name": "isPaused",
      "outputs": [
        {
          "internalType": "bool",
          "name": "",
          "type": "bool"
        }
      ],
      "stateMutability": "view",
      "type": "function"
    },
    {
      "inputs": [],
      "name": "minBidIncrement",
      "outputs": [
        {
          "internalType": "uint256",
          "name": "",
          "type": "uint256"
        }
      ],
      "stateMutability": "view",
      "type": "function"
    },
    {
      "inputs": [],
      "name": "owner",
      "outputs": [
        {
          "internalType": "address",
          "name": "",
          "type": "address"
        }
      ],
      "stateMutability": "view",
      "type": "function"
    },
    {
      "inputs": [
        {
          "internalType": "address",
          "name": "_nftAddress",
          "type": "address"
        },
        {
          "internalType": "uint256",
          "name": "_tokenId",
          "type": "uint256"
        },
        {
          "internalType": "bool",
          "name": "_isPaymentOGUN",
          "type": "bool"
        },
        {
          "internalType": "uint256",
          "name": "_bidAmount",
          "type": "uint256"
        }
      ],
      "name": "placeBid",
      "outputs": [],
      "stateMutability": "payable",
      "type": "function"
    },
    {
      "inputs": [],
      "name": "platformFee",
      "outputs": [
        {
          "internalType": "uint256",
          "name": "",
          "type": "uint256"
        }
      ],
      "stateMutability": "view",
      "type": "function"
    },
    {
      "inputs": [],
      "name": "platformFeeRecipient",
      "outputs": [
        {
          "internalType": "address payable",
          "name": "",
          "type": "address"
        }
      ],
      "stateMutability": "view",
      "type": "function"
    },
    {
      "inputs": [],
      "name": "renounceOwnership",
      "outputs": [],
      "stateMutability": "nonpayable",
      "type": "function"
    },
    {
      "inputs": [
        {
          "internalType": "address",
          "name": "_nftAddress",
          "type": "address"
        },
        {
          "internalType": "uint256",
          "name": "_tokenId",
          "type": "uint256"
        }
      ],
      "name": "resultAuction",
      "outputs": [],
      "stateMutability": "nonpayable",
      "type": "function"
    },
    {
      "inputs": [],
      "name": "toggleIsPaused",
      "outputs": [],
      "stateMutability": "nonpayable",
      "type": "function"
    },
    {
      "inputs": [
        {
          "internalType": "address",
          "name": "newOwner",
          "type": "address"
        }
      ],
      "name": "transferOwnership",
      "outputs": [],
      "stateMutability": "nonpayable",
      "type": "function"
    },
    {
      "inputs": [
        {
          "internalType": "address",
          "name": "_nftAddress",
          "type": "address"
        },
        {
          "internalType": "uint256",
          "name": "_tokenId",
          "type": "uint256"
        },
        {
          "internalType": "uint256",
          "name": "_reservePrice",
          "type": "uint256"
        },
        {
          "internalType": "bool",
          "name": "_isPaymentOGUN",
          "type": "bool"
        },
        {
          "internalType": "uint256",
          "name": "_startTime",
          "type": "uint256"
        },
        {
          "internalType": "uint256",
          "name": "_endTime",
          "type": "uint256"
        }
      ],
      "name": "updateAuction",
      "outputs": [],
      "stateMutability": "nonpayable",
      "type": "function"
    },
    {
      "inputs": [
        {
          "internalType": "uint256",
          "name": "_minBidIncrement",
          "type": "uint256"
        }
      ],
      "name": "updateMinBidIncrement",
      "outputs": [],
      "stateMutability": "nonpayable",
      "type": "function"
    },
    {
      "inputs": [
        {
          "internalType": "uint256",
          "name": "_platformFee",
          "type": "uint256"
        }
      ],
      "name": "updatePlatformFee",
      "outputs": [],
      "stateMutability": "nonpayable",
      "type": "function"
    },
    {
      "inputs": [
        {
          "internalType": "address payable",
          "name": "_platformFeeRecipient",
          "type": "address"
        }
      ],
      "name": "updatePlatformFeeRecipient",
      "outputs": [],
      "stateMutability": "nonpayable",
      "type": "function"
    }
  ],
  "bytecode": "0x60a060405260016004553480156200001657600080fd5b50604051620029db380380620029db83398101604081905262000039916200015a565b6200004433620000f1565b600180556001600160a01b038083166080528316620000c35760405162461bcd60e51b815260206004820152603160248201527f536f756e64636861696e41756374696f6e3a20496e76616c696420506c6174666044820152701bdc9b4811995948149958da5c1a595b9d607a1b606482015260840160405180910390fd5b61ffff1660055550600680546001600160a01b0319166001600160a01b0392909216919091179055620001b4565b600080546001600160a01b038381166001600160a01b0319831681178455604051919092169283917f8be0079c531659141344cd1fd0a4f28419497f9722a3daafe3b4186f6b6457e09190a35050565b6001600160a01b03811681146200015757600080fd5b50565b6000806000606084860312156200017057600080fd5b83516200017d8162000141565b6020850151909350620001908162000141565b604085015190925061ffff81168114620001a957600080fd5b809150509250925092565b6080516127e8620001f36000396000818161044001528181610b5501528181610cdf01528181610df101528181611c5301526120b001526127e86000f3fe60806040526004361061012a5760003560e01c80638da5cb5b116100ab578063b187bd261161006f578063b187bd2614610482578063ca8a0d42146104b3578063eb13554f146104d3578063f2fde38b146104f3578063f5fe7f7114610513578063f9613d7f1461053357600080fd5b80638da5cb5b1461038957806395d546a1146103bb578063a670a9b4146103db578063a770da201461042e578063aa0b59881461046257600080fd5b80635f7063ef116100f25780635f7063ef1461024c5780636b753f361461026c578063715018a6146102e2578063762a66a2146102f7578063859b97fe1461036957600080fd5b8063077c2fbb1461012f578063083759e01461014457806326232a2e14610164578063335b115e1461018d57806344f91c1e146101a3575b600080fd5b61014261013d36600461244c565b610548565b005b34801561015057600080fd5b5061014261015f366004612494565b6106fc565b34801561017057600080fd5b5061017a60055481565b6040519081526020015b60405180910390f35b34801561019957600080fd5b5061017a60045481565b3480156101af57600080fd5b5061020d6101be3660046124ad565b600260208181526000938452604080852090915291835291208054600182015492820154600383015460048401546005909401546001600160a01b03909316949360ff92831693919290911686565b604080516001600160a01b03909716875260208701959095529215159385019390935260608401526080830191909152151560a082015260c001610184565b34801561025857600080fd5b506101426102673660046124ad565b610762565b34801561027857600080fd5b506102bd6102873660046124ad565b60036020908152600092835260408084209091529082529020805460018201546002909201546001600160a01b03909116919083565b604080516001600160a01b039094168452602084019290925290820152606001610184565b3480156102ee57600080fd5b5061014261106d565b34801561030357600080fd5b5061020d6103123660046124ad565b6001600160a01b0391821660009081526002602081815260408084209484529390529190208054600182015492820154600383015460048401546005909401549290951695939460ff918216949093929190911690565b34801561037557600080fd5b506101426103843660046124ad565b6110a3565b34801561039557600080fd5b506000546001600160a01b03165b6040516001600160a01b039091168152602001610184565b3480156103c757600080fd5b506101426103d63660046124d9565b611368565b3480156103e757600080fd5b506102bd6103f63660046124ad565b6001600160a01b0391821660009081526003602090815260408083209383529290522080546001820154600290920154921692909190565b34801561043a57600080fd5b506103a37f000000000000000000000000000000000000000000000000000000000000000081565b34801561046e57600080fd5b5061014261047d366004612494565b61170c565b34801561048e57600080fd5b506006546104a390600160a01b900460ff1681565b6040519015158152602001610184565b3480156104bf57600080fd5b506101426104ce3660046124d9565b61176b565b3480156104df57600080fd5b506006546103a3906001600160a01b031681565b3480156104ff57600080fd5b5061014261050e366004612535565b611903565b34801561051f57600080fd5b5061014261052e366004612535565b61199e565b34801561053f57600080fd5b50610142611a5b565b600260015414156105745760405162461bcd60e51b815260040161056b90612552565b60405180910390fd5b6002600155600654600160a01b900460ff16156105a35760405162461bcd60e51b815260040161056b90612589565b333b156105eb5760405162461bcd60e51b81526020600482015260166024820152751b9bc818dbdb9d1c9858dd1cc81c195c9b5a5d1d195960521b604482015260640161056b565b6001600160a01b038481166000908152600260208181526040808420888552825292839020835160c081018552815490951685526001810154918501919091529081015460ff90811615159284019290925260038101546060840181905260048201546080850152600590910154909116151560a08301524210158015610676575060808101514211155b6106d05760405162461bcd60e51b815260206004820152602560248201527f62696464696e67206f757473696465206f66207468652061756374696f6e2077604482015264696e646f7760d81b606482015260840161056b565b82156106e6576106e1858584611aeb565b6106f1565b6106f1858534611aeb565b505060018055505050565b6000546001600160a01b031633146107265760405162461bcd60e51b815260040161056b906125b2565b60048190556040518181527f489b0441344cbdcb036bee4857de51567f580e9747166f76b581be803ca45fcb906020015b60405180910390a150565b600260015414156107855760405162461bcd60e51b815260040161056b90612552565b600260018181556001600160a01b0384811660008181526020948552604080822087835286528082209282526003865280822087835290955293909320805492810154909290911690336040516331a9108f60e11b8152600481018790526001600160a01b0391821691881690636352211e90602401602060405180830381865afa158015610818573d6000803e3d6000fd5b505050506040513d601f19601f8201168201806040525081019061083c91906125e7565b6001600160a01b0316148015610864575083546001600160a01b0316336001600160a01b0316145b806108775750336001600160a01b038316145b6108cf5760405162461bcd60e51b815260206004820152602360248201527f73656e646572206d757374206265206974656d206f776e6572206f722077696e6044820152623732b960e91b606482015260840161056b565b60008460040154116108f35760405162461bcd60e51b815260040161056b90612604565b6004840154421161093a5760405162461bcd60e51b8152602060048201526011602482015270185d58dd1a5bdb881b9bdd08195b991959607a1b604482015260640161056b565b600584015460ff161561095f5760405162461bcd60e51b815260040161056b9061262f565b6001600160a01b0382166109a45760405162461bcd60e51b815260206004820152600c60248201526b6e6f206f70656e206269647360a01b604482015260640161056b565b83600101548111610a015760405162461bcd60e51b815260206004820152602160248201527f68696768657374206269642069732062656c6f772072657365727665507269636044820152606560f81b606482015260840161056b565b835460405163e985e9c560e01b81526001600160a01b0391821660048201523060248201529087169063e985e9c590604401602060405180830381865afa158015610a50573d6000803e3d6000fd5b505050506040513d601f19601f82011682018060405250810190610a749190612666565b610ab75760405162461bcd60e51b8152602060048201526014602482015273185d58dd1a5bdb881b9bdd08185c1c1c9bdd995960621b604482015260640161056b565b60058401805460ff191660019081179091556001600160a01b0387166000908152600360209081526040808320898452909152812080546001600160a01b031916815580830182905560020181905590850154821115610c3a576000610b34612710610b2e60055486611d2290919063ffffffff16565b90611d35565b600287015490915060ff1615610b8357600654610b7e906001600160a01b037f00000000000000000000000000000000000000000000000000000000000000008116911683611d41565b610c28565b6006546040516000916001600160a01b03169083908381818185875af1925050503d8060008114610bd0576040519150601f19603f3d011682016040523d82523d6000602084013e610bd5565b606091505b5050905080610c265760405162461bcd60e51b815260206004820152601b60248201527f6661696c656420746f2073656e6420706c6174666f726d206665650000000000604482015260640161056b565b505b610c328382611da9565b915050610c3d565b50805b60405163152a902d60e11b8152600481018790526024810182905260009081906001600160a01b038a1690632a55205a906044016040805180830381865afa158015610c8d573d6000803e3d6000fd5b505050506040513d601f19601f82011682018060405250810190610cb19190612683565b90925090506001600160a01b03821615610dce57600287015460ff1615610d0b57610d066001600160a01b037f0000000000000000000000000000000000000000000000000000000000000000168383611d41565b610dc1565b6000826001600160a01b03168260405160006040518083038185875af1925050503d8060008114610d58576040519150601f19603f3d011682016040523d82523d6000602084013e610d5d565b606091505b5050905080610dbf5760405162461bcd60e51b815260206004820152602860248201527f6661696c656420746f2073656e6420746865206f776e657220746865697220726044820152676f79616c7469657360c01b606482015260840161056b565b505b610dcb8382611da9565b92505b8215610ed857600287015460ff1615610e1f578654610e1a906001600160a01b037f00000000000000000000000000000000000000000000000000000000000000008116911685611d41565b610ed8565b86546040516000916001600160a01b03169085908381818185875af1925050503d8060008114610e6b576040519150601f19603f3d011682016040523d82523d6000602084013e610e70565b606091505b5050905080610ed65760405162461bcd60e51b815260206004820152602c60248201527f6661696c656420746f2073656e6420746865206f776e6572207468652061756360448201526b74696f6e2062616c616e636560a01b606482015260840161056b565b505b6040516331a9108f60e11b8152600481018990526001600160a01b038a16906342842e0e908290636352211e90602401602060405180830381865afa158015610f25573d6000803e3d6000fd5b505050506040513d601f19601f82011682018060405250810190610f4991906125e7565b6040516001600160e01b031960e084901b1681526001600160a01b0391821660048201529088166024820152604481018b9052606401600060405180830381600087803b158015610f9957600080fd5b505af1158015610fad573d6000803e3d6000fd5b50508854604080516001600160a01b0392831681526020810189905289831694508c9350918d16917f5a0c36f9e4fbfc64c8006c9c268b8b075c000da8498da5148237875465b28926910160405180910390a45050506001600160a01b03909516600090815260026020818152604080842097845296905294812080546001600160a01b03191681556001808201839055958101805460ff1990811690915560038201839055600482019290925560050180549091169055505050805550565b6000546001600160a01b031633146110975760405162461bcd60e51b815260040161056b906125b2565b6110a16000611db5565b565b600260015414156110c65760405162461bcd60e51b815260040161056b90612552565b600260018181556001600160a01b03848116600081815260208581526040808320888452825291829020825160c0810184528154909516855294850154848201529484015460ff90811615158483015260038501546060850152600480860154608086015260059095015416151560a084015280516331a9108f60e11b815293840186905251919333939192636352211e9260248082019392918290030181865afa158015611179573d6000803e3d6000fd5b505050506040513d601f19601f8201168201806040525081019061119d91906125e7565b6001600160a01b03161480156111c5575080516001600160a01b0316336001600160a01b0316145b6112085760405162461bcd60e51b815260206004820152601460248201527339b2b73232b91036bab9ba1031329037bbb732b960611b604482015260640161056b565b600081608001511161122c5760405162461bcd60e51b815260040161056b90612604565b8060a001511561124e5760405162461bcd60e51b815260040161056b9061262f565b6001600160a01b0383166000908152600360209081526040808320858452909152902060010154156112d65760405162461bcd60e51b815260206004820152602b60248201527f63616e206e6f742063616e63656c2069662061756374696f6e2068617320612060448201526a62696420616c726561647960a81b606482015260840161056b565b6001600160a01b038316600081815260026020818152604080842087855290915280832080546001600160a01b031916815560018101849055918201805460ff19908116909155600383018490556004830184905560059092018054909216909155518492917f018b64b6242d32aa550e95d78985b938d71af5b3f10827b0683f55da1639304891a350506001805550565b6001600160a01b0386811660009081526002602090815260408083208984529091529020805490911633146113df5760405162461bcd60e51b815260206004820152601960248201527f73656e646572206d757374206265206974656d206f776e657200000000000000604482015260640161056b565b600581015460ff16156114045760405162461bcd60e51b815260040161056b9061262f565b60008160040154116114285760405162461bcd60e51b815260040161056b90612604565b6000831161146d5760405162461bcd60e51b8152602060048201526012602482015271696e76616c69642073746172742074696d6560701b604482015260640161056b565b42600382015461147e90603c6126c7565b116114c55760405162461bcd60e51b8152602060048201526017602482015276185d58dd1a5bdb88185b1c9958591e481cdd185c9d1959604a1b604482015260640161056b565b816114d28461012c6126c7565b1061153e5760405162461bcd60e51b815260206004820152603660248201527f73746172742074696d652073686f756c64206265206c657373207468616e20656044820152756e642074696d65202862792035206d696e757465732960501b606482015260840161056b565b8183106115995760405162461bcd60e51b815260206004820152602360248201527f656e642074696d65206d7573742062652067726561746572207468616e207374604482015262185c9d60ea1b606482015260840161056b565b6115a54261012c6126c7565b82116115fe5760405162461bcd60e51b815260206004820152602260248201527f61756374696f6e2073686f756c6420656e642061667465722035206d696e7574604482015261657360f01b606482015260840161056b565b6001600160a01b0387166000908152600360209081526040808320898452909152902060010154156116865760405162461bcd60e51b815260206004820152602b60248201527f63616e206e6f74207570646174652069662061756374696f6e2068617320612060448201526a62696420616c726561647960a81b606482015260840161056b565b600481018290556001810185905560028101805460ff19168515159081179091556003820184905560408051878152602081019290925281018490526060810183905286906001600160a01b038916907f6bcff5757f1a9df62fe92a00740dffad0fb4b82bd7a1ffafcd00cdc2c2d2d5af9060800160405180910390a350505050505050565b6000546001600160a01b031633146117365760405162461bcd60e51b815260040161056b906125b2565b60058190556040518181527f2644fd26359c107ff7991b6dfc36ce902b334ce4e3891bbecacc5922aa620efa90602001610757565b600654600160a01b900460ff16156117955760405162461bcd60e51b815260040161056b90612589565b336040516331a9108f60e11b8152600481018790526001600160a01b0391821691881690636352211e90602401602060405180830381865afa1580156117df573d6000803e3d6000fd5b505050506040513d601f19601f8201168201806040525081019061180391906125e7565b6001600160a01b031614801561189257506001600160a01b03861663e985e9c5336040516001600160e01b031960e084901b1681526001600160a01b039091166004820152306024820152604401602060405180830381865afa15801561186e573d6000803e3d6000fd5b505050506040513d601f19601f820116820180604052508101906118929190612666565b6118ed5760405162461bcd60e51b815260206004820152602660248201527f6e6f74206f776e657220616e64206f7220636f6e7472616374206e6f742061706044820152651c1c9bdd995960d21b606482015260840161056b565b6118fb868686868686611e05565b505050505050565b6000546001600160a01b0316331461192d5760405162461bcd60e51b815260040161056b906125b2565b6001600160a01b0381166119925760405162461bcd60e51b815260206004820152602660248201527f4f776e61626c653a206e6577206f776e657220697320746865207a65726f206160448201526564647265737360d01b606482015260840161056b565b61199b81611db5565b50565b6000546001600160a01b031633146119c85760405162461bcd60e51b815260040161056b906125b2565b6001600160a01b038116611a0d5760405162461bcd60e51b815260206004820152600c60248201526b7a65726f206164647265737360a01b604482015260640161056b565b600680546001600160a01b0319166001600160a01b0383169081179091556040519081527fe57e7c1f36cc83fade34e32351e6eee7eb9da532662b1b5da10c631e8222aca790602001610757565b6000546001600160a01b03163314611a855760405162461bcd60e51b815260040161056b906125b2565b6006805460ff600160a01b808304821615810260ff60a01b1990931692909217928390556040517f9077d36bc00859b5c3f320310707208543dd35092cb0a0fe117d0c6a558b148b93611ae19390049091161515815260200190565b60405180910390a1565b600654600160a01b900460ff1615611b155760405162461bcd60e51b815260040161056b90612589565b6001600160a01b038316600090815260026020908152604080832085845290915290206001810154821015611b9b5760405162461bcd60e51b815260206004820152602660248201527f6269642063616e6e6f74206265206c6f776572207468616e207265736572766560448201526520707269636560d01b606482015260840161056b565b6001600160a01b038416600090815260036020908152604080832086845290915281206004546001820154919291611bef91606491611bda91906126df565b611be491906126fe565b600184015490612053565b905080841015611c415760405162461bcd60e51b815260206004820152601f60248201527f6661696c656420746f206f757462696420686967686573742062696464657200604482015260640161056b565b600283015460ff1615611c8357611c837f00000000000000000000000000000000000000000000000000000000000000006001600160a01b031633308761205f565b81546001600160a01b031615611cbb57815460018301546002850154611cbb92899289926001600160a01b039092169160ff1661209d565b81546001600160a01b0319163390811783556001830185905542600284015560405185815286906001600160a01b038916907f0158f5674dc243762459b88cfc91b10d2d1ef9d40821cca978c2b680aa4446829060200160405180910390a4505050505050565b6000611d2e82846126df565b9392505050565b6000611d2e82846126fe565b6040516001600160a01b038316602482015260448101829052611da490849063a9059cbb60e01b906064015b60408051601f198184030181529190526020810180516001600160e01b03166001600160e01b0319909316929092179091526121d6565b505050565b6000611d2e8284612720565b600080546001600160a01b038381166001600160a01b0319831681178455604051919092169283917f8be0079c531659141344cd1fd0a4f28419497f9722a3daafe3b4186f6b6457e09190a35050565b6001600160a01b038616600090815260026020908152604080832088845290915290206004015415611e735760405162461bcd60e51b8152602060048201526017602482015276185d58dd1a5bdb88185b1c9958591e481cdd185c9d1959604a1b604482015260640161056b565b611e7f8261012c6126c7565b811015611ee95760405162461bcd60e51b815260206004820152603260248201527f656e642074696d65206d7573742062652067726561746572207468616e207374604482015271617274202862792035206d696e757465732960701b606482015260840161056b565b428211611f2d5760405162461bcd60e51b8152602060048201526012602482015271696e76616c69642073746172742074696d6560701b604482015260640161056b565b6040518060c00160405280611f3f3390565b6001600160a01b039081168252602080830188905286151560408085019190915260608085018890526080808601889052600060a09687018190528d861680825260028087528583208f8452875291859020895181546001600160a01b031916981697909717875594880151600187015592870151928501805460ff1990811694151594909417905590860151600385015585015160048401559390920151600590910180549093169015151790915585907f23b5f938d25f967726cff150f2a68c53a5023ce609cf7d4fb399ff0b27e9925e33604080516001600160a01b0390921682526020820189905287151590820152606081018690526080810185905260a00160405180910390a3505050505050565b6000611d2e82846126c7565b6040516001600160a01b03808516602483015283166044820152606481018290526120979085906323b872dd60e01b90608401611d6d565b50505050565b80156120dc576120d76001600160a01b037f0000000000000000000000000000000000000000000000000000000000000000168484611d41565b612181565b6000836001600160a01b03168360405160006040518083038185875af1925050503d8060008114612129576040519150601f19603f3d011682016040523d82523d6000602084013e61212e565b606091505b505090508061217f5760405162461bcd60e51b815260206004820181905260248201527f6661696c656420746f20726566756e642070726576696f757320626964646572604482015260640161056b565b505b826001600160a01b031684866001600160a01b03167f90e20d1ba82eaa07a212267355536f76bc83bf91c81fd41b74283c4082e76952856040516121c791815260200190565b60405180910390a45050505050565b600061222b826040518060400160405280602081526020017f5361666545524332303a206c6f772d6c6576656c2063616c6c206661696c6564815250856001600160a01b03166122a89092919063ffffffff16565b805190915015611da457808060200190518101906122499190612666565b611da45760405162461bcd60e51b815260206004820152602a60248201527f5361666545524332303a204552433230206f7065726174696f6e20646964206e6044820152691bdd081cdd58d8d9595960b21b606482015260840161056b565b60606122b784846000856122bf565b949350505050565b6060824710156123205760405162461bcd60e51b815260206004820152602660248201527f416464726573733a20696e73756666696369656e742062616c616e636520666f6044820152651c8818d85b1b60d21b606482015260840161056b565b6001600160a01b0385163b6123775760405162461bcd60e51b815260206004820152601d60248201527f416464726573733a2063616c6c20746f206e6f6e2d636f6e7472616374000000604482015260640161056b565b600080866001600160a01b031685876040516123939190612763565b60006040518083038185875af1925050503d80600081146123d0576040519150601f19603f3d011682016040523d82523d6000602084013e6123d5565b606091505b50915091506123e58282866123f0565b979650505050505050565b606083156123ff575081611d2e565b82511561240f5782518084602001fd5b8160405162461bcd60e51b815260040161056b919061277f565b6001600160a01b038116811461199b57600080fd5b801515811461199b57600080fd5b6000806000806080858703121561246257600080fd5b843561246d81612429565b93506020850135925060408501356124848161243e565b9396929550929360600135925050565b6000602082840312156124a657600080fd5b5035919050565b600080604083850312156124c057600080fd5b82356124cb81612429565b946020939093013593505050565b60008060008060008060c087890312156124f257600080fd5b86356124fd81612429565b95506020870135945060408701359350606087013561251b8161243e565b9598949750929560808101359460a0909101359350915050565b60006020828403121561254757600080fd5b8135611d2e81612429565b6020808252601f908201527f5265656e7472616e637947756172643a207265656e7472616e742063616c6c00604082015260600190565b6020808252600f908201526e18dbdb9d1c9858dd081c185d5cd959608a1b604082015260600190565b6020808252818101527f4f776e61626c653a2063616c6c6572206973206e6f7420746865206f776e6572604082015260600190565b6000602082840312156125f957600080fd5b8151611d2e81612429565b6020808252601190820152706e6f2061756374696f6e2065786973747360781b604082015260600190565b60208082526018908201527f61756374696f6e20616c726561647920726573756c7465640000000000000000604082015260600190565b60006020828403121561267857600080fd5b8151611d2e8161243e565b6000806040838503121561269657600080fd5b82516126a181612429565b6020939093015192949293505050565b634e487b7160e01b600052601160045260246000fd5b600082198211156126da576126da6126b1565b500190565b60008160001904831182151516156126f9576126f96126b1565b500290565b60008261271b57634e487b7160e01b600052601260045260246000fd5b500490565b600082821015612732576127326126b1565b500390565b60005b8381101561275257818101518382015260200161273a565b838111156120975750506000910152565b60008251612775818460208701612737565b9190910192915050565b602081526000825180602084015261279e816040850160208701612737565b601f01601f1916919091016040019291505056fea2646970667358221220af9d958df2a7b559e3f8a23e4135750b6739da94a633ed0de1efd442a869a99764736f6c634300080a0033",
  "linkReferences": {},
  "deployedLinkReferences": {}
}