{
  "_format": "hh-sol-artifact-1",
  "contractName": "SoundchainAuction",
  "sourceName": "contracts/Auction.sol",
  "abi": [
    {
      "inputs": [
        {
          "internalType": "address payable",
          "name": "_platformFeeRecipient",
          "type": "address"
        },
        {
          "internalType": "uint16",
          "name": "_platformFee",
          "type": "uint16"
        }
      ],
      "stateMutability": "nonpayable",
      "type": "constructor"
    },
    {
      "anonymous": false,
      "inputs": [
        {
          "indexed": true,
          "internalType": "address",
          "name": "nftAddress",
          "type": "address"
        },
        {
          "indexed": true,
          "internalType": "uint256",
          "name": "tokenId",
          "type": "uint256"
        }
      ],
      "name": "AuctionCancelled",
      "type": "event"
    },
    {
      "anonymous": false,
      "inputs": [
        {
          "indexed": true,
          "internalType": "address",
          "name": "nftAddress",
          "type": "address"
        },
        {
          "indexed": true,
          "internalType": "uint256",
          "name": "tokenId",
          "type": "uint256"
        },
        {
          "indexed": false,
          "internalType": "uint256",
          "name": "minimumBid",
          "type": "uint256"
        },
        {
          "indexed": false,
          "internalType": "uint256",
          "name": "reservePrice",
          "type": "uint256"
        },
        {
          "indexed": false,
          "internalType": "uint256",
          "name": "startTimestamp",
          "type": "uint256"
        },
        {
          "indexed": false,
          "internalType": "uint256",
          "name": "endTimestamp",
          "type": "uint256"
        }
      ],
      "name": "AuctionCreated",
      "type": "event"
    },
    {
      "anonymous": false,
      "inputs": [
        {
          "indexed": false,
          "internalType": "address",
          "name": "oldOwner",
          "type": "address"
        },
        {
          "indexed": true,
          "internalType": "address",
          "name": "nftAddress",
          "type": "address"
        },
        {
          "indexed": true,
          "internalType": "uint256",
          "name": "tokenId",
          "type": "uint256"
        },
        {
          "indexed": true,
          "internalType": "address",
          "name": "winner",
          "type": "address"
        },
        {
          "indexed": false,
          "internalType": "uint256",
          "name": "winningBid",
          "type": "uint256"
        }
      ],
      "name": "AuctionResulted",
      "type": "event"
    },
    {
      "anonymous": false,
      "inputs": [
        {
          "indexed": true,
          "internalType": "address",
          "name": "nftAddress",
          "type": "address"
        },
        {
          "indexed": true,
          "internalType": "uint256",
          "name": "tokenId",
          "type": "uint256"
        },
        {
          "indexed": true,
          "internalType": "address",
          "name": "bidder",
          "type": "address"
        },
        {
          "indexed": false,
          "internalType": "uint256",
          "name": "bid",
          "type": "uint256"
        }
      ],
      "name": "BidPlaced",
      "type": "event"
    },
    {
      "anonymous": false,
      "inputs": [
        {
          "indexed": true,
          "internalType": "address",
          "name": "nftAddress",
          "type": "address"
        },
        {
          "indexed": true,
          "internalType": "uint256",
          "name": "tokenId",
          "type": "uint256"
        },
        {
          "indexed": true,
          "internalType": "address",
          "name": "bidder",
          "type": "address"
        },
        {
          "indexed": false,
          "internalType": "uint256",
          "name": "bid",
          "type": "uint256"
        }
      ],
      "name": "BidRefunded",
      "type": "event"
    },
    {
      "anonymous": false,
      "inputs": [
        {
          "indexed": true,
          "internalType": "address",
          "name": "previousOwner",
          "type": "address"
        },
        {
          "indexed": true,
          "internalType": "address",
          "name": "newOwner",
          "type": "address"
        }
      ],
      "name": "OwnershipTransferred",
      "type": "event"
    },
    {
      "anonymous": false,
      "inputs": [
        {
          "indexed": false,
          "internalType": "bool",
          "name": "isPaused",
          "type": "bool"
        }
      ],
      "name": "PauseToggled",
      "type": "event"
    },
    {
      "anonymous": false,
      "inputs": [
        {
          "indexed": true,
          "internalType": "address",
          "name": "nftAddress",
          "type": "address"
        },
        {
          "indexed": true,
          "internalType": "uint256",
          "name": "tokenId",
          "type": "uint256"
        },
        {
          "indexed": false,
          "internalType": "uint256",
          "name": "endTime",
          "type": "uint256"
        }
      ],
      "name": "UpdateAuctionEndTime",
      "type": "event"
    },
    {
      "anonymous": false,
      "inputs": [
        {
          "indexed": true,
          "internalType": "address",
          "name": "nftAddress",
          "type": "address"
        },
        {
          "indexed": true,
          "internalType": "uint256",
          "name": "tokenId",
          "type": "uint256"
        },
        {
          "indexed": false,
          "internalType": "uint256",
          "name": "reservePrice",
          "type": "uint256"
        }
      ],
      "name": "UpdateAuctionReservePrice",
      "type": "event"
    },
    {
      "anonymous": false,
      "inputs": [
        {
          "indexed": true,
          "internalType": "address",
          "name": "nftAddress",
          "type": "address"
        },
        {
          "indexed": true,
          "internalType": "uint256",
          "name": "tokenId",
          "type": "uint256"
        },
        {
          "indexed": false,
          "internalType": "uint256",
          "name": "startTime",
          "type": "uint256"
        }
      ],
      "name": "UpdateAuctionStartTime",
      "type": "event"
    },
    {
      "anonymous": false,
      "inputs": [
        {
          "indexed": false,
          "internalType": "uint256",
          "name": "minBidIncrement",
          "type": "uint256"
        }
      ],
      "name": "UpdateMinBidIncrement",
      "type": "event"
    },
    {
      "anonymous": false,
      "inputs": [
        {
          "indexed": false,
          "internalType": "uint256",
          "name": "platformFee",
          "type": "uint256"
        }
      ],
      "name": "UpdatePlatformFee",
      "type": "event"
    },
    {
      "anonymous": false,
      "inputs": [
        {
          "indexed": false,
          "internalType": "address payable",
          "name": "platformFeeRecipient",
          "type": "address"
        }
      ],
      "name": "UpdatePlatformFeeRecipient",
      "type": "event"
    },
    {
      "inputs": [
        {
          "internalType": "address",
          "name": "",
          "type": "address"
        },
        {
          "internalType": "uint256",
          "name": "",
          "type": "uint256"
        }
      ],
      "name": "auctions",
      "outputs": [
        {
          "internalType": "address",
          "name": "owner",
          "type": "address"
        },
        {
          "internalType": "uint256",
          "name": "minBid",
          "type": "uint256"
        },
        {
          "internalType": "uint256",
          "name": "reservePrice",
          "type": "uint256"
        },
        {
          "internalType": "uint256",
          "name": "startTime",
          "type": "uint256"
        },
        {
          "internalType": "uint256",
          "name": "endTime",
          "type": "uint256"
        },
        {
          "internalType": "bool",
          "name": "resulted",
          "type": "bool"
        }
      ],
      "stateMutability": "view",
      "type": "function"
    },
    {
      "inputs": [
        {
          "internalType": "address",
          "name": "_nftAddress",
          "type": "address"
        },
        {
          "internalType": "uint256",
          "name": "_tokenId",
          "type": "uint256"
        }
      ],
      "name": "cancelAuction",
      "outputs": [],
      "stateMutability": "nonpayable",
      "type": "function"
    },
    {
      "inputs": [
        {
          "internalType": "address",
          "name": "_nftAddress",
          "type": "address"
        },
        {
          "internalType": "uint256",
          "name": "_tokenId",
          "type": "uint256"
        },
        {
          "internalType": "uint256",
          "name": "_reservePrice",
          "type": "uint256"
        },
        {
          "internalType": "uint256",
          "name": "_startTimestamp",
          "type": "uint256"
        },
        {
          "internalType": "bool",
          "name": "minBidReserve",
          "type": "bool"
        },
        {
          "internalType": "uint256",
          "name": "_endTimestamp",
          "type": "uint256"
        }
      ],
      "name": "createAuction",
      "outputs": [],
      "stateMutability": "nonpayable",
      "type": "function"
    },
    {
      "inputs": [
        {
          "internalType": "address",
          "name": "_nftAddress",
          "type": "address"
        },
        {
          "internalType": "uint256",
          "name": "_tokenId",
          "type": "uint256"
        }
      ],
      "name": "getAuction",
      "outputs": [
        {
          "internalType": "address",
          "name": "_owner",
          "type": "address"
        },
        {
          "internalType": "uint256",
          "name": "_reservePrice",
          "type": "uint256"
        },
        {
          "internalType": "uint256",
          "name": "_startTime",
          "type": "uint256"
        },
        {
          "internalType": "uint256",
          "name": "_endTime",
          "type": "uint256"
        },
        {
          "internalType": "bool",
          "name": "_resulted",
          "type": "bool"
        },
        {
          "internalType": "uint256",
          "name": "minBid",
          "type": "uint256"
        }
      ],
      "stateMutability": "view",
      "type": "function"
    },
    {
      "inputs": [
        {
          "internalType": "address",
          "name": "_nftAddress",
          "type": "address"
        },
        {
          "internalType": "uint256",
          "name": "_tokenId",
          "type": "uint256"
        }
      ],
      "name": "getHighestBidder",
      "outputs": [
        {
          "internalType": "address payable",
          "name": "_bidder",
          "type": "address"
        },
        {
          "internalType": "uint256",
          "name": "_bid",
          "type": "uint256"
        },
        {
          "internalType": "uint256",
          "name": "_lastBidTime",
          "type": "uint256"
        }
      ],
      "stateMutability": "view",
      "type": "function"
    },
    {
      "inputs": [
        {
          "internalType": "address",
          "name": "",
          "type": "address"
        },
        {
          "internalType": "uint256",
          "name": "",
          "type": "uint256"
        }
      ],
      "name": "highestBids",
      "outputs": [
        {
          "internalType": "address payable",
          "name": "bidder",
          "type": "address"
        },
        {
          "internalType": "uint256",
          "name": "bid",
          "type": "uint256"
        },
        {
          "internalType": "uint256",
          "name": "lastBidTime",
          "type": "uint256"
        }
      ],
      "stateMutability": "view",
      "type": "function"
    },
    {
      "inputs": [],
      "name": "isPaused",
      "outputs": [
        {
          "internalType": "bool",
          "name": "",
          "type": "bool"
        }
      ],
      "stateMutability": "view",
      "type": "function"
    },
    {
      "inputs": [],
      "name": "minBidIncrement",
      "outputs": [
        {
          "internalType": "uint256",
          "name": "",
          "type": "uint256"
        }
      ],
      "stateMutability": "view",
      "type": "function"
    },
    {
      "inputs": [],
      "name": "owner",
      "outputs": [
        {
          "internalType": "address",
          "name": "",
          "type": "address"
        }
      ],
      "stateMutability": "view",
      "type": "function"
    },
    {
      "inputs": [
        {
          "internalType": "address",
          "name": "_nftAddress",
          "type": "address"
        },
        {
          "internalType": "uint256",
          "name": "_tokenId",
          "type": "uint256"
        }
      ],
      "name": "placeBid",
      "outputs": [],
      "stateMutability": "payable",
      "type": "function"
    },
    {
      "inputs": [],
      "name": "platformFee",
      "outputs": [
        {
          "internalType": "uint256",
          "name": "",
          "type": "uint256"
        }
      ],
      "stateMutability": "view",
      "type": "function"
    },
    {
      "inputs": [],
      "name": "platformFeeRecipient",
      "outputs": [
        {
          "internalType": "address payable",
          "name": "",
          "type": "address"
        }
      ],
      "stateMutability": "view",
      "type": "function"
    },
    {
      "inputs": [],
      "name": "renounceOwnership",
      "outputs": [],
      "stateMutability": "nonpayable",
      "type": "function"
    },
    {
      "inputs": [
        {
          "internalType": "address",
          "name": "_nftAddress",
          "type": "address"
        },
        {
          "internalType": "uint256",
          "name": "_tokenId",
          "type": "uint256"
        }
      ],
      "name": "resultAuction",
      "outputs": [],
      "stateMutability": "nonpayable",
      "type": "function"
    },
    {
      "inputs": [],
      "name": "toggleIsPaused",
      "outputs": [],
      "stateMutability": "nonpayable",
      "type": "function"
    },
    {
      "inputs": [
        {
          "internalType": "address",
          "name": "newOwner",
          "type": "address"
        }
      ],
      "name": "transferOwnership",
      "outputs": [],
      "stateMutability": "nonpayable",
      "type": "function"
    },
    {
      "inputs": [
        {
          "internalType": "address",
          "name": "_nftAddress",
          "type": "address"
        },
        {
          "internalType": "uint256",
          "name": "_tokenId",
          "type": "uint256"
        },
        {
          "internalType": "uint256",
          "name": "_endTimestamp",
          "type": "uint256"
        }
      ],
      "name": "updateAuctionEndTime",
      "outputs": [],
      "stateMutability": "nonpayable",
      "type": "function"
    },
    {
      "inputs": [
        {
          "internalType": "address",
          "name": "_nftAddress",
          "type": "address"
        },
        {
          "internalType": "uint256",
          "name": "_tokenId",
          "type": "uint256"
        },
        {
          "internalType": "uint256",
          "name": "_reservePrice",
          "type": "uint256"
        }
      ],
      "name": "updateAuctionReservePrice",
      "outputs": [],
      "stateMutability": "nonpayable",
      "type": "function"
    },
    {
      "inputs": [
        {
          "internalType": "address",
          "name": "_nftAddress",
          "type": "address"
        },
        {
          "internalType": "uint256",
          "name": "_tokenId",
          "type": "uint256"
        },
        {
          "internalType": "uint256",
          "name": "_startTime",
          "type": "uint256"
        }
      ],
      "name": "updateAuctionStartTime",
      "outputs": [],
      "stateMutability": "nonpayable",
      "type": "function"
    },
    {
      "inputs": [
        {
          "internalType": "uint256",
          "name": "_minBidIncrement",
          "type": "uint256"
        }
      ],
      "name": "updateMinBidIncrement",
      "outputs": [],
      "stateMutability": "nonpayable",
      "type": "function"
    },
    {
      "inputs": [
        {
          "internalType": "uint256",
          "name": "_platformFee",
          "type": "uint256"
        }
      ],
      "name": "updatePlatformFee",
      "outputs": [],
      "stateMutability": "nonpayable",
      "type": "function"
    },
    {
      "inputs": [
        {
          "internalType": "address payable",
          "name": "_platformFeeRecipient",
          "type": "address"
        }
      ],
      "name": "updatePlatformFeeRecipient",
      "outputs": [],
      "stateMutability": "nonpayable",
      "type": "function"
    }
  ],
  "bytecode": "0x6080604052600160045560196005553480156200001b57600080fd5b50604051620025f4380380620025f48339810160408190526200003e916200013f565b6200004933620000ef565b600180556001600160a01b038216620000c25760405162461bcd60e51b815260206004820152603160248201527f536f756e64636861696e41756374696f6e3a20496e76616c696420506c6174666044820152701bdc9b4811995948149958da5c1a595b9d607a1b606482015260840160405180910390fd5b61ffff16600555600680546001600160a01b0319166001600160a01b03929092169190911790556200018f565b600080546001600160a01b038381166001600160a01b0319831681178455604051919092169283917f8be0079c531659141344cd1fd0a4f28419497f9722a3daafe3b4186f6b6457e09190a35050565b600080604083850312156200015357600080fd5b82516001600160a01b03811681146200016b57600080fd5b602084015190925061ffff811681146200018457600080fd5b809150509250929050565b612455806200019f6000396000f3fe6080604052600436106101355760003560e01c80639ad2d9ec116100ab578063cb82de841161006f578063cb82de84146104e1578063d98b9bb514610501578063eb13554f14610514578063f2fde38b14610534578063f5fe7f7114610554578063f9613d7f1461057457600080fd5b80639ad2d9ec146103fd578063a062feb91461041d578063a670a9b41461043d578063aa0b598814610490578063b187bd26146104b057600080fd5b80636b753f36116100fd5780636b753f361461025b5780636c58a5a4146102d1578063715018a6146102f1578063762a66a214610306578063859b97fe146103ab5780638da5cb5b146103cb57600080fd5b8063083759e01461013a57806326232a2e1461015c578063335b115e1461018557806344f91c1e1461019b5780635f7063ef1461023b575b600080fd5b34801561014657600080fd5b5061015a6101553660046120f4565b610589565b005b34801561016857600080fd5b5061017260055481565b6040519081526020015b60405180910390f35b34801561019157600080fd5b5061017260045481565b3480156101a757600080fd5b506102026101b6366004612122565b600260208181526000938452604080852090915291835291208054600182015492820154600383015460048401546005909401546001600160a01b039093169493919290919060ff1686565b604080516001600160a01b03909716875260208701959095529385019290925260608401526080830152151560a082015260c00161017c565b34801561024757600080fd5b5061015a610256366004612122565b6105f8565b34801561026757600080fd5b506102ac610276366004612122565b60036020908152600092835260408084209091529082529020805460018201546002909201546001600160a01b03909116919083565b604080516001600160a01b03909416845260208401929092529082015260600161017c565b3480156102dd57600080fd5b5061015a6102ec36600461214e565b610e3e565b3480156102fd57600080fd5b5061015a611036565b34801561031257600080fd5b50610372610321366004612122565b6001600160a01b039182166000908152600260208181526040808420948452939052919020805491810154600382015460048301546005840154600190940154949095169591949093909260ff1691565b604080516001600160a01b03909716875260208701959095529385019290925260608401521515608083015260a082015260c00161017c565b3480156103b757600080fd5b5061015a6103c6366004612122565b61106c565b3480156103d757600080fd5b506000546001600160a01b03165b6040516001600160a01b03909116815260200161017c565b34801561040957600080fd5b5061015a61041836600461214e565b611208565b34801561042957600080fd5b5061015a61043836600461214e565b6113c6565b34801561044957600080fd5b506102ac610458366004612122565b6001600160a01b0391821660009081526003602090815260408083209383529290522080546001820154600290920154921692909190565b34801561049c57600080fd5b5061015a6104ab3660046120f4565b6114ca565b3480156104bc57600080fd5b506006546104d190600160a01b900460ff1681565b604051901515815260200161017c565b3480156104ed57600080fd5b5061015a6104fc366004612191565b611529565b61015a61050f366004612122565b6116c1565b34801561052057600080fd5b506006546103e5906001600160a01b031681565b34801561054057600080fd5b5061015a61054f3660046121ef565b6117fc565b34801561056057600080fd5b5061015a61056f3660046121ef565b611897565b34801561058057600080fd5b5061015a611954565b6000546001600160a01b031633146105bc5760405162461bcd60e51b81526004016105b39061220c565b60405180910390fd5b60048190556040518181527f489b0441344cbdcb036bee4857de51567f580e9747166f76b581be803ca45fcb906020015b60405180910390a150565b6002600154141561061b5760405162461bcd60e51b81526004016105b390612241565b600260018181556001600160a01b0384811660008181526020948552604080822087835286528082209282526003865280822087835290955293909320805492810154909290911690336040516331a9108f60e11b8152600481018790526001600160a01b0391821691881690636352211e90602401602060405180830381865afa1580156106ae573d6000803e3d6000fd5b505050506040513d601f19601f820116820180604052508101906106d29190612278565b6001600160a01b03161480156106fa575083546001600160a01b0316336001600160a01b0316145b8061070d5750336001600160a01b038316145b6107655760405162461bcd60e51b815260206004820152602360248201527f73656e646572206d757374206265206974656d206f776e6572206f722077696e6044820152623732b960e91b60648201526084016105b3565b60008460040154116107895760405162461bcd60e51b81526004016105b390612295565b600484015442116107d05760405162461bcd60e51b8152602060048201526011602482015270185d58dd1a5bdb881b9bdd08195b991959607a1b60448201526064016105b3565b600584015460ff16156107f55760405162461bcd60e51b81526004016105b3906122c0565b6001600160a01b03821661083a5760405162461bcd60e51b815260206004820152600c60248201526b6e6f206f70656e206269647360a01b60448201526064016105b3565b83600201548110156108985760405162461bcd60e51b815260206004820152602160248201527f68696768657374206269642069732062656c6f772072657365727665507269636044820152606560f81b60648201526084016105b3565b835460405163e985e9c560e01b81526001600160a01b0391821660048201523060248201529087169063e985e9c590604401602060405180830381865afa1580156108e7573d6000803e3d6000fd5b505050506040513d601f19601f8201168201806040525081019061090b91906122f7565b61094e5760405162461bcd60e51b8152602060048201526014602482015273185d58dd1a5bdb881b9bdd08185c1c1c9bdd995960621b60448201526064016105b3565b60058401805460ff191660019081179091556001600160a01b0387166000908152600360209081526040808320898452909152812080546001600160a01b0319168155918201819055600291820181905590850154821115610aa45760006109c38660020154846119e490919063ffffffff16565b905060006109e86103e86109e2600554856119f790919063ffffffff16565b90611a03565b6006546040519192506000916001600160a01b039091169083908381818185875af1925050503d8060008114610a3a576040519150601f19603f3d011682016040523d82523d6000602084013e610a3f565b606091505b5050905080610a905760405162461bcd60e51b815260206004820152601b60248201527f6661696c656420746f2073656e6420706c6174666f726d20666565000000000060448201526064016105b3565b610a9a85836119e4565b9350505050610aa7565b50805b60405163152a902d60e11b8152600481018790526024810182905260009081906001600160a01b038a1690632a55205a906044016040805180830381865afa158015610af7573d6000803e3d6000fd5b505050506040513d601f19601f82011682018060405250810190610b1b9190612314565b90925090506001600160a01b03821615610bf1576000826001600160a01b03168260405160006040518083038185875af1925050503d8060008114610b7c576040519150601f19603f3d011682016040523d82523d6000602084013e610b81565b606091505b5050905080610be35760405162461bcd60e51b815260206004820152602860248201527f6661696c656420746f2073656e6420746865206f776e657220746865697220726044820152676f79616c7469657360c01b60648201526084016105b3565b610bed84836119e4565b9350505b8215610cb05786546040516000916001600160a01b03169085908381818185875af1925050503d8060008114610c43576040519150601f19603f3d011682016040523d82523d6000602084013e610c48565b606091505b5050905080610cae5760405162461bcd60e51b815260206004820152602c60248201527f6661696c656420746f2073656e6420746865206f776e6572207468652061756360448201526b74696f6e2062616c616e636560a01b60648201526084016105b3565b505b6040516331a9108f60e11b8152600481018990526001600160a01b038a16906342842e0e908290636352211e90602401602060405180830381865afa158015610cfd573d6000803e3d6000fd5b505050506040513d601f19601f82011682018060405250810190610d219190612278565b6040516001600160e01b031960e084901b1681526001600160a01b0391821660048201529088166024820152604481018b9052606401600060405180830381600087803b158015610d7157600080fd5b505af1158015610d85573d6000803e3d6000fd5b50508854604080516001600160a01b0392831681526020810189905289831694508c9350918d16917f5a0c36f9e4fbfc64c8006c9c268b8b075c000da8498da5148237875465b28926910160405180910390a45050506001600160a01b03909516600090815260026020818152604080842097845296905294812080546001600160a01b03191681556001808201839055958101829055600381018290556004810191909155600501805460ff19169055505050805550565b6001600160a01b038381166000908152600260209081526040808320868452909152902080549091163314610e855760405162461bcd60e51b81526004016105b390612342565b60008211610eca5760405162461bcd60e51b8152602060048201526012602482015271696e76616c69642073746172742074696d6560701b60448201526064016105b3565b426003820154610edb90603c612386565b11610f225760405162461bcd60e51b8152602060048201526017602482015276185d58dd1a5bdb88185b1c9958591e481cdd185c9d1959604a1b60448201526064016105b3565b6004810154610f338361012c612386565b10610f9f5760405162461bcd60e51b815260206004820152603660248201527f73746172742074696d652073686f756c64206265206c657373207468616e20656044820152756e642074696d65202862792035206d696e757465732960501b60648201526084016105b3565b600581015460ff1615610fc45760405162461bcd60e51b81526004016105b3906122c0565b6000816004015411610fe85760405162461bcd60e51b81526004016105b390612295565b6003810182905560405182815283906001600160a01b038616907ff123182d1bfce603eb20a2f74cce94af6542f353a4c2a8d5cfadf41822b32b38906020015b60405180910390a350505050565b6000546001600160a01b031633146110605760405162461bcd60e51b81526004016105b39061220c565b61106a6000611a0f565b565b6002600154141561108f5760405162461bcd60e51b81526004016105b390612241565b600260018181556001600160a01b03848116600090815260208481526040808320878452825291829020825160c081018452815490941684529384015490830152928201549281019290925260038101546060830152600481015460808301526005015460ff16151560a0820152336040516331a9108f60e11b8152600481018490526001600160a01b0391821691851690636352211e90602401602060405180830381865afa158015611147573d6000803e3d6000fd5b505050506040513d601f19601f8201168201806040525081019061116b9190612278565b6001600160a01b0316148015611193575080516001600160a01b0316336001600160a01b0316145b6111af5760405162461bcd60e51b81526004016105b390612342565b60008160800151116111d35760405162461bcd60e51b81526004016105b390612295565b8060a00151156111f55760405162461bcd60e51b81526004016105b3906122c0565b6111ff8383611a5f565b50506001805550565b6001600160a01b03838116600090815260026020908152604080832086845290915290208054909116331461124f5760405162461bcd60e51b81526004016105b390612342565b6004810154421061129a5760405162461bcd60e51b8152602060048201526015602482015274185d58dd1a5bdb88185b1c9958591e48195b991959605a1b60448201526064016105b3565b60008160040154116112be5760405162461bcd60e51b81526004016105b390612295565b8181600301541061131d5760405162461bcd60e51b815260206004820152602360248201527f656e642074696d65206d7573742062652067726561746572207468616e207374604482015262185c9d60ea1b60648201526084016105b3565b6113294261012c612386565b82116113825760405162461bcd60e51b815260206004820152602260248201527f61756374696f6e2073686f756c6420656e642061667465722035206d696e7574604482015261657360f01b60648201526084016105b3565b6004810182905560405182815283906001600160a01b038616907fd8aaad775c4c9b21112b5cb22ab4618c74936d873850fbd6f2e691701119ffe190602001611028565b6001600160a01b03838116600090815260026020908152604080832086845290915290208054909116331461143d5760405162461bcd60e51b815260206004820152601960248201527f73656e646572206d757374206265206974656d206f776e65720000000000000060448201526064016105b3565b600581015460ff16156114625760405162461bcd60e51b81526004016105b3906122c0565b60008160040154116114865760405162461bcd60e51b81526004016105b390612295565b6002810182905560405182815283906001600160a01b038616907f7987fb10b75b4faae7a7dd86931856b449b99b3e9a5761da49ffd2d1a6bf7f0990602001611028565b6000546001600160a01b031633146114f45760405162461bcd60e51b81526004016105b39061220c565b60058190556040518181527f2644fd26359c107ff7991b6dfc36ce902b334ce4e3891bbecacc5922aa620efa906020016105ed565b600654600160a01b900460ff16156115535760405162461bcd60e51b81526004016105b39061239e565b336040516331a9108f60e11b8152600481018790526001600160a01b0391821691881690636352211e90602401602060405180830381865afa15801561159d573d6000803e3d6000fd5b505050506040513d601f19601f820116820180604052508101906115c19190612278565b6001600160a01b031614801561165057506001600160a01b03861663e985e9c5336040516001600160e01b031960e084901b1681526001600160a01b039091166004820152306024820152604401602060405180830381865afa15801561162c573d6000803e3d6000fd5b505050506040513d601f19601f8201168201806040525081019061165091906122f7565b6116ab5760405162461bcd60e51b815260206004820152602660248201527f6e6f74206f776e657220616e64206f7220636f6e7472616374206e6f742061706044820152651c1c9bdd995960d21b60648201526084016105b3565b6116b9868686868686611b6e565b505050505050565b600260015414156116e45760405162461bcd60e51b81526004016105b390612241565b6002600155600654600160a01b900460ff16156117135760405162461bcd60e51b81526004016105b39061239e565b6001600160a01b038281166000908152600260208181526040808420868552825292839020835160c0810185528154909516855260018101549185019190915290810154918301919091526003810154606083018190526004820154608084015260059091015460ff16151560a08301524210158015611797575060808101514211155b6117f15760405162461bcd60e51b815260206004820152602560248201527f62696464696e67206f757473696465206f66207468652061756374696f6e2077604482015264696e646f7760d81b60648201526084016105b3565b6111ff838334611df5565b6000546001600160a01b031633146118265760405162461bcd60e51b81526004016105b39061220c565b6001600160a01b03811661188b5760405162461bcd60e51b815260206004820152602660248201527f4f776e61626c653a206e6577206f776e657220697320746865207a65726f206160448201526564647265737360d01b60648201526084016105b3565b61189481611a0f565b50565b6000546001600160a01b031633146118c15760405162461bcd60e51b81526004016105b39061220c565b6001600160a01b0381166119065760405162461bcd60e51b815260206004820152600c60248201526b7a65726f206164647265737360a01b60448201526064016105b3565b600680546001600160a01b0319166001600160a01b0383169081179091556040519081527fe57e7c1f36cc83fade34e32351e6eee7eb9da532662b1b5da10c631e8222aca7906020016105ed565b6000546001600160a01b0316331461197e5760405162461bcd60e51b81526004016105b39061220c565b6006805460ff600160a01b808304821615810260ff60a01b1990931692909217928390556040517f9077d36bc00859b5c3f320310707208543dd35092cb0a0fe117d0c6a558b148b936119da9390049091161515815260200190565b60405180910390a1565b60006119f082846123c7565b9392505050565b60006119f082846123de565b60006119f082846123fd565b600080546001600160a01b038381166001600160a01b0319831681178455604051919092169283917f8be0079c531659141344cd1fd0a4f28419497f9722a3daafe3b4186f6b6457e09190a35050565b6001600160a01b0380831660009081526003602090815260408083208584529091529020805490911615611ae85780546001820154611aab91859185916001600160a01b031690611ff0565b6001600160a01b0383166000908152600360209081526040808320858452909152812080546001600160a01b031916815560018101829055600201555b6001600160a01b038316600081815260026020818152604080842087855290915280832080546001600160a01b03191681556001810184905591820183905560038201839055600482018390556005909101805460ff19169055518492917f018b64b6242d32aa550e95d78985b938d71af5b3f10827b0683f55da1639304891a3505050565b6001600160a01b038616600090815260026020908152604080832088845290915290206004015415611bdc5760405162461bcd60e51b8152602060048201526017602482015276185d58dd1a5bdb88185b1c9958591e481cdd185c9d1959604a1b60448201526064016105b3565b611be88361012c612386565b811015611c525760405162461bcd60e51b815260206004820152603260248201527f656e642074696d65206d7573742062652067726561746572207468616e207374604482015271617274202862792035206d696e757465732960701b60648201526084016105b3565b428311611c965760405162461bcd60e51b8152602060048201526012602482015271696e76616c69642073746172742074696d6560701b60448201526064016105b3565b60008215611ca15750835b6040518060c00160405280611cb33390565b6001600160a01b031681526020018281526020018681526020018581526020018381526020016000151581525060026000896001600160a01b03166001600160a01b03168152602001908152602001600020600088815260200190815260200160002060008201518160000160006101000a8154816001600160a01b0302191690836001600160a01b031602179055506020820151816001015560408201518160020155606082015181600301556080820151816004015560a08201518160050160006101000a81548160ff02191690831515021790555090505085876001600160a01b03167fabdd2430f9e10eb5db384c1218c42f980dd5fcda760a680a0d95ec506f0963cb83888887604051611de4949392919093845260208401929092526040830152606082015260800190565b60405180910390a350505050505050565b600654600160a01b900460ff1615611e1f5760405162461bcd60e51b81526004016105b39061239e565b6001600160a01b03831660009081526002602081815260408084208685529091529091209081015460018201541415611eb5578060020154821015611eb55760405162461bcd60e51b815260206004820152602660248201527f6269642063616e6e6f74206265206c6f776572207468616e207265736572766560448201526520707269636560d01b60648201526084016105b3565b6001600160a01b038416600090815260036020908152604080832086845290915281206004546001820154919291611f0991606491611ef491906123de565b611efe91906123fd565b6001840154906120e8565b905080841015611f5b5760405162461bcd60e51b815260206004820152601f60248201527f6661696c656420746f206f75746269642068696768657374206269646465720060448201526064016105b3565b81546001600160a01b031615611f895781546001830154611f8991889188916001600160a01b031690611ff0565b81546001600160a01b0319163390811783556001830185905542600284015560405185815286906001600160a01b038916907f0158f5674dc243762459b88cfc91b10d2d1ef9d40821cca978c2b680aa4446829060200160405180910390a4505050505050565b6000826001600160a01b03168260405160006040518083038185875af1925050503d806000811461203d576040519150601f19603f3d011682016040523d82523d6000602084013e612042565b606091505b50509050806120935760405162461bcd60e51b815260206004820181905260248201527f6661696c656420746f20726566756e642070726576696f75732062696464657260448201526064016105b3565b826001600160a01b031684866001600160a01b03167f90e20d1ba82eaa07a212267355536f76bc83bf91c81fd41b74283c4082e76952856040516120d991815260200190565b60405180910390a45050505050565b60006119f08284612386565b60006020828403121561210657600080fd5b5035919050565b6001600160a01b038116811461189457600080fd5b6000806040838503121561213557600080fd5b82356121408161210d565b946020939093013593505050565b60008060006060848603121561216357600080fd5b833561216e8161210d565b95602085013595506040909401359392505050565b801515811461189457600080fd5b60008060008060008060c087890312156121aa57600080fd5b86356121b58161210d565b955060208701359450604087013593506060870135925060808701356121da81612183565b8092505060a087013590509295509295509295565b60006020828403121561220157600080fd5b81356119f08161210d565b6020808252818101527f4f776e61626c653a2063616c6c6572206973206e6f7420746865206f776e6572604082015260600190565b6020808252601f908201527f5265656e7472616e637947756172643a207265656e7472616e742063616c6c00604082015260600190565b60006020828403121561228a57600080fd5b81516119f08161210d565b6020808252601190820152706e6f2061756374696f6e2065786973747360781b604082015260600190565b60208082526018908201527f61756374696f6e20616c726561647920726573756c7465640000000000000000604082015260600190565b60006020828403121561230957600080fd5b81516119f081612183565b6000806040838503121561232757600080fd5b82516123328161210d565b6020939093015192949293505050565b60208082526014908201527339b2b73232b91036bab9ba1031329037bbb732b960611b604082015260600190565b634e487b7160e01b600052601160045260246000fd5b6000821982111561239957612399612370565b500190565b6020808252600f908201526e18dbdb9d1c9858dd081c185d5cd959608a1b604082015260600190565b6000828210156123d9576123d9612370565b500390565b60008160001904831182151516156123f8576123f8612370565b500290565b60008261241a57634e487b7160e01b600052601260045260246000fd5b50049056fea2646970667358221220ff01fca0b39273e861ac79e05f5cb81327e488b99a8823e2c4514058e0315a0964736f6c634300080a0033",
  "linkReferences": {},
  "deployedLinkReferences": {}
}