{
  "_format": "hh-sol-artifact-1",
  "contractName": "SoundchainAuction",
  "sourceName": "contracts/Auction.sol",
  "abi": [
    {
      "inputs": [
        {
          "internalType": "address payable",
          "name": "_platformFeeRecipient",
          "type": "address"
        },
        {
          "internalType": "uint16",
          "name": "_platformFee",
          "type": "uint16"
        }
      ],
      "stateMutability": "nonpayable",
      "type": "constructor"
    },
    {
      "anonymous": false,
      "inputs": [
        {
          "indexed": true,
          "internalType": "address",
          "name": "nftAddress",
          "type": "address"
        },
        {
          "indexed": true,
          "internalType": "uint256",
          "name": "tokenId",
          "type": "uint256"
        }
      ],
      "name": "AuctionCancelled",
      "type": "event"
    },
    {
      "anonymous": false,
      "inputs": [
        {
          "indexed": true,
          "internalType": "address",
          "name": "nftAddress",
          "type": "address"
        },
        {
          "indexed": true,
          "internalType": "uint256",
          "name": "tokenId",
          "type": "uint256"
        },
        {
          "indexed": false,
          "internalType": "address",
          "name": "owner",
          "type": "address"
        },
        {
          "indexed": false,
          "internalType": "uint256",
          "name": "reservePrice",
          "type": "uint256"
        },
        {
          "indexed": false,
          "internalType": "uint256",
          "name": "startTimestamp",
          "type": "uint256"
        },
        {
          "indexed": false,
          "internalType": "uint256",
          "name": "endTimestamp",
          "type": "uint256"
        }
      ],
      "name": "AuctionCreated",
      "type": "event"
    },
    {
      "anonymous": false,
      "inputs": [
        {
          "indexed": false,
          "internalType": "address",
          "name": "oldOwner",
          "type": "address"
        },
        {
          "indexed": true,
          "internalType": "address",
          "name": "nftAddress",
          "type": "address"
        },
        {
          "indexed": true,
          "internalType": "uint256",
          "name": "tokenId",
          "type": "uint256"
        },
        {
          "indexed": true,
          "internalType": "address",
          "name": "winner",
          "type": "address"
        },
        {
          "indexed": false,
          "internalType": "uint256",
          "name": "winningBid",
          "type": "uint256"
        }
      ],
      "name": "AuctionResulted",
      "type": "event"
    },
    {
      "anonymous": false,
      "inputs": [
        {
          "indexed": true,
          "internalType": "address",
          "name": "nftAddress",
          "type": "address"
        },
        {
          "indexed": true,
          "internalType": "uint256",
          "name": "tokenId",
          "type": "uint256"
        },
        {
          "indexed": true,
          "internalType": "address",
          "name": "bidder",
          "type": "address"
        },
        {
          "indexed": false,
          "internalType": "uint256",
          "name": "bid",
          "type": "uint256"
        }
      ],
      "name": "BidPlaced",
      "type": "event"
    },
    {
      "anonymous": false,
      "inputs": [
        {
          "indexed": true,
          "internalType": "address",
          "name": "nftAddress",
          "type": "address"
        },
        {
          "indexed": true,
          "internalType": "uint256",
          "name": "tokenId",
          "type": "uint256"
        },
        {
          "indexed": true,
          "internalType": "address",
          "name": "bidder",
          "type": "address"
        },
        {
          "indexed": false,
          "internalType": "uint256",
          "name": "bid",
          "type": "uint256"
        }
      ],
      "name": "BidRefunded",
      "type": "event"
    },
    {
      "anonymous": false,
      "inputs": [
        {
          "indexed": true,
          "internalType": "address",
          "name": "previousOwner",
          "type": "address"
        },
        {
          "indexed": true,
          "internalType": "address",
          "name": "newOwner",
          "type": "address"
        }
      ],
      "name": "OwnershipTransferred",
      "type": "event"
    },
    {
      "anonymous": false,
      "inputs": [
        {
          "indexed": false,
          "internalType": "bool",
          "name": "isPaused",
          "type": "bool"
        }
      ],
      "name": "PauseToggled",
      "type": "event"
    },
    {
      "anonymous": false,
      "inputs": [
        {
          "indexed": true,
          "internalType": "address",
          "name": "nftAddress",
          "type": "address"
        },
        {
          "indexed": true,
          "internalType": "uint256",
          "name": "tokenId",
          "type": "uint256"
        },
        {
          "indexed": false,
          "internalType": "uint256",
          "name": "endTime",
          "type": "uint256"
        }
      ],
      "name": "UpdateAuctionEndTime",
      "type": "event"
    },
    {
      "anonymous": false,
      "inputs": [
        {
          "indexed": true,
          "internalType": "address",
          "name": "nftAddress",
          "type": "address"
        },
        {
          "indexed": true,
          "internalType": "uint256",
          "name": "tokenId",
          "type": "uint256"
        },
        {
          "indexed": false,
          "internalType": "uint256",
          "name": "reservePrice",
          "type": "uint256"
        }
      ],
      "name": "UpdateAuctionReservePrice",
      "type": "event"
    },
    {
      "anonymous": false,
      "inputs": [
        {
          "indexed": true,
          "internalType": "address",
          "name": "nftAddress",
          "type": "address"
        },
        {
          "indexed": true,
          "internalType": "uint256",
          "name": "tokenId",
          "type": "uint256"
        },
        {
          "indexed": false,
          "internalType": "uint256",
          "name": "startTime",
          "type": "uint256"
        }
      ],
      "name": "UpdateAuctionStartTime",
      "type": "event"
    },
    {
      "anonymous": false,
      "inputs": [
        {
          "indexed": false,
          "internalType": "uint256",
          "name": "minBidIncrement",
          "type": "uint256"
        }
      ],
      "name": "UpdateMinBidIncrement",
      "type": "event"
    },
    {
      "anonymous": false,
      "inputs": [
        {
          "indexed": false,
          "internalType": "uint256",
          "name": "platformFee",
          "type": "uint256"
        }
      ],
      "name": "UpdatePlatformFee",
      "type": "event"
    },
    {
      "anonymous": false,
      "inputs": [
        {
          "indexed": false,
          "internalType": "address payable",
          "name": "platformFeeRecipient",
          "type": "address"
        }
      ],
      "name": "UpdatePlatformFeeRecipient",
      "type": "event"
    },
    {
      "inputs": [
        {
          "internalType": "address",
          "name": "",
          "type": "address"
        },
        {
          "internalType": "uint256",
          "name": "",
          "type": "uint256"
        }
      ],
      "name": "auctions",
      "outputs": [
        {
          "internalType": "address",
          "name": "owner",
          "type": "address"
        },
        {
          "internalType": "uint256",
          "name": "reservePrice",
          "type": "uint256"
        },
        {
          "internalType": "uint256",
          "name": "startTime",
          "type": "uint256"
        },
        {
          "internalType": "uint256",
          "name": "endTime",
          "type": "uint256"
        },
        {
          "internalType": "bool",
          "name": "resulted",
          "type": "bool"
        }
      ],
      "stateMutability": "view",
      "type": "function"
    },
    {
      "inputs": [
        {
          "internalType": "address",
          "name": "_nftAddress",
          "type": "address"
        },
        {
          "internalType": "uint256",
          "name": "_tokenId",
          "type": "uint256"
        }
      ],
      "name": "cancelAuction",
      "outputs": [],
      "stateMutability": "nonpayable",
      "type": "function"
    },
    {
      "inputs": [
        {
          "internalType": "address",
          "name": "_nftAddress",
          "type": "address"
        },
        {
          "internalType": "uint256",
          "name": "_tokenId",
          "type": "uint256"
        },
        {
          "internalType": "uint256",
          "name": "_reservePrice",
          "type": "uint256"
        },
        {
          "internalType": "uint256",
          "name": "_startTimestamp",
          "type": "uint256"
        },
        {
          "internalType": "uint256",
          "name": "_endTimestamp",
          "type": "uint256"
        }
      ],
      "name": "createAuction",
      "outputs": [],
      "stateMutability": "nonpayable",
      "type": "function"
    },
    {
      "inputs": [
        {
          "internalType": "address",
          "name": "_nftAddress",
          "type": "address"
        },
        {
          "internalType": "uint256",
          "name": "_tokenId",
          "type": "uint256"
        }
      ],
      "name": "getAuction",
      "outputs": [
        {
          "internalType": "address",
          "name": "_owner",
          "type": "address"
        },
        {
          "internalType": "uint256",
          "name": "_reservePrice",
          "type": "uint256"
        },
        {
          "internalType": "uint256",
          "name": "_startTime",
          "type": "uint256"
        },
        {
          "internalType": "uint256",
          "name": "_endTime",
          "type": "uint256"
        },
        {
          "internalType": "bool",
          "name": "_resulted",
          "type": "bool"
        }
      ],
      "stateMutability": "view",
      "type": "function"
    },
    {
      "inputs": [
        {
          "internalType": "address",
          "name": "_nftAddress",
          "type": "address"
        },
        {
          "internalType": "uint256",
          "name": "_tokenId",
          "type": "uint256"
        }
      ],
      "name": "getHighestBidder",
      "outputs": [
        {
          "internalType": "address payable",
          "name": "_bidder",
          "type": "address"
        },
        {
          "internalType": "uint256",
          "name": "_bid",
          "type": "uint256"
        },
        {
          "internalType": "uint256",
          "name": "_lastBidTime",
          "type": "uint256"
        }
      ],
      "stateMutability": "view",
      "type": "function"
    },
    {
      "inputs": [
        {
          "internalType": "address",
          "name": "",
          "type": "address"
        },
        {
          "internalType": "uint256",
          "name": "",
          "type": "uint256"
        }
      ],
      "name": "highestBids",
      "outputs": [
        {
          "internalType": "address payable",
          "name": "bidder",
          "type": "address"
        },
        {
          "internalType": "uint256",
          "name": "bid",
          "type": "uint256"
        },
        {
          "internalType": "uint256",
          "name": "lastBidTime",
          "type": "uint256"
        }
      ],
      "stateMutability": "view",
      "type": "function"
    },
    {
      "inputs": [],
      "name": "isPaused",
      "outputs": [
        {
          "internalType": "bool",
          "name": "",
          "type": "bool"
        }
      ],
      "stateMutability": "view",
      "type": "function"
    },
    {
      "inputs": [],
      "name": "minBidIncrement",
      "outputs": [
        {
          "internalType": "uint256",
          "name": "",
          "type": "uint256"
        }
      ],
      "stateMutability": "view",
      "type": "function"
    },
    {
      "inputs": [],
      "name": "owner",
      "outputs": [
        {
          "internalType": "address",
          "name": "",
          "type": "address"
        }
      ],
      "stateMutability": "view",
      "type": "function"
    },
    {
      "inputs": [
        {
          "internalType": "address",
          "name": "_nftAddress",
          "type": "address"
        },
        {
          "internalType": "uint256",
          "name": "_tokenId",
          "type": "uint256"
        }
      ],
      "name": "placeBid",
      "outputs": [],
      "stateMutability": "payable",
      "type": "function"
    },
    {
      "inputs": [],
      "name": "platformFee",
      "outputs": [
        {
          "internalType": "uint256",
          "name": "",
          "type": "uint256"
        }
      ],
      "stateMutability": "view",
      "type": "function"
    },
    {
      "inputs": [],
      "name": "platformFeeRecipient",
      "outputs": [
        {
          "internalType": "address payable",
          "name": "",
          "type": "address"
        }
      ],
      "stateMutability": "view",
      "type": "function"
    },
    {
      "inputs": [],
      "name": "renounceOwnership",
      "outputs": [],
      "stateMutability": "nonpayable",
      "type": "function"
    },
    {
      "inputs": [
        {
          "internalType": "address",
          "name": "_nftAddress",
          "type": "address"
        },
        {
          "internalType": "uint256",
          "name": "_tokenId",
          "type": "uint256"
        }
      ],
      "name": "resultAuction",
      "outputs": [],
      "stateMutability": "nonpayable",
      "type": "function"
    },
    {
      "inputs": [],
      "name": "toggleIsPaused",
      "outputs": [],
      "stateMutability": "nonpayable",
      "type": "function"
    },
    {
      "inputs": [
        {
          "internalType": "address",
          "name": "newOwner",
          "type": "address"
        }
      ],
      "name": "transferOwnership",
      "outputs": [],
      "stateMutability": "nonpayable",
      "type": "function"
    },
    {
      "inputs": [
        {
          "internalType": "address",
          "name": "_nftAddress",
          "type": "address"
        },
        {
          "internalType": "uint256",
          "name": "_tokenId",
          "type": "uint256"
        },
        {
          "internalType": "uint256",
          "name": "_endTimestamp",
          "type": "uint256"
        }
      ],
      "name": "updateAuctionEndTime",
      "outputs": [],
      "stateMutability": "nonpayable",
      "type": "function"
    },
    {
      "inputs": [
        {
          "internalType": "address",
          "name": "_nftAddress",
          "type": "address"
        },
        {
          "internalType": "uint256",
          "name": "_tokenId",
          "type": "uint256"
        },
        {
          "internalType": "uint256",
          "name": "_reservePrice",
          "type": "uint256"
        }
      ],
      "name": "updateAuctionReservePrice",
      "outputs": [],
      "stateMutability": "nonpayable",
      "type": "function"
    },
    {
      "inputs": [
        {
          "internalType": "address",
          "name": "_nftAddress",
          "type": "address"
        },
        {
          "internalType": "uint256",
          "name": "_tokenId",
          "type": "uint256"
        },
        {
          "internalType": "uint256",
          "name": "_startTime",
          "type": "uint256"
        }
      ],
      "name": "updateAuctionStartTime",
      "outputs": [],
      "stateMutability": "nonpayable",
      "type": "function"
    },
    {
      "inputs": [
        {
          "internalType": "uint256",
          "name": "_minBidIncrement",
          "type": "uint256"
        }
      ],
      "name": "updateMinBidIncrement",
      "outputs": [],
      "stateMutability": "nonpayable",
      "type": "function"
    },
    {
      "inputs": [
        {
          "internalType": "uint256",
          "name": "_platformFee",
          "type": "uint256"
        }
      ],
      "name": "updatePlatformFee",
      "outputs": [],
      "stateMutability": "nonpayable",
      "type": "function"
    },
    {
      "inputs": [
        {
          "internalType": "address payable",
          "name": "_platformFeeRecipient",
          "type": "address"
        }
      ],
      "name": "updatePlatformFeeRecipient",
      "outputs": [],
      "stateMutability": "nonpayable",
      "type": "function"
    }
  ],
  "bytecode": "0x6080604052600160045560196005553480156200001b57600080fd5b50604051620024e8380380620024e88339810160408190526200003e916200013f565b6200004933620000ef565b600180556001600160a01b038216620000c25760405162461bcd60e51b815260206004820152603160248201527f536f756e64636861696e41756374696f6e3a20496e76616c696420506c6174666044820152701bdc9b4811995948149958da5c1a595b9d607a1b606482015260840160405180910390fd5b61ffff16600555600680546001600160a01b0319166001600160a01b03929092169190911790556200018f565b600080546001600160a01b038381166001600160a01b0319831681178455604051919092169283917f8be0079c531659141344cd1fd0a4f28419497f9722a3daafe3b4186f6b6457e09190a35050565b600080604083850312156200015357600080fd5b82516001600160a01b03811681146200016b57600080fd5b602084015190925061ffff811681146200018457600080fd5b809150509250929050565b612349806200019f6000396000f3fe6080604052600436106101355760003560e01c8063961c9ae4116100ab578063b187bd261161006f578063b187bd2614610484578063d98b9bb5146104b5578063eb13554f146104c8578063f2fde38b146104e8578063f5fe7f7114610508578063f9613d7f1461052857600080fd5b8063961c9ae4146103b15780639ad2d9ec146103d1578063a062feb9146103f1578063a670a9b414610411578063aa0b59881461046457600080fd5b80636b753f36116100fd5780636b753f361461024e5780636c58a5a4146102c4578063715018a6146102e4578063762a66a2146102f9578063859b97fe1461035f5780638da5cb5b1461037f57600080fd5b8063083759e01461013a57806326232a2e1461015c578063335b115e1461018557806344f91c1e1461019b5780635f7063ef1461022e575b600080fd5b34801561014657600080fd5b5061015a61015536600461200b565b61053d565b005b34801561016857600080fd5b5061017260055481565b6040519081526020015b60405180910390f35b34801561019157600080fd5b5061017260045481565b3480156101a757600080fd5b506101fa6101b6366004612039565b60026020818152600093845260408085209091529183529120805460018201549282015460038301546004909301546001600160a01b039092169392909160ff1685565b604080516001600160a01b03909616865260208601949094529284019190915260608301521515608082015260a00161017c565b34801561023a57600080fd5b5061015a610249366004612039565b6105ac565b34801561025a57600080fd5b5061029f610269366004612039565b60036020908152600092835260408084209091529082529020805460018201546002909201546001600160a01b03909116919083565b604080516001600160a01b03909416845260208401929092529082015260600161017c565b3480156102d057600080fd5b5061015a6102df366004612065565b610de9565b3480156102f057600080fd5b5061015a610fe1565b34801561030557600080fd5b506101fa610314366004612039565b6001600160a01b03918216600090815260026020818152604080842094845293905291902080546001820154928201546003830154600490930154919094169492939260ff90911690565b34801561036b57600080fd5b5061015a61037a366004612039565b611017565b34801561038b57600080fd5b506000546001600160a01b03165b6040516001600160a01b03909116815260200161017c565b3480156103bd57600080fd5b5061015a6103cc36600461209a565b6111a9565b3480156103dd57600080fd5b5061015a6103ec366004612065565b61133f565b3480156103fd57600080fd5b5061015a61040c366004612065565b6114fd565b34801561041d57600080fd5b5061029f61042c366004612039565b6001600160a01b0391821660009081526003602090815260408083209383529290522080546001820154600290920154921692909190565b34801561047057600080fd5b5061015a61047f36600461200b565b611601565b34801561049057600080fd5b506006546104a590600160a01b900460ff1681565b604051901515815260200161017c565b61015a6104c3366004612039565b611660565b3480156104d457600080fd5b50600654610399906001600160a01b031681565b3480156104f457600080fd5b5061015a6105033660046120de565b61178c565b34801561051457600080fd5b5061015a6105233660046120de565b611827565b34801561053457600080fd5b5061015a6118e4565b6000546001600160a01b031633146105705760405162461bcd60e51b8152600401610567906120fb565b60405180910390fd5b60048190556040518181527f489b0441344cbdcb036bee4857de51567f580e9747166f76b581be803ca45fcb906020015b60405180910390a150565b600260015414156105cf5760405162461bcd60e51b815260040161056790612130565b600260018181556001600160a01b0384811660008181526020948552604080822087835286528082209282526003865280822087835290955293909320805492810154909290911690336040516331a9108f60e11b8152600481018790526001600160a01b0391821691881690636352211e90602401602060405180830381865afa158015610662573d6000803e3d6000fd5b505050506040513d601f19601f820116820180604052508101906106869190612167565b6001600160a01b03161480156106ae575083546001600160a01b0316336001600160a01b0316145b806106c15750336001600160a01b038316145b6107195760405162461bcd60e51b815260206004820152602360248201527f73656e646572206d757374206265206974656d206f776e6572206f722077696e6044820152623732b960e91b6064820152608401610567565b600084600301541161073d5760405162461bcd60e51b815260040161056790612184565b600384015442116107845760405162461bcd60e51b8152602060048201526011602482015270185d58dd1a5bdb881b9bdd08195b991959607a1b6044820152606401610567565b600484015460ff16156107a95760405162461bcd60e51b8152600401610567906121af565b6001600160a01b0382166107ee5760405162461bcd60e51b815260206004820152600c60248201526b6e6f206f70656e206269647360a01b6044820152606401610567565b836001015481101561084c5760405162461bcd60e51b815260206004820152602160248201527f68696768657374206269642069732062656c6f772072657365727665507269636044820152606560f81b6064820152608401610567565b835460405163e985e9c560e01b81526001600160a01b0391821660048201523060248201529087169063e985e9c590604401602060405180830381865afa15801561089b573d6000803e3d6000fd5b505050506040513d601f19601f820116820180604052508101906108bf91906121e6565b6109025760405162461bcd60e51b8152602060048201526014602482015273185d58dd1a5bdb881b9bdd08185c1c1c9bdd995960621b6044820152606401610567565b60048401805460ff191660019081179091556001600160a01b0387166000908152600360209081526040808320898452909152812080546001600160a01b031916815580830182905560020181905590850154821115610a5657600061097586600101548461197490919063ffffffff16565b9050600061099a6103e86109946005548561198790919063ffffffff16565b90611993565b6006546040519192506000916001600160a01b039091169083908381818185875af1925050503d80600081146109ec576040519150601f19603f3d011682016040523d82523d6000602084013e6109f1565b606091505b5050905080610a425760405162461bcd60e51b815260206004820152601b60248201527f6661696c656420746f2073656e6420706c6174666f726d2066656500000000006044820152606401610567565b610a4c8583611974565b9350505050610a59565b50805b60405163152a902d60e11b8152600481018790526024810182905260009081906001600160a01b038a1690632a55205a906044016040805180830381865afa158015610aa9573d6000803e3d6000fd5b505050506040513d601f19601f82011682018060405250810190610acd9190612208565b90925090506001600160a01b03821615610ba3576000826001600160a01b03168260405160006040518083038185875af1925050503d8060008114610b2e576040519150601f19603f3d011682016040523d82523d6000602084013e610b33565b606091505b5050905080610b955760405162461bcd60e51b815260206004820152602860248201527f6661696c656420746f2073656e6420746865206f776e657220746865697220726044820152676f79616c7469657360c01b6064820152608401610567565b610b9f8483611974565b9350505b8215610c625786546040516000916001600160a01b03169085908381818185875af1925050503d8060008114610bf5576040519150601f19603f3d011682016040523d82523d6000602084013e610bfa565b606091505b5050905080610c605760405162461bcd60e51b815260206004820152602c60248201527f6661696c656420746f2073656e6420746865206f776e6572207468652061756360448201526b74696f6e2062616c616e636560a01b6064820152608401610567565b505b6040516331a9108f60e11b8152600481018990526001600160a01b038a16906342842e0e908290636352211e90602401602060405180830381865afa158015610caf573d6000803e3d6000fd5b505050506040513d601f19601f82011682018060405250810190610cd39190612167565b6040516001600160e01b031960e084901b1681526001600160a01b0391821660048201529088166024820152604481018b9052606401600060405180830381600087803b158015610d2357600080fd5b505af1158015610d37573d6000803e3d6000fd5b50508854604080516001600160a01b0392831681526020810189905289831694508c9350918d16917f5a0c36f9e4fbfc64c8006c9c268b8b075c000da8498da5148237875465b28926910160405180910390a45050506001600160a01b03909516600090815260026020818152604080842097845296905294812080546001600160a01b031916815560018082018390559581018290556003810191909155600401805460ff19169055505050805550565b6001600160a01b038381166000908152600260209081526040808320868452909152902080549091163314610e305760405162461bcd60e51b815260040161056790612236565b60008211610e755760405162461bcd60e51b8152602060048201526012602482015271696e76616c69642073746172742074696d6560701b6044820152606401610567565b426002820154610e8690603c61227a565b11610ecd5760405162461bcd60e51b8152602060048201526017602482015276185d58dd1a5bdb88185b1c9958591e481cdd185c9d1959604a1b6044820152606401610567565b6003810154610ede8361012c61227a565b10610f4a5760405162461bcd60e51b815260206004820152603660248201527f73746172742074696d652073686f756c64206265206c657373207468616e20656044820152756e642074696d65202862792035206d696e757465732960501b6064820152608401610567565b600481015460ff1615610f6f5760405162461bcd60e51b8152600401610567906121af565b6000816003015411610f935760405162461bcd60e51b815260040161056790612184565b6002810182905560405182815283906001600160a01b038616907ff123182d1bfce603eb20a2f74cce94af6542f353a4c2a8d5cfadf41822b32b38906020015b60405180910390a350505050565b6000546001600160a01b0316331461100b5760405162461bcd60e51b8152600401610567906120fb565b611015600061199f565b565b6002600154141561103a5760405162461bcd60e51b815260040161056790612130565b600260018181556001600160a01b03848116600090815260208481526040808320878452825291829020825160a0810184528154909416845293840154908301529282015492810192909252600381015460608301526004015460ff1615156080820152336040516331a9108f60e11b8152600481018490526001600160a01b0391821691851690636352211e90602401602060405180830381865afa1580156110e8573d6000803e3d6000fd5b505050506040513d601f19601f8201168201806040525081019061110c9190612167565b6001600160a01b0316148015611134575080516001600160a01b0316336001600160a01b0316145b6111505760405162461bcd60e51b815260040161056790612236565b60008160600151116111745760405162461bcd60e51b815260040161056790612184565b8060800151156111965760405162461bcd60e51b8152600401610567906121af565b6111a083836119ef565b50506001805550565b600654600160a01b900460ff16156111d35760405162461bcd60e51b815260040161056790612292565b336040516331a9108f60e11b8152600481018690526001600160a01b0391821691871690636352211e90602401602060405180830381865afa15801561121d573d6000803e3d6000fd5b505050506040513d601f19601f820116820180604052508101906112419190612167565b6001600160a01b03161480156112d057506001600160a01b03851663e985e9c5336040516001600160e01b031960e084901b1681526001600160a01b039091166004820152306024820152604401602060405180830381865afa1580156112ac573d6000803e3d6000fd5b505050506040513d601f19601f820116820180604052508101906112d091906121e6565b61132b5760405162461bcd60e51b815260206004820152602660248201527f6e6f74206f776e657220616e64206f7220636f6e7472616374206e6f742061706044820152651c1c9bdd995960d21b6064820152608401610567565b6113388585858585611af7565b5050505050565b6001600160a01b0383811660009081526002602090815260408083208684529091529020805490911633146113865760405162461bcd60e51b815260040161056790612236565b600381015442106113d15760405162461bcd60e51b8152602060048201526015602482015274185d58dd1a5bdb88185b1c9958591e48195b991959605a1b6044820152606401610567565b60008160030154116113f55760405162461bcd60e51b815260040161056790612184565b818160020154106114545760405162461bcd60e51b815260206004820152602360248201527f656e642074696d65206d7573742062652067726561746572207468616e207374604482015262185c9d60ea1b6064820152608401610567565b6114604261012c61227a565b82116114b95760405162461bcd60e51b815260206004820152602260248201527f61756374696f6e2073686f756c6420656e642061667465722035206d696e7574604482015261657360f01b6064820152608401610567565b6003810182905560405182815283906001600160a01b038616907fd8aaad775c4c9b21112b5cb22ab4618c74936d873850fbd6f2e691701119ffe190602001610fd3565b6001600160a01b0383811660009081526002602090815260408083208684529091529020805490911633146115745760405162461bcd60e51b815260206004820152601960248201527f73656e646572206d757374206265206974656d206f776e6572000000000000006044820152606401610567565b600481015460ff16156115995760405162461bcd60e51b8152600401610567906121af565b60008160030154116115bd5760405162461bcd60e51b815260040161056790612184565b6001810182905560405182815283906001600160a01b038616907f7987fb10b75b4faae7a7dd86931856b449b99b3e9a5761da49ffd2d1a6bf7f0990602001610fd3565b6000546001600160a01b0316331461162b5760405162461bcd60e51b8152600401610567906120fb565b60058190556040518181527f2644fd26359c107ff7991b6dfc36ce902b334ce4e3891bbecacc5922aa620efa906020016105a1565b600260015414156116835760405162461bcd60e51b815260040161056790612130565b6002600155600654600160a01b900460ff16156116b25760405162461bcd60e51b815260040161056790612292565b6001600160a01b038281166000908152600260208181526040808420868552825292839020835160a0810185528154909516855260018101549185019190915290810154918301829052600381015460608401526004015460ff16151560808301524210158015611727575060608101514211155b6117815760405162461bcd60e51b815260206004820152602560248201527f62696464696e67206f757473696465206f66207468652061756374696f6e2077604482015264696e646f7760d81b6064820152608401610567565b6111a0838334611d1c565b6000546001600160a01b031633146117b65760405162461bcd60e51b8152600401610567906120fb565b6001600160a01b03811661181b5760405162461bcd60e51b815260206004820152602660248201527f4f776e61626c653a206e6577206f776e657220697320746865207a65726f206160448201526564647265737360d01b6064820152608401610567565b6118248161199f565b50565b6000546001600160a01b031633146118515760405162461bcd60e51b8152600401610567906120fb565b6001600160a01b0381166118965760405162461bcd60e51b815260206004820152600c60248201526b7a65726f206164647265737360a01b6044820152606401610567565b600680546001600160a01b0319166001600160a01b0383169081179091556040519081527fe57e7c1f36cc83fade34e32351e6eee7eb9da532662b1b5da10c631e8222aca7906020016105a1565b6000546001600160a01b0316331461190e5760405162461bcd60e51b8152600401610567906120fb565b6006805460ff600160a01b808304821615810260ff60a01b1990931692909217928390556040517f9077d36bc00859b5c3f320310707208543dd35092cb0a0fe117d0c6a558b148b9361196a9390049091161515815260200190565b60405180910390a1565b600061198082846122bb565b9392505050565b600061198082846122d2565b600061198082846122f1565b600080546001600160a01b038381166001600160a01b0319831681178455604051919092169283917f8be0079c531659141344cd1fd0a4f28419497f9722a3daafe3b4186f6b6457e09190a35050565b6001600160a01b0380831660009081526003602090815260408083208584529091529020805490911615611a785780546001820154611a3b91859185916001600160a01b031690611f07565b6001600160a01b0383166000908152600360209081526040808320858452909152812080546001600160a01b031916815560018101829055600201555b6001600160a01b038316600081815260026020818152604080842087855290915280832080546001600160a01b031916815560018101849055918201839055600382018390556004909101805460ff19169055518492917f018b64b6242d32aa550e95d78985b938d71af5b3f10827b0683f55da1639304891a3505050565b6001600160a01b038516600090815260026020908152604080832087845290915290206003015415611b655760405162461bcd60e51b8152602060048201526017602482015276185d58dd1a5bdb88185b1c9958591e481cdd185c9d1959604a1b6044820152606401610567565b611b718261012c61227a565b811015611bdb5760405162461bcd60e51b815260206004820152603260248201527f656e642074696d65206d7573742062652067726561746572207468616e207374604482015271617274202862792035206d696e757465732960701b6064820152608401610567565b428211611c1f5760405162461bcd60e51b8152602060048201526012602482015271696e76616c69642073746172742074696d6560701b6044820152606401610567565b6040518060a00160405280611c313390565b6001600160a01b039081168252602080830187905260408084018790526060808501879052600060809586018190528b851680825260028086528483208d8452865291849020885181546001600160a01b03191697169690961786559387015160018601559186015191840191909155840151600383015592909101516004909101805460ff191691151591909117905584907fecde1ffd2965d959f69fb469e60403b746a142d4ce09ca900a52f143855db7fa33604080516001600160a01b0390921682526020820188905281018690526060810185905260800160405180910390a35050505050565b600654600160a01b900460ff1615611d465760405162461bcd60e51b815260040161056790612292565b6001600160a01b038316600090815260026020908152604080832085845290915290206001810154821015611dcc5760405162461bcd60e51b815260206004820152602660248201527f6269642063616e6e6f74206265206c6f776572207468616e207265736572766560448201526520707269636560d01b6064820152608401610567565b6001600160a01b038416600090815260036020908152604080832086845290915281206004546001820154919291611e2091606491611e0b91906122d2565b611e1591906122f1565b600184015490611fff565b905080841015611e725760405162461bcd60e51b815260206004820152601f60248201527f6661696c656420746f206f7574626964206869676865737420626964646572006044820152606401610567565b81546001600160a01b031615611ea05781546001830154611ea091889188916001600160a01b031690611f07565b81546001600160a01b0319163390811783556001830185905542600284015560405185815286906001600160a01b038916907f0158f5674dc243762459b88cfc91b10d2d1ef9d40821cca978c2b680aa4446829060200160405180910390a4505050505050565b6000826001600160a01b03168260405160006040518083038185875af1925050503d8060008114611f54576040519150601f19603f3d011682016040523d82523d6000602084013e611f59565b606091505b5050905080611faa5760405162461bcd60e51b815260206004820181905260248201527f6661696c656420746f20726566756e642070726576696f7573206269646465726044820152606401610567565b826001600160a01b031684866001600160a01b03167f90e20d1ba82eaa07a212267355536f76bc83bf91c81fd41b74283c4082e7695285604051611ff091815260200190565b60405180910390a45050505050565b6000611980828461227a565b60006020828403121561201d57600080fd5b5035919050565b6001600160a01b038116811461182457600080fd5b6000806040838503121561204c57600080fd5b823561205781612024565b946020939093013593505050565b60008060006060848603121561207a57600080fd5b833561208581612024565b95602085013595506040909401359392505050565b600080600080600060a086880312156120b257600080fd5b85356120bd81612024565b97602087013597506040870135966060810135965060800135945092505050565b6000602082840312156120f057600080fd5b813561198081612024565b6020808252818101527f4f776e61626c653a2063616c6c6572206973206e6f7420746865206f776e6572604082015260600190565b6020808252601f908201527f5265656e7472616e637947756172643a207265656e7472616e742063616c6c00604082015260600190565b60006020828403121561217957600080fd5b815161198081612024565b6020808252601190820152706e6f2061756374696f6e2065786973747360781b604082015260600190565b60208082526018908201527f61756374696f6e20616c726561647920726573756c7465640000000000000000604082015260600190565b6000602082840312156121f857600080fd5b8151801515811461198057600080fd5b6000806040838503121561221b57600080fd5b825161222681612024565b6020939093015192949293505050565b60208082526014908201527339b2b73232b91036bab9ba1031329037bbb732b960611b604082015260600190565b634e487b7160e01b600052601160045260246000fd5b6000821982111561228d5761228d612264565b500190565b6020808252600f908201526e18dbdb9d1c9858dd081c185d5cd959608a1b604082015260600190565b6000828210156122cd576122cd612264565b500390565b60008160001904831182151516156122ec576122ec612264565b500290565b60008261230e57634e487b7160e01b600052601260045260246000fd5b50049056fea2646970667358221220bd279a25ac7a079ad5f168f2773ff121ceb3e5e44f9cf64b32a6c9418c47c5d264736f6c634300080a0033",
  "linkReferences": {},
  "deployedLinkReferences": {}
}