{
  "_format": "hh-sol-artifact-1",
  "contractName": "SoundchainAuction",
  "sourceName": "contracts/Auction.sol",
  "abi": [
    {
      "inputs": [
        {
          "internalType": "address payable",
          "name": "_platformFeeRecipient",
          "type": "address"
        },
        {
          "internalType": "uint16",
          "name": "_platformFee",
          "type": "uint16"
        }
      ],
      "stateMutability": "nonpayable",
      "type": "constructor"
    },
    {
      "anonymous": false,
      "inputs": [
        {
          "indexed": true,
          "internalType": "address",
          "name": "nftAddress",
          "type": "address"
        },
        {
          "indexed": true,
          "internalType": "uint256",
          "name": "tokenId",
          "type": "uint256"
        }
      ],
      "name": "AuctionCancelled",
      "type": "event"
    },
    {
      "anonymous": false,
      "inputs": [
        {
          "indexed": true,
          "internalType": "address",
          "name": "nftAddress",
          "type": "address"
        },
        {
          "indexed": true,
          "internalType": "uint256",
          "name": "tokenId",
          "type": "uint256"
        },
        {
          "indexed": false,
          "internalType": "address",
          "name": "owner",
          "type": "address"
        },
        {
          "indexed": false,
          "internalType": "uint256",
          "name": "reservePrice",
          "type": "uint256"
        },
        {
          "indexed": false,
          "internalType": "uint256",
          "name": "startTimestamp",
          "type": "uint256"
        },
        {
          "indexed": false,
          "internalType": "uint256",
          "name": "endTimestamp",
          "type": "uint256"
        }
      ],
      "name": "AuctionCreated",
      "type": "event"
    },
    {
      "anonymous": false,
      "inputs": [
        {
          "indexed": false,
          "internalType": "address",
          "name": "oldOwner",
          "type": "address"
        },
        {
          "indexed": true,
          "internalType": "address",
          "name": "nftAddress",
          "type": "address"
        },
        {
          "indexed": true,
          "internalType": "uint256",
          "name": "tokenId",
          "type": "uint256"
        },
        {
          "indexed": true,
          "internalType": "address",
          "name": "winner",
          "type": "address"
        },
        {
          "indexed": false,
          "internalType": "uint256",
          "name": "winningBid",
          "type": "uint256"
        }
      ],
      "name": "AuctionResulted",
      "type": "event"
    },
    {
      "anonymous": false,
      "inputs": [
        {
          "indexed": true,
          "internalType": "address",
          "name": "nftAddress",
          "type": "address"
        },
        {
          "indexed": true,
          "internalType": "uint256",
          "name": "tokenId",
          "type": "uint256"
        },
        {
          "indexed": true,
          "internalType": "address",
          "name": "bidder",
          "type": "address"
        },
        {
          "indexed": false,
          "internalType": "uint256",
          "name": "bid",
          "type": "uint256"
        }
      ],
      "name": "BidPlaced",
      "type": "event"
    },
    {
      "anonymous": false,
      "inputs": [
        {
          "indexed": true,
          "internalType": "address",
          "name": "nftAddress",
          "type": "address"
        },
        {
          "indexed": true,
          "internalType": "uint256",
          "name": "tokenId",
          "type": "uint256"
        },
        {
          "indexed": true,
          "internalType": "address",
          "name": "bidder",
          "type": "address"
        },
        {
          "indexed": false,
          "internalType": "uint256",
          "name": "bid",
          "type": "uint256"
        }
      ],
      "name": "BidRefunded",
      "type": "event"
    },
    {
      "anonymous": false,
      "inputs": [
        {
          "indexed": true,
          "internalType": "address",
          "name": "previousOwner",
          "type": "address"
        },
        {
          "indexed": true,
          "internalType": "address",
          "name": "newOwner",
          "type": "address"
        }
      ],
      "name": "OwnershipTransferred",
      "type": "event"
    },
    {
      "anonymous": false,
      "inputs": [
        {
          "indexed": false,
          "internalType": "bool",
          "name": "isPaused",
          "type": "bool"
        }
      ],
      "name": "PauseToggled",
      "type": "event"
    },
    {
      "anonymous": false,
      "inputs": [
        {
          "indexed": true,
          "internalType": "address",
          "name": "nftAddress",
          "type": "address"
        },
        {
          "indexed": true,
          "internalType": "uint256",
          "name": "tokenId",
          "type": "uint256"
        },
        {
          "indexed": false,
          "internalType": "uint256",
          "name": "reservePrice",
          "type": "uint256"
        },
        {
          "indexed": false,
          "internalType": "uint256",
          "name": "startTime",
          "type": "uint256"
        },
        {
          "indexed": false,
          "internalType": "uint256",
          "name": "endTime",
          "type": "uint256"
        }
      ],
      "name": "UpdateAuction",
      "type": "event"
    },
    {
      "anonymous": false,
      "inputs": [
        {
          "indexed": false,
          "internalType": "uint256",
          "name": "minBidIncrement",
          "type": "uint256"
        }
      ],
      "name": "UpdateMinBidIncrement",
      "type": "event"
    },
    {
      "anonymous": false,
      "inputs": [
        {
          "indexed": false,
          "internalType": "uint256",
          "name": "platformFee",
          "type": "uint256"
        }
      ],
      "name": "UpdatePlatformFee",
      "type": "event"
    },
    {
      "anonymous": false,
      "inputs": [
        {
          "indexed": false,
          "internalType": "address payable",
          "name": "platformFeeRecipient",
          "type": "address"
        }
      ],
      "name": "UpdatePlatformFeeRecipient",
      "type": "event"
    },
    {
      "inputs": [
        {
          "internalType": "address",
          "name": "",
          "type": "address"
        },
        {
          "internalType": "uint256",
          "name": "",
          "type": "uint256"
        }
      ],
      "name": "auctions",
      "outputs": [
        {
          "internalType": "address",
          "name": "owner",
          "type": "address"
        },
        {
          "internalType": "uint256",
          "name": "reservePrice",
          "type": "uint256"
        },
        {
          "internalType": "uint256",
          "name": "startTime",
          "type": "uint256"
        },
        {
          "internalType": "uint256",
          "name": "endTime",
          "type": "uint256"
        },
        {
          "internalType": "bool",
          "name": "resulted",
          "type": "bool"
        }
      ],
      "stateMutability": "view",
      "type": "function"
    },
    {
      "inputs": [
        {
          "internalType": "address",
          "name": "_nftAddress",
          "type": "address"
        },
        {
          "internalType": "uint256",
          "name": "_tokenId",
          "type": "uint256"
        }
      ],
      "name": "cancelAuction",
      "outputs": [],
      "stateMutability": "nonpayable",
      "type": "function"
    },
    {
      "inputs": [
        {
          "internalType": "address",
          "name": "_nftAddress",
          "type": "address"
        },
        {
          "internalType": "uint256",
          "name": "_tokenId",
          "type": "uint256"
        },
        {
          "internalType": "uint256",
          "name": "_reservePrice",
          "type": "uint256"
        },
        {
          "internalType": "uint256",
          "name": "_startTimestamp",
          "type": "uint256"
        },
        {
          "internalType": "uint256",
          "name": "_endTimestamp",
          "type": "uint256"
        }
      ],
      "name": "createAuction",
      "outputs": [],
      "stateMutability": "nonpayable",
      "type": "function"
    },
    {
      "inputs": [
        {
          "internalType": "address",
          "name": "_nftAddress",
          "type": "address"
        },
        {
          "internalType": "uint256",
          "name": "_tokenId",
          "type": "uint256"
        }
      ],
      "name": "getAuction",
      "outputs": [
        {
          "internalType": "address",
          "name": "_owner",
          "type": "address"
        },
        {
          "internalType": "uint256",
          "name": "_reservePrice",
          "type": "uint256"
        },
        {
          "internalType": "uint256",
          "name": "_startTime",
          "type": "uint256"
        },
        {
          "internalType": "uint256",
          "name": "_endTime",
          "type": "uint256"
        },
        {
          "internalType": "bool",
          "name": "_resulted",
          "type": "bool"
        }
      ],
      "stateMutability": "view",
      "type": "function"
    },
    {
      "inputs": [
        {
          "internalType": "address",
          "name": "_nftAddress",
          "type": "address"
        },
        {
          "internalType": "uint256",
          "name": "_tokenId",
          "type": "uint256"
        }
      ],
      "name": "getHighestBidder",
      "outputs": [
        {
          "internalType": "address payable",
          "name": "_bidder",
          "type": "address"
        },
        {
          "internalType": "uint256",
          "name": "_bid",
          "type": "uint256"
        },
        {
          "internalType": "uint256",
          "name": "_lastBidTime",
          "type": "uint256"
        }
      ],
      "stateMutability": "view",
      "type": "function"
    },
    {
      "inputs": [
        {
          "internalType": "address",
          "name": "",
          "type": "address"
        },
        {
          "internalType": "uint256",
          "name": "",
          "type": "uint256"
        }
      ],
      "name": "highestBids",
      "outputs": [
        {
          "internalType": "address payable",
          "name": "bidder",
          "type": "address"
        },
        {
          "internalType": "uint256",
          "name": "bid",
          "type": "uint256"
        },
        {
          "internalType": "uint256",
          "name": "lastBidTime",
          "type": "uint256"
        }
      ],
      "stateMutability": "view",
      "type": "function"
    },
    {
      "inputs": [],
      "name": "isPaused",
      "outputs": [
        {
          "internalType": "bool",
          "name": "",
          "type": "bool"
        }
      ],
      "stateMutability": "view",
      "type": "function"
    },
    {
      "inputs": [],
      "name": "minBidIncrement",
      "outputs": [
        {
          "internalType": "uint256",
          "name": "",
          "type": "uint256"
        }
      ],
      "stateMutability": "view",
      "type": "function"
    },
    {
      "inputs": [],
      "name": "owner",
      "outputs": [
        {
          "internalType": "address",
          "name": "",
          "type": "address"
        }
      ],
      "stateMutability": "view",
      "type": "function"
    },
    {
      "inputs": [
        {
          "internalType": "address",
          "name": "_nftAddress",
          "type": "address"
        },
        {
          "internalType": "uint256",
          "name": "_tokenId",
          "type": "uint256"
        }
      ],
      "name": "placeBid",
      "outputs": [],
      "stateMutability": "payable",
      "type": "function"
    },
    {
      "inputs": [],
      "name": "platformFee",
      "outputs": [
        {
          "internalType": "uint256",
          "name": "",
          "type": "uint256"
        }
      ],
      "stateMutability": "view",
      "type": "function"
    },
    {
      "inputs": [],
      "name": "platformFeeRecipient",
      "outputs": [
        {
          "internalType": "address payable",
          "name": "",
          "type": "address"
        }
      ],
      "stateMutability": "view",
      "type": "function"
    },
    {
      "inputs": [],
      "name": "renounceOwnership",
      "outputs": [],
      "stateMutability": "nonpayable",
      "type": "function"
    },
    {
      "inputs": [
        {
          "internalType": "address",
          "name": "_nftAddress",
          "type": "address"
        },
        {
          "internalType": "uint256",
          "name": "_tokenId",
          "type": "uint256"
        }
      ],
      "name": "resultAuction",
      "outputs": [],
      "stateMutability": "nonpayable",
      "type": "function"
    },
    {
      "inputs": [],
      "name": "toggleIsPaused",
      "outputs": [],
      "stateMutability": "nonpayable",
      "type": "function"
    },
    {
      "inputs": [
        {
          "internalType": "address",
          "name": "newOwner",
          "type": "address"
        }
      ],
      "name": "transferOwnership",
      "outputs": [],
      "stateMutability": "nonpayable",
      "type": "function"
    },
    {
      "inputs": [
        {
          "internalType": "address",
          "name": "_nftAddress",
          "type": "address"
        },
        {
          "internalType": "uint256",
          "name": "_tokenId",
          "type": "uint256"
        },
        {
          "internalType": "uint256",
          "name": "_reservePrice",
          "type": "uint256"
        },
        {
          "internalType": "uint256",
          "name": "_startTime",
          "type": "uint256"
        },
        {
          "internalType": "uint256",
          "name": "_endTime",
          "type": "uint256"
        }
      ],
      "name": "updateAuction",
      "outputs": [],
      "stateMutability": "nonpayable",
      "type": "function"
    },
    {
      "inputs": [
        {
          "internalType": "uint256",
          "name": "_minBidIncrement",
          "type": "uint256"
        }
      ],
      "name": "updateMinBidIncrement",
      "outputs": [],
      "stateMutability": "nonpayable",
      "type": "function"
    },
    {
      "inputs": [
        {
          "internalType": "uint256",
          "name": "_platformFee",
          "type": "uint256"
        }
      ],
      "name": "updatePlatformFee",
      "outputs": [],
      "stateMutability": "nonpayable",
      "type": "function"
    },
    {
      "inputs": [
        {
          "internalType": "address payable",
          "name": "_platformFeeRecipient",
          "type": "address"
        }
      ],
      "name": "updatePlatformFeeRecipient",
      "outputs": [],
      "stateMutability": "nonpayable",
      "type": "function"
    }
  ],
  "bytecode": "0x6080604052600160045560196005553480156200001b57600080fd5b5060405162002325380380620023258339810160408190526200003e916200013f565b6200004933620000ef565b600180556001600160a01b038216620000c25760405162461bcd60e51b815260206004820152603160248201527f536f756e64636861696e41756374696f6e3a20496e76616c696420506c6174666044820152701bdc9b4811995948149958da5c1a595b9d607a1b606482015260840160405180910390fd5b61ffff16600555600680546001600160a01b0319166001600160a01b03929092169190911790556200018f565b600080546001600160a01b038381166001600160a01b0319831681178455604051919092169283917f8be0079c531659141344cd1fd0a4f28419497f9722a3daafe3b4186f6b6457e09190a35050565b600080604083850312156200015357600080fd5b82516001600160a01b03811681146200016b57600080fd5b602084015190925061ffff811681146200018457600080fd5b809150509250929050565b612186806200019f6000396000f3fe60806040526004361061011f5760003560e01c8063961c9ae4116100a0578063eb13554f11610064578063eb13554f14610452578063eb9e004514610472578063f2fde38b14610492578063f5fe7f71146104b2578063f9613d7f146104d257600080fd5b8063961c9ae41461037b578063a670a9b41461039b578063aa0b5988146103ee578063b187bd261461040e578063d98b9bb51461043f57600080fd5b80636b753f36116100e75780636b753f3614610238578063715018a6146102ae578063762a66a2146102c3578063859b97fe146103295780638da5cb5b1461034957600080fd5b8063083759e01461012457806326232a2e14610146578063335b115e1461016f57806344f91c1e146101855780635f7063ef14610218575b600080fd5b34801561013057600080fd5b5061014461013f366004611eab565b6104e7565b005b34801561015257600080fd5b5061015c60055481565b6040519081526020015b60405180910390f35b34801561017b57600080fd5b5061015c60045481565b34801561019157600080fd5b506101e46101a0366004611ed9565b60026020818152600093845260408085209091529183529120805460018201549282015460038301546004909301546001600160a01b039092169392909160ff1685565b604080516001600160a01b03909616865260208601949094529284019190915260608301521515608082015260a001610166565b34801561022457600080fd5b50610144610233366004611ed9565b610556565b34801561024457600080fd5b50610289610253366004611ed9565b60036020908152600092835260408084209091529082529020805460018201546002909201546001600160a01b03909116919083565b604080516001600160a01b039094168452602084019290925290820152606001610166565b3480156102ba57600080fd5b50610144610d93565b3480156102cf57600080fd5b506101e46102de366004611ed9565b6001600160a01b03918216600090815260026020818152604080842094845293905291902080546001820154928201546003830154600490930154919094169492939260ff90911690565b34801561033557600080fd5b50610144610344366004611ed9565b610dc9565b34801561035557600080fd5b506000546001600160a01b03165b6040516001600160a01b039091168152602001610166565b34801561038757600080fd5b50610144610396366004611f05565b610f82565b3480156103a757600080fd5b506102896103b6366004611ed9565b6001600160a01b0391821660009081526003602090815260408083209383529290522080546001820154600290920154921692909190565b3480156103fa57600080fd5b50610144610409366004611eab565b611118565b34801561041a57600080fd5b5060065461042f90600160a01b900460ff1681565b6040519015158152602001610166565b61014461044d366004611ed9565b611177565b34801561045e57600080fd5b50600654610363906001600160a01b031681565b34801561047e57600080fd5b5061014461048d366004611f05565b6112a3565b34801561049e57600080fd5b506101446104ad366004611f49565b61162c565b3480156104be57600080fd5b506101446104cd366004611f49565b6116c7565b3480156104de57600080fd5b50610144611784565b6000546001600160a01b0316331461051a5760405162461bcd60e51b815260040161051190611f66565b60405180910390fd5b60048190556040518181527f489b0441344cbdcb036bee4857de51567f580e9747166f76b581be803ca45fcb906020015b60405180910390a150565b600260015414156105795760405162461bcd60e51b815260040161051190611f9b565b600260018181556001600160a01b0384811660008181526020948552604080822087835286528082209282526003865280822087835290955293909320805492810154909290911690336040516331a9108f60e11b8152600481018790526001600160a01b0391821691881690636352211e90602401602060405180830381865afa15801561060c573d6000803e3d6000fd5b505050506040513d601f19601f820116820180604052508101906106309190611fd2565b6001600160a01b0316148015610658575083546001600160a01b0316336001600160a01b0316145b8061066b5750336001600160a01b038316145b6106c35760405162461bcd60e51b815260206004820152602360248201527f73656e646572206d757374206265206974656d206f776e6572206f722077696e6044820152623732b960e91b6064820152608401610511565b60008460030154116106e75760405162461bcd60e51b815260040161051190611fef565b6003840154421161072e5760405162461bcd60e51b8152602060048201526011602482015270185d58dd1a5bdb881b9bdd08195b991959607a1b6044820152606401610511565b600484015460ff16156107535760405162461bcd60e51b81526004016105119061201a565b6001600160a01b0382166107985760405162461bcd60e51b815260206004820152600c60248201526b6e6f206f70656e206269647360a01b6044820152606401610511565b83600101548110156107f65760405162461bcd60e51b815260206004820152602160248201527f68696768657374206269642069732062656c6f772072657365727665507269636044820152606560f81b6064820152608401610511565b835460405163e985e9c560e01b81526001600160a01b0391821660048201523060248201529087169063e985e9c590604401602060405180830381865afa158015610845573d6000803e3d6000fd5b505050506040513d601f19601f820116820180604052508101906108699190612051565b6108ac5760405162461bcd60e51b8152602060048201526014602482015273185d58dd1a5bdb881b9bdd08185c1c1c9bdd995960621b6044820152606401610511565b60048401805460ff191660019081179091556001600160a01b0387166000908152600360209081526040808320898452909152812080546001600160a01b031916815580830182905560020181905590850154821115610a0057600061091f86600101548461181490919063ffffffff16565b905060006109446103e861093e6005548561182790919063ffffffff16565b90611833565b6006546040519192506000916001600160a01b039091169083908381818185875af1925050503d8060008114610996576040519150601f19603f3d011682016040523d82523d6000602084013e61099b565b606091505b50509050806109ec5760405162461bcd60e51b815260206004820152601b60248201527f6661696c656420746f2073656e6420706c6174666f726d2066656500000000006044820152606401610511565b6109f68583611814565b9350505050610a03565b50805b60405163152a902d60e11b8152600481018790526024810182905260009081906001600160a01b038a1690632a55205a906044016040805180830381865afa158015610a53573d6000803e3d6000fd5b505050506040513d601f19601f82011682018060405250810190610a779190612073565b90925090506001600160a01b03821615610b4d576000826001600160a01b03168260405160006040518083038185875af1925050503d8060008114610ad8576040519150601f19603f3d011682016040523d82523d6000602084013e610add565b606091505b5050905080610b3f5760405162461bcd60e51b815260206004820152602860248201527f6661696c656420746f2073656e6420746865206f776e657220746865697220726044820152676f79616c7469657360c01b6064820152608401610511565b610b498483611814565b9350505b8215610c0c5786546040516000916001600160a01b03169085908381818185875af1925050503d8060008114610b9f576040519150601f19603f3d011682016040523d82523d6000602084013e610ba4565b606091505b5050905080610c0a5760405162461bcd60e51b815260206004820152602c60248201527f6661696c656420746f2073656e6420746865206f776e6572207468652061756360448201526b74696f6e2062616c616e636560a01b6064820152608401610511565b505b6040516331a9108f60e11b8152600481018990526001600160a01b038a16906342842e0e908290636352211e90602401602060405180830381865afa158015610c59573d6000803e3d6000fd5b505050506040513d601f19601f82011682018060405250810190610c7d9190611fd2565b6040516001600160e01b031960e084901b1681526001600160a01b0391821660048201529088166024820152604481018b9052606401600060405180830381600087803b158015610ccd57600080fd5b505af1158015610ce1573d6000803e3d6000fd5b50508854604080516001600160a01b0392831681526020810189905289831694508c9350918d16917f5a0c36f9e4fbfc64c8006c9c268b8b075c000da8498da5148237875465b28926910160405180910390a45050506001600160a01b03909516600090815260026020818152604080842097845296905294812080546001600160a01b031916815560018082018390559581018290556003810191909155600401805460ff19169055505050805550565b6000546001600160a01b03163314610dbd5760405162461bcd60e51b815260040161051190611f66565b610dc7600061183f565b565b60026001541415610dec5760405162461bcd60e51b815260040161051190611f9b565b600260018181556001600160a01b03848116600090815260208481526040808320878452825291829020825160a0810184528154909416845293840154908301529282015492810192909252600381015460608301526004015460ff1615156080820152336040516331a9108f60e11b8152600481018490526001600160a01b0391821691851690636352211e90602401602060405180830381865afa158015610e9a573d6000803e3d6000fd5b505050506040513d601f19601f82011682018060405250810190610ebe9190611fd2565b6001600160a01b0316148015610ee6575080516001600160a01b0316336001600160a01b0316145b610f295760405162461bcd60e51b815260206004820152601460248201527339b2b73232b91036bab9ba1031329037bbb732b960611b6044820152606401610511565b6000816060015111610f4d5760405162461bcd60e51b815260040161051190611fef565b806080015115610f6f5760405162461bcd60e51b81526004016105119061201a565b610f79838361188f565b50506001805550565b600654600160a01b900460ff1615610fac5760405162461bcd60e51b8152600401610511906120a1565b336040516331a9108f60e11b8152600481018690526001600160a01b0391821691871690636352211e90602401602060405180830381865afa158015610ff6573d6000803e3d6000fd5b505050506040513d601f19601f8201168201806040525081019061101a9190611fd2565b6001600160a01b03161480156110a957506001600160a01b03851663e985e9c5336040516001600160e01b031960e084901b1681526001600160a01b039091166004820152306024820152604401602060405180830381865afa158015611085573d6000803e3d6000fd5b505050506040513d601f19601f820116820180604052508101906110a99190612051565b6111045760405162461bcd60e51b815260206004820152602660248201527f6e6f74206f776e657220616e64206f7220636f6e7472616374206e6f742061706044820152651c1c9bdd995960d21b6064820152608401610511565b6111118585858585611997565b5050505050565b6000546001600160a01b031633146111425760405162461bcd60e51b815260040161051190611f66565b60058190556040518181527f2644fd26359c107ff7991b6dfc36ce902b334ce4e3891bbecacc5922aa620efa9060200161054b565b6002600154141561119a5760405162461bcd60e51b815260040161051190611f9b565b6002600155600654600160a01b900460ff16156111c95760405162461bcd60e51b8152600401610511906120a1565b6001600160a01b038281166000908152600260208181526040808420868552825292839020835160a0810185528154909516855260018101549185019190915290810154918301829052600381015460608401526004015460ff1615156080830152421015801561123e575060608101514211155b6112985760405162461bcd60e51b815260206004820152602560248201527f62696464696e67206f757473696465206f66207468652061756374696f6e2077604482015264696e646f7760d81b6064820152608401610511565b610f79838334611bbc565b6001600160a01b03858116600090815260026020908152604080832088845290915290208054909116331461131a5760405162461bcd60e51b815260206004820152601960248201527f73656e646572206d757374206265206974656d206f776e6572000000000000006044820152606401610511565b600481015460ff161561133f5760405162461bcd60e51b81526004016105119061201a565b60008160030154116113635760405162461bcd60e51b815260040161051190611fef565b600083116113a85760405162461bcd60e51b8152602060048201526012602482015271696e76616c69642073746172742074696d6560701b6044820152606401610511565b4260028201546113b990603c6120e0565b116114005760405162461bcd60e51b8152602060048201526017602482015276185d58dd1a5bdb88185b1c9958591e481cdd185c9d1959604a1b6044820152606401610511565b8161140d8461012c6120e0565b106114795760405162461bcd60e51b815260206004820152603660248201527f73746172742074696d652073686f756c64206265206c657373207468616e20656044820152756e642074696d65202862792035206d696e757465732960501b6064820152608401610511565b8183106114d45760405162461bcd60e51b815260206004820152602360248201527f656e642074696d65206d7573742062652067726561746572207468616e207374604482015262185c9d60ea1b6064820152608401610511565b6114e04261012c6120e0565b82116115395760405162461bcd60e51b815260206004820152602260248201527f61756374696f6e2073686f756c6420656e642061667465722035206d696e7574604482015261657360f01b6064820152608401610511565b6001600160a01b0386166000908152600360209081526040808320888452909152902060010154156115c15760405162461bcd60e51b815260206004820152602b60248201527f63616e206e6f74207570646174652069662061756374696f6e2068617320612060448201526a62696420616c726561647960a81b6064820152608401610511565b600381018290556001810184905560028101839055604080518581526020810185905290810183905285906001600160a01b038816907f51c03edc3b65ea36334a24e707201d200b287ba1b6451ee14d3475a69308e3179060600160405180910390a3505050505050565b6000546001600160a01b031633146116565760405162461bcd60e51b815260040161051190611f66565b6001600160a01b0381166116bb5760405162461bcd60e51b815260206004820152602660248201527f4f776e61626c653a206e6577206f776e657220697320746865207a65726f206160448201526564647265737360d01b6064820152608401610511565b6116c48161183f565b50565b6000546001600160a01b031633146116f15760405162461bcd60e51b815260040161051190611f66565b6001600160a01b0381166117365760405162461bcd60e51b815260206004820152600c60248201526b7a65726f206164647265737360a01b6044820152606401610511565b600680546001600160a01b0319166001600160a01b0383169081179091556040519081527fe57e7c1f36cc83fade34e32351e6eee7eb9da532662b1b5da10c631e8222aca79060200161054b565b6000546001600160a01b031633146117ae5760405162461bcd60e51b815260040161051190611f66565b6006805460ff600160a01b808304821615810260ff60a01b1990931692909217928390556040517f9077d36bc00859b5c3f320310707208543dd35092cb0a0fe117d0c6a558b148b9361180a9390049091161515815260200190565b60405180910390a1565b600061182082846120f8565b9392505050565b6000611820828461210f565b6000611820828461212e565b600080546001600160a01b038381166001600160a01b0319831681178455604051919092169283917f8be0079c531659141344cd1fd0a4f28419497f9722a3daafe3b4186f6b6457e09190a35050565b6001600160a01b038083166000908152600360209081526040808320858452909152902080549091161561191857805460018201546118db91859185916001600160a01b031690611da7565b6001600160a01b0383166000908152600360209081526040808320858452909152812080546001600160a01b031916815560018101829055600201555b6001600160a01b038316600081815260026020818152604080842087855290915280832080546001600160a01b031916815560018101849055918201839055600382018390556004909101805460ff19169055518492917f018b64b6242d32aa550e95d78985b938d71af5b3f10827b0683f55da1639304891a3505050565b6001600160a01b038516600090815260026020908152604080832087845290915290206003015415611a055760405162461bcd60e51b8152602060048201526017602482015276185d58dd1a5bdb88185b1c9958591e481cdd185c9d1959604a1b6044820152606401610511565b611a118261012c6120e0565b811015611a7b5760405162461bcd60e51b815260206004820152603260248201527f656e642074696d65206d7573742062652067726561746572207468616e207374604482015271617274202862792035206d696e757465732960701b6064820152608401610511565b428211611abf5760405162461bcd60e51b8152602060048201526012602482015271696e76616c69642073746172742074696d6560701b6044820152606401610511565b6040518060a00160405280611ad13390565b6001600160a01b039081168252602080830187905260408084018790526060808501879052600060809586018190528b851680825260028086528483208d8452865291849020885181546001600160a01b03191697169690961786559387015160018601559186015191840191909155840151600383015592909101516004909101805460ff191691151591909117905584907fecde1ffd2965d959f69fb469e60403b746a142d4ce09ca900a52f143855db7fa33604080516001600160a01b0390921682526020820188905281018690526060810185905260800160405180910390a35050505050565b600654600160a01b900460ff1615611be65760405162461bcd60e51b8152600401610511906120a1565b6001600160a01b038316600090815260026020908152604080832085845290915290206001810154821015611c6c5760405162461bcd60e51b815260206004820152602660248201527f6269642063616e6e6f74206265206c6f776572207468616e207265736572766560448201526520707269636560d01b6064820152608401610511565b6001600160a01b038416600090815260036020908152604080832086845290915281206004546001820154919291611cc091606491611cab919061210f565b611cb5919061212e565b600184015490611e9f565b905080841015611d125760405162461bcd60e51b815260206004820152601f60248201527f6661696c656420746f206f7574626964206869676865737420626964646572006044820152606401610511565b81546001600160a01b031615611d405781546001830154611d4091889188916001600160a01b031690611da7565b81546001600160a01b0319163390811783556001830185905542600284015560405185815286906001600160a01b038916907f0158f5674dc243762459b88cfc91b10d2d1ef9d40821cca978c2b680aa4446829060200160405180910390a4505050505050565b6000826001600160a01b03168260405160006040518083038185875af1925050503d8060008114611df4576040519150601f19603f3d011682016040523d82523d6000602084013e611df9565b606091505b5050905080611e4a5760405162461bcd60e51b815260206004820181905260248201527f6661696c656420746f20726566756e642070726576696f7573206269646465726044820152606401610511565b826001600160a01b031684866001600160a01b03167f90e20d1ba82eaa07a212267355536f76bc83bf91c81fd41b74283c4082e7695285604051611e9091815260200190565b60405180910390a45050505050565b600061182082846120e0565b600060208284031215611ebd57600080fd5b5035919050565b6001600160a01b03811681146116c457600080fd5b60008060408385031215611eec57600080fd5b8235611ef781611ec4565b946020939093013593505050565b600080600080600060a08688031215611f1d57600080fd5b8535611f2881611ec4565b97602087013597506040870135966060810135965060800135945092505050565b600060208284031215611f5b57600080fd5b813561182081611ec4565b6020808252818101527f4f776e61626c653a2063616c6c6572206973206e6f7420746865206f776e6572604082015260600190565b6020808252601f908201527f5265656e7472616e637947756172643a207265656e7472616e742063616c6c00604082015260600190565b600060208284031215611fe457600080fd5b815161182081611ec4565b6020808252601190820152706e6f2061756374696f6e2065786973747360781b604082015260600190565b60208082526018908201527f61756374696f6e20616c726561647920726573756c7465640000000000000000604082015260600190565b60006020828403121561206357600080fd5b8151801515811461182057600080fd5b6000806040838503121561208657600080fd5b825161209181611ec4565b6020939093015192949293505050565b6020808252600f908201526e18dbdb9d1c9858dd081c185d5cd959608a1b604082015260600190565b634e487b7160e01b600052601160045260246000fd5b600082198211156120f3576120f36120ca565b500190565b60008282101561210a5761210a6120ca565b500390565b6000816000190483118215151615612129576121296120ca565b500290565b60008261214b57634e487b7160e01b600052601260045260246000fd5b50049056fea264697066735822122031212af48c5f7cf25900bea6f40e818410156343426245bbd53265e08bdd4f0564736f6c634300080a0033",
  "linkReferences": {},
  "deployedLinkReferences": {}
}