{
  "_format": "hh-sol-artifact-1",
  "contractName": "SoundchainMarketplace",
  "sourceName": "contracts/Marketplace.sol",
  "abi": [
    {
      "inputs": [
        {
          "internalType": "address payable",
          "name": "_feeRecipient",
          "type": "address"
        },
        {
          "internalType": "uint16",
          "name": "_platformFee",
          "type": "uint16"
        }
      ],
      "stateMutability": "nonpayable",
      "type": "constructor"
    },
    {
      "anonymous": false,
      "inputs": [
        {
          "indexed": true,
          "internalType": "address",
          "name": "owner",
          "type": "address"
        },
        {
          "indexed": true,
          "internalType": "address",
          "name": "nft",
          "type": "address"
        },
        {
          "indexed": false,
          "internalType": "uint256",
          "name": "tokenId",
          "type": "uint256"
        }
      ],
      "name": "ItemCanceled",
      "type": "event"
    },
    {
      "anonymous": false,
      "inputs": [
        {
          "indexed": true,
          "internalType": "address",
          "name": "owner",
          "type": "address"
        },
        {
          "indexed": true,
          "internalType": "address",
          "name": "nft",
          "type": "address"
        },
        {
          "indexed": false,
          "internalType": "uint256",
          "name": "tokenId",
          "type": "uint256"
        },
        {
          "indexed": false,
          "internalType": "uint256",
          "name": "quantity",
          "type": "uint256"
        },
        {
          "indexed": false,
          "internalType": "uint256",
          "name": "pricePerItem",
          "type": "uint256"
        },
        {
          "indexed": false,
          "internalType": "uint256",
          "name": "startingTime",
          "type": "uint256"
        }
      ],
      "name": "ItemListed",
      "type": "event"
    },
    {
      "anonymous": false,
      "inputs": [
        {
          "indexed": true,
          "internalType": "address",
          "name": "seller",
          "type": "address"
        },
        {
          "indexed": true,
          "internalType": "address",
          "name": "buyer",
          "type": "address"
        },
        {
          "indexed": true,
          "internalType": "address",
          "name": "nft",
          "type": "address"
        },
        {
          "indexed": false,
          "internalType": "uint256",
          "name": "tokenId",
          "type": "uint256"
        },
        {
          "indexed": false,
          "internalType": "uint256",
          "name": "quantity",
          "type": "uint256"
        },
        {
          "indexed": false,
          "internalType": "uint256",
          "name": "pricePerItem",
          "type": "uint256"
        }
      ],
      "name": "ItemSold",
      "type": "event"
    },
    {
      "anonymous": false,
      "inputs": [
        {
          "indexed": true,
          "internalType": "address",
          "name": "owner",
          "type": "address"
        },
        {
          "indexed": true,
          "internalType": "address",
          "name": "nft",
          "type": "address"
        },
        {
          "indexed": false,
          "internalType": "uint256",
          "name": "tokenId",
          "type": "uint256"
        },
        {
          "indexed": false,
          "internalType": "uint256",
          "name": "newPrice",
          "type": "uint256"
        },
        {
          "indexed": false,
          "internalType": "uint256",
          "name": "startingTime",
          "type": "uint256"
        }
      ],
      "name": "ItemUpdated",
      "type": "event"
    },
    {
      "anonymous": false,
      "inputs": [
        {
          "indexed": true,
          "internalType": "address",
          "name": "previousOwner",
          "type": "address"
        },
        {
          "indexed": true,
          "internalType": "address",
          "name": "newOwner",
          "type": "address"
        }
      ],
      "name": "OwnershipTransferred",
      "type": "event"
    },
    {
      "anonymous": false,
      "inputs": [
        {
          "indexed": false,
          "internalType": "uint16",
          "name": "platformFee",
          "type": "uint16"
        }
      ],
      "name": "UpdatePlatformFee",
      "type": "event"
    },
    {
      "anonymous": false,
      "inputs": [
        {
          "indexed": false,
          "internalType": "address payable",
          "name": "platformFeeRecipient",
          "type": "address"
        }
      ],
      "name": "UpdatePlatformFeeRecipient",
      "type": "event"
    },
    {
      "inputs": [
        {
          "internalType": "address",
          "name": "_nftAddress",
          "type": "address"
        },
        {
          "internalType": "uint256",
          "name": "_tokenId",
          "type": "uint256"
        },
        {
          "internalType": "address payable",
          "name": "_owner",
          "type": "address"
        }
      ],
      "name": "buyItem",
      "outputs": [],
      "stateMutability": "payable",
      "type": "function"
    },
    {
      "inputs": [
        {
          "internalType": "address",
          "name": "_nftAddress",
          "type": "address"
        },
        {
          "internalType": "uint256",
          "name": "_tokenId",
          "type": "uint256"
        }
      ],
      "name": "cancelListing",
      "outputs": [],
      "stateMutability": "nonpayable",
      "type": "function"
    },
    {
      "inputs": [],
      "name": "feeRecipient",
      "outputs": [
        {
          "internalType": "address payable",
          "name": "",
          "type": "address"
        }
      ],
      "stateMutability": "view",
      "type": "function"
    },
    {
      "inputs": [
        {
          "internalType": "address",
          "name": "_nftAddress",
          "type": "address"
        },
        {
          "internalType": "uint256",
          "name": "_tokenId",
          "type": "uint256"
        },
        {
          "internalType": "uint256",
          "name": "_quantity",
          "type": "uint256"
        },
        {
          "internalType": "uint256",
          "name": "_pricePerItem",
          "type": "uint256"
        },
        {
          "internalType": "uint256",
          "name": "_startingTime",
          "type": "uint256"
        }
      ],
      "name": "listItem",
      "outputs": [],
      "stateMutability": "nonpayable",
      "type": "function"
    },
    {
      "inputs": [
        {
          "internalType": "address",
          "name": "",
          "type": "address"
        },
        {
          "internalType": "uint256",
          "name": "",
          "type": "uint256"
        },
        {
          "internalType": "address",
          "name": "",
          "type": "address"
        }
      ],
      "name": "listings",
      "outputs": [
        {
          "internalType": "uint256",
          "name": "quantity",
          "type": "uint256"
        },
        {
          "internalType": "uint256",
          "name": "pricePerItem",
          "type": "uint256"
        },
        {
          "internalType": "uint256",
          "name": "startingTime",
          "type": "uint256"
        }
      ],
      "stateMutability": "view",
      "type": "function"
    },
    {
      "inputs": [],
      "name": "owner",
      "outputs": [
        {
          "internalType": "address",
          "name": "",
          "type": "address"
        }
      ],
      "stateMutability": "view",
      "type": "function"
    },
    {
      "inputs": [],
      "name": "platformFee",
      "outputs": [
        {
          "internalType": "uint16",
          "name": "",
          "type": "uint16"
        }
      ],
      "stateMutability": "view",
      "type": "function"
    },
    {
      "inputs": [],
      "name": "renounceOwnership",
      "outputs": [],
      "stateMutability": "nonpayable",
      "type": "function"
    },
    {
      "inputs": [
        {
          "internalType": "address",
          "name": "newOwner",
          "type": "address"
        }
      ],
      "name": "transferOwnership",
      "outputs": [],
      "stateMutability": "nonpayable",
      "type": "function"
    },
    {
      "inputs": [
        {
          "internalType": "address",
          "name": "_nftAddress",
          "type": "address"
        },
        {
          "internalType": "uint256",
          "name": "_tokenId",
          "type": "uint256"
        },
        {
          "internalType": "uint256",
          "name": "_newPrice",
          "type": "uint256"
        },
        {
          "internalType": "uint256",
          "name": "_startingTime",
          "type": "uint256"
        }
      ],
      "name": "updateListing",
      "outputs": [],
      "stateMutability": "nonpayable",
      "type": "function"
    },
    {
      "inputs": [
        {
          "internalType": "uint16",
          "name": "_platformFee",
          "type": "uint16"
        }
      ],
      "name": "updatePlatformFee",
      "outputs": [],
      "stateMutability": "nonpayable",
      "type": "function"
    },
    {
      "inputs": [
        {
          "internalType": "address payable",
          "name": "_platformFeeRecipient",
          "type": "address"
        }
      ],
      "name": "updatePlatformFeeRecipient",
      "outputs": [],
      "stateMutability": "nonpayable",
      "type": "function"
    }
  ],
  "bytecode": "0x608060405234801561001057600080fd5b5060405161183d38038061183d83398101604081905261002f916100c1565b61003833610071565b60018055600380546001600160a01b0390931662010000026001600160b01b031990931661ffff9092169190911791909117905561010e565b600080546001600160a01b038381166001600160a01b0319831681178455604051919092169283917f8be0079c531659141344cd1fd0a4f28419497f9722a3daafe3b4186f6b6457e09190a35050565b600080604083850312156100d457600080fd5b82516001600160a01b03811681146100eb57600080fd5b602084015190925061ffff8116811461010357600080fd5b809150509250929050565b6117208061011d6000396000f3fe6080604052600436106100a75760003560e01c8063afb0695211610064578063afb06952146101ca578063b100bcdb146101ea578063b2ddee061461020a578063d99647571461022a578063f2fde38b1461024a578063f5fe7f711461026a57600080fd5b8063259ca365146100ac57806326232a2e146100c157806346904840146100f45780636bd3a64b14610132578063715018a6146101975780638da5cb5b146101ac575b600080fd5b6100bf6100ba36600461140b565b61028a565b005b3480156100cd57600080fd5b506003546100dc9061ffff1681565b60405161ffff90911681526020015b60405180910390f35b34801561010057600080fd5b5060035461011a906201000090046001600160a01b031681565b6040516001600160a01b0390911681526020016100eb565b34801561013e57600080fd5b5061017c61014d36600461140b565b600260208181526000948552604080862082529385528385209052908352912080546001820154919092015483565b604080519384526020840192909252908201526060016100eb565b3480156101a357600080fd5b506100bf6105d6565b3480156101b857600080fd5b506000546001600160a01b031661011a565b3480156101d657600080fd5b506100bf6101e536600461144d565b61060c565b3480156101f657600080fd5b506100bf610205366004611471565b610681565b34801561021657600080fd5b506100bf6102253660046114b5565b6109af565b34801561023657600080fd5b506100bf6102453660046114e1565b610a60565b34801561025657600080fd5b506100bf61026536600461151c565b610c94565b34801561027657600080fd5b506100bf61028536600461151c565b610d2f565b600260015414156102b65760405162461bcd60e51b81526004016102ad90611539565b60405180910390fd5b600260018181556001600160a01b03808616600090815260208481526040808320888452825280832093871683529281529082902082516060810184528154808252948201549281019290925290930154908301528491849184919061032e5760405162461bcd60e51b81526004016102ad90611570565b6001600160a01b0387811660008181526002602081815260408084208c85528252808420958b1684529481529184902084516060810186528154815260018201549381019390935201548184015291516301ffc9a760e01b81526380ac58cd60e01b60048201528992899289926301ffc9a790602401602060405180830381865afa1580156103c1573d6000803e3d6000fd5b505050506040513d601f19601f820116820180604052508101906103e59190611599565b15610486576040516331a9108f60e11b81526004810184905284906001600160a01b038481169190831690636352211e90602401602060405180830381865afa158015610436573d6000803e3d6000fd5b505050506040513d601f19601f8201168201806040525081019061045a91906115bb565b6001600160a01b0316146104805760405162461bcd60e51b81526004016102ad906115d8565b506104c4565b60405162461bcd60e51b8152602060048201526013602482015272696e76616c6964206e6674206164647265737360681b60448201526064016102ad565b604081015142101561050b5760405162461bcd60e51b815260206004820152601060248201526f6974656d206e6f742062757961626c6560801b60448201526064016102ad565b6001600160a01b03808c1660009081526002602081815260408084208f85528252808420948e168452938152918390208351606081018552815480825260018301549482018590529190920154938201939093529161056a9190610db1565b3410156105b95760405162461bcd60e51b815260206004820152601b60248201527f696e73756666696369656e742062616c616e636520746f20627579000000000060448201526064016102ad565b6105c48c8c8c610dc4565b50506001805550505050505050505050565b6000546001600160a01b031633146106005760405162461bcd60e51b81526004016102ad90611601565b61060a60006111ff565b565b6000546001600160a01b031633146106365760405162461bcd60e51b81526004016102ad90611601565b6003805461ffff191661ffff83169081179091556040519081527fcabead39256298cdf7d1228eee68b47bc54a2192283d8d93574da08d2d7ac303906020015b60405180910390a150565b6001600160a01b0385166000908152600260208181526040808420888552825280842033808652908352938190208151606081018352815480825260018301549482019490945293015490830152879287929091156107135760405162461bcd60e51b815260206004820152600e60248201526d185b1c9958591e481b1a5cdd195960921b60448201526064016102ad565b6040516301ffc9a760e01b81526380ac58cd60e01b60048201526001600160a01b038a16906301ffc9a790602401602060405180830381865afa15801561075e573d6000803e3d6000fd5b505050506040513d601f19601f820116820180604052508101906107829190611599565b156104865788336040516331a9108f60e11b8152600481018b90526001600160a01b0391821691831690636352211e90602401602060405180830381865afa1580156107d2573d6000803e3d6000fd5b505050506040513d601f19601f820116820180604052508101906107f691906115bb565b6001600160a01b03161461081c5760405162461bcd60e51b81526004016102ad906115d8565b6001600160a01b03811663e985e9c5336040516001600160e01b031960e084901b1681526001600160a01b039091166004820152306024820152604401602060405180830381865afa158015610876573d6000803e3d6000fd5b505050506040513d601f19601f8201168201806040525081019061089a9190611599565b6108da5760405162461bcd60e51b81526020600482015260116024820152701a5d195b481b9bdd08185c1c1c9bdd9959607a1b60448201526064016102ad565b506040805160608101825288815260208082018990528183018890526001600160a01b038c166000908152600282528381208c82529091529182209091336001600160a01b039081168252602080830193909352604091820160002084518155928401516001840155920151600290910155891633604080518b8152602081018b9052908101899052606081018890526001600160a01b0391909116907f66bd0bc88d76947965bc00f670f5c5b25aebab9fef6cb916d8c63a253ec392b79060800160405180910390a3505050505050505050565b600260015414156109d25760405162461bcd60e51b81526004016102ad90611539565b60026001558181336001600160a01b03808416600090815260026020818152604080842087855282528084209486168452938152918390208351606081018552815480825260018301549482019490945291015492810192909252610a495760405162461bcd60e51b81526004016102ad90611570565b610a5486863361124f565b50506001805550505050565b60026001541415610a835760405162461bcd60e51b81526004016102ad90611539565b60026001558383336001600160a01b03808416600090815260026020818152604080842087855282528084209486168452938152918390208351606081018552815480825260018301549482019490945291015492810192909252610afa5760405162461bcd60e51b81526004016102ad90611570565b6001600160a01b03881660008181526002602090815260408083208b8452825280832033845282529182902082516301ffc9a760e01b81526380ac58cd60e01b600482015292519093926301ffc9a79260248083019391928290030181865afa158015610b6b573d6000803e3d6000fd5b505050506040513d601f19601f82011682018060405250810190610b8f9190611599565b156104865788336040516331a9108f60e11b8152600481018b90526001600160a01b0391821691831690636352211e90602401602060405180830381865afa158015610bdf573d6000803e3d6000fd5b505050506040513d601f19601f82011682018060405250810190610c0391906115bb565b6001600160a01b031614610c295760405162461bcd60e51b81526004016102ad906115d8565b506001810187905560028101869055604080518981526020810189905280820188905290516001600160a01b038b169133917f9295271777667d01515962129fd71062b01faaf20c3bc953381009f4b01f708b9181900360600190a350506001805550505050505050565b6000546001600160a01b03163314610cbe5760405162461bcd60e51b81526004016102ad90611601565b6001600160a01b038116610d235760405162461bcd60e51b815260206004820152602660248201527f4f776e61626c653a206e6577206f776e657220697320746865207a65726f206160448201526564647265737360d01b60648201526084016102ad565b610d2c816111ff565b50565b6000546001600160a01b03163314610d595760405162461bcd60e51b81526004016102ad90611601565b6003805462010000600160b01b031916620100006001600160a01b038416908102919091179091556040519081527fe57e7c1f36cc83fade34e32351e6eee7eb9da532662b1b5da10c631e8222aca790602001610676565b6000610dbd828461164c565b9392505050565b6001600160a01b038084166000908152600260208181526040808420878552825280842094861684529381528383208451606081018652815480825260018301549382018490529190930154948301949094529092610e239190610db1565b600354909150600090610e49906103e890610e4390859061ffff16610db1565b906113d2565b600354604051919250600091620100009091046001600160a01b03169083908381818185875af1925050503d8060008114610ea0576040519150601f19603f3d011682016040523d82523d6000602084013e610ea5565b606091505b5050905080610eec5760405162461bcd60e51b8152602060048201526013602482015272199959481d1c985b9cd9995c8819985a5b1959606a1b60448201526064016102ad565b6000806001600160a01b038916632a55205a89610f09878961166b565b6040516001600160e01b031960e085901b168152600481019290925260248201526044016040805180830381865afa158015610f49573d6000803e3d6000fd5b505050506040513d601f19601f82011682018060405250810190610f6d9190611682565b90925090506001600160a01b03821615611032576000826001600160a01b03168260405160006040518083038185875af1925050503d8060008114610fce576040519150601f19603f3d011682016040523d82523d6000602084013e610fd3565b606091505b50509050806110245760405162461bcd60e51b815260206004820152601b60248201527f726f79616c747920666565207472616e73666572206661696c6564000000000060448201526064016102ad565b61102e85836113de565b9450505b60006001600160a01b03881661104887876113ea565b604051600081818185875af1925050503d8060008114611084576040519150601f19603f3d011682016040523d82523d6000602084013e611089565b606091505b50509050806110d25760405162461bcd60e51b81526020600482015260156024820152741bdddb995c881d1c985b9cd9995c8819985a5b1959605a1b60448201526064016102ad565b6001600160a01b038a166342842e0e89336040516001600160e01b031960e085901b1681526001600160a01b03928316600482015291166024820152604481018c9052606401600060405180830381600087803b15801561113257600080fd5b505af1158015611146573d6000803e3d6000fd5b50505050896001600160a01b031661115b3390565b88516001600160a01b03918216918b16907f57d8d9cd489eb6f4aa398aa92b49d164d28fde9e7000b5c186bf1b3647a9ebb7908d9061119a8c826113d2565b6040805193845260208401929092529082015260600160405180910390a4505050506001600160a01b03958616600090815260026020818152604080842098845297815287832096909816825294909652505050908220828155600181018390550155565b600080546001600160a01b038381166001600160a01b0319831681178455604051919092169283917f8be0079c531659141344cd1fd0a4f28419497f9722a3daafe3b4186f6b6457e09190a35050565b6040516301ffc9a760e01b81526380ac58cd60e01b60048201526001600160a01b038416906301ffc9a790602401602060405180830381865afa15801561129a573d6000803e3d6000fd5b505050506040513d601f19601f820116820180604052508101906112be9190611599565b15610486576040516331a9108f60e11b81526004810183905283906001600160a01b038381169190831690636352211e90602401602060405180830381865afa15801561130f573d6000803e3d6000fd5b505050506040513d601f19601f8201168201806040525081019061133391906115bb565b6001600160a01b0316146113595760405162461bcd60e51b81526004016102ad906115d8565b506001600160a01b03838116600081815260026020818152604080842088855282528084209587168085529582528084208481556001810185905590920192909255518581529192917f9ba1a3cb55ce8d63d072a886f94d2a744f50cddf82128e897d0661f5ec623158910160405180910390a3505050565b6000610dbd82846116b0565b6000610dbd82846116d2565b6000610dbd828461166b565b6001600160a01b0381168114610d2c57600080fd5b60008060006060848603121561142057600080fd5b833561142b816113f6565b9250602084013591506040840135611442816113f6565b809150509250925092565b60006020828403121561145f57600080fd5b813561ffff81168114610dbd57600080fd5b600080600080600060a0868803121561148957600080fd5b8535611494816113f6565b97602087013597506040870135966060810135965060800135945092505050565b600080604083850312156114c857600080fd5b82356114d3816113f6565b946020939093013593505050565b600080600080608085870312156114f757600080fd5b8435611502816113f6565b966020860135965060408601359560600135945092505050565b60006020828403121561152e57600080fd5b8135610dbd816113f6565b6020808252601f908201527f5265656e7472616e637947756172643a207265656e7472616e742063616c6c00604082015260600190565b6020808252600f908201526e6e6f74206c6973746564206974656d60881b604082015260600190565b6000602082840312156115ab57600080fd5b81518015158114610dbd57600080fd5b6000602082840312156115cd57600080fd5b8151610dbd816113f6565b6020808252600f908201526e6e6f74206f776e696e67206974656d60881b604082015260600190565b6020808252818101527f4f776e61626c653a2063616c6c6572206973206e6f7420746865206f776e6572604082015260600190565b634e487b7160e01b600052601160045260246000fd5b600081600019048311821515161561166657611666611636565b500290565b60008282101561167d5761167d611636565b500390565b6000806040838503121561169557600080fd5b82516116a0816113f6565b6020939093015192949293505050565b6000826116cd57634e487b7160e01b600052601260045260246000fd5b500490565b600082198211156116e5576116e5611636565b50019056fea2646970667358221220dc3ec170bf48979ef42b060b7945484e5e2de66d13d0dd0e0da2aa82b201cf8964736f6c634300080a0033",
  "linkReferences": {},
  "deployedLinkReferences": {}
}