{
  "_format": "hh-sol-artifact-1",
  "contractName": "Soundchain721",
  "sourceName": "contracts/Soundchain721.sol",
  "abi": [
    {
      "inputs": [],
      "stateMutability": "nonpayable",
      "type": "constructor"
    },
    {
      "anonymous": false,
      "inputs": [
        {
          "indexed": true,
          "internalType": "address",
          "name": "owner",
          "type": "address"
        },
        {
          "indexed": true,
          "internalType": "address",
          "name": "approved",
          "type": "address"
        },
        {
          "indexed": true,
          "internalType": "uint256",
          "name": "tokenId",
          "type": "uint256"
        }
      ],
      "name": "Approval",
      "type": "event"
    },
    {
      "anonymous": false,
      "inputs": [
        {
          "indexed": true,
          "internalType": "address",
          "name": "owner",
          "type": "address"
        },
        {
          "indexed": true,
          "internalType": "address",
          "name": "operator",
          "type": "address"
        },
        {
          "indexed": false,
          "internalType": "bool",
          "name": "approved",
          "type": "bool"
        }
      ],
      "name": "ApprovalForAll",
      "type": "event"
    },
    {
      "anonymous": false,
      "inputs": [
        {
          "indexed": true,
          "internalType": "address",
          "name": "previousOwner",
          "type": "address"
        },
        {
          "indexed": true,
          "internalType": "address",
          "name": "newOwner",
          "type": "address"
        }
      ],
      "name": "OwnershipTransferred",
      "type": "event"
    },
    {
      "anonymous": false,
      "inputs": [
        {
          "indexed": true,
          "internalType": "address",
          "name": "from",
          "type": "address"
        },
        {
          "indexed": true,
          "internalType": "address",
          "name": "to",
          "type": "address"
        },
        {
          "indexed": true,
          "internalType": "uint256",
          "name": "tokenId",
          "type": "uint256"
        }
      ],
      "name": "Transfer",
      "type": "event"
    },
    {
      "inputs": [
        {
          "internalType": "address",
          "name": "to",
          "type": "address"
        },
        {
          "internalType": "uint256",
          "name": "tokenId",
          "type": "uint256"
        }
      ],
      "name": "approve",
      "outputs": [],
      "stateMutability": "nonpayable",
      "type": "function"
    },
    {
      "inputs": [
        {
          "internalType": "address",
          "name": "owner",
          "type": "address"
        }
      ],
      "name": "balanceOf",
      "outputs": [
        {
          "internalType": "uint256",
          "name": "",
          "type": "uint256"
        }
      ],
      "stateMutability": "view",
      "type": "function"
    },
    {
      "inputs": [
        {
          "internalType": "uint256",
          "name": "tokenId",
          "type": "uint256"
        }
      ],
      "name": "burn",
      "outputs": [],
      "stateMutability": "nonpayable",
      "type": "function"
    },
    {
      "inputs": [
        {
          "internalType": "uint256",
          "name": "tokenId",
          "type": "uint256"
        }
      ],
      "name": "getApproved",
      "outputs": [
        {
          "internalType": "address",
          "name": "",
          "type": "address"
        }
      ],
      "stateMutability": "view",
      "type": "function"
    },
    {
      "inputs": [
        {
          "internalType": "address",
          "name": "owner",
          "type": "address"
        },
        {
          "internalType": "address",
          "name": "operator",
          "type": "address"
        }
      ],
      "name": "isApprovedForAll",
      "outputs": [
        {
          "internalType": "bool",
          "name": "",
          "type": "bool"
        }
      ],
      "stateMutability": "view",
      "type": "function"
    },
    {
      "inputs": [],
      "name": "name",
      "outputs": [
        {
          "internalType": "string",
          "name": "",
          "type": "string"
        }
      ],
      "stateMutability": "view",
      "type": "function"
    },
    {
      "inputs": [],
      "name": "owner",
      "outputs": [
        {
          "internalType": "address",
          "name": "",
          "type": "address"
        }
      ],
      "stateMutability": "view",
      "type": "function"
    },
    {
      "inputs": [
        {
          "internalType": "uint256",
          "name": "tokenId",
          "type": "uint256"
        }
      ],
      "name": "ownerOf",
      "outputs": [
        {
          "internalType": "address",
          "name": "",
          "type": "address"
        }
      ],
      "stateMutability": "view",
      "type": "function"
    },
    {
      "inputs": [],
      "name": "renounceOwnership",
      "outputs": [],
      "stateMutability": "nonpayable",
      "type": "function"
    },
    {
      "inputs": [
        {
          "internalType": "uint256",
          "name": "tokenId",
          "type": "uint256"
        },
        {
          "internalType": "uint256",
          "name": "_salePrice",
          "type": "uint256"
        }
      ],
      "name": "royaltyInfo",
      "outputs": [
        {
          "internalType": "address",
          "name": "receiver",
          "type": "address"
        },
        {
          "internalType": "uint256",
          "name": "royaltyAmount",
          "type": "uint256"
        }
      ],
      "stateMutability": "view",
      "type": "function"
    },
    {
      "inputs": [
        {
          "internalType": "uint256",
          "name": "",
          "type": "uint256"
        }
      ],
      "name": "royaltyPercentage",
      "outputs": [
        {
          "internalType": "uint8",
          "name": "",
          "type": "uint8"
        }
      ],
      "stateMutability": "view",
      "type": "function"
    },
    {
      "inputs": [
        {
          "internalType": "uint256",
          "name": "",
          "type": "uint256"
        }
      ],
      "name": "royaltyReceivers",
      "outputs": [
        {
          "internalType": "address",
          "name": "",
          "type": "address"
        }
      ],
      "stateMutability": "view",
      "type": "function"
    },
    {
      "inputs": [
        {
          "internalType": "address",
          "name": "to",
          "type": "address"
        },
        {
          "internalType": "string",
          "name": "_tokenURI",
          "type": "string"
        },
        {
          "internalType": "uint8",
          "name": "_royaltyPercentage",
          "type": "uint8"
        }
      ],
      "name": "safeMint",
      "outputs": [],
      "stateMutability": "nonpayable",
      "type": "function"
    },
    {
      "inputs": [
        {
          "internalType": "address",
          "name": "from",
          "type": "address"
        },
        {
          "internalType": "address",
          "name": "to",
          "type": "address"
        },
        {
          "internalType": "uint256",
          "name": "tokenId",
          "type": "uint256"
        }
      ],
      "name": "safeTransferFrom",
      "outputs": [],
      "stateMutability": "nonpayable",
      "type": "function"
    },
    {
      "inputs": [
        {
          "internalType": "address",
          "name": "from",
          "type": "address"
        },
        {
          "internalType": "address",
          "name": "to",
          "type": "address"
        },
        {
          "internalType": "uint256",
          "name": "tokenId",
          "type": "uint256"
        },
        {
          "internalType": "bytes",
          "name": "_data",
          "type": "bytes"
        }
      ],
      "name": "safeTransferFrom",
      "outputs": [],
      "stateMutability": "nonpayable",
      "type": "function"
    },
    {
      "inputs": [
        {
          "internalType": "address",
          "name": "operator",
          "type": "address"
        },
        {
          "internalType": "bool",
          "name": "approved",
          "type": "bool"
        }
      ],
      "name": "setApprovalForAll",
      "outputs": [],
      "stateMutability": "nonpayable",
      "type": "function"
    },
    {
      "inputs": [
        {
          "internalType": "uint256",
          "name": "tokenId",
          "type": "uint256"
        },
        {
          "internalType": "address",
          "name": "creator",
          "type": "address"
        },
        {
          "internalType": "uint8",
          "name": "_royaltyPercentage",
          "type": "uint8"
        }
      ],
      "name": "setRoyalty",
      "outputs": [],
      "stateMutability": "nonpayable",
      "type": "function"
    },
    {
      "inputs": [
        {
          "internalType": "bytes4",
          "name": "interfaceId",
          "type": "bytes4"
        }
      ],
      "name": "supportsInterface",
      "outputs": [
        {
          "internalType": "bool",
          "name": "",
          "type": "bool"
        }
      ],
      "stateMutability": "view",
      "type": "function"
    },
    {
      "inputs": [],
      "name": "symbol",
      "outputs": [
        {
          "internalType": "string",
          "name": "",
          "type": "string"
        }
      ],
      "stateMutability": "view",
      "type": "function"
    },
    {
      "inputs": [
        {
          "internalType": "uint256",
          "name": "index",
          "type": "uint256"
        }
      ],
      "name": "tokenByIndex",
      "outputs": [
        {
          "internalType": "uint256",
          "name": "",
          "type": "uint256"
        }
      ],
      "stateMutability": "view",
      "type": "function"
    },
    {
      "inputs": [
        {
          "internalType": "address",
          "name": "owner",
          "type": "address"
        },
        {
          "internalType": "uint256",
          "name": "index",
          "type": "uint256"
        }
      ],
      "name": "tokenOfOwnerByIndex",
      "outputs": [
        {
          "internalType": "uint256",
          "name": "",
          "type": "uint256"
        }
      ],
      "stateMutability": "view",
      "type": "function"
    },
    {
      "inputs": [
        {
          "internalType": "uint256",
          "name": "tokenId",
          "type": "uint256"
        }
      ],
      "name": "tokenURI",
      "outputs": [
        {
          "internalType": "string",
          "name": "",
          "type": "string"
        }
      ],
      "stateMutability": "view",
      "type": "function"
    },
    {
      "inputs": [],
      "name": "totalSupply",
      "outputs": [
        {
          "internalType": "uint256",
          "name": "",
          "type": "uint256"
        }
      ],
      "stateMutability": "view",
      "type": "function"
    },
    {
      "inputs": [
        {
          "internalType": "address",
          "name": "from",
          "type": "address"
        },
        {
          "internalType": "address",
          "name": "to",
          "type": "address"
        },
        {
          "internalType": "uint256",
          "name": "tokenId",
          "type": "uint256"
        }
      ],
      "name": "transferFrom",
      "outputs": [],
      "stateMutability": "nonpayable",
      "type": "function"
    },
    {
      "inputs": [
        {
          "internalType": "address",
          "name": "newOwner",
          "type": "address"
        }
      ],
      "name": "transferOwnership",
      "outputs": [],
      "stateMutability": "nonpayable",
      "type": "function"
    }
  ],
  "bytecode": "0x60806040523480156200001157600080fd5b50604080518082018252601581527f536f756e64636861696e436f6c6c65637469626c650000000000000000000000602080830191825283518085019094526002845261534360f01b908401528151919291620000719160009162000100565b5080516200008790600190602084019062000100565b505050620000a46200009e620000aa60201b60201c565b620000ae565b620001e3565b3390565b600b80546001600160a01b038381166001600160a01b0319831681179093556040519116919082907f8be0079c531659141344cd1fd0a4f28419497f9722a3daafe3b4186f6b6457e090600090a35050565b8280546200010e90620001a6565b90600052602060002090601f0160209004810192826200013257600085556200017d565b82601f106200014d57805160ff19168380011785556200017d565b828001600101855582156200017d579182015b828111156200017d57825182559160200191906001019062000160565b506200018b9291506200018f565b5090565b5b808211156200018b576000815560010162000190565b600181811c90821680620001bb57607f821691505b60208210811415620001dd57634e487b7160e01b600052602260045260246000fd5b50919050565b61210180620001f36000396000f3fe608060405234801561001057600080fd5b50600436106101735760003560e01c80634f6ccce7116100de57806395d89b4111610097578063c87b56dd11610071578063c87b56dd14610376578063e431cc1f14610389578063e985e9c51461039c578063f2fde38b146103d857600080fd5b806395d89b4114610348578063a22cb46514610350578063b88d4fde1461036357600080fd5b80634f6ccce7146102e357806355cbb31b146102f65780636352211e1461030957806370a082311461031c578063715018a61461032f5780638da5cb5b1461033757600080fd5b806323b872dd1161013057806323b872dd1461023c5780632a55205a1461024f5780632f745c59146102815780633c768d0e1461029457806342842e0e146102bd57806342966c68146102d057600080fd5b806301ffc9a71461017857806306fdde03146101a0578063081812fc146101b5578063095ea7b3146101e057806312926030146101f557806318160ddd1461022a575b600080fd5b61018b610186366004611aee565b6103eb565b60405190151581526020015b60405180910390f35b6101a8610416565b6040516101979190611b63565b6101c86101c3366004611b76565b6104a8565b6040516001600160a01b039091168152602001610197565b6101f36101ee366004611bab565b610535565b005b610218610203366004611b76565b600e6020526000908152604090205460ff1681565b60405160ff9091168152602001610197565b6008545b604051908152602001610197565b6101f361024a366004611bd5565b61064b565b61026261025d366004611c11565b61067d565b604080516001600160a01b039093168352602083019190915201610197565b61022e61028f366004611bab565b6106ca565b6101c86102a2366004611b76565b600d602052600090815260409020546001600160a01b031681565b6101f36102cb366004611bd5565b610760565b6101f36102de366004611b76565b61077b565b61022e6102f1366004611b76565b6107f5565b6101f3610304366004611c44565b610888565b6101c8610317366004611b76565b6108d1565b61022e61032a366004611c80565b610948565b6101f36109cf565b600b546001600160a01b03166101c8565b6101a8610a35565b6101f361035e366004611c9b565b610a44565b6101f3610371366004611d63565b610b09565b6101a8610384366004611b76565b610b41565b6101f3610397366004611ddf565b610b4c565b61018b6103aa366004611e48565b6001600160a01b03918216600090815260056020908152604080832093909416825291909152205460ff1690565b6101f36103e6366004611c80565b610b86565b600063152a902d60e11b6001600160e01b031983161480610410575061041082610c4e565b92915050565b60606000805461042590611e7b565b80601f016020809104026020016040519081016040528092919081815260200182805461045190611e7b565b801561049e5780601f106104735761010080835404028352916020019161049e565b820191906000526020600020905b81548152906001019060200180831161048157829003601f168201915b5050505050905090565b60006104b382610c73565b6105195760405162461bcd60e51b815260206004820152602c60248201527f4552433732313a20617070726f76656420717565727920666f72206e6f6e657860448201526b34b9ba32b73a103a37b5b2b760a11b60648201526084015b60405180910390fd5b506000908152600460205260409020546001600160a01b031690565b6000610540826108d1565b9050806001600160a01b0316836001600160a01b031614156105ae5760405162461bcd60e51b815260206004820152602160248201527f4552433732313a20617070726f76616c20746f2063757272656e74206f776e656044820152603960f91b6064820152608401610510565b336001600160a01b03821614806105ca57506105ca81336103aa565b61063c5760405162461bcd60e51b815260206004820152603860248201527f4552433732313a20617070726f76652063616c6c6572206973206e6f74206f7760448201527f6e6572206e6f7220617070726f76656420666f7220616c6c00000000000000006064820152608401610510565b6106468383610c90565b505050565b610656335b82610cfe565b6106725760405162461bcd60e51b815260040161051090611eb6565b610646838383610de8565b6000828152600e6020526040812054819060ff1681606461069e8387611f1d565b6106a89190611f52565b6000968752600d6020526040909620546001600160a01b031696945050505050565b60006106d583610948565b82106107375760405162461bcd60e51b815260206004820152602b60248201527f455243373231456e756d657261626c653a206f776e657220696e646578206f7560448201526a74206f6620626f756e647360a81b6064820152608401610510565b506001600160a01b03919091166000908152600660209081526040808320938352929052205490565b61064683838360405180602001604052806000815250610b09565b61078433610650565b6107e95760405162461bcd60e51b815260206004820152603060248201527f4552433732314275726e61626c653a2063616c6c6572206973206e6f74206f7760448201526f1b995c881b9bdc88185c1c1c9bdd995960821b6064820152608401610510565b6107f281610f93565b50565b600061080060085490565b82106108635760405162461bcd60e51b815260206004820152602c60248201527f455243373231456e756d657261626c653a20676c6f62616c20696e646578206f60448201526b7574206f6620626f756e647360a01b6064820152608401610510565b6008828154811061087657610876611f66565b90600052602060002001549050919050565b6000928352600d6020908152604080852080546001600160a01b0319166001600160a01b039590951694909417909355600e90529120805460ff191660ff909216919091179055565b6000818152600260205260408120546001600160a01b0316806104105760405162461bcd60e51b815260206004820152602960248201527f4552433732313a206f776e657220717565727920666f72206e6f6e657869737460448201526832b73a103a37b5b2b760b91b6064820152608401610510565b60006001600160a01b0382166109b35760405162461bcd60e51b815260206004820152602a60248201527f4552433732313a2062616c616e636520717565727920666f7220746865207a65604482015269726f206164647265737360b01b6064820152608401610510565b506001600160a01b031660009081526003602052604090205490565b600b546001600160a01b03163314610a295760405162461bcd60e51b815260206004820181905260248201527f4f776e61626c653a2063616c6c6572206973206e6f7420746865206f776e65726044820152606401610510565b610a336000610f9c565b565b60606001805461042590611e7b565b6001600160a01b038216331415610a9d5760405162461bcd60e51b815260206004820152601960248201527f4552433732313a20617070726f766520746f2063616c6c6572000000000000006044820152606401610510565b3360008181526005602090815260408083206001600160a01b03871680855290835292819020805460ff191686151590811790915590519081529192917f17307eab39ab6107e8899845ad3d59bd9653f200f220920489ca2b5937696c31910160405180910390a35050565b610b133383610cfe565b610b2f5760405162461bcd60e51b815260040161051090611eb6565b610b3b84848484610fee565b50505050565b606061041082611021565b6000610b57600c5490565b9050610b638482611190565b610b6d81846111ae565b610b7b600c80546001019055565b610b3b818584610888565b600b546001600160a01b03163314610be05760405162461bcd60e51b815260206004820181905260248201527f4f776e61626c653a2063616c6c6572206973206e6f7420746865206f776e65726044820152606401610510565b6001600160a01b038116610c455760405162461bcd60e51b815260206004820152602660248201527f4f776e61626c653a206e6577206f776e657220697320746865207a65726f206160448201526564647265737360d01b6064820152608401610510565b6107f281610f9c565b60006001600160e01b0319821663780e9d6360e01b1480610410575061041082611239565b6000908152600260205260409020546001600160a01b0316151590565b600081815260046020526040902080546001600160a01b0319166001600160a01b0384169081179091558190610cc5826108d1565b6001600160a01b03167f8c5be1e5ebec7d5bd14f71427d1e84f3dd0314c0f7b2291e5b200ac8c7c3b92560405160405180910390a45050565b6000610d0982610c73565b610d6a5760405162461bcd60e51b815260206004820152602c60248201527f4552433732313a206f70657261746f7220717565727920666f72206e6f6e657860448201526b34b9ba32b73a103a37b5b2b760a11b6064820152608401610510565b6000610d75836108d1565b9050806001600160a01b0316846001600160a01b03161480610db05750836001600160a01b0316610da5846104a8565b6001600160a01b0316145b80610de057506001600160a01b0380821660009081526005602090815260408083209388168352929052205460ff165b949350505050565b826001600160a01b0316610dfb826108d1565b6001600160a01b031614610e635760405162461bcd60e51b815260206004820152602960248201527f4552433732313a207472616e73666572206f6620746f6b656e2074686174206960448201526839903737ba1037bbb760b91b6064820152608401610510565b6001600160a01b038216610ec55760405162461bcd60e51b8152602060048201526024808201527f4552433732313a207472616e7366657220746f20746865207a65726f206164646044820152637265737360e01b6064820152608401610510565b610ed0838383611289565b610edb600082610c90565b6001600160a01b0383166000908152600360205260408120805460019290610f04908490611f7c565b90915550506001600160a01b0382166000908152600360205260408120805460019290610f32908490611f93565b909155505060008181526002602052604080822080546001600160a01b0319166001600160a01b0386811691821790925591518493918716917fddf252ad1be2c89b69c2b068fc378daa952ba7f163c4a11628f55a4df523b3ef91a4505050565b6107f281611294565b600b80546001600160a01b038381166001600160a01b0319831681179093556040519116919082907f8be0079c531659141344cd1fd0a4f28419497f9722a3daafe3b4186f6b6457e090600090a35050565b610ff9848484610de8565b611005848484846112d4565b610b3b5760405162461bcd60e51b815260040161051090611fab565b606061102c82610c73565b6110925760405162461bcd60e51b815260206004820152603160248201527f45524337323155524953746f726167653a2055524920717565727920666f72206044820152703737b732bc34b9ba32b73a103a37b5b2b760791b6064820152608401610510565b6000828152600a6020526040812080546110ab90611e7b565b80601f01602080910402602001604051908101604052809291908181526020018280546110d790611e7b565b80156111245780601f106110f957610100808354040283529160200191611124565b820191906000526020600020905b81548152906001019060200180831161110757829003601f168201915b50505050509050600061114260408051602081019091526000815290565b9050805160001415611155575092915050565b81511561118757808260405160200161116f929190611ffd565b60405160208183030381529060405292505050919050565b610de0846113d2565b6111aa8282604051806020016040528060008152506114aa565b5050565b6111b782610c73565b61121a5760405162461bcd60e51b815260206004820152602e60248201527f45524337323155524953746f726167653a2055524920736574206f66206e6f6e60448201526d32bc34b9ba32b73a103a37b5b2b760911b6064820152608401610510565b6000828152600a60209081526040909120825161064692840190611a09565b60006001600160e01b031982166380ac58cd60e01b148061126a57506001600160e01b03198216635b5e139f60e01b145b8061041057506301ffc9a760e01b6001600160e01b0319831614610410565b6106468383836114dd565b61129d81611595565b6000818152600a6020526040902080546112b690611e7b565b1590506107f2576000818152600a602052604081206107f291611a8d565b60006001600160a01b0384163b156113c757604051630a85bd0160e11b81526001600160a01b0385169063150b7a029061131890339089908890889060040161202c565b6020604051808303816000875af1925050508015611353575060408051601f3d908101601f1916820190925261135091810190612069565b60015b6113ad573d808015611381576040519150601f19603f3d011682016040523d82523d6000602084013e611386565b606091505b5080516113a55760405162461bcd60e51b815260040161051090611fab565b805181602001fd5b6001600160e01b031916630a85bd0160e11b149050610de0565b506001949350505050565b60606113dd82610c73565b6114415760405162461bcd60e51b815260206004820152602f60248201527f4552433732314d657461646174613a2055524920717565727920666f72206e6f60448201526e3732bc34b9ba32b73a103a37b5b2b760891b6064820152608401610510565b600061145860408051602081019091526000815290565b9050600081511161147857604051806020016040528060008152506114a3565b806114828461163c565b604051602001611493929190611ffd565b6040516020818303038152906040525b9392505050565b6114b4838361173a565b6114c160008484846112d4565b6106465760405162461bcd60e51b815260040161051090611fab565b6001600160a01b0383166115385761153381600880546000838152600960205260408120829055600182018355919091527ff3f7a9fe364faab93b216da50a3214154f22a0a2b415b23a84c8169e8b636ee30155565b61155b565b816001600160a01b0316836001600160a01b03161461155b5761155b8382611879565b6001600160a01b0382166115725761064681611916565b826001600160a01b0316826001600160a01b0316146106465761064682826119c5565b60006115a0826108d1565b90506115ae81600084611289565b6115b9600083610c90565b6001600160a01b03811660009081526003602052604081208054600192906115e2908490611f7c565b909155505060008281526002602052604080822080546001600160a01b0319169055518391906001600160a01b038416907fddf252ad1be2c89b69c2b068fc378daa952ba7f163c4a11628f55a4df523b3ef908390a45050565b6060816116605750506040805180820190915260018152600360fc1b602082015290565b8160005b811561168a578061167481612086565b91506116839050600a83611f52565b9150611664565b60008167ffffffffffffffff8111156116a5576116a5611cd7565b6040519080825280601f01601f1916602001820160405280156116cf576020820181803683370190505b5090505b8415610de0576116e4600183611f7c565b91506116f1600a866120a1565b6116fc906030611f93565b60f81b81838151811061171157611711611f66565b60200101906001600160f81b031916908160001a905350611733600a86611f52565b94506116d3565b6001600160a01b0382166117905760405162461bcd60e51b815260206004820181905260248201527f4552433732313a206d696e7420746f20746865207a65726f20616464726573736044820152606401610510565b61179981610c73565b156117e65760405162461bcd60e51b815260206004820152601c60248201527f4552433732313a20746f6b656e20616c7265616479206d696e746564000000006044820152606401610510565b6117f260008383611289565b6001600160a01b038216600090815260036020526040812080546001929061181b908490611f93565b909155505060008181526002602052604080822080546001600160a01b0319166001600160a01b03861690811790915590518392907fddf252ad1be2c89b69c2b068fc378daa952ba7f163c4a11628f55a4df523b3ef908290a45050565b6000600161188684610948565b6118909190611f7c565b6000838152600760205260409020549091508082146118e3576001600160a01b03841660009081526006602090815260408083208584528252808320548484528184208190558352600790915290208190555b5060009182526007602090815260408084208490556001600160a01b039094168352600681528383209183525290812055565b60085460009061192890600190611f7c565b6000838152600960205260408120546008805493945090928490811061195057611950611f66565b90600052602060002001549050806008838154811061197157611971611f66565b60009182526020808320909101929092558281526009909152604080822084905585825281205560088054806119a9576119a96120b5565b6001900381819060005260206000200160009055905550505050565b60006119d083610948565b6001600160a01b039093166000908152600660209081526040808320868452825280832085905593825260079052919091209190915550565b828054611a1590611e7b565b90600052602060002090601f016020900481019282611a375760008555611a7d565b82601f10611a5057805160ff1916838001178555611a7d565b82800160010185558215611a7d579182015b82811115611a7d578251825591602001919060010190611a62565b50611a89929150611ac3565b5090565b508054611a9990611e7b565b6000825580601f10611aa9575050565b601f0160209004906000526020600020908101906107f291905b5b80821115611a895760008155600101611ac4565b6001600160e01b0319811681146107f257600080fd5b600060208284031215611b0057600080fd5b81356114a381611ad8565b60005b83811015611b26578181015183820152602001611b0e565b83811115610b3b5750506000910152565b60008151808452611b4f816020860160208601611b0b565b601f01601f19169290920160200192915050565b6020815260006114a36020830184611b37565b600060208284031215611b8857600080fd5b5035919050565b80356001600160a01b0381168114611ba657600080fd5b919050565b60008060408385031215611bbe57600080fd5b611bc783611b8f565b946020939093013593505050565b600080600060608486031215611bea57600080fd5b611bf384611b8f565b9250611c0160208501611b8f565b9150604084013590509250925092565b60008060408385031215611c2457600080fd5b50508035926020909101359150565b803560ff81168114611ba657600080fd5b600080600060608486031215611c5957600080fd5b83359250611c6960208501611b8f565b9150611c7760408501611c33565b90509250925092565b600060208284031215611c9257600080fd5b6114a382611b8f565b60008060408385031215611cae57600080fd5b611cb783611b8f565b915060208301358015158114611ccc57600080fd5b809150509250929050565b634e487b7160e01b600052604160045260246000fd5b600067ffffffffffffffff80841115611d0857611d08611cd7565b604051601f8501601f19908116603f01168101908282118183101715611d3057611d30611cd7565b81604052809350858152868686011115611d4957600080fd5b858560208301376000602087830101525050509392505050565b60008060008060808587031215611d7957600080fd5b611d8285611b8f565b9350611d9060208601611b8f565b925060408501359150606085013567ffffffffffffffff811115611db357600080fd5b8501601f81018713611dc457600080fd5b611dd387823560208401611ced565b91505092959194509250565b600080600060608486031215611df457600080fd5b611dfd84611b8f565b9250602084013567ffffffffffffffff811115611e1957600080fd5b8401601f81018613611e2a57600080fd5b611e3986823560208401611ced565b925050611c7760408501611c33565b60008060408385031215611e5b57600080fd5b611e6483611b8f565b9150611e7260208401611b8f565b90509250929050565b600181811c90821680611e8f57607f821691505b60208210811415611eb057634e487b7160e01b600052602260045260246000fd5b50919050565b60208082526031908201527f4552433732313a207472616e736665722063616c6c6572206973206e6f74206f6040820152701ddb995c881b9bdc88185c1c1c9bdd9959607a1b606082015260800190565b634e487b7160e01b600052601160045260246000fd5b6000816000190483118215151615611f3757611f37611f07565b500290565b634e487b7160e01b600052601260045260246000fd5b600082611f6157611f61611f3c565b500490565b634e487b7160e01b600052603260045260246000fd5b600082821015611f8e57611f8e611f07565b500390565b60008219821115611fa657611fa6611f07565b500190565b60208082526032908201527f4552433732313a207472616e7366657220746f206e6f6e20455243373231526560408201527131b2b4bb32b91034b6b83632b6b2b73a32b960711b606082015260800190565b6000835161200f818460208801611b0b565b835190830190612023818360208801611b0b565b01949350505050565b6001600160a01b038581168252841660208201526040810183905260806060820181905260009061205f90830184611b37565b9695505050505050565b60006020828403121561207b57600080fd5b81516114a381611ad8565b600060001982141561209a5761209a611f07565b5060010190565b6000826120b0576120b0611f3c565b500690565b634e487b7160e01b600052603160045260246000fdfea26469706673582212203c8bae09e0170b60f11a9ba928f6fc218f10788365612d801ec7f5f376b56c5c64736f6c634300080a0033",
  "linkReferences": {},
  "deployedLinkReferences": {}
}