{
  "_format": "hh-sol-artifact-1",
  "contractName": "SoundchainAuction",
  "sourceName": "contracts/Auction.sol",
  "abi": [
    {
      "inputs": [
        {
          "internalType": "address payable",
          "name": "_platformFeeRecipient",
          "type": "address"
        },
        {
          "internalType": "uint16",
          "name": "_platformFee",
          "type": "uint16"
        }
      ],
      "stateMutability": "nonpayable",
      "type": "constructor"
    },
    {
      "anonymous": false,
      "inputs": [
        {
          "indexed": true,
          "internalType": "address",
          "name": "nftAddress",
          "type": "address"
        },
        {
          "indexed": true,
          "internalType": "uint256",
          "name": "tokenId",
          "type": "uint256"
        }
      ],
      "name": "AuctionCancelled",
      "type": "event"
    },
    {
      "anonymous": false,
      "inputs": [
        {
          "indexed": true,
          "internalType": "address",
          "name": "nftAddress",
          "type": "address"
        },
        {
          "indexed": true,
          "internalType": "uint256",
          "name": "tokenId",
          "type": "uint256"
        }
      ],
      "name": "AuctionCreated",
      "type": "event"
    },
    {
      "anonymous": false,
      "inputs": [
        {
          "indexed": false,
          "internalType": "address",
          "name": "oldOwner",
          "type": "address"
        },
        {
          "indexed": true,
          "internalType": "address",
          "name": "nftAddress",
          "type": "address"
        },
        {
          "indexed": true,
          "internalType": "uint256",
          "name": "tokenId",
          "type": "uint256"
        },
        {
          "indexed": true,
          "internalType": "address",
          "name": "winner",
          "type": "address"
        },
        {
          "indexed": false,
          "internalType": "uint256",
          "name": "winningBid",
          "type": "uint256"
        }
      ],
      "name": "AuctionResulted",
      "type": "event"
    },
    {
      "anonymous": false,
      "inputs": [
        {
          "indexed": true,
          "internalType": "address",
          "name": "nftAddress",
          "type": "address"
        },
        {
          "indexed": true,
          "internalType": "uint256",
          "name": "tokenId",
          "type": "uint256"
        },
        {
          "indexed": true,
          "internalType": "address",
          "name": "bidder",
          "type": "address"
        },
        {
          "indexed": false,
          "internalType": "uint256",
          "name": "bid",
          "type": "uint256"
        }
      ],
      "name": "BidPlaced",
      "type": "event"
    },
    {
      "anonymous": false,
      "inputs": [
        {
          "indexed": true,
          "internalType": "address",
          "name": "nftAddress",
          "type": "address"
        },
        {
          "indexed": true,
          "internalType": "uint256",
          "name": "tokenId",
          "type": "uint256"
        },
        {
          "indexed": true,
          "internalType": "address",
          "name": "bidder",
          "type": "address"
        },
        {
          "indexed": false,
          "internalType": "uint256",
          "name": "bid",
          "type": "uint256"
        }
      ],
      "name": "BidRefunded",
      "type": "event"
    },
    {
      "anonymous": false,
      "inputs": [
        {
          "indexed": true,
          "internalType": "address",
          "name": "nftAddress",
          "type": "address"
        },
        {
          "indexed": true,
          "internalType": "uint256",
          "name": "tokenId",
          "type": "uint256"
        },
        {
          "indexed": true,
          "internalType": "address",
          "name": "bidder",
          "type": "address"
        },
        {
          "indexed": false,
          "internalType": "uint256",
          "name": "bid",
          "type": "uint256"
        }
      ],
      "name": "BidWithdrawn",
      "type": "event"
    },
    {
      "anonymous": false,
      "inputs": [
        {
          "indexed": true,
          "internalType": "address",
          "name": "previousOwner",
          "type": "address"
        },
        {
          "indexed": true,
          "internalType": "address",
          "name": "newOwner",
          "type": "address"
        }
      ],
      "name": "OwnershipTransferred",
      "type": "event"
    },
    {
      "anonymous": false,
      "inputs": [
        {
          "indexed": false,
          "internalType": "bool",
          "name": "isPaused",
          "type": "bool"
        }
      ],
      "name": "PauseToggled",
      "type": "event"
    },
    {
      "anonymous": false,
      "inputs": [
        {
          "indexed": true,
          "internalType": "address",
          "name": "nftAddress",
          "type": "address"
        },
        {
          "indexed": true,
          "internalType": "uint256",
          "name": "tokenId",
          "type": "uint256"
        },
        {
          "indexed": false,
          "internalType": "uint256",
          "name": "endTime",
          "type": "uint256"
        }
      ],
      "name": "UpdateAuctionEndTime",
      "type": "event"
    },
    {
      "anonymous": false,
      "inputs": [
        {
          "indexed": true,
          "internalType": "address",
          "name": "nftAddress",
          "type": "address"
        },
        {
          "indexed": true,
          "internalType": "uint256",
          "name": "tokenId",
          "type": "uint256"
        },
        {
          "indexed": false,
          "internalType": "uint256",
          "name": "reservePrice",
          "type": "uint256"
        }
      ],
      "name": "UpdateAuctionReservePrice",
      "type": "event"
    },
    {
      "anonymous": false,
      "inputs": [
        {
          "indexed": true,
          "internalType": "address",
          "name": "nftAddress",
          "type": "address"
        },
        {
          "indexed": true,
          "internalType": "uint256",
          "name": "tokenId",
          "type": "uint256"
        },
        {
          "indexed": false,
          "internalType": "uint256",
          "name": "startTime",
          "type": "uint256"
        }
      ],
      "name": "UpdateAuctionStartTime",
      "type": "event"
    },
    {
      "anonymous": false,
      "inputs": [
        {
          "indexed": false,
          "internalType": "uint256",
          "name": "minBidIncrement",
          "type": "uint256"
        }
      ],
      "name": "UpdateMinBidIncrement",
      "type": "event"
    },
    {
      "anonymous": false,
      "inputs": [
        {
          "indexed": false,
          "internalType": "uint256",
          "name": "platformFee",
          "type": "uint256"
        }
      ],
      "name": "UpdatePlatformFee",
      "type": "event"
    },
    {
      "anonymous": false,
      "inputs": [
        {
          "indexed": false,
          "internalType": "address payable",
          "name": "platformFeeRecipient",
          "type": "address"
        }
      ],
      "name": "UpdatePlatformFeeRecipient",
      "type": "event"
    },
    {
      "inputs": [
        {
          "internalType": "address",
          "name": "",
          "type": "address"
        },
        {
          "internalType": "uint256",
          "name": "",
          "type": "uint256"
        }
      ],
      "name": "auctions",
      "outputs": [
        {
          "internalType": "address",
          "name": "owner",
          "type": "address"
        },
        {
          "internalType": "uint256",
          "name": "minBid",
          "type": "uint256"
        },
        {
          "internalType": "uint256",
          "name": "reservePrice",
          "type": "uint256"
        },
        {
          "internalType": "uint256",
          "name": "startTime",
          "type": "uint256"
        },
        {
          "internalType": "uint256",
          "name": "endTime",
          "type": "uint256"
        },
        {
          "internalType": "bool",
          "name": "resulted",
          "type": "bool"
        }
      ],
      "stateMutability": "view",
      "type": "function"
    },
    {
      "inputs": [
        {
          "internalType": "address",
          "name": "_nftAddress",
          "type": "address"
        },
        {
          "internalType": "uint256",
          "name": "_tokenId",
          "type": "uint256"
        }
      ],
      "name": "cancelAuction",
      "outputs": [],
      "stateMutability": "nonpayable",
      "type": "function"
    },
    {
      "inputs": [
        {
          "internalType": "address",
          "name": "_nftAddress",
          "type": "address"
        },
        {
          "internalType": "uint256",
          "name": "_tokenId",
          "type": "uint256"
        },
        {
          "internalType": "uint256",
          "name": "_reservePrice",
          "type": "uint256"
        },
        {
          "internalType": "uint256",
          "name": "_startTimestamp",
          "type": "uint256"
        },
        {
          "internalType": "bool",
          "name": "minBidReserve",
          "type": "bool"
        },
        {
          "internalType": "uint256",
          "name": "_endTimestamp",
          "type": "uint256"
        }
      ],
      "name": "createAuction",
      "outputs": [],
      "stateMutability": "nonpayable",
      "type": "function"
    },
    {
      "inputs": [
        {
          "internalType": "address",
          "name": "_nftAddress",
          "type": "address"
        },
        {
          "internalType": "uint256",
          "name": "_tokenId",
          "type": "uint256"
        }
      ],
      "name": "getAuction",
      "outputs": [
        {
          "internalType": "address",
          "name": "_owner",
          "type": "address"
        },
        {
          "internalType": "uint256",
          "name": "_reservePrice",
          "type": "uint256"
        },
        {
          "internalType": "uint256",
          "name": "_startTime",
          "type": "uint256"
        },
        {
          "internalType": "uint256",
          "name": "_endTime",
          "type": "uint256"
        },
        {
          "internalType": "bool",
          "name": "_resulted",
          "type": "bool"
        },
        {
          "internalType": "uint256",
          "name": "minBid",
          "type": "uint256"
        }
      ],
      "stateMutability": "view",
      "type": "function"
    },
    {
      "inputs": [
        {
          "internalType": "address",
          "name": "_nftAddress",
          "type": "address"
        },
        {
          "internalType": "uint256",
          "name": "_tokenId",
          "type": "uint256"
        }
      ],
      "name": "getHighestBidder",
      "outputs": [
        {
          "internalType": "address payable",
          "name": "_bidder",
          "type": "address"
        },
        {
          "internalType": "uint256",
          "name": "_bid",
          "type": "uint256"
        },
        {
          "internalType": "uint256",
          "name": "_lastBidTime",
          "type": "uint256"
        }
      ],
      "stateMutability": "view",
      "type": "function"
    },
    {
      "inputs": [
        {
          "internalType": "address",
          "name": "",
          "type": "address"
        },
        {
          "internalType": "uint256",
          "name": "",
          "type": "uint256"
        }
      ],
      "name": "highestBids",
      "outputs": [
        {
          "internalType": "address payable",
          "name": "bidder",
          "type": "address"
        },
        {
          "internalType": "uint256",
          "name": "bid",
          "type": "uint256"
        },
        {
          "internalType": "uint256",
          "name": "lastBidTime",
          "type": "uint256"
        }
      ],
      "stateMutability": "view",
      "type": "function"
    },
    {
      "inputs": [],
      "name": "isPaused",
      "outputs": [
        {
          "internalType": "bool",
          "name": "",
          "type": "bool"
        }
      ],
      "stateMutability": "view",
      "type": "function"
    },
    {
      "inputs": [],
      "name": "minBidIncrement",
      "outputs": [
        {
          "internalType": "uint256",
          "name": "",
          "type": "uint256"
        }
      ],
      "stateMutability": "view",
      "type": "function"
    },
    {
      "inputs": [],
      "name": "owner",
      "outputs": [
        {
          "internalType": "address",
          "name": "",
          "type": "address"
        }
      ],
      "stateMutability": "view",
      "type": "function"
    },
    {
      "inputs": [
        {
          "internalType": "address",
          "name": "_nftAddress",
          "type": "address"
        },
        {
          "internalType": "uint256",
          "name": "_tokenId",
          "type": "uint256"
        }
      ],
      "name": "placeBid",
      "outputs": [],
      "stateMutability": "payable",
      "type": "function"
    },
    {
      "inputs": [],
      "name": "platformFee",
      "outputs": [
        {
          "internalType": "uint256",
          "name": "",
          "type": "uint256"
        }
      ],
      "stateMutability": "view",
      "type": "function"
    },
    {
      "inputs": [],
      "name": "platformFeeRecipient",
      "outputs": [
        {
          "internalType": "address payable",
          "name": "",
          "type": "address"
        }
      ],
      "stateMutability": "view",
      "type": "function"
    },
    {
      "inputs": [],
      "name": "renounceOwnership",
      "outputs": [],
      "stateMutability": "nonpayable",
      "type": "function"
    },
    {
      "inputs": [
        {
          "internalType": "address",
          "name": "_nftAddress",
          "type": "address"
        },
        {
          "internalType": "uint256",
          "name": "_tokenId",
          "type": "uint256"
        }
      ],
      "name": "resultAuction",
      "outputs": [],
      "stateMutability": "nonpayable",
      "type": "function"
    },
    {
      "inputs": [],
      "name": "toggleIsPaused",
      "outputs": [],
      "stateMutability": "nonpayable",
      "type": "function"
    },
    {
      "inputs": [
        {
          "internalType": "address",
          "name": "newOwner",
          "type": "address"
        }
      ],
      "name": "transferOwnership",
      "outputs": [],
      "stateMutability": "nonpayable",
      "type": "function"
    },
    {
      "inputs": [
        {
          "internalType": "address",
          "name": "_nftAddress",
          "type": "address"
        },
        {
          "internalType": "uint256",
          "name": "_tokenId",
          "type": "uint256"
        },
        {
          "internalType": "uint256",
          "name": "_endTimestamp",
          "type": "uint256"
        }
      ],
      "name": "updateAuctionEndTime",
      "outputs": [],
      "stateMutability": "nonpayable",
      "type": "function"
    },
    {
      "inputs": [
        {
          "internalType": "address",
          "name": "_nftAddress",
          "type": "address"
        },
        {
          "internalType": "uint256",
          "name": "_tokenId",
          "type": "uint256"
        },
        {
          "internalType": "uint256",
          "name": "_reservePrice",
          "type": "uint256"
        }
      ],
      "name": "updateAuctionReservePrice",
      "outputs": [],
      "stateMutability": "nonpayable",
      "type": "function"
    },
    {
      "inputs": [
        {
          "internalType": "address",
          "name": "_nftAddress",
          "type": "address"
        },
        {
          "internalType": "uint256",
          "name": "_tokenId",
          "type": "uint256"
        },
        {
          "internalType": "uint256",
          "name": "_startTime",
          "type": "uint256"
        }
      ],
      "name": "updateAuctionStartTime",
      "outputs": [],
      "stateMutability": "nonpayable",
      "type": "function"
    },
    {
      "inputs": [
        {
          "internalType": "uint256",
          "name": "_minBidIncrement",
          "type": "uint256"
        }
      ],
      "name": "updateMinBidIncrement",
      "outputs": [],
      "stateMutability": "nonpayable",
      "type": "function"
    },
    {
      "inputs": [
        {
          "internalType": "uint256",
          "name": "_platformFee",
          "type": "uint256"
        }
      ],
      "name": "updatePlatformFee",
      "outputs": [],
      "stateMutability": "nonpayable",
      "type": "function"
    },
    {
      "inputs": [
        {
          "internalType": "address payable",
          "name": "_platformFeeRecipient",
          "type": "address"
        }
      ],
      "name": "updatePlatformFeeRecipient",
      "outputs": [],
      "stateMutability": "nonpayable",
      "type": "function"
    },
    {
      "inputs": [
        {
          "internalType": "address",
          "name": "_nftAddress",
          "type": "address"
        },
        {
          "internalType": "uint256",
          "name": "_tokenId",
          "type": "uint256"
        }
      ],
      "name": "withdrawBid",
      "outputs": [],
      "stateMutability": "nonpayable",
      "type": "function"
    }
  ],
  "bytecode": "0x6080604052600160045560196005553480156200001b57600080fd5b50604051620027c5380380620027c58339810160408190526200003e916200013f565b6200004933620000ef565b600180556001600160a01b038216620000c25760405162461bcd60e51b815260206004820152603160248201527f536f756e64636861696e41756374696f6e3a20496e76616c696420506c6174666044820152701bdc9b4811995948149958da5c1a595b9d607a1b606482015260840160405180910390fd5b61ffff16600555600680546001600160a01b0319166001600160a01b03929092169190911790556200018f565b600080546001600160a01b038381166001600160a01b0319831681178455604051919092169283917f8be0079c531659141344cd1fd0a4f28419497f9722a3daafe3b4186f6b6457e09190a35050565b600080604083850312156200015357600080fd5b82516001600160a01b03811681146200016b57600080fd5b602084015190925061ffff811681146200018457600080fd5b809150509250929050565b612626806200019f6000396000f3fe6080604052600436106101405760003560e01c80638da5cb5b116100b6578063cb82de841161006f578063cb82de841461050c578063d98b9bb51461052c578063eb13554f1461053f578063f2fde38b1461055f578063f5fe7f711461057f578063f9613d7f1461059f57600080fd5b80638da5cb5b146103f65780639ad2d9ec14610428578063a062feb914610448578063a670a9b414610468578063aa0b5988146104bb578063b187bd26146104db57600080fd5b80635f7063ef116101085780635f7063ef146102665780636b753f36146102865780636c58a5a4146102fc578063715018a61461031c578063762a66a214610331578063859b97fe146103d657600080fd5b8063083759e01461014557806326232a2e14610167578063335b115e1461019057806344f91c1e146101a65780634cb8ef5b14610246575b600080fd5b34801561015157600080fd5b506101656101603660046122c5565b6105b4565b005b34801561017357600080fd5b5061017d60055481565b6040519081526020015b60405180910390f35b34801561019c57600080fd5b5061017d60045481565b3480156101b257600080fd5b5061020d6101c13660046122f3565b600260208181526000938452604080852090915291835291208054600182015492820154600383015460048401546005909401546001600160a01b039093169493919290919060ff1686565b604080516001600160a01b03909716875260208701959095529385019290925260608401526080830152151560a082015260c001610187565b34801561025257600080fd5b506101656102613660046122f3565b610623565b34801561027257600080fd5b506101656102813660046122f3565b61080d565b34801561029257600080fd5b506102d76102a13660046122f3565b60036020908152600092835260408084209091529082529020805460018201546002909201546001600160a01b03909116919083565b604080516001600160a01b039094168452602084019290925290820152606001610187565b34801561030857600080fd5b5061016561031736600461231f565b611053565b34801561032857600080fd5b5061016561124b565b34801561033d57600080fd5b5061039d61034c3660046122f3565b6001600160a01b039182166000908152600260208181526040808420948452939052919020805491810154600382015460048301546005840154600190940154949095169591949093909260ff1691565b604080516001600160a01b03909716875260208701959095529385019290925260608401521515608083015260a082015260c001610187565b3480156103e257600080fd5b506101656103f13660046122f3565b611281565b34801561040257600080fd5b506000546001600160a01b03165b6040516001600160a01b039091168152602001610187565b34801561043457600080fd5b5061016561044336600461231f565b61141d565b34801561045457600080fd5b5061016561046336600461231f565b6115db565b34801561047457600080fd5b506102d76104833660046122f3565b6001600160a01b0391821660009081526003602090815260408083209383529290522080546001820154600290920154921692909190565b3480156104c757600080fd5b506101656104d63660046122c5565b6116df565b3480156104e757600080fd5b506006546104fc90600160a01b900460ff1681565b6040519015158152602001610187565b34801561051857600080fd5b50610165610527366004612362565b61173e565b61016561053a3660046122f3565b6118d6565b34801561054b57600080fd5b50600654610410906001600160a01b031681565b34801561056b57600080fd5b5061016561057a3660046123c0565b611a11565b34801561058b57600080fd5b5061016561059a3660046123c0565b611aac565b3480156105ab57600080fd5b50610165611b69565b6000546001600160a01b031633146105e75760405162461bcd60e51b81526004016105de906123dd565b60405180910390fd5b60048190556040518181527f489b0441344cbdcb036bee4857de51567f580e9747166f76b581be803ca45fcb906020015b60405180910390a150565b600260015414156106465760405162461bcd60e51b81526004016105de90612412565b6002600155600654600160a01b900460ff16156106755760405162461bcd60e51b81526004016105de90612449565b6001600160a01b0382811660009081526003602090815260408083208584529091529020805490911633146106ec5760405162461bcd60e51b815260206004820152601e60248201527f796f7520617265206e6f7420746865206869676865737420626964646572000060448201526064016105de565b6001600160a01b03831660009081526002602090815260408083208584529091529020600401548042106107625760405162461bcd60e51b815260206004820152601b60248201527f63616e27742077697468647261772069662068617320656e646564000000000060448201526064016105de565b6001828101546001600160a01b0386166000908152600360209081526040808320888452909152812080546001600160a01b03191681559283018190556002909201919091556107b485853384611bf9565b336001600160a01b031684866001600160a01b03167f867b8ea96dd803063f905a19f8117cbb1866ec7a594dfede75ab4a5235f61d7c846040516107fa91815260200190565b60405180910390a4505060018055505050565b600260015414156108305760405162461bcd60e51b81526004016105de90612412565b600260018181556001600160a01b0384811660008181526020948552604080822087835286528082209282526003865280822087835290955293909320805492810154909290911690336040516331a9108f60e11b8152600481018790526001600160a01b0391821691881690636352211e90602401602060405180830381865afa1580156108c3573d6000803e3d6000fd5b505050506040513d601f19601f820116820180604052508101906108e79190612472565b6001600160a01b031614801561090f575083546001600160a01b0316336001600160a01b0316145b806109225750336001600160a01b038316145b61097a5760405162461bcd60e51b815260206004820152602360248201527f73656e646572206d757374206265206974656d206f776e6572206f722077696e6044820152623732b960e91b60648201526084016105de565b600084600401541161099e5760405162461bcd60e51b81526004016105de9061248f565b600484015442116109e55760405162461bcd60e51b8152602060048201526011602482015270185d58dd1a5bdb881b9bdd08195b991959607a1b60448201526064016105de565b600584015460ff1615610a0a5760405162461bcd60e51b81526004016105de906124ba565b6001600160a01b038216610a4f5760405162461bcd60e51b815260206004820152600c60248201526b6e6f206f70656e206269647360a01b60448201526064016105de565b8360020154811015610aad5760405162461bcd60e51b815260206004820152602160248201527f68696768657374206269642069732062656c6f772072657365727665507269636044820152606560f81b60648201526084016105de565b835460405163e985e9c560e01b81526001600160a01b0391821660048201523060248201529087169063e985e9c590604401602060405180830381865afa158015610afc573d6000803e3d6000fd5b505050506040513d601f19601f82011682018060405250810190610b2091906124f1565b610b635760405162461bcd60e51b8152602060048201526014602482015273185d58dd1a5bdb881b9bdd08185c1c1c9bdd995960621b60448201526064016105de565b60058401805460ff191660019081179091556001600160a01b0387166000908152600360209081526040808320898452909152812080546001600160a01b0319168155918201819055600291820181905590850154821115610cb9576000610bd8866002015484611cf190919063ffffffff16565b90506000610bfd6103e8610bf760055485611d0490919063ffffffff16565b90611d10565b6006546040519192506000916001600160a01b039091169083908381818185875af1925050503d8060008114610c4f576040519150601f19603f3d011682016040523d82523d6000602084013e610c54565b606091505b5050905080610ca55760405162461bcd60e51b815260206004820152601b60248201527f6661696c656420746f2073656e6420706c6174666f726d20666565000000000060448201526064016105de565b610caf8583611cf1565b9350505050610cbc565b50805b60405163152a902d60e11b8152600481018790526024810182905260009081906001600160a01b038a1690632a55205a906044016040805180830381865afa158015610d0c573d6000803e3d6000fd5b505050506040513d601f19601f82011682018060405250810190610d30919061250e565b90925090506001600160a01b03821615610e06576000826001600160a01b03168260405160006040518083038185875af1925050503d8060008114610d91576040519150601f19603f3d011682016040523d82523d6000602084013e610d96565b606091505b5050905080610df85760405162461bcd60e51b815260206004820152602860248201527f6661696c656420746f2073656e6420746865206f776e657220746865697220726044820152676f79616c7469657360c01b60648201526084016105de565b610e028483611cf1565b9350505b8215610ec55786546040516000916001600160a01b03169085908381818185875af1925050503d8060008114610e58576040519150601f19603f3d011682016040523d82523d6000602084013e610e5d565b606091505b5050905080610ec35760405162461bcd60e51b815260206004820152602c60248201527f6661696c656420746f2073656e6420746865206f776e6572207468652061756360448201526b74696f6e2062616c616e636560a01b60648201526084016105de565b505b6040516331a9108f60e11b8152600481018990526001600160a01b038a16906342842e0e908290636352211e90602401602060405180830381865afa158015610f12573d6000803e3d6000fd5b505050506040513d601f19601f82011682018060405250810190610f369190612472565b6040516001600160e01b031960e084901b1681526001600160a01b0391821660048201529088166024820152604481018b9052606401600060405180830381600087803b158015610f8657600080fd5b505af1158015610f9a573d6000803e3d6000fd5b50508854604080516001600160a01b0392831681526020810189905289831694508c9350918d16917f5a0c36f9e4fbfc64c8006c9c268b8b075c000da8498da5148237875465b28926910160405180910390a45050506001600160a01b03909516600090815260026020818152604080842097845296905294812080546001600160a01b03191681556001808201839055958101829055600381018290556004810191909155600501805460ff19169055505050805550565b6001600160a01b03838116600090815260026020908152604080832086845290915290208054909116331461109a5760405162461bcd60e51b81526004016105de9061253c565b600082116110df5760405162461bcd60e51b8152602060048201526012602482015271696e76616c69642073746172742074696d6560701b60448201526064016105de565b4260038201546110f090603c612580565b116111375760405162461bcd60e51b8152602060048201526017602482015276185d58dd1a5bdb88185b1c9958591e481cdd185c9d1959604a1b60448201526064016105de565b60048101546111488361012c612580565b106111b45760405162461bcd60e51b815260206004820152603660248201527f73746172742074696d652073686f756c64206265206c657373207468616e20656044820152756e642074696d65202862792035206d696e757465732960501b60648201526084016105de565b600581015460ff16156111d95760405162461bcd60e51b81526004016105de906124ba565b60008160040154116111fd5760405162461bcd60e51b81526004016105de9061248f565b6003810182905560405182815283906001600160a01b038616907ff123182d1bfce603eb20a2f74cce94af6542f353a4c2a8d5cfadf41822b32b38906020015b60405180910390a350505050565b6000546001600160a01b031633146112755760405162461bcd60e51b81526004016105de906123dd565b61127f6000611d1c565b565b600260015414156112a45760405162461bcd60e51b81526004016105de90612412565b600260018181556001600160a01b03848116600090815260208481526040808320878452825291829020825160c081018452815490941684529384015490830152928201549281019290925260038101546060830152600481015460808301526005015460ff16151560a0820152336040516331a9108f60e11b8152600481018490526001600160a01b0391821691851690636352211e90602401602060405180830381865afa15801561135c573d6000803e3d6000fd5b505050506040513d601f19601f820116820180604052508101906113809190612472565b6001600160a01b03161480156113a8575080516001600160a01b0316336001600160a01b0316145b6113c45760405162461bcd60e51b81526004016105de9061253c565b60008160800151116113e85760405162461bcd60e51b81526004016105de9061248f565b8060a001511561140a5760405162461bcd60e51b81526004016105de906124ba565b6114148383611d6c565b50506001805550565b6001600160a01b0383811660009081526002602090815260408083208684529091529020805490911633146114645760405162461bcd60e51b81526004016105de9061253c565b600481015442106114af5760405162461bcd60e51b8152602060048201526015602482015274185d58dd1a5bdb88185b1c9958591e48195b991959605a1b60448201526064016105de565b60008160040154116114d35760405162461bcd60e51b81526004016105de9061248f565b818160030154106115325760405162461bcd60e51b815260206004820152602360248201527f656e642074696d65206d7573742062652067726561746572207468616e207374604482015262185c9d60ea1b60648201526084016105de565b61153e4261012c612580565b82116115975760405162461bcd60e51b815260206004820152602260248201527f61756374696f6e2073686f756c6420656e642061667465722035206d696e7574604482015261657360f01b60648201526084016105de565b6004810182905560405182815283906001600160a01b038616907fd8aaad775c4c9b21112b5cb22ab4618c74936d873850fbd6f2e691701119ffe19060200161123d565b6001600160a01b0383811660009081526002602090815260408083208684529091529020805490911633146116525760405162461bcd60e51b815260206004820152601960248201527f73656e646572206d757374206265206974656d206f776e65720000000000000060448201526064016105de565b600581015460ff16156116775760405162461bcd60e51b81526004016105de906124ba565b600081600401541161169b5760405162461bcd60e51b81526004016105de9061248f565b6002810182905560405182815283906001600160a01b038616907f7987fb10b75b4faae7a7dd86931856b449b99b3e9a5761da49ffd2d1a6bf7f099060200161123d565b6000546001600160a01b031633146117095760405162461bcd60e51b81526004016105de906123dd565b60058190556040518181527f2644fd26359c107ff7991b6dfc36ce902b334ce4e3891bbecacc5922aa620efa90602001610618565b600654600160a01b900460ff16156117685760405162461bcd60e51b81526004016105de90612449565b336040516331a9108f60e11b8152600481018790526001600160a01b0391821691881690636352211e90602401602060405180830381865afa1580156117b2573d6000803e3d6000fd5b505050506040513d601f19601f820116820180604052508101906117d69190612472565b6001600160a01b031614801561186557506001600160a01b03861663e985e9c5336040516001600160e01b031960e084901b1681526001600160a01b039091166004820152306024820152604401602060405180830381865afa158015611841573d6000803e3d6000fd5b505050506040513d601f19601f8201168201806040525081019061186591906124f1565b6118c05760405162461bcd60e51b815260206004820152602660248201527f6e6f74206f776e657220616e64206f7220636f6e7472616374206e6f742061706044820152651c1c9bdd995960d21b60648201526084016105de565b6118ce868686868686611e7b565b505050505050565b600260015414156118f95760405162461bcd60e51b81526004016105de90612412565b6002600155600654600160a01b900460ff16156119285760405162461bcd60e51b81526004016105de90612449565b6001600160a01b038281166000908152600260208181526040808420868552825292839020835160c0810185528154909516855260018101549185019190915290810154918301919091526003810154606083018190526004820154608084015260059091015460ff16151560a083015242101580156119ac575060808101514211155b611a065760405162461bcd60e51b815260206004820152602560248201527f62696464696e67206f757473696465206f66207468652061756374696f6e2077604482015264696e646f7760d81b60648201526084016105de565b6114148383346120db565b6000546001600160a01b03163314611a3b5760405162461bcd60e51b81526004016105de906123dd565b6001600160a01b038116611aa05760405162461bcd60e51b815260206004820152602660248201527f4f776e61626c653a206e6577206f776e657220697320746865207a65726f206160448201526564647265737360d01b60648201526084016105de565b611aa981611d1c565b50565b6000546001600160a01b03163314611ad65760405162461bcd60e51b81526004016105de906123dd565b6001600160a01b038116611b1b5760405162461bcd60e51b815260206004820152600c60248201526b7a65726f206164647265737360a01b60448201526064016105de565b600680546001600160a01b0319166001600160a01b0383169081179091556040519081527fe57e7c1f36cc83fade34e32351e6eee7eb9da532662b1b5da10c631e8222aca790602001610618565b6000546001600160a01b03163314611b935760405162461bcd60e51b81526004016105de906123dd565b6006805460ff600160a01b808304821615810260ff60a01b1990931692909217928390556040517f9077d36bc00859b5c3f320310707208543dd35092cb0a0fe117d0c6a558b148b93611bef9390049091161515815260200190565b60405180910390a1565b6000826001600160a01b03168260405160006040518083038185875af1925050503d8060008114611c46576040519150601f19603f3d011682016040523d82523d6000602084013e611c4b565b606091505b5050905080611c9c5760405162461bcd60e51b815260206004820181905260248201527f6661696c656420746f20726566756e642070726576696f75732062696464657260448201526064016105de565b826001600160a01b031684866001600160a01b03167f90e20d1ba82eaa07a212267355536f76bc83bf91c81fd41b74283c4082e7695285604051611ce291815260200190565b60405180910390a45050505050565b6000611cfd8284612598565b9392505050565b6000611cfd82846125af565b6000611cfd82846125ce565b600080546001600160a01b038381166001600160a01b0319831681178455604051919092169283917f8be0079c531659141344cd1fd0a4f28419497f9722a3daafe3b4186f6b6457e09190a35050565b6001600160a01b0380831660009081526003602090815260408083208584529091529020805490911615611df55780546001820154611db891859185916001600160a01b031690611bf9565b6001600160a01b0383166000908152600360209081526040808320858452909152812080546001600160a01b031916815560018101829055600201555b6001600160a01b038316600081815260026020818152604080842087855290915280832080546001600160a01b03191681556001810184905591820183905560038201839055600482018390556005909101805460ff19169055518492917f018b64b6242d32aa550e95d78985b938d71af5b3f10827b0683f55da1639304891a3505050565b6001600160a01b038616600090815260026020908152604080832088845290915290206004015415611ee95760405162461bcd60e51b8152602060048201526017602482015276185d58dd1a5bdb88185b1c9958591e481cdd185c9d1959604a1b60448201526064016105de565b611ef58361012c612580565b811015611f5f5760405162461bcd60e51b815260206004820152603260248201527f656e642074696d65206d7573742062652067726561746572207468616e207374604482015271617274202862792035206d696e757465732960701b60648201526084016105de565b428311611fa35760405162461bcd60e51b8152602060048201526012602482015271696e76616c69642073746172742074696d6560701b60448201526064016105de565b60008215611fae5750835b6040518060c00160405280611fc03390565b6001600160a01b031681526020018281526020018681526020018581526020018381526020016000151581525060026000896001600160a01b03166001600160a01b03168152602001908152602001600020600088815260200190815260200160002060008201518160000160006101000a8154816001600160a01b0302191690836001600160a01b031602179055506020820151816001015560408201518160020155606082015181600301556080820151816004015560a08201518160050160006101000a81548160ff02191690831515021790555090505085876001600160a01b03167f3249a06bd478adf780bb7930214ad005e9cfa517d63221c0b77f27199d1a58b360405160405180910390a350505050505050565b600654600160a01b900460ff16156121055760405162461bcd60e51b81526004016105de90612449565b6001600160a01b0383166000908152600260208181526040808420868552909152909120908101546001820154141561219b57806002015482101561219b5760405162461bcd60e51b815260206004820152602660248201527f6269642063616e6e6f74206265206c6f776572207468616e207265736572766560448201526520707269636560d01b60648201526084016105de565b6001600160a01b0384166000908152600360209081526040808320868452909152812060045460018201549192916121d2916122b9565b9050808410156122245760405162461bcd60e51b815260206004820152601f60248201527f6661696c656420746f206f75746269642068696768657374206269646465720060448201526064016105de565b81546001600160a01b031615612252578154600183015461225291889188916001600160a01b031690611bf9565b81546001600160a01b0319163390811783556001830185905542600284015560405185815286906001600160a01b038916907f0158f5674dc243762459b88cfc91b10d2d1ef9d40821cca978c2b680aa4446829060200160405180910390a4505050505050565b6000611cfd8284612580565b6000602082840312156122d757600080fd5b5035919050565b6001600160a01b0381168114611aa957600080fd5b6000806040838503121561230657600080fd5b8235612311816122de565b946020939093013593505050565b60008060006060848603121561233457600080fd5b833561233f816122de565b95602085013595506040909401359392505050565b8015158114611aa957600080fd5b60008060008060008060c0878903121561237b57600080fd5b8635612386816122de565b955060208701359450604087013593506060870135925060808701356123ab81612354565b8092505060a087013590509295509295509295565b6000602082840312156123d257600080fd5b8135611cfd816122de565b6020808252818101527f4f776e61626c653a2063616c6c6572206973206e6f7420746865206f776e6572604082015260600190565b6020808252601f908201527f5265656e7472616e637947756172643a207265656e7472616e742063616c6c00604082015260600190565b6020808252600f908201526e18dbdb9d1c9858dd081c185d5cd959608a1b604082015260600190565b60006020828403121561248457600080fd5b8151611cfd816122de565b6020808252601190820152706e6f2061756374696f6e2065786973747360781b604082015260600190565b60208082526018908201527f61756374696f6e20616c726561647920726573756c7465640000000000000000604082015260600190565b60006020828403121561250357600080fd5b8151611cfd81612354565b6000806040838503121561252157600080fd5b825161252c816122de565b6020939093015192949293505050565b60208082526014908201527339b2b73232b91036bab9ba1031329037bbb732b960611b604082015260600190565b634e487b7160e01b600052601160045260246000fd5b600082198211156125935761259361256a565b500190565b6000828210156125aa576125aa61256a565b500390565b60008160001904831182151516156125c9576125c961256a565b500290565b6000826125eb57634e487b7160e01b600052601260045260246000fd5b50049056fea2646970667358221220f6309a2e96684191accdc2c92026f5d97e1ad77ff9b7f1d70b005d8cacd3d61364736f6c634300080a0033",
  "linkReferences": {},
  "deployedLinkReferences": {}
}