{
  "_format": "hh-sol-artifact-1",
  "contractName": "SoundchainMarketplace",
  "sourceName": "contracts/Marketplace.sol",
  "abi": [
    {
      "anonymous": false,
      "inputs": [
        {
          "indexed": true,
          "internalType": "address",
          "name": "owner",
          "type": "address"
        },
        {
          "indexed": true,
          "internalType": "address",
          "name": "nft",
          "type": "address"
        },
        {
          "indexed": false,
          "internalType": "uint256",
          "name": "tokenId",
          "type": "uint256"
        }
      ],
      "name": "ItemCanceled",
      "type": "event"
    },
    {
      "anonymous": false,
      "inputs": [
        {
          "indexed": true,
          "internalType": "address",
          "name": "owner",
          "type": "address"
        },
        {
          "indexed": true,
          "internalType": "address",
          "name": "nft",
          "type": "address"
        },
        {
          "indexed": false,
          "internalType": "uint256",
          "name": "tokenId",
          "type": "uint256"
        },
        {
          "indexed": false,
          "internalType": "uint256",
          "name": "quantity",
          "type": "uint256"
        },
        {
          "indexed": false,
          "internalType": "uint256",
          "name": "pricePerItem",
          "type": "uint256"
        },
        {
          "indexed": false,
          "internalType": "uint256",
          "name": "startingTime",
          "type": "uint256"
        }
      ],
      "name": "ItemListed",
      "type": "event"
    },
    {
      "anonymous": false,
      "inputs": [
        {
          "indexed": true,
          "internalType": "address",
          "name": "seller",
          "type": "address"
        },
        {
          "indexed": true,
          "internalType": "address",
          "name": "buyer",
          "type": "address"
        },
        {
          "indexed": true,
          "internalType": "address",
          "name": "nft",
          "type": "address"
        },
        {
          "indexed": false,
          "internalType": "uint256",
          "name": "tokenId",
          "type": "uint256"
        },
        {
          "indexed": false,
          "internalType": "uint256",
          "name": "quantity",
          "type": "uint256"
        },
        {
          "indexed": false,
          "internalType": "uint256",
          "name": "pricePerItem",
          "type": "uint256"
        }
      ],
      "name": "ItemSold",
      "type": "event"
    },
    {
      "anonymous": false,
      "inputs": [
        {
          "indexed": true,
          "internalType": "address",
          "name": "owner",
          "type": "address"
        },
        {
          "indexed": true,
          "internalType": "address",
          "name": "nft",
          "type": "address"
        },
        {
          "indexed": false,
          "internalType": "uint256",
          "name": "tokenId",
          "type": "uint256"
        },
        {
          "indexed": false,
          "internalType": "uint256",
          "name": "newPrice",
          "type": "uint256"
        }
      ],
      "name": "ItemUpdated",
      "type": "event"
    },
    {
      "anonymous": false,
      "inputs": [
        {
          "indexed": true,
          "internalType": "address",
          "name": "previousOwner",
          "type": "address"
        },
        {
          "indexed": true,
          "internalType": "address",
          "name": "newOwner",
          "type": "address"
        }
      ],
      "name": "OwnershipTransferred",
      "type": "event"
    },
    {
      "anonymous": false,
      "inputs": [
        {
          "indexed": false,
          "internalType": "uint16",
          "name": "platformFee",
          "type": "uint16"
        }
      ],
      "name": "UpdatePlatformFee",
      "type": "event"
    },
    {
      "anonymous": false,
      "inputs": [
        {
          "indexed": false,
          "internalType": "address payable",
          "name": "platformFeeRecipient",
          "type": "address"
        }
      ],
      "name": "UpdatePlatformFeeRecipient",
      "type": "event"
    },
    {
      "inputs": [
        {
          "internalType": "address",
          "name": "_nftAddress",
          "type": "address"
        },
        {
          "internalType": "uint256",
          "name": "_tokenId",
          "type": "uint256"
        },
        {
          "internalType": "address payable",
          "name": "_owner",
          "type": "address"
        }
      ],
      "name": "buyItem",
      "outputs": [],
      "stateMutability": "payable",
      "type": "function"
    },
    {
      "inputs": [
        {
          "internalType": "address",
          "name": "_nftAddress",
          "type": "address"
        },
        {
          "internalType": "uint256",
          "name": "_tokenId",
          "type": "uint256"
        }
      ],
      "name": "cancelListing",
      "outputs": [],
      "stateMutability": "nonpayable",
      "type": "function"
    },
    {
      "inputs": [
        {
          "internalType": "address",
          "name": "",
          "type": "address"
        }
      ],
      "name": "collectionRoyalties",
      "outputs": [
        {
          "internalType": "uint16",
          "name": "royalty",
          "type": "uint16"
        },
        {
          "internalType": "address",
          "name": "creator",
          "type": "address"
        },
        {
          "internalType": "address",
          "name": "feeRecipient",
          "type": "address"
        }
      ],
      "stateMutability": "view",
      "type": "function"
    },
    {
      "inputs": [],
      "name": "feeRecipient",
      "outputs": [
        {
          "internalType": "address payable",
          "name": "",
          "type": "address"
        }
      ],
      "stateMutability": "view",
      "type": "function"
    },
    {
      "inputs": [
        {
          "internalType": "address payable",
          "name": "_feeRecipient",
          "type": "address"
        },
        {
          "internalType": "uint16",
          "name": "_platformFee",
          "type": "uint16"
        }
      ],
      "name": "initialize",
      "outputs": [],
      "stateMutability": "nonpayable",
      "type": "function"
    },
    {
      "inputs": [
        {
          "internalType": "address",
          "name": "_nftAddress",
          "type": "address"
        },
        {
          "internalType": "uint256",
          "name": "_tokenId",
          "type": "uint256"
        },
        {
          "internalType": "uint256",
          "name": "_quantity",
          "type": "uint256"
        },
        {
          "internalType": "uint256",
          "name": "_pricePerItem",
          "type": "uint256"
        },
        {
          "internalType": "uint256",
          "name": "_startingTime",
          "type": "uint256"
        }
      ],
      "name": "listItem",
      "outputs": [],
      "stateMutability": "nonpayable",
      "type": "function"
    },
    {
      "inputs": [
        {
          "internalType": "address",
          "name": "",
          "type": "address"
        },
        {
          "internalType": "uint256",
          "name": "",
          "type": "uint256"
        },
        {
          "internalType": "address",
          "name": "",
          "type": "address"
        }
      ],
      "name": "listings",
      "outputs": [
        {
          "internalType": "uint256",
          "name": "quantity",
          "type": "uint256"
        },
        {
          "internalType": "uint256",
          "name": "pricePerItem",
          "type": "uint256"
        },
        {
          "internalType": "uint256",
          "name": "startingTime",
          "type": "uint256"
        }
      ],
      "stateMutability": "view",
      "type": "function"
    },
    {
      "inputs": [
        {
          "internalType": "address",
          "name": "",
          "type": "address"
        },
        {
          "internalType": "uint256",
          "name": "",
          "type": "uint256"
        }
      ],
      "name": "minters",
      "outputs": [
        {
          "internalType": "address",
          "name": "",
          "type": "address"
        }
      ],
      "stateMutability": "view",
      "type": "function"
    },
    {
      "inputs": [],
      "name": "owner",
      "outputs": [
        {
          "internalType": "address",
          "name": "",
          "type": "address"
        }
      ],
      "stateMutability": "view",
      "type": "function"
    },
    {
      "inputs": [],
      "name": "platformFee",
      "outputs": [
        {
          "internalType": "uint16",
          "name": "",
          "type": "uint16"
        }
      ],
      "stateMutability": "view",
      "type": "function"
    },
    {
      "inputs": [
        {
          "internalType": "address",
          "name": "_nftAddress",
          "type": "address"
        },
        {
          "internalType": "address",
          "name": "_creator",
          "type": "address"
        },
        {
          "internalType": "uint16",
          "name": "_royalty",
          "type": "uint16"
        },
        {
          "internalType": "address",
          "name": "_feeRecipient",
          "type": "address"
        }
      ],
      "name": "registerCollectionRoyalty",
      "outputs": [],
      "stateMutability": "nonpayable",
      "type": "function"
    },
    {
      "inputs": [
        {
          "internalType": "address",
          "name": "_nftAddress",
          "type": "address"
        },
        {
          "internalType": "uint256",
          "name": "_tokenId",
          "type": "uint256"
        },
        {
          "internalType": "uint16",
          "name": "_royalty",
          "type": "uint16"
        }
      ],
      "name": "registerRoyalty",
      "outputs": [],
      "stateMutability": "nonpayable",
      "type": "function"
    },
    {
      "inputs": [],
      "name": "renounceOwnership",
      "outputs": [],
      "stateMutability": "nonpayable",
      "type": "function"
    },
    {
      "inputs": [
        {
          "internalType": "address",
          "name": "",
          "type": "address"
        },
        {
          "internalType": "uint256",
          "name": "",
          "type": "uint256"
        }
      ],
      "name": "royalties",
      "outputs": [
        {
          "internalType": "uint16",
          "name": "",
          "type": "uint16"
        }
      ],
      "stateMutability": "view",
      "type": "function"
    },
    {
      "inputs": [
        {
          "internalType": "address",
          "name": "newOwner",
          "type": "address"
        }
      ],
      "name": "transferOwnership",
      "outputs": [],
      "stateMutability": "nonpayable",
      "type": "function"
    },
    {
      "inputs": [
        {
          "internalType": "address",
          "name": "_nftAddress",
          "type": "address"
        },
        {
          "internalType": "uint256",
          "name": "_tokenId",
          "type": "uint256"
        },
        {
          "internalType": "uint256",
          "name": "_newPrice",
          "type": "uint256"
        }
      ],
      "name": "updateListing",
      "outputs": [],
      "stateMutability": "nonpayable",
      "type": "function"
    },
    {
      "inputs": [
        {
          "internalType": "uint16",
          "name": "_platformFee",
          "type": "uint16"
        }
      ],
      "name": "updatePlatformFee",
      "outputs": [],
      "stateMutability": "nonpayable",
      "type": "function"
    },
    {
      "inputs": [
        {
          "internalType": "address payable",
          "name": "_platformFeeRecipient",
          "type": "address"
        }
      ],
      "name": "updatePlatformFeeRecipient",
      "outputs": [],
      "stateMutability": "nonpayable",
      "type": "function"
    }
  ],
  "bytecode": "0x608060405234801561001057600080fd5b506123c3806100206000396000f3fe6080604052600436106101095760003560e01c8063b100bcdb11610095578063f2fde38b11610064578063f2fde38b146103a3578063f3880b6e146103c3578063f39e69a4146103e3578063f5fe7f7114610403578063f772adf11461042357610109565b8063b100bcdb14610307578063b2ddee0614610327578063c1661a9a14610347578063e1e549c41461036757610109565b80636bd3a64b116100dc5780636bd3a64b1461020b578063715018a61461027357806378746d0d146102885780638da5cb5b146102c9578063afb06952146102e757610109565b8063259ca3651461010e57806326232a2e14610123578063469048401461015657806357b275b414610194575b600080fd5b61012161011c36600461200f565b610443565b005b34801561012f57600080fd5b50609a5461013e9061ffff1681565b60405161ffff90911681526020015b60405180910390f35b34801561016257600080fd5b50609a5461017c906201000090046001600160a01b031681565b6040516001600160a01b03909116815260200161014d565b3480156101a057600080fd5b506101e16101af366004611f3b565b609b602052600090815260409020805460019091015461ffff8216916001600160a01b03620100009091048116911683565b6040805161ffff90941684526001600160a01b03928316602085015291169082015260600161014d565b34801561021757600080fd5b5061025861022636600461200f565b609960209081526000938452604080852082529284528284209052825290208054600182015460029092015490919083565b6040805193845260208401929092529082015260600161014d565b34801561027f57600080fd5b506101216107b7565b34801561029457600080fd5b5061017c6102a3366004611fe4565b60976020908152600092835260408084209091529082529020546001600160a01b031681565b3480156102d557600080fd5b506033546001600160a01b031661017c565b3480156102f357600080fd5b50610121610302366004612124565b6107ed565b34801561031357600080fd5b506101216103223660046120c1565b610862565b34801561033357600080fd5b50610121610342366004611fe4565b610bf8565b34801561035357600080fd5b50610121610362366004611f8b565b610ca9565b34801561037357600080fd5b5061013e610382366004611fe4565b609860209081526000928352604080842090915290825290205461ffff1681565b3480156103af57600080fd5b506101216103be366004611f3b565b610ec8565b3480156103cf57600080fd5b506101216103de366004612050565b610f63565b3480156103ef57600080fd5b506101216103fe366004611f57565b6111aa565b34801561040f57600080fd5b5061012161041e366004611f3b565b61125e565b34801561042f57600080fd5b5061012161043e36600461208d565b6112e0565b6002606554141561046f5760405162461bcd60e51b815260040161046690612294565b60405180910390fd5b600260658190556001600160a01b03808516600090815260996020908152604080832087845282528083209386168352928152908290208251606081018452815480825260018301549382019390935293015491830191909152849184918491906104ec5760405162461bcd60e51b8152600401610466906122cb565b6001600160a01b0380881660008181526099602090815260408083208b84528252808320948a16835293815290839020835160608101855281548152600182015492810192909252600201548184015291516301ffc9a760e01b81528992899289926301ffc9a79061056990636cdb3d1360e11b906004016121d3565b60206040518083038186803b15801561058157600080fd5b505afa158015610595573d6000803e3d6000fd5b505050506040513d601f19601f820116820180604052508101906105b99190612104565b15610666578051604051627eeac760e11b81526001600160a01b038481166004830152602482018690528692919083169062fdd58e9060440160206040518083038186803b15801561060a57600080fd5b505afa15801561061e573d6000803e3d6000fd5b505050506040513d601f19601f82011682018060405250810190610642919061213e565b10156106605760405162461bcd60e51b8152600401610466906121e8565b506106a4565b60405162461bcd60e51b8152602060048201526013602482015272696e76616c6964206e6674206164647265737360681b6044820152606401610466565b60408101514210156106eb5760405162461bcd60e51b815260206004820152601060248201526f6974656d206e6f742062757961626c6560801b6044820152606401610466565b6001600160a01b03808c1660009081526099602090815260408083208e84528252808320938d168352928152908290208251606081018452815480825260018301549382018490526002909201549381019390935261074a9190611531565b3410156107995760405162461bcd60e51b815260206004820152601b60248201527f696e73756666696369656e742062616c616e636520746f2062757900000000006044820152606401610466565b6107a48c8c8c611544565b5050600160655550505050505050505050565b6033546001600160a01b031633146107e15760405162461bcd60e51b81526004016104669061225f565b6107eb6000611a77565b565b6033546001600160a01b031633146108175760405162461bcd60e51b81526004016104669061225f565b609a805461ffff191661ffff83169081179091556040519081527fcabead39256298cdf7d1228eee68b47bc54a2192283d8d93574da08d2d7ac303906020015b60405180910390a150565b8484336001600160a01b03808416600090815260996020908152604080832086845282528083209385168352928152908290208251606081018452815480825260018301549382019390935260029091015492810192909252156108f95760405162461bcd60e51b815260206004820152600e60248201526d185b1c9958591e481b1a5cdd195960921b6044820152606401610466565b6040516301ffc9a760e01b81526001600160a01b038a16906301ffc9a79061092c90636cdb3d1360e11b906004016121d3565b60206040518083038186803b15801561094457600080fd5b505afa158015610958573d6000803e3d6000fd5b505050506040513d601f19601f8201168201806040525081019061097c9190612104565b156106665788876001600160a01b03821662fdd58e336040516001600160e01b031960e084901b1681526001600160a01b039091166004820152602481018d905260440160206040518083038186803b1580156109d857600080fd5b505afa1580156109ec573d6000803e3d6000fd5b505050506040513d601f19601f82011682018060405250810190610a10919061213e565b1015610a565760405162461bcd60e51b81526020600482015260156024820152746d75737420686f6c6420656e6f756768206e66747360581b6044820152606401610466565b6001600160a01b03811663e985e9c5336040516001600160e01b031960e084901b1681526001600160a01b03909116600482015230602482015260440160206040518083038186803b158015610aab57600080fd5b505afa158015610abf573d6000803e3d6000fd5b505050506040513d601f19601f82011682018060405250810190610ae39190612104565b610b235760405162461bcd60e51b81526020600482015260116024820152701a5d195b481b9bdd08185c1c1c9bdd9959607a1b6044820152606401610466565b506040805160608101825288815260208082018990528183018890526001600160a01b038c166000908152609982528381208c82529091529182209091336001600160a01b039081168252602080830193909352604091820160002084518155928401516001840155920151600290910155891633604080518b8152602081018b9052908101899052606081018890526001600160a01b0391909116907f66bd0bc88d76947965bc00f670f5c5b25aebab9fef6cb916d8c63a253ec392b79060800160405180910390a3505050505050505050565b60026065541415610c1b5760405162461bcd60e51b815260040161046690612294565b600260658190556001600160a01b03831660009081526099602090815260408083208584528252808320338085529083529281902081516060810183528154808252600183015494820194909452940154908401528492849291610c915760405162461bcd60e51b8152600401610466906122cb565b610c9c868633611ac9565b5050600160655550505050565b6033546001600160a01b03163314610cd35760405162461bcd60e51b81526004016104669061225f565b6001600160a01b038316610d295760405162461bcd60e51b815260206004820152601760248201527f696e76616c69642063726561746f7220616464726573730000000000000000006044820152606401610466565b6127108261ffff161115610d715760405162461bcd60e51b815260206004820152600f60248201526e696e76616c696420726f79616c747960881b6044820152606401610466565b61ffff82161580610d8a57506001600160a01b03811615155b610dd65760405162461bcd60e51b815260206004820152601d60248201527f696e76616c69642066656520726563697069656e7420616464726573730000006044820152606401610466565b6001600160a01b038481166000908152609b60205260409020546201000090041615610e3a5760405162461bcd60e51b81526020600482015260136024820152721c9bde585b1d1e48185b1c9958591e481cd95d606a1b6044820152606401610466565b6040805160608101825261ffff93841681526001600160a01b0394851660208083019182529386168284019081529686166000908152609b909452919092209151825491518516620100000262010000600160b01b03199190941661ffff199092169190911716919091178155915160019092018054929091166001600160a01b0319909216919091179055565b6033546001600160a01b03163314610ef25760405162461bcd60e51b81526004016104669061225f565b6001600160a01b038116610f575760405162461bcd60e51b815260206004820152602660248201527f4f776e61626c653a206e6577206f776e657220697320746865207a65726f206160448201526564647265737360d01b6064820152608401610466565b610f6081611a77565b50565b6127108161ffff161115610fab5760405162461bcd60e51b815260206004820152600f60248201526e696e76616c696420726f79616c747960881b6044820152606401610466565b6040516301ffc9a760e01b81526001600160a01b038416906301ffc9a790610fde90636cdb3d1360e11b906004016121d3565b60206040518083038186803b158015610ff657600080fd5b505afa15801561100a573d6000803e3d6000fd5b505050506040513d601f19601f8201168201806040525081019061102e9190612104565b156110e2578260006001600160a01b03821662fdd58e336040516001600160e01b031960e084901b1681526001600160a01b0390911660048201526024810187905260440160206040518083038186803b15801561108b57600080fd5b505afa15801561109f573d6000803e3d6000fd5b505050506040513d601f19601f820116820180604052508101906110c3919061213e565b116110e05760405162461bcd60e51b8152600401610466906121e8565b505b6001600160a01b038381166000908152609760209081526040808320868452909152902054161561114b5760405162461bcd60e51b81526020600482015260136024820152721c9bde585b1d1e48185b1c9958591e481cd95d606a1b6044820152606401610466565b6001600160a01b03929092166000818152609760209081526040808320858452825280832080546001600160a01b0319163317905592825260988152828220938252929092529020805461ffff90921661ffff19909216919091179055565b600054610100900460ff16806111c3575060005460ff16155b6111df5760405162461bcd60e51b815260040161046690612211565b600054610100900460ff1615801561120a576000805460ff1961ff0019909116610100171660011790555b609a805461ffff191661ffff84161762010000600160b01b031916620100006001600160a01b0386160217905561123f611cbf565b611247611d43565b8015611259576000805461ff00191690555b505050565b6033546001600160a01b031633146112885760405162461bcd60e51b81526004016104669061225f565b609a805462010000600160b01b031916620100006001600160a01b038416908102919091179091556040519081527fe57e7c1f36cc83fade34e32351e6eee7eb9da532662b1b5da10c631e8222aca790602001610857565b600260655414156113035760405162461bcd60e51b815260040161046690612294565b600260658190556001600160a01b038416600090815260996020908152604080832086845282528083203380855290835292819020815160608101835281548082526001830154948201949094529401549084015285928592916113795760405162461bcd60e51b8152600401610466906122cb565b6001600160a01b03871660008181526099602090815260408083208a845282528083203384529091529081902090516301ffc9a760e01b81529091906301ffc9a7906113d090636cdb3d1360e11b906004016121d3565b60206040518083038186803b1580156113e857600080fd5b505afa1580156113fc573d6000803e3d6000fd5b505050506040513d601f19601f820116820180604052508101906114209190612104565b1561066657805488906001600160a01b03821662fdd58e336040516001600160e01b031960e084901b1681526001600160a01b039091166004820152602481018c905260440160206040518083038186803b15801561147e57600080fd5b505afa158015611492573d6000803e3d6000fd5b505050506040513d601f19601f820116820180604052508101906114b6919061213e565b10156114d45760405162461bcd60e51b8152600401610466906121e8565b506001810186905560408051888152602081018890526001600160a01b038a169133917f3c33e65e8698294810b631d476d60b44425303828da0b1f8b635231bfda12be2910160405180910390a350506001606555505050505050565b600061153d828461232c565b9392505050565b6001600160a01b03808416600090815260996020908152604080832086845282528083209385168352928152828220835160608101855281548082526001830154938201849052600290920154948101949094526115a29190611531565b609a549091506000906115c8906103e8906115c290859061ffff16611531565b90611dab565b609a54604051919250600091620100009091046001600160a01b03169083908381818185875af1925050503d806000811461161f576040519150601f19603f3d011682016040523d82523d6000602084013e611624565b606091505b505090508061166b5760405162461bcd60e51b8152602060048201526013602482015272199959481d1c985b9cd9995c8819985a5b1959606a1b6044820152606401610466565b6001600160a01b0380881660008181526097602090815260408083208b8452825280832054938352609882528083208b845290915290205491169061ffff1681158015906116bc575061ffff811615155b156117995760006116e16127106115c261ffff85166116db8a8a611db7565b90611531565b90506000836001600160a01b03168260405160006040518083038185875af1925050503d8060008114611730576040519150601f19603f3d011682016040523d82523d6000602084013e611735565b606091505b50509050806117865760405162461bcd60e51b815260206004820152601b60248201527f726f79616c747920666565207472616e73666572206661696c656400000000006044820152606401610466565b6117908683611dc3565b955050506118a7565b50506001600160a01b038088166000908152609b602052604090206001810154905491169061ffff1681158015906117d4575061ffff811615155b156118a75760006117f36127106115c261ffff85166116db8a8a611db7565b90506000836001600160a01b03168260405160006040518083038185875af1925050503d8060008114611842576040519150601f19603f3d011682016040523d82523d6000602084013e611847565b606091505b50509050806118985760405162461bcd60e51b815260206004820152601b60248201527f726f79616c747920666565207472616e73666572206661696c656400000000006044820152606401610466565b6118a28683611dc3565b955050505b60006001600160a01b0388166118bd8787611db7565b604051600081818185875af1925050503d80600081146118f9576040519150601f19603f3d011682016040523d82523d6000602084013e6118fe565b606091505b50509050806119475760405162461bcd60e51b81526020600482015260156024820152741bdddb995c881d1c985b9cd9995c8819985a5b1959605a1b6044820152606401610466565b6001600160a01b038a1663f242432a89338c8b60000151604051806020016040528060008152506040518663ffffffff1660e01b815260040161198e959493929190612156565b600060405180830381600087803b1580156119a857600080fd5b505af11580156119bc573d6000803e3d6000fd5b50505050896001600160a01b03166119d13390565b88516001600160a01b03918216918b16907f57d8d9cd489eb6f4aa398aa92b49d164d28fde9e7000b5c186bf1b3647a9ebb7908d90611a108c82611dab565b6040805193845260208401929092529082015260600160405180910390a45050506001600160a01b03968716600090815260996020908152604080832098835297815287822096909816815294909652505050908120818155600181018290556002015550565b603380546001600160a01b038381166001600160a01b0319831681179093556040519116919082907f8be0079c531659141344cd1fd0a4f28419497f9722a3daafe3b4186f6b6457e090600090a35050565b6001600160a01b0380841660008181526099602090815260408083208784528252808320948616835293815290839020835160608101855281548152600182015492810192909252600201548184015291516301ffc9a760e01b81526301ffc9a790611b4090636cdb3d1360e11b906004016121d3565b60206040518083038186803b158015611b5857600080fd5b505afa158015611b6c573d6000803e3d6000fd5b505050506040513d601f19601f82011682018060405250810190611b909190612104565b1561066657805184906001600160a01b03821662fdd58e336040516001600160e01b031960e084901b1681526001600160a01b0390911660048201526024810188905260440160206040518083038186803b158015611bee57600080fd5b505afa158015611c02573d6000803e3d6000fd5b505050506040513d601f19601f82011682018060405250810190611c26919061213e565b1015611c445760405162461bcd60e51b8152600401610466906121e8565b506001600160a01b0384811660008181526099602090815260408083208884528252808320948716808452948252808320838155600181018490556002019290925590518681529192917f9ba1a3cb55ce8d63d072a886f94d2a744f50cddf82128e897d0661f5ec623158910160405180910390a350505050565b600054610100900460ff1680611cd8575060005460ff16155b611cf45760405162461bcd60e51b815260040161046690612211565b600054610100900460ff16158015611d1f576000805460ff1961ff0019909116610100171660011790555b611d27611dcf565b611d2f611e42565b8015610f60576000805461ff001916905550565b600054610100900460ff1680611d5c575060005460ff16155b611d785760405162461bcd60e51b815260040161046690612211565b600054610100900460ff16158015611da3576000805460ff1961ff0019909116610100171660011790555b611d2f611eab565b600061153d828461230c565b600061153d828461234b565b600061153d82846122f4565b600054610100900460ff1680611de8575060005460ff16155b611e045760405162461bcd60e51b815260040161046690612211565b600054610100900460ff16158015611d2f576000805460ff1961ff0019909116610100171660011790558015610f60576000805461ff001916905550565b600054610100900460ff1680611e5b575060005460ff16155b611e775760405162461bcd60e51b815260040161046690612211565b600054610100900460ff16158015611ea2576000805460ff1961ff0019909116610100171660011790555b611d2f33611a77565b600054610100900460ff1680611ec4575060005460ff16155b611ee05760405162461bcd60e51b815260040161046690612211565b600054610100900460ff16158015611f0b576000805460ff1961ff0019909116610100171660011790555b60016065558015610f60576000805461ff001916905550565b803561ffff81168114611f3657600080fd5b919050565b600060208284031215611f4c578081fd5b813561153d81612378565b60008060408385031215611f69578081fd5b8235611f7481612378565b9150611f8260208401611f24565b90509250929050565b60008060008060808587031215611fa0578182fd5b8435611fab81612378565b93506020850135611fbb81612378565b9250611fc960408601611f24565b91506060850135611fd981612378565b939692955090935050565b60008060408385031215611ff6578182fd5b823561200181612378565b946020939093013593505050565b600080600060608486031215612023578283fd5b833561202e81612378565b925060208401359150604084013561204581612378565b809150509250925092565b600080600060608486031215612064578283fd5b833561206f81612378565b92506020840135915061208460408501611f24565b90509250925092565b6000806000606084860312156120a1578283fd5b83356120ac81612378565b95602085013595506040909401359392505050565b600080600080600060a086880312156120d8578081fd5b85356120e381612378565b97602087013597506040870135966060810135965060800135945092505050565b600060208284031215612115578081fd5b8151801515811461153d578182fd5b600060208284031215612135578081fd5b61153d82611f24565b60006020828403121561214f578081fd5b5051919050565b600060018060a01b03808816835260208188168185015286604085015285606085015260a06080850152845191508160a0850152825b828110156121a85785810182015185820160c00152810161218c565b828111156121b9578360c084870101525b5050601f01601f19169190910160c0019695505050505050565b6001600160e01b031991909116815260200190565b6020808252600f908201526e6e6f74206f776e696e67206974656d60881b604082015260600190565b6020808252602e908201527f496e697469616c697a61626c653a20636f6e747261637420697320616c72656160408201526d191e481a5b9a5d1a585b1a5e995960921b606082015260800190565b6020808252818101527f4f776e61626c653a2063616c6c6572206973206e6f7420746865206f776e6572604082015260600190565b6020808252601f908201527f5265656e7472616e637947756172643a207265656e7472616e742063616c6c00604082015260600190565b6020808252600f908201526e6e6f74206c6973746564206974656d60881b604082015260600190565b6000821982111561230757612307612362565b500190565b60008261232757634e487b7160e01b81526012600452602481fd5b500490565b600081600019048311821515161561234657612346612362565b500290565b60008282101561235d5761235d612362565b500390565b634e487b7160e01b600052601160045260246000fd5b6001600160a01b0381168114610f6057600080fdfea2646970667358221220d8dc0b1dda73fdaa62f16f8a63c1d37351f250b965c695729d9e8b47235dea8064736f6c63430008020033",
  "linkReferences": {},
  "deployedLinkReferences": {}
}