{
  "_format": "hh-sol-artifact-1",
  "contractName": "SoundchainMarketplace",
  "sourceName": "contracts/Marketplace.sol",
  "abi": [
    {
      "anonymous": false,
      "inputs": [
        {
          "indexed": true,
          "internalType": "address",
          "name": "owner",
          "type": "address"
        },
        {
          "indexed": true,
          "internalType": "address",
          "name": "nft",
          "type": "address"
        },
        {
          "indexed": false,
          "internalType": "uint256",
          "name": "tokenId",
          "type": "uint256"
        }
      ],
      "name": "ItemCanceled",
      "type": "event"
    },
    {
      "anonymous": false,
      "inputs": [
        {
          "indexed": true,
          "internalType": "address",
          "name": "owner",
          "type": "address"
        },
        {
          "indexed": true,
          "internalType": "address",
          "name": "nft",
          "type": "address"
        },
        {
          "indexed": false,
          "internalType": "uint256",
          "name": "tokenId",
          "type": "uint256"
        },
        {
          "indexed": false,
          "internalType": "uint256",
          "name": "quantity",
          "type": "uint256"
        },
        {
          "indexed": false,
          "internalType": "uint256",
          "name": "pricePerItem",
          "type": "uint256"
        },
        {
          "indexed": false,
          "internalType": "uint256",
          "name": "startingTime",
          "type": "uint256"
        }
      ],
      "name": "ItemListed",
      "type": "event"
    },
    {
      "anonymous": false,
      "inputs": [
        {
          "indexed": true,
          "internalType": "address",
          "name": "seller",
          "type": "address"
        },
        {
          "indexed": true,
          "internalType": "address",
          "name": "buyer",
          "type": "address"
        },
        {
          "indexed": true,
          "internalType": "address",
          "name": "nft",
          "type": "address"
        },
        {
          "indexed": false,
          "internalType": "uint256",
          "name": "tokenId",
          "type": "uint256"
        },
        {
          "indexed": false,
          "internalType": "uint256",
          "name": "quantity",
          "type": "uint256"
        },
        {
          "indexed": false,
          "internalType": "uint256",
          "name": "pricePerItem",
          "type": "uint256"
        }
      ],
      "name": "ItemSold",
      "type": "event"
    },
    {
      "anonymous": false,
      "inputs": [
        {
          "indexed": true,
          "internalType": "address",
          "name": "owner",
          "type": "address"
        },
        {
          "indexed": true,
          "internalType": "address",
          "name": "nft",
          "type": "address"
        },
        {
          "indexed": false,
          "internalType": "uint256",
          "name": "tokenId",
          "type": "uint256"
        },
        {
          "indexed": false,
          "internalType": "uint256",
          "name": "newPrice",
          "type": "uint256"
        }
      ],
      "name": "ItemUpdated",
      "type": "event"
    },
    {
      "anonymous": false,
      "inputs": [
        {
          "indexed": true,
          "internalType": "address",
          "name": "previousOwner",
          "type": "address"
        },
        {
          "indexed": true,
          "internalType": "address",
          "name": "newOwner",
          "type": "address"
        }
      ],
      "name": "OwnershipTransferred",
      "type": "event"
    },
    {
      "anonymous": false,
      "inputs": [
        {
          "indexed": false,
          "internalType": "uint16",
          "name": "platformFee",
          "type": "uint16"
        }
      ],
      "name": "UpdatePlatformFee",
      "type": "event"
    },
    {
      "anonymous": false,
      "inputs": [
        {
          "indexed": false,
          "internalType": "address payable",
          "name": "platformFeeRecipient",
          "type": "address"
        }
      ],
      "name": "UpdatePlatformFeeRecipient",
      "type": "event"
    },
    {
      "inputs": [
        {
          "internalType": "address",
          "name": "_nftAddress",
          "type": "address"
        },
        {
          "internalType": "uint256",
          "name": "_tokenId",
          "type": "uint256"
        },
        {
          "internalType": "address payable",
          "name": "_owner",
          "type": "address"
        }
      ],
      "name": "buyItem",
      "outputs": [],
      "stateMutability": "payable",
      "type": "function"
    },
    {
      "inputs": [
        {
          "internalType": "address",
          "name": "_nftAddress",
          "type": "address"
        },
        {
          "internalType": "uint256",
          "name": "_tokenId",
          "type": "uint256"
        }
      ],
      "name": "cancelListing",
      "outputs": [],
      "stateMutability": "nonpayable",
      "type": "function"
    },
    {
      "inputs": [
        {
          "internalType": "address",
          "name": "",
          "type": "address"
        }
      ],
      "name": "collectionRoyalties",
      "outputs": [
        {
          "internalType": "uint16",
          "name": "royalty",
          "type": "uint16"
        },
        {
          "internalType": "address",
          "name": "creator",
          "type": "address"
        },
        {
          "internalType": "address",
          "name": "feeRecipient",
          "type": "address"
        }
      ],
      "stateMutability": "view",
      "type": "function"
    },
    {
      "inputs": [],
      "name": "feeRecipient",
      "outputs": [
        {
          "internalType": "address payable",
          "name": "",
          "type": "address"
        }
      ],
      "stateMutability": "view",
      "type": "function"
    },
    {
      "inputs": [
        {
          "internalType": "address payable",
          "name": "_feeRecipient",
          "type": "address"
        },
        {
          "internalType": "uint16",
          "name": "_platformFee",
          "type": "uint16"
        }
      ],
      "name": "initialize",
      "outputs": [],
      "stateMutability": "nonpayable",
      "type": "function"
    },
    {
      "inputs": [
        {
          "internalType": "address",
          "name": "_nftAddress",
          "type": "address"
        },
        {
          "internalType": "uint256",
          "name": "_tokenId",
          "type": "uint256"
        },
        {
          "internalType": "uint256",
          "name": "_quantity",
          "type": "uint256"
        },
        {
          "internalType": "uint256",
          "name": "_pricePerItem",
          "type": "uint256"
        },
        {
          "internalType": "uint256",
          "name": "_startingTime",
          "type": "uint256"
        }
      ],
      "name": "listItem",
      "outputs": [],
      "stateMutability": "nonpayable",
      "type": "function"
    },
    {
      "inputs": [
        {
          "internalType": "address",
          "name": "",
          "type": "address"
        },
        {
          "internalType": "uint256",
          "name": "",
          "type": "uint256"
        },
        {
          "internalType": "address",
          "name": "",
          "type": "address"
        }
      ],
      "name": "listings",
      "outputs": [
        {
          "internalType": "uint256",
          "name": "quantity",
          "type": "uint256"
        },
        {
          "internalType": "uint256",
          "name": "pricePerItem",
          "type": "uint256"
        },
        {
          "internalType": "uint256",
          "name": "startingTime",
          "type": "uint256"
        }
      ],
      "stateMutability": "view",
      "type": "function"
    },
    {
      "inputs": [
        {
          "internalType": "address",
          "name": "",
          "type": "address"
        },
        {
          "internalType": "uint256",
          "name": "",
          "type": "uint256"
        }
      ],
      "name": "minters",
      "outputs": [
        {
          "internalType": "address",
          "name": "",
          "type": "address"
        }
      ],
      "stateMutability": "view",
      "type": "function"
    },
    {
      "inputs": [],
      "name": "owner",
      "outputs": [
        {
          "internalType": "address",
          "name": "",
          "type": "address"
        }
      ],
      "stateMutability": "view",
      "type": "function"
    },
    {
      "inputs": [],
      "name": "platformFee",
      "outputs": [
        {
          "internalType": "uint16",
          "name": "",
          "type": "uint16"
        }
      ],
      "stateMutability": "view",
      "type": "function"
    },
    {
      "inputs": [
        {
          "internalType": "address",
          "name": "_nftAddress",
          "type": "address"
        },
        {
          "internalType": "address",
          "name": "_creator",
          "type": "address"
        },
        {
          "internalType": "uint16",
          "name": "_royalty",
          "type": "uint16"
        },
        {
          "internalType": "address",
          "name": "_feeRecipient",
          "type": "address"
        }
      ],
      "name": "registerCollectionRoyalty",
      "outputs": [],
      "stateMutability": "nonpayable",
      "type": "function"
    },
    {
      "inputs": [
        {
          "internalType": "address",
          "name": "_nftAddress",
          "type": "address"
        },
        {
          "internalType": "uint256",
          "name": "_tokenId",
          "type": "uint256"
        },
        {
          "internalType": "uint16",
          "name": "_royalty",
          "type": "uint16"
        }
      ],
      "name": "registerRoyalty",
      "outputs": [],
      "stateMutability": "nonpayable",
      "type": "function"
    },
    {
      "inputs": [],
      "name": "renounceOwnership",
      "outputs": [],
      "stateMutability": "nonpayable",
      "type": "function"
    },
    {
      "inputs": [
        {
          "internalType": "address",
          "name": "",
          "type": "address"
        },
        {
          "internalType": "uint256",
          "name": "",
          "type": "uint256"
        }
      ],
      "name": "royalties",
      "outputs": [
        {
          "internalType": "uint16",
          "name": "",
          "type": "uint16"
        }
      ],
      "stateMutability": "view",
      "type": "function"
    },
    {
      "inputs": [
        {
          "internalType": "address",
          "name": "newOwner",
          "type": "address"
        }
      ],
      "name": "transferOwnership",
      "outputs": [],
      "stateMutability": "nonpayable",
      "type": "function"
    },
    {
      "inputs": [
        {
          "internalType": "address",
          "name": "_nftAddress",
          "type": "address"
        },
        {
          "internalType": "uint256",
          "name": "_tokenId",
          "type": "uint256"
        },
        {
          "internalType": "uint256",
          "name": "_newPrice",
          "type": "uint256"
        }
      ],
      "name": "updateListing",
      "outputs": [],
      "stateMutability": "nonpayable",
      "type": "function"
    },
    {
      "inputs": [
        {
          "internalType": "uint16",
          "name": "_platformFee",
          "type": "uint16"
        }
      ],
      "name": "updatePlatformFee",
      "outputs": [],
      "stateMutability": "nonpayable",
      "type": "function"
    },
    {
      "inputs": [
        {
          "internalType": "address payable",
          "name": "_platformFeeRecipient",
          "type": "address"
        }
      ],
      "name": "updatePlatformFeeRecipient",
      "outputs": [],
      "stateMutability": "nonpayable",
      "type": "function"
    }
  ],
  "bytecode": "0x608060405234801561001057600080fd5b50612b1e806100206000396000f3fe6080604052600436106101095760003560e01c8063b100bcdb11610095578063f2fde38b11610064578063f2fde38b146103a3578063f3880b6e146103c3578063f39e69a4146103e3578063f5fe7f7114610403578063f772adf11461042357610109565b8063b100bcdb14610307578063b2ddee0614610327578063c1661a9a14610347578063e1e549c41461036757610109565b80636bd3a64b116100dc5780636bd3a64b1461020b578063715018a61461027357806378746d0d146102885780638da5cb5b146102c9578063afb06952146102e757610109565b8063259ca3651461010e57806326232a2e14610123578063469048401461015657806357b275b414610194575b600080fd5b61012161011c36600461273d565b610443565b005b34801561012f57600080fd5b50609a5461013e9061ffff1681565b60405161ffff90911681526020015b60405180910390f35b34801561016257600080fd5b50609a5461017c906201000090046001600160a01b031681565b6040516001600160a01b03909116815260200161014d565b3480156101a057600080fd5b506101e16101af36600461264d565b609b602052600090815260409020805460019091015461ffff8216916001600160a01b03620100009091048116911683565b6040805161ffff90941684526001600160a01b03928316602085015291169082015260600161014d565b34801561021757600080fd5b5061025861022636600461273d565b609960209081526000938452604080852082529284528284209052825290208054600182015460029092015490919083565b6040805193845260208401929092529082015260600161014d565b34801561027f57600080fd5b506101216108be565b34801561029457600080fd5b5061017c6102a3366004612712565b60976020908152600092835260408084209091529082529020546001600160a01b031681565b3480156102d557600080fd5b506033546001600160a01b031661017c565b3480156102f357600080fd5b50610121610302366004612852565b6108f4565b34801561031357600080fd5b506101216103223660046127ef565b610969565b34801561033357600080fd5b50610121610342366004612712565b610e30565b34801561035357600080fd5b506101216103623660046126b9565b610ee1565b34801561037357600080fd5b5061013e610382366004612712565b609860209081526000928352604080842090915290825290205461ffff1681565b3480156103af57600080fd5b506101216103be36600461264d565b611126565b3480156103cf57600080fd5b506101216103de36600461277e565b6111c1565b3480156103ef57600080fd5b506101216103fe366004612685565b61155f565b34801561040f57600080fd5b5061012161041e36600461264d565b611613565b34801561042f57600080fd5b5061012161043e3660046127bb565b611695565b6002606554141561046f5760405162461bcd60e51b8152600401610466906129ef565b60405180910390fd5b600260658190556001600160a01b03808516600090815260996020908152604080832087845282528083209386168352928152908290208251606081018452815480825260018301549382019390935293015491830191909152849184918491906104ec5760405162461bcd60e51b815260040161046690612a26565b6001600160a01b0380881660008181526099602090815260408083208b84528252808320948a16835293815290839020835160608101855281548152600182015492810192909252600201548184015291516301ffc9a760e01b81528992899289926301ffc9a790610569906380ac58cd60e01b90600401612901565b60206040518083038186803b15801561058157600080fd5b505afa158015610595573d6000803e3d6000fd5b505050506040513d601f19601f820116820180604052508101906105b99190612832565b15610669576040516331a9108f60e11b81526004810184905284906001600160a01b038481169190831690636352211e9060240160206040518083038186803b15801561060557600080fd5b505afa158015610619573d6000803e3d6000fd5b505050506040513d601f19601f8201168201806040525081019061063d9190612669565b6001600160a01b0316146106635760405162461bcd60e51b815260040161046690612943565b506107ab565b6040516301ffc9a760e01b81526001600160a01b038516906301ffc9a79061069c90636cdb3d1360e11b90600401612901565b60206040518083038186803b1580156106b457600080fd5b505afa1580156106c8573d6000803e3d6000fd5b505050506040513d601f19601f820116820180604052508101906106ec9190612832565b15610793578051604051627eeac760e11b81526001600160a01b038481166004830152602482018690528692919083169062fdd58e9060440160206040518083038186803b15801561073d57600080fd5b505afa158015610751573d6000803e3d6000fd5b505050506040513d601f19601f82011682018060405250810190610775919061286c565b10156106635760405162461bcd60e51b815260040161046690612943565b60405162461bcd60e51b815260040161046690612916565b60408101514210156107f25760405162461bcd60e51b815260206004820152601060248201526f6974656d206e6f742062757961626c6560801b6044820152606401610466565b6001600160a01b03808c1660009081526099602090815260408083208e84528252808320938d16835292815290829020825160608101845281548082526001830154938201849052600290920154938101939093526108519190611a17565b3410156108a05760405162461bcd60e51b815260206004820152601b60248201527f696e73756666696369656e742062616c616e636520746f2062757900000000006044820152606401610466565b6108ab8c8c8c611a2a565b5050600160655550505050505050505050565b6033546001600160a01b031633146108e85760405162461bcd60e51b8152600401610466906129ba565b6108f26000612054565b565b6033546001600160a01b0316331461091e5760405162461bcd60e51b8152600401610466906129ba565b609a805461ffff191661ffff83169081179091556040519081527fcabead39256298cdf7d1228eee68b47bc54a2192283d8d93574da08d2d7ac303906020015b60405180910390a150565b8484336001600160a01b0380841660009081526099602090815260408083208684528252808320938516835292815290829020825160608101845281548082526001830154938201939093526002909101549281019290925215610a005760405162461bcd60e51b815260206004820152600e60248201526d185b1c9958591e481b1a5cdd195960921b6044820152606401610466565b6040516301ffc9a760e01b81526001600160a01b038a16906301ffc9a790610a33906380ac58cd60e01b90600401612901565b60206040518083038186803b158015610a4b57600080fd5b505afa158015610a5f573d6000803e3d6000fd5b505050506040513d601f19601f82011682018060405250810190610a839190612832565b15610bff5788336040516331a9108f60e11b8152600481018b90526001600160a01b0391821691831690636352211e9060240160206040518083038186803b158015610ace57600080fd5b505afa158015610ae2573d6000803e3d6000fd5b505050506040513d601f19601f82011682018060405250810190610b069190612669565b6001600160a01b031614610b2c5760405162461bcd60e51b815260040161046690612943565b6001600160a01b03811663e985e9c5336040516001600160e01b031960e084901b1681526001600160a01b03909116600482015230602482015260440160206040518083038186803b158015610b8157600080fd5b505afa158015610b95573d6000803e3d6000fd5b505050506040513d601f19601f82011682018060405250810190610bb99190612832565b610bf95760405162461bcd60e51b81526020600482015260116024820152701a5d195b481b9bdd08185c1c1c9bdd9959607a1b6044820152606401610466565b50610d5c565b6040516301ffc9a760e01b81526001600160a01b038a16906301ffc9a790610c3290636cdb3d1360e11b90600401612901565b60206040518083038186803b158015610c4a57600080fd5b505afa158015610c5e573d6000803e3d6000fd5b505050506040513d601f19601f82011682018060405250810190610c829190612832565b156107935788876001600160a01b03821662fdd58e336040516001600160e01b031960e084901b1681526001600160a01b039091166004820152602481018d905260440160206040518083038186803b158015610cde57600080fd5b505afa158015610cf2573d6000803e3d6000fd5b505050506040513d601f19601f82011682018060405250810190610d16919061286c565b1015610b2c5760405162461bcd60e51b81526020600482015260156024820152746d75737420686f6c6420656e6f756768206e66747360581b6044820152606401610466565b6040805160608101825288815260208082018990528183018890526001600160a01b038c166000908152609982528381208c82529091529182209091336001600160a01b039081168252602080830193909352604091820160002084518155928401516001840155920151600290910155891633604080518b8152602081018b9052908101899052606081018890526001600160a01b0391909116907f66bd0bc88d76947965bc00f670f5c5b25aebab9fef6cb916d8c63a253ec392b79060800160405180910390a3505050505050505050565b60026065541415610e535760405162461bcd60e51b8152600401610466906129ef565b600260658190556001600160a01b03831660009081526099602090815260408083208584528252808320338085529083529281902081516060810183528154808252600183015494820194909452940154908401528492849291610ec95760405162461bcd60e51b815260040161046690612a26565b610ed48686336120a6565b5050600160655550505050565b6033546001600160a01b03163314610f0b5760405162461bcd60e51b8152600401610466906129ba565b6001600160a01b038316610f615760405162461bcd60e51b815260206004820152601760248201527f696e76616c69642063726561746f7220616464726573730000000000000000006044820152606401610466565b6127108261ffff161115610fa95760405162461bcd60e51b815260206004820152600f60248201526e696e76616c696420726f79616c747960881b6044820152606401610466565b61ffff82161580610fc257506001600160a01b03811615155b61100e5760405162461bcd60e51b815260206004820152601d60248201527f696e76616c69642066656520726563697069656e7420616464726573730000006044820152606401610466565b611017846123ce565b156110345760405162461bcd60e51b815260040161046690612916565b6001600160a01b038481166000908152609b602052604090205462010000900416156110985760405162461bcd60e51b81526020600482015260136024820152721c9bde585b1d1e48185b1c9958591e481cd95d606a1b6044820152606401610466565b6040805160608101825261ffff93841681526001600160a01b0394851660208083019182529386168284019081529686166000908152609b909452919092209151825491518516620100000262010000600160b01b03199190941661ffff199092169190911716919091178155915160019092018054929091166001600160a01b0319909216919091179055565b6033546001600160a01b031633146111505760405162461bcd60e51b8152600401610466906129ba565b6001600160a01b0381166111b55760405162461bcd60e51b815260206004820152602660248201527f4f776e61626c653a206e6577206f776e657220697320746865207a65726f206160448201526564647265737360d01b6064820152608401610466565b6111be81612054565b50565b6127108161ffff1611156112095760405162461bcd60e51b815260206004820152600f60248201526e696e76616c696420726f79616c747960881b6044820152606401610466565b611212836123ce565b61122e5760405162461bcd60e51b815260040161046690612916565b6040516301ffc9a760e01b81526001600160a01b038416906301ffc9a790611261906380ac58cd60e01b90600401612901565b60206040518083038186803b15801561127957600080fd5b505afa15801561128d573d6000803e3d6000fd5b505050506040513d601f19601f820116820180604052508101906112b19190612832565b156113605782336040516331a9108f60e11b8152600481018590526001600160a01b0391821691831690636352211e9060240160206040518083038186803b1580156112fc57600080fd5b505afa158015611310573d6000803e3d6000fd5b505050506040513d601f19601f820116820180604052508101906113349190612669565b6001600160a01b03161461135a5760405162461bcd60e51b815260040161046690612943565b50611497565b6040516301ffc9a760e01b81526001600160a01b038416906301ffc9a79061139390636cdb3d1360e11b90600401612901565b60206040518083038186803b1580156113ab57600080fd5b505afa1580156113bf573d6000803e3d6000fd5b505050506040513d601f19601f820116820180604052508101906113e39190612832565b15611497578260006001600160a01b03821662fdd58e336040516001600160e01b031960e084901b1681526001600160a01b0390911660048201526024810187905260440160206040518083038186803b15801561144057600080fd5b505afa158015611454573d6000803e3d6000fd5b505050506040513d601f19601f82011682018060405250810190611478919061286c565b116114955760405162461bcd60e51b815260040161046690612943565b505b6001600160a01b03838116600090815260976020908152604080832086845290915290205416156115005760405162461bcd60e51b81526020600482015260136024820152721c9bde585b1d1e48185b1c9958591e481cd95d606a1b6044820152606401610466565b6001600160a01b03929092166000818152609760209081526040808320858452825280832080546001600160a01b0319163317905592825260988152828220938252929092529020805461ffff90921661ffff19909216919091179055565b600054610100900460ff1680611578575060005460ff16155b6115945760405162461bcd60e51b81526004016104669061296c565b600054610100900460ff161580156115bf576000805460ff1961ff0019909116610100171660011790555b609a805461ffff191661ffff84161762010000600160b01b031916620100006001600160a01b038616021790556115f46123d6565b6115fc61245a565b801561160e576000805461ff00191690555b505050565b6033546001600160a01b0316331461163d5760405162461bcd60e51b8152600401610466906129ba565b609a805462010000600160b01b031916620100006001600160a01b038416908102919091179091556040519081527fe57e7c1f36cc83fade34e32351e6eee7eb9da532662b1b5da10c631e8222aca79060200161095e565b600260655414156116b85760405162461bcd60e51b8152600401610466906129ef565b600260658190556001600160a01b0384166000908152609960209081526040808320868452825280832033808552908352928190208151606081018352815480825260018301549482019490945294015490840152859285929161172e5760405162461bcd60e51b815260040161046690612a26565b6001600160a01b03871660008181526099602090815260408083208a845282528083203384529091529081902090516301ffc9a760e01b81529091906301ffc9a790611785906380ac58cd60e01b90600401612901565b60206040518083038186803b15801561179d57600080fd5b505afa1580156117b1573d6000803e3d6000fd5b505050506040513d601f19601f820116820180604052508101906117d59190612832565b156118845787336040516331a9108f60e11b8152600481018a90526001600160a01b0391821691831690636352211e9060240160206040518083038186803b15801561182057600080fd5b505afa158015611834573d6000803e3d6000fd5b505050506040513d601f19601f820116820180604052508101906118589190612669565b6001600160a01b03161461187e5760405162461bcd60e51b815260040161046690612943565b506119bb565b6040516301ffc9a760e01b81526001600160a01b038916906301ffc9a7906118b790636cdb3d1360e11b90600401612901565b60206040518083038186803b1580156118cf57600080fd5b505afa1580156118e3573d6000803e3d6000fd5b505050506040513d601f19601f820116820180604052508101906119079190612832565b1561079357805488906001600160a01b03821662fdd58e336040516001600160e01b031960e084901b1681526001600160a01b039091166004820152602481018c905260440160206040518083038186803b15801561196557600080fd5b505afa158015611979573d6000803e3d6000fd5b505050506040513d601f19601f8201168201806040525081019061199d919061286c565b101561187e5760405162461bcd60e51b815260040161046690612943565b6001810186905560408051888152602081018890526001600160a01b038a169133917f3c33e65e8698294810b631d476d60b44425303828da0b1f8b635231bfda12be2910160405180910390a350506001606555505050505050565b6000611a238284612a87565b9392505050565b6001600160a01b0380841660009081526099602090815260408083208684528252808320938516835292815282822083516060810185528154808252600183015493820184905260029092015494810194909452611a889190611a17565b609a54909150600090611aae906103e890611aa890859061ffff16611a17565b906124c2565b609a54604051919250600091620100009091046001600160a01b03169083908381818185875af1925050503d8060008114611b05576040519150601f19603f3d011682016040523d82523d6000602084013e611b0a565b606091505b5050905080611b515760405162461bcd60e51b8152602060048201526013602482015272199959481d1c985b9cd9995c8819985a5b1959606a1b6044820152606401610466565b6001600160a01b0380881660008181526097602090815260408083208b8452825280832054938352609882528083208b845290915290205491169061ffff168115801590611ba2575061ffff811615155b15611c7f576000611bc7612710611aa861ffff8516611bc18a8a6124ce565b90611a17565b90506000836001600160a01b03168260405160006040518083038185875af1925050503d8060008114611c16576040519150601f19603f3d011682016040523d82523d6000602084013e611c1b565b606091505b5050905080611c6c5760405162461bcd60e51b815260206004820152601b60248201527f726f79616c747920666565207472616e73666572206661696c656400000000006044820152606401610466565b611c7686836124da565b95505050611d8d565b50506001600160a01b038088166000908152609b602052604090206001810154905491169061ffff168115801590611cba575061ffff811615155b15611d8d576000611cd9612710611aa861ffff8516611bc18a8a6124ce565b90506000836001600160a01b03168260405160006040518083038185875af1925050503d8060008114611d28576040519150601f19603f3d011682016040523d82523d6000602084013e611d2d565b606091505b5050905080611d7e5760405162461bcd60e51b815260206004820152601b60248201527f726f79616c747920666565207472616e73666572206661696c656400000000006044820152606401610466565b611d8886836124da565b955050505b60006001600160a01b038816611da387876124ce565b604051600081818185875af1925050503d8060008114611ddf576040519150601f19603f3d011682016040523d82523d6000602084013e611de4565b606091505b5050905080611e2d5760405162461bcd60e51b81526020600482015260156024820152741bdddb995c881d1c985b9cd9995c8819985a5b1959605a1b6044820152606401610466565b6040516301ffc9a760e01b81526001600160a01b038b16906301ffc9a790611e60906380ac58cd60e01b90600401612901565b60206040518083038186803b158015611e7857600080fd5b505afa158015611e8c573d6000803e3d6000fd5b505050506040513d601f19601f82011682018060405250810190611eb09190612832565b15611f32576001600160a01b038a166342842e0e89336040516001600160e01b031960e085901b1681526001600160a01b03928316600482015291166024820152604481018c9052606401600060405180830381600087803b158015611f1557600080fd5b505af1158015611f29573d6000803e3d6000fd5b50505050611fac565b6001600160a01b038a1663f242432a89338c8b60000151604051806020016040528060008152506040518663ffffffff1660e01b8152600401611f79959493929190612884565b600060405180830381600087803b158015611f9357600080fd5b505af1158015611fa7573d6000803e3d6000fd5b505050505b86516001600160a01b038b81169133918b16907f57d8d9cd489eb6f4aa398aa92b49d164d28fde9e7000b5c186bf1b3647a9ebb7908d90611fed8c826124c2565b6040805193845260208401929092529082015260600160405180910390a45050506001600160a01b03968716600090815260996020908152604080832098835297815287822096909816815294909652505050908120818155600181018290556002015550565b603380546001600160a01b038381166001600160a01b0319831681179093556040519116919082907f8be0079c531659141344cd1fd0a4f28419497f9722a3daafe3b4186f6b6457e090600090a35050565b6001600160a01b0380841660008181526099602090815260408083208784528252808320948616835293815290839020835160608101855281548152600182015492810192909252600201548184015291516301ffc9a760e01b81526301ffc9a79061211d906380ac58cd60e01b90600401612901565b60206040518083038186803b15801561213557600080fd5b505afa158015612149573d6000803e3d6000fd5b505050506040513d601f19601f8201168201806040525081019061216d9190612832565b1561221d576040516331a9108f60e11b81526004810184905284906001600160a01b038481169190831690636352211e9060240160206040518083038186803b1580156121b957600080fd5b505afa1580156121cd573d6000803e3d6000fd5b505050506040513d601f19601f820116820180604052508101906121f19190612669565b6001600160a01b0316146122175760405162461bcd60e51b815260040161046690612943565b50612354565b6040516301ffc9a760e01b81526001600160a01b038516906301ffc9a79061225090636cdb3d1360e11b90600401612901565b60206040518083038186803b15801561226857600080fd5b505afa15801561227c573d6000803e3d6000fd5b505050506040513d601f19601f820116820180604052508101906122a09190612832565b1561079357805184906001600160a01b03821662fdd58e336040516001600160e01b031960e084901b1681526001600160a01b0390911660048201526024810188905260440160206040518083038186803b1580156122fe57600080fd5b505afa158015612312573d6000803e3d6000fd5b505050506040513d601f19601f82011682018060405250810190612336919061286c565b10156122175760405162461bcd60e51b815260040161046690612943565b6001600160a01b0384811660008181526099602090815260408083208884528252808320948716808452948252808320838155600181018490556002019290925590518681529192917f9ba1a3cb55ce8d63d072a886f94d2a744f50cddf82128e897d0661f5ec623158910160405180910390a350505050565b60015b919050565b600054610100900460ff16806123ef575060005460ff16155b61240b5760405162461bcd60e51b81526004016104669061296c565b600054610100900460ff16158015612436576000805460ff1961ff0019909116610100171660011790555b61243e6124e6565b612446612559565b80156111be576000805461ff001916905550565b600054610100900460ff1680612473575060005460ff16155b61248f5760405162461bcd60e51b81526004016104669061296c565b600054610100900460ff161580156124ba576000805460ff1961ff0019909116610100171660011790555b6124466125c2565b6000611a238284612a67565b6000611a238284612aa6565b6000611a238284612a4f565b600054610100900460ff16806124ff575060005460ff16155b61251b5760405162461bcd60e51b81526004016104669061296c565b600054610100900460ff16158015612446576000805460ff1961ff00199091166101001716600117905580156111be576000805461ff001916905550565b600054610100900460ff1680612572575060005460ff16155b61258e5760405162461bcd60e51b81526004016104669061296c565b600054610100900460ff161580156125b9576000805460ff1961ff0019909116610100171660011790555b61244633612054565b600054610100900460ff16806125db575060005460ff16155b6125f75760405162461bcd60e51b81526004016104669061296c565b600054610100900460ff16158015612622576000805460ff1961ff0019909116610100171660011790555b600160655580156111be576000805461ff001916905550565b803561ffff811681146123d157600080fd5b60006020828403121561265e578081fd5b8135611a2381612ad3565b60006020828403121561267a578081fd5b8151611a2381612ad3565b60008060408385031215612697578081fd5b82356126a281612ad3565b91506126b06020840161263b565b90509250929050565b600080600080608085870312156126ce578182fd5b84356126d981612ad3565b935060208501356126e981612ad3565b92506126f76040860161263b565b9150606085013561270781612ad3565b939692955090935050565b60008060408385031215612724578182fd5b823561272f81612ad3565b946020939093013593505050565b600080600060608486031215612751578283fd5b833561275c81612ad3565b925060208401359150604084013561277381612ad3565b809150509250925092565b600080600060608486031215612792578283fd5b833561279d81612ad3565b9250602084013591506127b26040850161263b565b90509250925092565b6000806000606084860312156127cf578283fd5b83356127da81612ad3565b95602085013595506040909401359392505050565b600080600080600060a08688031215612806578081fd5b853561281181612ad3565b97602087013597506040870135966060810135965060800135945092505050565b600060208284031215612843578081fd5b81518015158114611a23578182fd5b600060208284031215612863578081fd5b611a238261263b565b60006020828403121561287d578081fd5b5051919050565b600060018060a01b03808816835260208188168185015286604085015285606085015260a06080850152845191508160a0850152825b828110156128d65785810182015185820160c0015281016128ba565b828111156128e7578360c084870101525b5050601f01601f19169190910160c0019695505050505050565b6001600160e01b031991909116815260200190565b602080825260139082015272696e76616c6964206e6674206164647265737360681b604082015260600190565b6020808252600f908201526e6e6f74206f776e696e67206974656d60881b604082015260600190565b6020808252602e908201527f496e697469616c697a61626c653a20636f6e747261637420697320616c72656160408201526d191e481a5b9a5d1a585b1a5e995960921b606082015260800190565b6020808252818101527f4f776e61626c653a2063616c6c6572206973206e6f7420746865206f776e6572604082015260600190565b6020808252601f908201527f5265656e7472616e637947756172643a207265656e7472616e742063616c6c00604082015260600190565b6020808252600f908201526e6e6f74206c6973746564206974656d60881b604082015260600190565b60008219821115612a6257612a62612abd565b500190565b600082612a8257634e487b7160e01b81526012600452602481fd5b500490565b6000816000190483118215151615612aa157612aa1612abd565b500290565b600082821015612ab857612ab8612abd565b500390565b634e487b7160e01b600052601160045260246000fd5b6001600160a01b03811681146111be57600080fdfea2646970667358221220664409da70052e8ad80bc34500727be9ad152571c7b77548f4143e46c0fdaa1264736f6c63430008020033",
  "linkReferences": {},
  "deployedLinkReferences": {}
}