{
  "_format": "hh-sol-artifact-1",
  "contractName": "SoundchainMarketplace",
  "sourceName": "contracts/Marketplace.sol",
  "abi": [
    {
      "inputs": [
        {
          "internalType": "address payable",
          "name": "_feeRecipient",
          "type": "address"
        },
        {
          "internalType": "uint16",
          "name": "_platformFee",
          "type": "uint16"
        }
      ],
      "stateMutability": "nonpayable",
      "type": "constructor"
    },
    {
      "anonymous": false,
      "inputs": [
        {
          "indexed": true,
          "internalType": "address",
          "name": "owner",
          "type": "address"
        },
        {
          "indexed": true,
          "internalType": "address",
          "name": "nft",
          "type": "address"
        },
        {
          "indexed": false,
          "internalType": "uint256",
          "name": "tokenId",
          "type": "uint256"
        }
      ],
      "name": "ItemCanceled",
      "type": "event"
    },
    {
      "anonymous": false,
      "inputs": [
        {
          "indexed": true,
          "internalType": "address",
          "name": "owner",
          "type": "address"
        },
        {
          "indexed": true,
          "internalType": "address",
          "name": "nft",
          "type": "address"
        },
        {
          "indexed": false,
          "internalType": "uint256",
          "name": "tokenId",
          "type": "uint256"
        },
        {
          "indexed": false,
          "internalType": "uint256",
          "name": "quantity",
          "type": "uint256"
        },
        {
          "indexed": false,
          "internalType": "uint256",
          "name": "pricePerItem",
          "type": "uint256"
        },
        {
          "indexed": false,
          "internalType": "uint256",
          "name": "startingTime",
          "type": "uint256"
        }
      ],
      "name": "ItemListed",
      "type": "event"
    },
    {
      "anonymous": false,
      "inputs": [
        {
          "indexed": true,
          "internalType": "address",
          "name": "seller",
          "type": "address"
        },
        {
          "indexed": true,
          "internalType": "address",
          "name": "buyer",
          "type": "address"
        },
        {
          "indexed": true,
          "internalType": "address",
          "name": "nft",
          "type": "address"
        },
        {
          "indexed": false,
          "internalType": "uint256",
          "name": "tokenId",
          "type": "uint256"
        },
        {
          "indexed": false,
          "internalType": "uint256",
          "name": "quantity",
          "type": "uint256"
        },
        {
          "indexed": false,
          "internalType": "uint256",
          "name": "pricePerItem",
          "type": "uint256"
        }
      ],
      "name": "ItemSold",
      "type": "event"
    },
    {
      "anonymous": false,
      "inputs": [
        {
          "indexed": true,
          "internalType": "address",
          "name": "owner",
          "type": "address"
        },
        {
          "indexed": true,
          "internalType": "address",
          "name": "nft",
          "type": "address"
        },
        {
          "indexed": false,
          "internalType": "uint256",
          "name": "tokenId",
          "type": "uint256"
        },
        {
          "indexed": false,
          "internalType": "uint256",
          "name": "newPrice",
          "type": "uint256"
        }
      ],
      "name": "ItemUpdated",
      "type": "event"
    },
    {
      "anonymous": false,
      "inputs": [
        {
          "indexed": true,
          "internalType": "address",
          "name": "previousOwner",
          "type": "address"
        },
        {
          "indexed": true,
          "internalType": "address",
          "name": "newOwner",
          "type": "address"
        }
      ],
      "name": "OwnershipTransferred",
      "type": "event"
    },
    {
      "anonymous": false,
      "inputs": [
        {
          "indexed": false,
          "internalType": "uint16",
          "name": "platformFee",
          "type": "uint16"
        }
      ],
      "name": "UpdatePlatformFee",
      "type": "event"
    },
    {
      "anonymous": false,
      "inputs": [
        {
          "indexed": false,
          "internalType": "address payable",
          "name": "platformFeeRecipient",
          "type": "address"
        }
      ],
      "name": "UpdatePlatformFeeRecipient",
      "type": "event"
    },
    {
      "inputs": [
        {
          "internalType": "address",
          "name": "_nftAddress",
          "type": "address"
        },
        {
          "internalType": "uint256",
          "name": "_tokenId",
          "type": "uint256"
        },
        {
          "internalType": "address payable",
          "name": "_owner",
          "type": "address"
        }
      ],
      "name": "buyItem",
      "outputs": [],
      "stateMutability": "payable",
      "type": "function"
    },
    {
      "inputs": [
        {
          "internalType": "address",
          "name": "_nftAddress",
          "type": "address"
        },
        {
          "internalType": "uint256",
          "name": "_tokenId",
          "type": "uint256"
        }
      ],
      "name": "cancelListing",
      "outputs": [],
      "stateMutability": "nonpayable",
      "type": "function"
    },
    {
      "inputs": [],
      "name": "feeRecipient",
      "outputs": [
        {
          "internalType": "address payable",
          "name": "",
          "type": "address"
        }
      ],
      "stateMutability": "view",
      "type": "function"
    },
    {
      "inputs": [
        {
          "internalType": "address",
          "name": "_nftAddress",
          "type": "address"
        },
        {
          "internalType": "uint256",
          "name": "_tokenId",
          "type": "uint256"
        },
        {
          "internalType": "uint256",
          "name": "_quantity",
          "type": "uint256"
        },
        {
          "internalType": "uint256",
          "name": "_pricePerItem",
          "type": "uint256"
        },
        {
          "internalType": "uint256",
          "name": "_startingTime",
          "type": "uint256"
        },
        {
          "internalType": "uint16",
          "name": "_royalty",
          "type": "uint16"
        }
      ],
      "name": "listItem",
      "outputs": [],
      "stateMutability": "nonpayable",
      "type": "function"
    },
    {
      "inputs": [
        {
          "internalType": "address",
          "name": "",
          "type": "address"
        },
        {
          "internalType": "uint256",
          "name": "",
          "type": "uint256"
        },
        {
          "internalType": "address",
          "name": "",
          "type": "address"
        }
      ],
      "name": "listings",
      "outputs": [
        {
          "internalType": "uint256",
          "name": "quantity",
          "type": "uint256"
        },
        {
          "internalType": "uint256",
          "name": "pricePerItem",
          "type": "uint256"
        },
        {
          "internalType": "uint256",
          "name": "startingTime",
          "type": "uint256"
        }
      ],
      "stateMutability": "view",
      "type": "function"
    },
    {
      "inputs": [
        {
          "internalType": "address",
          "name": "",
          "type": "address"
        },
        {
          "internalType": "uint256",
          "name": "",
          "type": "uint256"
        }
      ],
      "name": "minters",
      "outputs": [
        {
          "internalType": "address",
          "name": "",
          "type": "address"
        }
      ],
      "stateMutability": "view",
      "type": "function"
    },
    {
      "inputs": [],
      "name": "owner",
      "outputs": [
        {
          "internalType": "address",
          "name": "",
          "type": "address"
        }
      ],
      "stateMutability": "view",
      "type": "function"
    },
    {
      "inputs": [],
      "name": "platformFee",
      "outputs": [
        {
          "internalType": "uint16",
          "name": "",
          "type": "uint16"
        }
      ],
      "stateMutability": "view",
      "type": "function"
    },
    {
      "inputs": [],
      "name": "renounceOwnership",
      "outputs": [],
      "stateMutability": "nonpayable",
      "type": "function"
    },
    {
      "inputs": [
        {
          "internalType": "address",
          "name": "",
          "type": "address"
        },
        {
          "internalType": "uint256",
          "name": "",
          "type": "uint256"
        }
      ],
      "name": "royalties",
      "outputs": [
        {
          "internalType": "uint16",
          "name": "",
          "type": "uint16"
        }
      ],
      "stateMutability": "view",
      "type": "function"
    },
    {
      "inputs": [
        {
          "internalType": "address",
          "name": "newOwner",
          "type": "address"
        }
      ],
      "name": "transferOwnership",
      "outputs": [],
      "stateMutability": "nonpayable",
      "type": "function"
    },
    {
      "inputs": [
        {
          "internalType": "address",
          "name": "_nftAddress",
          "type": "address"
        },
        {
          "internalType": "uint256",
          "name": "_tokenId",
          "type": "uint256"
        },
        {
          "internalType": "uint256",
          "name": "_newPrice",
          "type": "uint256"
        }
      ],
      "name": "updateListing",
      "outputs": [],
      "stateMutability": "nonpayable",
      "type": "function"
    },
    {
      "inputs": [
        {
          "internalType": "uint16",
          "name": "_platformFee",
          "type": "uint16"
        }
      ],
      "name": "updatePlatformFee",
      "outputs": [],
      "stateMutability": "nonpayable",
      "type": "function"
    },
    {
      "inputs": [
        {
          "internalType": "address payable",
          "name": "_platformFeeRecipient",
          "type": "address"
        }
      ],
      "name": "updatePlatformFeeRecipient",
      "outputs": [],
      "stateMutability": "nonpayable",
      "type": "function"
    }
  ],
  "bytecode": "0x60806040523480156200001157600080fd5b5060405162001b6638038062001b668339810160408190526200003491620000d3565b6200003f3362000083565b60018055600580546001600160a01b03909316620100000262010000600160b01b031961ffff90931661ffff19909416939093179190911691909117905562000120565b600080546001600160a01b038381166001600160a01b0319831681178455604051919092169283917f8be0079c531659141344cd1fd0a4f28419497f9722a3daafe3b4186f6b6457e09190a35050565b60008060408385031215620000e6578182fd5b82516001600160a01b0381168114620000fd578283fd5b602084015190925061ffff8116811462000115578182fd5b809150509250929050565b611a3680620001306000396000f3fe6080604052600436106100dd5760003560e01c80638da5cb5b1161007f578063e1e549c411610059578063e1e549c4146102a4578063f2fde38b146102e0578063f5fe7f7114610300578063f772adf114610320576100dd565b80638da5cb5b14610246578063afb0695214610264578063b2ddee0614610284576100dd565b806346904840116100bb578063469048401461014a5780636bd3a64b14610188578063715018a6146101f057806378746d0d14610205576100dd565b80630cbbf681146100e2578063259ca3651461010457806326232a2e14610117575b600080fd5b3480156100ee57600080fd5b506101026100fd366004611781565b610340565b005b610102610112366004611739565b61080d565b34801561012357600080fd5b506005546101329061ffff1681565b60405161ffff90911681526020015b60405180910390f35b34801561015657600080fd5b50600554610170906201000090046001600160a01b031681565b6040516001600160a01b039091168152602001610141565b34801561019457600080fd5b506101d56101a33660046116f8565b600460209081526000938452604080852082529284528284209052825290208054600182015460029092015490919083565b60408051938452602084019290925290820152606001610141565b3480156101fc57600080fd5b50610102610b2f565b34801561021157600080fd5b506101706102203660046116cd565b60026020908152600092835260408084209091529082529020546001600160a01b031681565b34801561025257600080fd5b506000546001600160a01b0316610170565b34801561027057600080fd5b5061010261027f3660046117fa565b610b65565b34801561029057600080fd5b5061010261029f3660046116cd565b610bda565b3480156102b057600080fd5b506101326102bf3660046116cd565b600360209081526000928352604080842090915290825290205461ffff1681565b3480156102ec57600080fd5b506101026102fb3660046116b1565b610c8e565b34801561030c57600080fd5b5061010261031b3660046116b1565b610d29565b34801561032c57600080fd5b5061010261033b36600461174d565b610dab565b8585336001600160a01b03808416600090815260046020908152604080832086845282528083209385168352928152908290208251606081018452815480825260018301549382019390935260029091015492810192909252156103dc5760405162461bcd60e51b815260206004820152600e60248201526d185b1c9958591e481b1a5cdd195960921b60448201526064015b60405180910390fd5b6040516301ffc9a760e01b8152636cdb3d1360e11b60048201526001600160a01b038b16906301ffc9a79060240160206040518083038186803b15801561042257600080fd5b505afa158015610436573d6000803e3d6000fd5b505050506040513d601f19601f8201168201806040525081019061045a91906117da565b156106075789886001600160a01b03821662fdd58e336040516001600160e01b031960e084901b1681526001600160a01b039091166004820152602481018e905260440160206040518083038186803b1580156104b657600080fd5b505afa1580156104ca573d6000803e3d6000fd5b505050506040513d601f19601f820116820180604052508101906104ee9190611814565b10156105345760405162461bcd60e51b81526020600482015260156024820152746d75737420686f6c6420656e6f756768206e66747360581b60448201526064016103d3565b6001600160a01b03811663e985e9c5336040516001600160e01b031960e084901b1681526001600160a01b03909116600482015230602482015260440160206040518083038186803b15801561058957600080fd5b505afa15801561059d573d6000803e3d6000fd5b505050506040513d601f19601f820116820180604052508101906105c191906117da565b6106015760405162461bcd60e51b81526020600482015260116024820152701a5d195b481b9bdd08185c1c1c9bdd9959607a1b60448201526064016103d3565b50610645565b60405162461bcd60e51b8152602060048201526013602482015272696e76616c6964206e6674206164647265737360681b60448201526064016103d3565b6040805160608101825289815260208082018a90528183018990526001600160a01b038d166000908152600482528381208d82529091529182209091336001600160a01b0390811682526020808301939093526040918201600020845181559284015160018401559201516002909101558a1633604080518c8152602081018c90529081018a9052606081018990526001600160a01b0391909116907f66bd0bc88d76947965bc00f670f5c5b25aebab9fef6cb916d8c63a253ec392b79060800160405180910390a36001600160a01b03808b1660008181526002602090815260408083208e8452825280832054938352600382528083208e845290915290205491169061ffff168115801561075d575061ffff8116155b156107ff576127108761ffff1611156107aa5760405162461bcd60e51b815260206004820152600f60248201526e696e76616c696420726f79616c747960881b60448201526064016103d3565b6001600160a01b038c1660008181526002602090815260408083208f8452825280832080546001600160a01b03191633179055928252600381528282208e8352905220805461ffff891661ffff199091161790555b505050505050505050505050565b600260015414156108305760405162461bcd60e51b81526004016103d390611907565b600260018181556001600160a01b03808616600090815260046020908152604080832088845282528083209387168352928152908290208251606081018452815480825294820154928101929092529093015490830152849184918491906108aa5760405162461bcd60e51b81526004016103d39061193e565b6001600160a01b0387811660008181526004602081815260408084208c85528252808420958b16845294815291849020845160608101865281548152600182015493810193909352600201548285015292516301ffc9a760e01b8152636cdb3d1360e11b93810193909352899289928992916301ffc9a79060240160206040518083038186803b15801561093d57600080fd5b505afa158015610951573d6000803e3d6000fd5b505050506040513d601f19601f8201168201806040525081019061097591906117da565b15610607578051604051627eeac760e11b81526001600160a01b038481166004830152602482018690528692919083169062fdd58e9060440160206040518083038186803b1580156109c657600080fd5b505afa1580156109da573d6000803e3d6000fd5b505050506040513d601f19601f820116820180604052508101906109fe9190611814565b1015610a1c5760405162461bcd60e51b81526004016103d3906118a9565b506040810151421015610a645760405162461bcd60e51b815260206004820152601060248201526f6974656d206e6f742062757961626c6560801b60448201526064016103d3565b6001600160a01b03808c1660009081526004602090815260408083208e84528252808320938d1683529281529082902082516060810184528154808252600183015493820184905260029092015493810193909352610ac39190610ffe565b341015610b125760405162461bcd60e51b815260206004820152601b60248201527f696e73756666696369656e742062616c616e636520746f20627579000000000060448201526064016103d3565b610b1d8c8c8c611011565b50506001805550505050505050505050565b6000546001600160a01b03163314610b595760405162461bcd60e51b81526004016103d3906118d2565b610b636000611432565b565b6000546001600160a01b03163314610b8f5760405162461bcd60e51b81526004016103d3906118d2565b6005805461ffff191661ffff83169081179091556040519081527fcabead39256298cdf7d1228eee68b47bc54a2192283d8d93574da08d2d7ac303906020015b60405180910390a150565b60026001541415610bfd5760405162461bcd60e51b81526004016103d390611907565b60026001558181336001600160a01b03808416600090815260046020908152604080832086845282528083209385168352928152908290208251606081018452815480825260018301549382019390935260029091015492810192909252610c775760405162461bcd60e51b81526004016103d39061193e565b610c82868633611482565b50506001805550505050565b6000546001600160a01b03163314610cb85760405162461bcd60e51b81526004016103d3906118d2565b6001600160a01b038116610d1d5760405162461bcd60e51b815260206004820152602660248201527f4f776e61626c653a206e6577206f776e657220697320746865207a65726f206160448201526564647265737360d01b60648201526084016103d3565b610d2681611432565b50565b6000546001600160a01b03163314610d535760405162461bcd60e51b81526004016103d3906118d2565b6005805462010000600160b01b031916620100006001600160a01b038416908102919091179091556040519081527fe57e7c1f36cc83fade34e32351e6eee7eb9da532662b1b5da10c631e8222aca790602001610bcf565b60026001541415610dce5760405162461bcd60e51b81526004016103d390611907565b60026001558282336001600160a01b03808416600090815260046020908152604080832086845282528083209385168352928152908290208251606081018452815480825260018301549382019390935260029091015492810192909252610e485760405162461bcd60e51b81526004016103d39061193e565b6001600160a01b03871660008181526004602081815260408084208b8552825280842033855282529283902083516301ffc9a760e01b8152636cdb3d1360e11b9381019390935292519293926301ffc9a7926024808201939291829003018186803b158015610eb657600080fd5b505afa158015610eca573d6000803e3d6000fd5b505050506040513d601f19601f82011682018060405250810190610eee91906117da565b1561060757805488906001600160a01b03821662fdd58e336040516001600160e01b031960e084901b1681526001600160a01b039091166004820152602481018c905260440160206040518083038186803b158015610f4c57600080fd5b505afa158015610f60573d6000803e3d6000fd5b505050506040513d601f19601f82011682018060405250810190610f849190611814565b1015610fa25760405162461bcd60e51b81526004016103d3906118a9565b506001810186905560408051888152602081018890526001600160a01b038a169133917f3c33e65e8698294810b631d476d60b44425303828da0b1f8b635231bfda12be2910160405180910390a3505060018055505050505050565b600061100a828461199f565b9392505050565b6001600160a01b038084166000908152600460209081526040808320868452825280832093851683529281528282208351606081018552815480825260018301549382018490526002909201549481019490945261106f9190610ffe565b600554909150600090611095906103e89061108f90859061ffff16610ffe565b90611676565b600554604051919250600091620100009091046001600160a01b03169083908381818185875af1925050503d80600081146110ec576040519150601f19603f3d011682016040523d82523d6000602084013e6110f1565b606091505b50509050806111385760405162461bcd60e51b8152602060048201526013602482015272199959481d1c985b9cd9995c8819985a5b1959606a1b60448201526064016103d3565b6001600160a01b0380881660008181526002602090815260408083208b8452825280832054938352600382528083208b845290915290205491169061ffff168115801590611189575061ffff811615155b156112625760006111ae61271061108f61ffff85166111a88a8a611682565b90610ffe565b90506000836001600160a01b03168260405160006040518083038185875af1925050503d80600081146111fd576040519150601f19603f3d011682016040523d82523d6000602084013e611202565b606091505b50509050806112535760405162461bcd60e51b815260206004820152601b60248201527f726f79616c747920666565207472616e73666572206661696c6564000000000060448201526064016103d3565b61125d868361168e565b955050505b60006001600160a01b0388166112788787611682565b604051600081818185875af1925050503d80600081146112b4576040519150601f19603f3d011682016040523d82523d6000602084013e6112b9565b606091505b50509050806113025760405162461bcd60e51b81526020600482015260156024820152741bdddb995c881d1c985b9cd9995c8819985a5b1959605a1b60448201526064016103d3565b6001600160a01b038a1663f242432a89338c8b60000151604051806020016040528060008152506040518663ffffffff1660e01b815260040161134995949392919061182c565b600060405180830381600087803b15801561136357600080fd5b505af1158015611377573d6000803e3d6000fd5b50505050896001600160a01b031661138c3390565b88516001600160a01b03918216918b16907f57d8d9cd489eb6f4aa398aa92b49d164d28fde9e7000b5c186bf1b3647a9ebb7908d906113cb8c82611676565b6040805193845260208401929092529082015260600160405180910390a45050506001600160a01b03968716600090815260046020908152604080832098835297815287822096909816815294909652505050908120818155600181018290556002015550565b600080546001600160a01b038381166001600160a01b0319831681178455604051919092169283917f8be0079c531659141344cd1fd0a4f28419497f9722a3daafe3b4186f6b6457e09190a35050565b6001600160a01b0383811660008181526004602081815260408084208885528252808420958716845294815291849020845160608101865281548152600182015493810193909352600201548285015292516301ffc9a760e01b8152636cdb3d1360e11b93810193909352916301ffc9a79060240160206040518083038186803b15801561150f57600080fd5b505afa158015611523573d6000803e3d6000fd5b505050506040513d601f19601f8201168201806040525081019061154791906117da565b1561060757805184906001600160a01b03821662fdd58e336040516001600160e01b031960e084901b1681526001600160a01b0390911660048201526024810188905260440160206040518083038186803b1580156115a557600080fd5b505afa1580156115b9573d6000803e3d6000fd5b505050506040513d601f19601f820116820180604052508101906115dd9190611814565b10156115fb5760405162461bcd60e51b81526004016103d3906118a9565b506001600160a01b0384811660008181526004602090815260408083208884528252808320948716808452948252808320838155600181018490556002019290925590518681529192917f9ba1a3cb55ce8d63d072a886f94d2a744f50cddf82128e897d0661f5ec623158910160405180910390a350505050565b600061100a828461197f565b600061100a82846119be565b600061100a8284611967565b803561ffff811681146116ac57600080fd5b919050565b6000602082840312156116c2578081fd5b813561100a816119eb565b600080604083850312156116df578081fd5b82356116ea816119eb565b946020939093013593505050565b60008060006060848603121561170c578081fd5b8335611717816119eb565b925060208401359150604084013561172e816119eb565b809150509250925092565b60008060006060848603121561170c578283fd5b600080600060608486031215611761578283fd5b833561176c816119eb565b95602085013595506040909401359392505050565b60008060008060008060c08789031215611799578182fd5b86356117a4816119eb565b9550602087013594506040870135935060608701359250608087013591506117ce60a0880161169a565b90509295509295509295565b6000602082840312156117eb578081fd5b8151801515811461100a578182fd5b60006020828403121561180b578081fd5b61100a8261169a565b600060208284031215611825578081fd5b5051919050565b600060018060a01b03808816835260208188168185015286604085015285606085015260a06080850152845191508160a0850152825b8281101561187e5785810182015185820160c001528101611862565b8281111561188f578360c084870101525b5050601f01601f19169190910160c0019695505050505050565b6020808252600f908201526e6e6f74206f776e696e67206974656d60881b604082015260600190565b6020808252818101527f4f776e61626c653a2063616c6c6572206973206e6f7420746865206f776e6572604082015260600190565b6020808252601f908201527f5265656e7472616e637947756172643a207265656e7472616e742063616c6c00604082015260600190565b6020808252600f908201526e6e6f74206c6973746564206974656d60881b604082015260600190565b6000821982111561197a5761197a6119d5565b500190565b60008261199a57634e487b7160e01b81526012600452602481fd5b500490565b60008160001904831182151516156119b9576119b96119d5565b500290565b6000828210156119d0576119d06119d5565b500390565b634e487b7160e01b600052601160045260246000fd5b6001600160a01b0381168114610d2657600080fdfea26469706673582212207f0382728ff88de2fdd0574c9e37c16fc36d9770d9a64181a27f1dd06aae580964736f6c63430008020033",
  "linkReferences": {},
  "deployedLinkReferences": {}
}