{
  "_format": "hh-sol-artifact-1",
  "contractName": "SoundchainMarketplaceEditions",
  "sourceName": "contracts/MarketplaceEditions.sol",
  "abi": [
    {
      "inputs": [
        {
          "internalType": "address payable",
          "name": "_feeRecipient",
          "type": "address"
        },
        {
          "internalType": "address",
          "name": "_OGUNToken",
          "type": "address"
        },
        {
          "internalType": "uint16",
          "name": "_platformFee",
          "type": "uint16"
        },
        {
          "internalType": "uint256",
          "name": "_rewardsRate",
          "type": "uint256"
        },
        {
          "internalType": "uint256",
          "name": "_rewardsLimit",
          "type": "uint256"
        }
      ],
      "stateMutability": "nonpayable",
      "type": "constructor"
    },
    {
      "anonymous": false,
      "inputs": [
        {
          "indexed": true,
          "internalType": "address",
          "name": "owner",
          "type": "address"
        },
        {
          "indexed": true,
          "internalType": "address",
          "name": "nft",
          "type": "address"
        },
        {
          "indexed": false,
          "internalType": "uint256",
          "name": "tokenId",
          "type": "uint256"
        }
      ],
      "name": "ItemCanceled",
      "type": "event"
    },
    {
      "anonymous": false,
      "inputs": [
        {
          "indexed": true,
          "internalType": "address",
          "name": "owner",
          "type": "address"
        },
        {
          "indexed": true,
          "internalType": "address",
          "name": "nft",
          "type": "address"
        },
        {
          "indexed": false,
          "internalType": "uint256",
          "name": "tokenId",
          "type": "uint256"
        },
        {
          "indexed": false,
          "internalType": "uint256",
          "name": "quantity",
          "type": "uint256"
        },
        {
          "indexed": false,
          "internalType": "uint256",
          "name": "pricePerItem",
          "type": "uint256"
        },
        {
          "indexed": false,
          "internalType": "uint256",
          "name": "OGUNPricePerItem",
          "type": "uint256"
        },
        {
          "indexed": false,
          "internalType": "bool",
          "name": "acceptsMATIC",
          "type": "bool"
        },
        {
          "indexed": false,
          "internalType": "bool",
          "name": "acceptsOGUN",
          "type": "bool"
        },
        {
          "indexed": false,
          "internalType": "uint256",
          "name": "startingTime",
          "type": "uint256"
        }
      ],
      "name": "ItemListed",
      "type": "event"
    },
    {
      "anonymous": false,
      "inputs": [
        {
          "indexed": true,
          "internalType": "address",
          "name": "seller",
          "type": "address"
        },
        {
          "indexed": true,
          "internalType": "address",
          "name": "buyer",
          "type": "address"
        },
        {
          "indexed": true,
          "internalType": "address",
          "name": "nft",
          "type": "address"
        },
        {
          "indexed": false,
          "internalType": "uint256",
          "name": "tokenId",
          "type": "uint256"
        },
        {
          "indexed": false,
          "internalType": "uint256",
          "name": "quantity",
          "type": "uint256"
        },
        {
          "indexed": false,
          "internalType": "uint256",
          "name": "pricePerItem",
          "type": "uint256"
        },
        {
          "indexed": false,
          "internalType": "bool",
          "name": "isPaymentOGUN",
          "type": "bool"
        }
      ],
      "name": "ItemSold",
      "type": "event"
    },
    {
      "anonymous": false,
      "inputs": [
        {
          "indexed": true,
          "internalType": "address",
          "name": "owner",
          "type": "address"
        },
        {
          "indexed": true,
          "internalType": "address",
          "name": "nft",
          "type": "address"
        },
        {
          "indexed": false,
          "internalType": "uint256",
          "name": "tokenId",
          "type": "uint256"
        },
        {
          "indexed": false,
          "internalType": "uint256",
          "name": "newPrice",
          "type": "uint256"
        },
        {
          "indexed": false,
          "internalType": "uint256",
          "name": "newOGUNPrice",
          "type": "uint256"
        },
        {
          "indexed": false,
          "internalType": "bool",
          "name": "acceptsMATIC",
          "type": "bool"
        },
        {
          "indexed": false,
          "internalType": "bool",
          "name": "acceptsOGUN",
          "type": "bool"
        },
        {
          "indexed": false,
          "internalType": "uint256",
          "name": "startingTime",
          "type": "uint256"
        }
      ],
      "name": "ItemUpdated",
      "type": "event"
    },
    {
      "anonymous": false,
      "inputs": [
        {
          "indexed": true,
          "internalType": "address",
          "name": "previousOwner",
          "type": "address"
        },
        {
          "indexed": true,
          "internalType": "address",
          "name": "newOwner",
          "type": "address"
        }
      ],
      "name": "OwnershipTransferred",
      "type": "event"
    },
    {
      "anonymous": false,
      "inputs": [
        {
          "indexed": false,
          "internalType": "uint16",
          "name": "platformFee",
          "type": "uint16"
        }
      ],
      "name": "UpdatePlatformFee",
      "type": "event"
    },
    {
      "anonymous": false,
      "inputs": [
        {
          "indexed": false,
          "internalType": "address payable",
          "name": "platformFeeRecipient",
          "type": "address"
        }
      ],
      "name": "UpdatePlatformFeeRecipient",
      "type": "event"
    },
    {
      "inputs": [],
      "name": "OGUNToken",
      "outputs": [
        {
          "internalType": "contract IERC20",
          "name": "",
          "type": "address"
        }
      ],
      "stateMutability": "view",
      "type": "function"
    },
    {
      "inputs": [
        {
          "internalType": "address",
          "name": "_nftAddress",
          "type": "address"
        },
        {
          "internalType": "uint256",
          "name": "_tokenId",
          "type": "uint256"
        },
        {
          "internalType": "address payable",
          "name": "_owner",
          "type": "address"
        },
        {
          "internalType": "bool",
          "name": "_isPaymentOGUN",
          "type": "bool"
        }
      ],
      "name": "buyItem",
      "outputs": [],
      "stateMutability": "payable",
      "type": "function"
    },
    {
      "inputs": [
        {
          "internalType": "address",
          "name": "_nftAddress",
          "type": "address"
        },
        {
          "internalType": "uint256",
          "name": "_editionNumber",
          "type": "uint256"
        }
      ],
      "name": "cancelEditionListing",
      "outputs": [],
      "stateMutability": "nonpayable",
      "type": "function"
    },
    {
      "inputs": [
        {
          "internalType": "address",
          "name": "_nftAddress",
          "type": "address"
        },
        {
          "internalType": "uint256",
          "name": "_tokenId",
          "type": "uint256"
        }
      ],
      "name": "cancelListing",
      "outputs": [],
      "stateMutability": "nonpayable",
      "type": "function"
    },
    {
      "inputs": [
        {
          "internalType": "address",
          "name": "",
          "type": "address"
        },
        {
          "internalType": "uint256",
          "name": "",
          "type": "uint256"
        }
      ],
      "name": "editionListings",
      "outputs": [
        {
          "internalType": "bool",
          "name": "",
          "type": "bool"
        }
      ],
      "stateMutability": "view",
      "type": "function"
    },
    {
      "inputs": [],
      "name": "feeRecipient",
      "outputs": [
        {
          "internalType": "address payable",
          "name": "",
          "type": "address"
        }
      ],
      "stateMutability": "view",
      "type": "function"
    },
    {
      "inputs": [
        {
          "internalType": "address",
          "name": "_nftEditionAddress",
          "type": "address"
        },
        {
          "internalType": "uint256",
          "name": "editionNumber",
          "type": "uint256"
        },
        {
          "internalType": "uint256",
          "name": "_pricePerItem",
          "type": "uint256"
        },
        {
          "internalType": "uint256",
          "name": "_OGUNPricePerItem",
          "type": "uint256"
        },
        {
          "internalType": "bool",
          "name": "_acceptsMATIC",
          "type": "bool"
        },
        {
          "internalType": "bool",
          "name": "_acceptsOGUN",
          "type": "bool"
        },
        {
          "internalType": "uint256",
          "name": "_startingTime",
          "type": "uint256"
        }
      ],
      "name": "listEdition",
      "outputs": [],
      "stateMutability": "nonpayable",
      "type": "function"
    },
    {
      "inputs": [
        {
          "internalType": "address",
          "name": "_nftAddress",
          "type": "address"
        },
        {
          "internalType": "uint256",
          "name": "_tokenId",
          "type": "uint256"
        },
        {
          "internalType": "uint256",
          "name": "_quantity",
          "type": "uint256"
        },
        {
          "internalType": "uint256",
          "name": "_pricePerItem",
          "type": "uint256"
        },
        {
          "internalType": "uint256",
          "name": "_OGUNPricePerItem",
          "type": "uint256"
        },
        {
          "internalType": "bool",
          "name": "_acceptsMATIC",
          "type": "bool"
        },
        {
          "internalType": "bool",
          "name": "_acceptsOGUN",
          "type": "bool"
        },
        {
          "internalType": "uint256",
          "name": "_startingTime",
          "type": "uint256"
        }
      ],
      "name": "listItem",
      "outputs": [],
      "stateMutability": "nonpayable",
      "type": "function"
    },
    {
      "inputs": [
        {
          "internalType": "address",
          "name": "",
          "type": "address"
        },
        {
          "internalType": "uint256",
          "name": "",
          "type": "uint256"
        },
        {
          "internalType": "address",
          "name": "",
          "type": "address"
        }
      ],
      "name": "listings",
      "outputs": [
        {
          "internalType": "uint256",
          "name": "quantity",
          "type": "uint256"
        },
        {
          "internalType": "uint256",
          "name": "pricePerItem",
          "type": "uint256"
        },
        {
          "internalType": "uint256",
          "name": "OGUNPricePerItem",
          "type": "uint256"
        },
        {
          "internalType": "bool",
          "name": "acceptsMATIC",
          "type": "bool"
        },
        {
          "internalType": "bool",
          "name": "acceptsOGUN",
          "type": "bool"
        },
        {
          "internalType": "uint256",
          "name": "startingTime",
          "type": "uint256"
        }
      ],
      "stateMutability": "view",
      "type": "function"
    },
    {
      "inputs": [],
      "name": "owner",
      "outputs": [
        {
          "internalType": "address",
          "name": "",
          "type": "address"
        }
      ],
      "stateMutability": "view",
      "type": "function"
    },
    {
      "inputs": [],
      "name": "platformFee",
      "outputs": [
        {
          "internalType": "uint16",
          "name": "",
          "type": "uint16"
        }
      ],
      "stateMutability": "view",
      "type": "function"
    },
    {
      "inputs": [],
      "name": "renounceOwnership",
      "outputs": [],
      "stateMutability": "nonpayable",
      "type": "function"
    },
    {
      "inputs": [],
      "name": "rewardsLimit",
      "outputs": [
        {
          "internalType": "uint256",
          "name": "",
          "type": "uint256"
        }
      ],
      "stateMutability": "view",
      "type": "function"
    },
    {
      "inputs": [],
      "name": "rewardsRate",
      "outputs": [
        {
          "internalType": "uint256",
          "name": "",
          "type": "uint256"
        }
      ],
      "stateMutability": "view",
      "type": "function"
    },
    {
      "inputs": [
        {
          "internalType": "uint256",
          "name": "newLimit",
          "type": "uint256"
        }
      ],
      "name": "setRewardsLimit",
      "outputs": [],
      "stateMutability": "nonpayable",
      "type": "function"
    },
    {
      "inputs": [
        {
          "internalType": "uint256",
          "name": "_rewardsRate",
          "type": "uint256"
        }
      ],
      "name": "setRewardsRate",
      "outputs": [],
      "stateMutability": "nonpayable",
      "type": "function"
    },
    {
      "inputs": [
        {
          "internalType": "address",
          "name": "newOwner",
          "type": "address"
        }
      ],
      "name": "transferOwnership",
      "outputs": [],
      "stateMutability": "nonpayable",
      "type": "function"
    },
    {
      "inputs": [
        {
          "internalType": "address",
          "name": "_nftAddress",
          "type": "address"
        },
        {
          "internalType": "uint256",
          "name": "_tokenId",
          "type": "uint256"
        },
        {
          "internalType": "uint256",
          "name": "_newPrice",
          "type": "uint256"
        },
        {
          "internalType": "uint256",
          "name": "_newOGUNPrice",
          "type": "uint256"
        },
        {
          "internalType": "bool",
          "name": "_acceptsMATIC",
          "type": "bool"
        },
        {
          "internalType": "bool",
          "name": "_acceptsOGUN",
          "type": "bool"
        },
        {
          "internalType": "uint256",
          "name": "_startingTime",
          "type": "uint256"
        }
      ],
      "name": "updateListing",
      "outputs": [],
      "stateMutability": "nonpayable",
      "type": "function"
    },
    {
      "inputs": [
        {
          "internalType": "uint16",
          "name": "_platformFee",
          "type": "uint16"
        }
      ],
      "name": "updatePlatformFee",
      "outputs": [],
      "stateMutability": "nonpayable",
      "type": "function"
    },
    {
      "inputs": [
        {
          "internalType": "address payable",
          "name": "_platformFeeRecipient",
          "type": "address"
        }
      ],
      "name": "updatePlatformFeeRecipient",
      "outputs": [],
      "stateMutability": "nonpayable",
      "type": "function"
    },
    {
      "inputs": [
        {
          "internalType": "address",
          "name": "destination",
          "type": "address"
        }
      ],
      "name": "withdraw",
      "outputs": [],
      "stateMutability": "nonpayable",
      "type": "function"
    }
  ],
  "bytecode": "0x60a06040523480156200001157600080fd5b506040516200309b3803806200309b8339810160408190526200003491620000f3565b6200003f336200008a565b600180556001600160a01b03938416608052600680549590941662010000026001600160b01b031990951661ffff90931692909217939093179091556002919091556003556200015e565b600080546001600160a01b038381166001600160a01b0319831681178455604051919092169283917f8be0079c531659141344cd1fd0a4f28419497f9722a3daafe3b4186f6b6457e09190a35050565b6001600160a01b0381168114620000f057600080fd5b50565b600080600080600060a086880312156200010c57600080fd5b85516200011981620000da565b60208701519095506200012c81620000da565b604087015190945061ffff811681146200014557600080fd5b6060870151608090970151959894975095949392505050565b608051612ee2620001b9600039600081816103c101528181610e2701528181610ec30152818161152101528181611fbb0152818161213101528181612237015281816122ad01528181612332015261235e0152612ee26000f3fe60806040526004361061012a5760003560e01c8063715018a6116100ab578063afb069521161006f578063afb06952146103e3578063b2ddee0614610403578063b6e6096d14610423578063ce513d3a14610439578063f2fde38b14610459578063f5fe7f711461047957600080fd5b8063715018a61461033c57806374791fb6146103515780638da5cb5b146103715780638fc80b621461038f578063a770da20146103af57600080fd5b806351cff8d9116100f257806351cff8d91461022d578063523bc7d51461024d578063568dce8c1461027157806364e21bb9146102915780636bd3a64b146102a457600080fd5b80630568e0c61461012f57806326232a2e1461017f5780632b9cac28146101ad57806339640bb6146101cf57806346904840146101ef575b600080fd5b34801561013b57600080fd5b5061016a61014a3660046128fa565b600560209081526000928352604080842090915290825290205460ff1681565b60405190151581526020015b60405180910390f35b34801561018b57600080fd5b5060065461019a9061ffff1681565b60405161ffff9091168152602001610176565b3480156101b957600080fd5b506101cd6101c8366004612934565b610499565b005b3480156101db57600080fd5b506101cd6101ea3660046129a6565b6109f1565b3480156101fb57600080fd5b50600654610215906201000090046001600160a01b031681565b6040516001600160a01b039091168152602001610176565b34801561023957600080fd5b506101cd610248366004612a22565b610de5565b34801561025957600080fd5b5061026360025481565b604051908152602001610176565b34801561027d57600080fd5b506101cd61028c3660046128fa565b610f37565b6101cd61029f366004612a3f565b6111b8565b3480156102b057600080fd5b5061030b6102bf366004612a92565b60046020818152600094855260408086208252938552838520905290835291208054600182015460028301546003840154939094015491939092909160ff808316926101009004169086565b60408051968752602087019590955293850192909252151560608401521515608083015260a082015260c001610176565b34801561034857600080fd5b506101cd611760565b34801561035d57600080fd5b506101cd61036c366004612ad4565b611796565b34801561037d57600080fd5b506000546001600160a01b0316610215565b34801561039b57600080fd5b506101cd6103aa366004612ad4565b6117c5565b3480156103bb57600080fd5b506102157f000000000000000000000000000000000000000000000000000000000000000081565b3480156103ef57600080fd5b506101cd6103fe366004612aed565b6117f4565b34801561040f57600080fd5b506101cd61041e3660046128fa565b611869565b34801561042f57600080fd5b5061026360035481565b34801561044557600080fd5b506101cd610454366004612934565b61193f565b34801561046557600080fd5b506101cd610474366004612a22565b611c09565b34801561048557600080fd5b506101cd610494366004612a22565b611ca4565b6001600160a01b03871660009081526005602090815260408083208984529091529020548790879060ff161561050f5760405162461bcd60e51b815260206004820152601660248201527519591a5d1a5bdb88185b1c9958591e481b1a5cdd195960521b60448201526064015b60405180910390fd5b6001600160a01b03891660009081526005602090815260408083208b84529091529020805460ff1916600117905584806105465750835b6105625760405162461bcd60e51b815260040161050690612b11565b6040516301ffc9a760e01b81526001600160a01b038a16906301ffc9a790610595906380ac58cd60e01b90600401612b52565b602060405180830381865afa1580156105b2573d6000803e3d6000fd5b505050506040513d601f19601f820116820180604052508101906105d69190612b67565b156109a85788806001600160a01b03811663e985e9c5336040516001600160e01b031960e084901b1681526001600160a01b039091166004820152306024820152604401602060405180830381865afa158015610637573d6000803e3d6000fd5b505050506040513d601f19601f8201168201806040525081019061065b9190612b67565b61069b5760405162461bcd60e51b81526020600482015260116024820152701a5d195b481b9bdd08185c1c1c9bdd9959607a1b6044820152606401610506565b6040516374e7918960e01b8152600481018b90526000906001600160a01b038316906374e7918990602401600060405180830381865afa1580156106e3573d6000803e3d6000fd5b505050506040513d6000823e601f3d908101601f1916820160405261070b9190810190612b9a565b905060008151116107565760405162461bcd60e51b815260206004820152601560248201527465646974696f6e20686173206e6f20746f6b656e7360581b6044820152606401610506565b60005b815181101561099f57336001600160a01b0316846001600160a01b0316636352211e84848151811061078d5761078d612c58565b60200260200101516040518263ffffffff1660e01b81526004016107b391815260200190565b602060405180830381865afa1580156107d0573d6000803e3d6000fd5b505050506040513d601f19601f820116820180604052508101906107f49190612c6e565b6001600160a01b0316141561098d576040518060c00160405280600181526020018c81526020018b81526020018a15158152602001891515815260200188815250600460008f6001600160a01b03166001600160a01b03168152602001908152602001600020600084848151811061086e5761086e612c58565b60200260200101518152602001908152602001600020600061088d3390565b6001600160a01b0390811682526020808301939093526040918201600020845181559284015160018401559083015160028301556060830151600383018054608086015115156101000261ff00199315159390931661ffff199091161791909117905560a0909201516004909101558d166109053390565b6001600160a01b03167f3e525878a5c06d5b45743edd66dc00069a6078f6336073f54bc331cae70dddbb84848151811061094157610941612c58565b602090810291909101810151604080519182526001928201929092529081018f9052606081018e90528c151560808201528b151560a082015260c081018b905260e00160405180910390a35b8061099781612ca1565b915050610759565b505050506109e6565b60405162461bcd60e51b8152602060048201526013602482015272696e76616c6964206e6674206164647265737360681b6044820152606401610506565b505050505050505050565b8787336001600160a01b0380841660009081526004602081815260408084208785528252808420948616845293815291839020835160c0810185528154808252600183015494820194909452600282015494810194909452600381015460ff808216151560608701526101009091041615156080850152015460a083015215610aad5760405162461bcd60e51b815260206004820152600e60248201526d185b1c9958591e481b1a5cdd195960921b6044820152606401610506565b6040516301ffc9a760e01b81526001600160a01b038d16906301ffc9a790610ae0906380ac58cd60e01b90600401612b52565b602060405180830381865afa158015610afd573d6000803e3d6000fd5b505050506040513d601f19601f82011682018060405250810190610b219190612b67565b156109a8578b336040516331a9108f60e11b8152600481018e90526001600160a01b0391821691831690636352211e90602401602060405180830381865afa158015610b71573d6000803e3d6000fd5b505050506040513d601f19601f82011682018060405250810190610b959190612c6e565b6001600160a01b031614610bbb5760405162461bcd60e51b815260040161050690612cbc565b6001600160a01b03811663e985e9c5336040516001600160e01b031960e084901b1681526001600160a01b039091166004820152306024820152604401602060405180830381865afa158015610c15573d6000803e3d6000fd5b505050506040513d601f19601f82011682018060405250810190610c399190612b67565b610c795760405162461bcd60e51b81526020600482015260116024820152701a5d195b481b9bdd08185c1c1c9bdd9959607a1b6044820152606401610506565b508680610c835750855b610c9f5760405162461bcd60e51b815260040161050690612b11565b6040805160c0810182528b815260208082018c90528183018b90528915156060830152881515608083015260a082018890526001600160a01b038f166000908152600482528381208f82529091529182209091336001600160a01b0390811682526020808301939093526040918201600020845181559284015160018401559083015160028301556060830151600383018054608086015115156101000261ff00199315159390931661ffff199091161791909117905560a0909201516004909101558c16610d6b3390565b604080518e8152602081018e90529081018c9052606081018b9052891515608082015288151560a082015260c081018890526001600160a01b0391909116907f3e525878a5c06d5b45743edd66dc00069a6078f6336073f54bc331cae70dddbb9060e00160405180910390a3505050505050505050505050565b6000546001600160a01b03163314610e0f5760405162461bcd60e51b815260040161050690612ce5565b6040516370a0823160e01b81523060048201526000907f00000000000000000000000000000000000000000000000000000000000000006001600160a01b0316906370a0823190602401602060405180830381865afa158015610e76573d6000803e3d6000fd5b505050506040513d601f19601f82011682018060405250810190610e9a9190612d1a565b60405163a9059cbb60e01b81526001600160a01b038481166004830152602482018390529192507f00000000000000000000000000000000000000000000000000000000000000009091169063a9059cbb906044016020604051808303816000875af1158015610f0e573d6000803e3d6000fd5b505050506040513d601f19601f82011682018060405250810190610f329190612b67565b505050565b60026001541415610f5a5760405162461bcd60e51b815260040161050690612d33565b60026001556001600160a01b03821660009081526005602090815260408083208484529091529020548290829060ff16610fd65760405162461bcd60e51b815260206004820152601760248201527f65646974696f6e206e6f74206c6973746564206974656d0000000000000000006044820152606401610506565b6040516374e7918960e01b815260048101849052849081906000906001600160a01b038316906374e7918990602401600060405180830381865afa158015611022573d6000803e3d6000fd5b505050506040513d6000823e601f3d908101601f1916820160405261104a9190810190612b9a565b905060008151116110955760405162461bcd60e51b815260206004820152601560248201527465646974696f6e20686173206e6f20746f6b656e7360581b6044820152606401610506565b60005b815181101561117e57336001600160a01b0316846001600160a01b0316636352211e8484815181106110cc576110cc612c58565b60200260200101516040518263ffffffff1660e01b81526004016110f291815260200190565b602060405180830381865afa15801561110f573d6000803e3d6000fd5b505050506040513d601f19601f820116820180604052508101906111339190612c6e565b6001600160a01b0316141561116c5761116c8883838151811061115857611158612c58565b60200260200101516111673390565b611d26565b8061117681612ca1565b915050611098565b5050506001600160a01b03909416600090815260056020908152604080832095835294905292909220805460ff1916905550506001805550565b600260015414156111db5760405162461bcd60e51b815260040161050690612d33565b600260018181556001600160a01b0380871660009081526004602081815260408084208a85528252808420948916845293815291839020835160c081018552815480825295820154938101939093529485015492820192909252600384015460ff80821615156060840152610100909104161515608082015292015460a08301528591859185919061127f5760405162461bcd60e51b815260040161050690612d6a565b6001600160a01b0380891660008181526004602081815260408084208d85528252808420958c16845294815291849020845160c08101865281548152600182015493810193909352600281015483860152600381015460ff80821615156060860152610100909104161515608084015281015460a083015292516301ffc9a760e01b81528b938b938b939290916301ffc9a791611325916380ac58cd60e01b9101612b52565b602060405180830381865afa158015611342573d6000803e3d6000fd5b505050506040513d601f19601f820116820180604052508101906113669190612b67565b156109a8576040516331a9108f60e11b81526004810184905284906001600160a01b038481169190831690636352211e90602401602060405180830381865afa1580156113b7573d6000803e3d6000fd5b505050506040513d601f19601f820116820180604052508101906113db9190612c6e565b6001600160a01b0316146114015760405162461bcd60e51b815260040161050690612cbc565b5060a08101514210156114495760405162461bcd60e51b815260206004820152601060248201526f6974656d206e6f742062757961626c6560801b6044820152606401610506565b6000600460008e6001600160a01b03166001600160a01b0316815260200190815260200160002060008d815260200190815260200160002060008c6001600160a01b03166001600160a01b031681526020019081526020016000206040518060c00160405290816000820154815260200160018201548152602001600282015481526020016003820160009054906101000a900460ff161515151581526020016003820160019054906101000a900460ff16151515158152602001600482015481525050905089156116805760006001600160a01b037f00000000000000000000000000000000000000000000000000000000000000001663dd62ed3e336040516001600160e01b031960e084901b1681526001600160a01b039091166004820152306024820152604401602060405180830381865afa158015611591573d6000803e3d6000fd5b505050506040513d601f19601f820116820180604052508101906115b59190612d1a565b825160408401519192506115c99190611ec2565b8110156116185760405162461bcd60e51b815260206004820152601b60248201527f696e73756666696369656e742062616c616e636520746f2062757900000000006044820152606401610506565b6080820151151560011461167a5760405162461bcd60e51b815260206004820152602360248201527f746869732070757263686173652063616e277420626520646f6e6520696e204f60448201526223aaa760e91b6064820152608401610506565b50611741565b8051602082015161169091611ec2565b3410156116df5760405162461bcd60e51b815260206004820152601b60248201527f696e73756666696369656e742062616c616e636520746f2062757900000000006044820152606401610506565b606081015115156001146117415760405162461bcd60e51b8152602060048201526024808201527f746869732070757263686173652063616e277420626520646f6e6520696e204d6044820152634154494360e01b6064820152608401610506565b61174d8d8d8d8d611ed5565b5050600180555050505050505050505050565b6000546001600160a01b0316331461178a5760405162461bcd60e51b815260040161050690612ce5565b611794600061257d565b565b6000546001600160a01b031633146117c05760405162461bcd60e51b815260040161050690612ce5565b600255565b6000546001600160a01b031633146117ef5760405162461bcd60e51b815260040161050690612ce5565b600355565b6000546001600160a01b0316331461181e5760405162461bcd60e51b815260040161050690612ce5565b6006805461ffff191661ffff83169081179091556040519081527fcabead39256298cdf7d1228eee68b47bc54a2192283d8d93574da08d2d7ac303906020015b60405180910390a150565b6002600154141561188c5760405162461bcd60e51b815260040161050690612d33565b600260018181556001600160a01b038416600090815260046020818152604080842087855282528084203380865290835293819020815160c081018352815480825296820154938101939093529586015490820152600385015460ff80821615156060840152610100909104161515608082015293015460a0840152849284926119285760405162461bcd60e51b815260040161050690612d6a565b611933868633611d26565b50506001805550505050565b600260015414156119625760405162461bcd60e51b815260040161050690612d33565b600260018181556001600160a01b03891660009081526004602081815260408084208c855282528084203380865290835293819020815160c081018352815480825296820154938101939093529586015490820152600385015460ff80821615156060840152610100909104161515608082015293015460a0840152899289926119fe5760405162461bcd60e51b815260040161050690612d6a565b6001600160a01b038b1660008181526004602081815260408084208f855282528084203385529091529182902091516301ffc9a760e01b81529192916301ffc9a791611a53916380ac58cd60e01b9101612b52565b602060405180830381865afa158015611a70573d6000803e3d6000fd5b505050506040513d601f19601f82011682018060405250810190611a949190612b67565b156109a8578b336040516331a9108f60e11b8152600481018e90526001600160a01b0391821691831690636352211e90602401602060405180830381865afa158015611ae4573d6000803e3d6000fd5b505050506040513d601f19601f82011682018060405250810190611b089190612c6e565b6001600160a01b031614611b2e5760405162461bcd60e51b815260040161050690612cbc565b508780611b385750865b611b545760405162461bcd60e51b815260040161050690612b11565b600181018a9055600381018054600283018b905561ffff191689151561ff0019161761010089151502179055600481018690556001600160a01b038c1633604080518e8152602081018e90529081018c90528a15156060820152891515608082015260a081018990526001600160a01b0391909116907f803ebeb96a46ee85996f7bee39b94f74582e64772eff5975945aca58d89c0ad69060c00160405180910390a350506001805550505050505050505050565b6000546001600160a01b03163314611c335760405162461bcd60e51b815260040161050690612ce5565b6001600160a01b038116611c985760405162461bcd60e51b815260206004820152602660248201527f4f776e61626c653a206e6577206f776e657220697320746865207a65726f206160448201526564647265737360d01b6064820152608401610506565b611ca18161257d565b50565b6000546001600160a01b03163314611cce5760405162461bcd60e51b815260040161050690612ce5565b6006805462010000600160b01b031916620100006001600160a01b038416908102919091179091556040519081527fe57e7c1f36cc83fade34e32351e6eee7eb9da532662b1b5da10c631e8222aca79060200161185e565b6040516301ffc9a760e01b81526001600160a01b038416906301ffc9a790611d59906380ac58cd60e01b90600401612b52565b602060405180830381865afa158015611d76573d6000803e3d6000fd5b505050506040513d601f19601f82011682018060405250810190611d9a9190612b67565b156109a8576040516331a9108f60e11b81526004810183905283906001600160a01b038381169190831690636352211e90602401602060405180830381865afa158015611deb573d6000803e3d6000fd5b505050506040513d601f19601f82011682018060405250810190611e0f9190612c6e565b6001600160a01b031614611e355760405162461bcd60e51b815260040161050690612cbc565b506001600160a01b0383811660008181526004602081815260408084208885528252808420958716808552958252808420848155600181018590556002810185905560038101805461ffff1916905590920192909255518581529192917f9ba1a3cb55ce8d63d072a886f94d2a744f50cddf82128e897d0661f5ec623158910160405180910390a3505050565b6000611ece8284612d93565b9392505050565b6001600160a01b03808516600090815260046020818152604080842088855282528084209487168452938152838320845160c08101865281548152600182015492810192909252600281015494820194909452600384015460ff80821615156060840152610100909104161515608082015292015460a08301528215611f6c5781516040830151611f6591611ec2565b9050611f7f565b81516020830151611f7c91611ec2565b90505b600654600090611fa29061271090611f9c90859061ffff16611ec2565b906125cd565b90508315611ff057611feb336006546001600160a01b037f00000000000000000000000000000000000000000000000000000000000000008116929162010000900416846125d9565b612091565b6006546040516000916201000090046001600160a01b03169083908381818185875af1925050503d8060008114612043576040519150601f19603f3d011682016040523d82523d6000602084013e612048565b606091505b505090508061208f5760405162461bcd60e51b8152602060048201526013602482015272199959481d1c985b9cd9995c8819985a5b1959606a1b6044820152606401610506565b505b6000806001600160a01b038916632a55205a896120ae8688612db2565b6040516001600160e01b031960e085901b168152600481019290925260248201526044016040805180830381865afa1580156120ee573d6000803e3d6000fd5b505050506040513d601f19601f820116820180604052508101906121129190612dc9565b90925090506001600160a01b03821615612218578515612166576121617f00000000000000000000000000000000000000000000000000000000000000006001600160a01b03163384846125d9565b61220b565b6000826001600160a01b03168260405160006040518083038185875af1925050503d80600081146121b3576040519150601f19603f3d011682016040523d82523d6000602084013e6121b8565b606091505b50509050806122095760405162461bcd60e51b815260206004820152601b60248201527f726f79616c747920666565207472616e73666572206661696c656400000000006044820152606401610506565b505b612215838261264a565b92505b85156123935761225f338861222d8787612656565b6001600160a01b037f0000000000000000000000000000000000000000000000000000000000000000169291906125d9565b600061227c612710611f9c60025488611ec290919063ffffffff16565b905060035481111561228d57506003545b612298816002611ec2565b6040516370a0823160e01b81523060048201527f00000000000000000000000000000000000000000000000000000000000000006001600160a01b0316906370a0823190602401602060405180830381865afa1580156122fc573d6000803e3d6000fd5b505050506040513d601f19601f820116820180604052508101906123209190612d1a565b1061238d576123596001600160a01b037f0000000000000000000000000000000000000000000000000000000000000000168983612662565b61238d7f00000000000000000000000000000000000000000000000000000000000000006001600160a01b03163383612662565b50612435565b60006001600160a01b0388166123a98686612656565b604051600081818185875af1925050503d80600081146123e5576040519150601f19603f3d011682016040523d82523d6000602084013e6123ea565b606091505b50509050806124335760405162461bcd60e51b81526020600482015260156024820152741bdddb995c881d1c985b9cd9995c8819985a5b1959605a1b6044820152606401610506565b505b6001600160a01b0389166342842e0e88336040516001600160e01b031960e085901b1681526001600160a01b03928316600482015291166024820152604481018b9052606401600060405180830381600087803b15801561249557600080fd5b505af11580156124a9573d6000803e3d6000fd5b50505050886001600160a01b03166124be3390565b86516001600160a01b03918216918a16907fdd55b9c855642470e2d7be79adba4f717b0a0c2a8f7afb7951b408b5282275f0908c906124fd8a826125cd565b604080519384526020840192909252908201528a1515606082015260800160405180910390a45050506001600160a01b03958616600090815260046020818152604080842098845297815287832096909816825294909652505050908220828155600181018390556002810183905560038101805461ffff191690550155565b600080546001600160a01b038381166001600160a01b0319831681178455604051919092169283917f8be0079c531659141344cd1fd0a4f28419497f9722a3daafe3b4186f6b6457e09190a35050565b6000611ece8284612df7565b6040516001600160a01b03808516602483015283166044820152606481018290526126449085906323b872dd60e01b906084015b60408051601f198184030181529190526020810180516001600160e01b03166001600160e01b031990931692909217909152612692565b50505050565b6000611ece8284612e19565b6000611ece8284612db2565b6040516001600160a01b038316602482015260448101829052610f3290849063a9059cbb60e01b9060640161260d565b60006126e7826040518060400160405280602081526020017f5361666545524332303a206c6f772d6c6576656c2063616c6c206661696c6564815250856001600160a01b03166127649092919063ffffffff16565b805190915015610f3257808060200190518101906127059190612b67565b610f325760405162461bcd60e51b815260206004820152602a60248201527f5361666545524332303a204552433230206f7065726174696f6e20646964206e6044820152691bdd081cdd58d8d9595960b21b6064820152608401610506565b6060612773848460008561277b565b949350505050565b6060824710156127dc5760405162461bcd60e51b815260206004820152602660248201527f416464726573733a20696e73756666696369656e742062616c616e636520666f6044820152651c8818d85b1b60d21b6064820152608401610506565b6001600160a01b0385163b6128335760405162461bcd60e51b815260206004820152601d60248201527f416464726573733a2063616c6c20746f206e6f6e2d636f6e74726163740000006044820152606401610506565b600080866001600160a01b0316858760405161284f9190612e5d565b60006040518083038185875af1925050503d806000811461288c576040519150601f19603f3d011682016040523d82523d6000602084013e612891565b606091505b50915091506128a18282866128ac565b979650505050505050565b606083156128bb575081611ece565b8251156128cb5782518084602001fd5b8160405162461bcd60e51b81526004016105069190612e79565b6001600160a01b0381168114611ca157600080fd5b6000806040838503121561290d57600080fd5b8235612918816128e5565b946020939093013593505050565b8015158114611ca157600080fd5b600080600080600080600060e0888a03121561294f57600080fd5b873561295a816128e5565b9650602088013595506040880135945060608801359350608088013561297f81612926565b925060a088013561298f81612926565b8092505060c0880135905092959891949750929550565b600080600080600080600080610100898b0312156129c357600080fd5b88356129ce816128e5565b97506020890135965060408901359550606089013594506080890135935060a08901356129fa81612926565b925060c0890135612a0a81612926565b8092505060e089013590509295985092959890939650565b600060208284031215612a3457600080fd5b8135611ece816128e5565b60008060008060808587031215612a5557600080fd5b8435612a60816128e5565b9350602085013592506040850135612a77816128e5565b91506060850135612a8781612926565b939692955090935050565b600080600060608486031215612aa757600080fd5b8335612ab2816128e5565b9250602084013591506040840135612ac9816128e5565b809150509250925092565b600060208284031215612ae657600080fd5b5035919050565b600060208284031215612aff57600080fd5b813561ffff81168114611ece57600080fd5b60208082526021908201527f6974656d2073686f756c642068617665206120776179206f66207061796d656e6040820152601d60fa1b606082015260800190565b6001600160e01b031991909116815260200190565b600060208284031215612b7957600080fd5b8151611ece81612926565b634e487b7160e01b600052604160045260246000fd5b60006020808385031215612bad57600080fd5b825167ffffffffffffffff80821115612bc557600080fd5b818501915085601f830112612bd957600080fd5b815181811115612beb57612beb612b84565b8060051b604051601f19603f83011681018181108582111715612c1057612c10612b84565b604052918252848201925083810185019188831115612c2e57600080fd5b938501935b82851015612c4c57845184529385019392850192612c33565b98975050505050505050565b634e487b7160e01b600052603260045260246000fd5b600060208284031215612c8057600080fd5b8151611ece816128e5565b634e487b7160e01b600052601160045260246000fd5b6000600019821415612cb557612cb5612c8b565b5060010190565b6020808252600f908201526e6e6f74206f776e696e67206974656d60881b604082015260600190565b6020808252818101527f4f776e61626c653a2063616c6c6572206973206e6f7420746865206f776e6572604082015260600190565b600060208284031215612d2c57600080fd5b5051919050565b6020808252601f908201527f5265656e7472616e637947756172643a207265656e7472616e742063616c6c00604082015260600190565b6020808252600f908201526e6e6f74206c6973746564206974656d60881b604082015260600190565b6000816000190483118215151615612dad57612dad612c8b565b500290565b600082821015612dc457612dc4612c8b565b500390565b60008060408385031215612ddc57600080fd5b8251612de7816128e5565b6020939093015192949293505050565b600082612e1457634e487b7160e01b600052601260045260246000fd5b500490565b60008219821115612e2c57612e2c612c8b565b500190565b60005b83811015612e4c578181015183820152602001612e34565b838111156126445750506000910152565b60008251612e6f818460208701612e31565b9190910192915050565b6020815260008251806020840152612e98816040850160208701612e31565b601f01601f1916919091016040019291505056fea26469706673582212205322136c1aa910d09a63e03209f94b7cddb7eea528ea31e00f34d0e397e27ee364736f6c634300080a0033",
  "linkReferences": {},
  "deployedLinkReferences": {}
}