{
  "_format": "hh-sol-artifact-1",
  "contractName": "SoundchainMarketplaceEditions",
  "sourceName": "contracts/MarketplaceEditions.sol",
  "abi": [
    {
      "inputs": [
        {
          "internalType": "address payable",
          "name": "_feeRecipient",
          "type": "address"
        },
        {
          "internalType": "address",
          "name": "_OGUNToken",
          "type": "address"
        },
        {
          "internalType": "uint16",
          "name": "_platformFee",
          "type": "uint16"
        },
        {
          "internalType": "uint256",
          "name": "_rewardsRate",
          "type": "uint256"
        },
        {
          "internalType": "uint256",
          "name": "_rewardsLimit",
          "type": "uint256"
        }
      ],
      "stateMutability": "nonpayable",
      "type": "constructor"
    },
    {
      "anonymous": false,
      "inputs": [
        {
          "indexed": true,
          "internalType": "address",
          "name": "nft",
          "type": "address"
        },
        {
          "indexed": false,
          "internalType": "uint256",
          "name": "editionId",
          "type": "uint256"
        }
      ],
      "name": "EditionCanceled",
      "type": "event"
    },
    {
      "anonymous": false,
      "inputs": [
        {
          "indexed": true,
          "internalType": "address",
          "name": "nft",
          "type": "address"
        },
        {
          "indexed": false,
          "internalType": "uint256",
          "name": "editionId",
          "type": "uint256"
        }
      ],
      "name": "EditionListed",
      "type": "event"
    },
    {
      "anonymous": false,
      "inputs": [
        {
          "indexed": true,
          "internalType": "address",
          "name": "owner",
          "type": "address"
        },
        {
          "indexed": true,
          "internalType": "address",
          "name": "nft",
          "type": "address"
        },
        {
          "indexed": false,
          "internalType": "uint256",
          "name": "tokenId",
          "type": "uint256"
        }
      ],
      "name": "ItemCanceled",
      "type": "event"
    },
    {
      "anonymous": false,
      "inputs": [
        {
          "indexed": true,
          "internalType": "address",
          "name": "owner",
          "type": "address"
        },
        {
          "indexed": true,
          "internalType": "address",
          "name": "nft",
          "type": "address"
        },
        {
          "indexed": false,
          "internalType": "uint256",
          "name": "tokenId",
          "type": "uint256"
        },
        {
          "indexed": false,
          "internalType": "uint256",
          "name": "quantity",
          "type": "uint256"
        },
        {
          "indexed": false,
          "internalType": "uint256",
          "name": "pricePerItem",
          "type": "uint256"
        },
        {
          "indexed": false,
          "internalType": "uint256",
          "name": "OGUNPricePerItem",
          "type": "uint256"
        },
        {
          "indexed": false,
          "internalType": "bool",
          "name": "acceptsMATIC",
          "type": "bool"
        },
        {
          "indexed": false,
          "internalType": "bool",
          "name": "acceptsOGUN",
          "type": "bool"
        },
        {
          "indexed": false,
          "internalType": "uint256",
          "name": "startingTime",
          "type": "uint256"
        }
      ],
      "name": "ItemListed",
      "type": "event"
    },
    {
      "anonymous": false,
      "inputs": [
        {
          "indexed": true,
          "internalType": "address",
          "name": "seller",
          "type": "address"
        },
        {
          "indexed": true,
          "internalType": "address",
          "name": "buyer",
          "type": "address"
        },
        {
          "indexed": true,
          "internalType": "address",
          "name": "nft",
          "type": "address"
        },
        {
          "indexed": false,
          "internalType": "uint256",
          "name": "tokenId",
          "type": "uint256"
        },
        {
          "indexed": false,
          "internalType": "uint256",
          "name": "quantity",
          "type": "uint256"
        },
        {
          "indexed": false,
          "internalType": "uint256",
          "name": "pricePerItem",
          "type": "uint256"
        },
        {
          "indexed": false,
          "internalType": "bool",
          "name": "isPaymentOGUN",
          "type": "bool"
        }
      ],
      "name": "ItemSold",
      "type": "event"
    },
    {
      "anonymous": false,
      "inputs": [
        {
          "indexed": true,
          "internalType": "address",
          "name": "owner",
          "type": "address"
        },
        {
          "indexed": true,
          "internalType": "address",
          "name": "nft",
          "type": "address"
        },
        {
          "indexed": false,
          "internalType": "uint256",
          "name": "tokenId",
          "type": "uint256"
        },
        {
          "indexed": false,
          "internalType": "uint256",
          "name": "newPrice",
          "type": "uint256"
        },
        {
          "indexed": false,
          "internalType": "uint256",
          "name": "newOGUNPrice",
          "type": "uint256"
        },
        {
          "indexed": false,
          "internalType": "bool",
          "name": "acceptsMATIC",
          "type": "bool"
        },
        {
          "indexed": false,
          "internalType": "bool",
          "name": "acceptsOGUN",
          "type": "bool"
        },
        {
          "indexed": false,
          "internalType": "uint256",
          "name": "startingTime",
          "type": "uint256"
        }
      ],
      "name": "ItemUpdated",
      "type": "event"
    },
    {
      "anonymous": false,
      "inputs": [
        {
          "indexed": true,
          "internalType": "address",
          "name": "previousOwner",
          "type": "address"
        },
        {
          "indexed": true,
          "internalType": "address",
          "name": "newOwner",
          "type": "address"
        }
      ],
      "name": "OwnershipTransferred",
      "type": "event"
    },
    {
      "anonymous": false,
      "inputs": [
        {
          "indexed": false,
          "internalType": "uint16",
          "name": "platformFee",
          "type": "uint16"
        }
      ],
      "name": "UpdatePlatformFee",
      "type": "event"
    },
    {
      "anonymous": false,
      "inputs": [
        {
          "indexed": false,
          "internalType": "address payable",
          "name": "platformFeeRecipient",
          "type": "address"
        }
      ],
      "name": "UpdatePlatformFeeRecipient",
      "type": "event"
    },
    {
      "inputs": [],
      "name": "OGUNToken",
      "outputs": [
        {
          "internalType": "contract IERC20",
          "name": "",
          "type": "address"
        }
      ],
      "stateMutability": "view",
      "type": "function"
    },
    {
      "inputs": [
        {
          "internalType": "address",
          "name": "_nftAddress",
          "type": "address"
        },
        {
          "internalType": "uint256",
          "name": "_tokenId",
          "type": "uint256"
        },
        {
          "internalType": "address payable",
          "name": "_owner",
          "type": "address"
        },
        {
          "internalType": "bool",
          "name": "_isPaymentOGUN",
          "type": "bool"
        }
      ],
      "name": "buyItem",
      "outputs": [],
      "stateMutability": "payable",
      "type": "function"
    },
    {
      "inputs": [
        {
          "internalType": "address",
          "name": "_nftAddress",
          "type": "address"
        },
        {
          "internalType": "uint256",
          "name": "_editionNumber",
          "type": "uint256"
        }
      ],
      "name": "cancelEditionListing",
      "outputs": [],
      "stateMutability": "nonpayable",
      "type": "function"
    },
    {
      "inputs": [
        {
          "internalType": "address",
          "name": "_nftAddress",
          "type": "address"
        },
        {
          "internalType": "uint256",
          "name": "_tokenId",
          "type": "uint256"
        }
      ],
      "name": "cancelListing",
      "outputs": [],
      "stateMutability": "nonpayable",
      "type": "function"
    },
    {
      "inputs": [
        {
          "internalType": "address",
          "name": "",
          "type": "address"
        },
        {
          "internalType": "uint256",
          "name": "",
          "type": "uint256"
        }
      ],
      "name": "editionListings",
      "outputs": [
        {
          "internalType": "bool",
          "name": "",
          "type": "bool"
        }
      ],
      "stateMutability": "view",
      "type": "function"
    },
    {
      "inputs": [],
      "name": "feeRecipient",
      "outputs": [
        {
          "internalType": "address payable",
          "name": "",
          "type": "address"
        }
      ],
      "stateMutability": "view",
      "type": "function"
    },
    {
      "inputs": [
        {
          "internalType": "address",
          "name": "_nftEditionAddress",
          "type": "address"
        },
        {
          "internalType": "uint256",
          "name": "editionNumber",
          "type": "uint256"
        },
        {
          "internalType": "uint256",
          "name": "_pricePerItem",
          "type": "uint256"
        },
        {
          "internalType": "uint256",
          "name": "_OGUNPricePerItem",
          "type": "uint256"
        },
        {
          "internalType": "bool",
          "name": "_acceptsMATIC",
          "type": "bool"
        },
        {
          "internalType": "bool",
          "name": "_acceptsOGUN",
          "type": "bool"
        },
        {
          "internalType": "uint256",
          "name": "_startingTime",
          "type": "uint256"
        }
      ],
      "name": "listEdition",
      "outputs": [],
      "stateMutability": "nonpayable",
      "type": "function"
    },
    {
      "inputs": [
        {
          "internalType": "address",
          "name": "_nftAddress",
          "type": "address"
        },
        {
          "internalType": "uint256",
          "name": "_tokenId",
          "type": "uint256"
        },
        {
          "internalType": "uint256",
          "name": "_quantity",
          "type": "uint256"
        },
        {
          "internalType": "uint256",
          "name": "_pricePerItem",
          "type": "uint256"
        },
        {
          "internalType": "uint256",
          "name": "_OGUNPricePerItem",
          "type": "uint256"
        },
        {
          "internalType": "bool",
          "name": "_acceptsMATIC",
          "type": "bool"
        },
        {
          "internalType": "bool",
          "name": "_acceptsOGUN",
          "type": "bool"
        },
        {
          "internalType": "uint256",
          "name": "_startingTime",
          "type": "uint256"
        }
      ],
      "name": "listItem",
      "outputs": [],
      "stateMutability": "nonpayable",
      "type": "function"
    },
    {
      "inputs": [
        {
          "internalType": "address",
          "name": "",
          "type": "address"
        },
        {
          "internalType": "uint256",
          "name": "",
          "type": "uint256"
        },
        {
          "internalType": "address",
          "name": "",
          "type": "address"
        }
      ],
      "name": "listings",
      "outputs": [
        {
          "internalType": "uint256",
          "name": "quantity",
          "type": "uint256"
        },
        {
          "internalType": "uint256",
          "name": "pricePerItem",
          "type": "uint256"
        },
        {
          "internalType": "uint256",
          "name": "OGUNPricePerItem",
          "type": "uint256"
        },
        {
          "internalType": "bool",
          "name": "acceptsMATIC",
          "type": "bool"
        },
        {
          "internalType": "bool",
          "name": "acceptsOGUN",
          "type": "bool"
        },
        {
          "internalType": "uint256",
          "name": "startingTime",
          "type": "uint256"
        }
      ],
      "stateMutability": "view",
      "type": "function"
    },
    {
      "inputs": [],
      "name": "owner",
      "outputs": [
        {
          "internalType": "address",
          "name": "",
          "type": "address"
        }
      ],
      "stateMutability": "view",
      "type": "function"
    },
    {
      "inputs": [],
      "name": "platformFee",
      "outputs": [
        {
          "internalType": "uint16",
          "name": "",
          "type": "uint16"
        }
      ],
      "stateMutability": "view",
      "type": "function"
    },
    {
      "inputs": [],
      "name": "renounceOwnership",
      "outputs": [],
      "stateMutability": "nonpayable",
      "type": "function"
    },
    {
      "inputs": [],
      "name": "rewardsLimit",
      "outputs": [
        {
          "internalType": "uint256",
          "name": "",
          "type": "uint256"
        }
      ],
      "stateMutability": "view",
      "type": "function"
    },
    {
      "inputs": [],
      "name": "rewardsRate",
      "outputs": [
        {
          "internalType": "uint256",
          "name": "",
          "type": "uint256"
        }
      ],
      "stateMutability": "view",
      "type": "function"
    },
    {
      "inputs": [
        {
          "internalType": "uint256",
          "name": "newLimit",
          "type": "uint256"
        }
      ],
      "name": "setRewardsLimit",
      "outputs": [],
      "stateMutability": "nonpayable",
      "type": "function"
    },
    {
      "inputs": [
        {
          "internalType": "uint256",
          "name": "_rewardsRate",
          "type": "uint256"
        }
      ],
      "name": "setRewardsRate",
      "outputs": [],
      "stateMutability": "nonpayable",
      "type": "function"
    },
    {
      "inputs": [
        {
          "internalType": "address",
          "name": "newOwner",
          "type": "address"
        }
      ],
      "name": "transferOwnership",
      "outputs": [],
      "stateMutability": "nonpayable",
      "type": "function"
    },
    {
      "inputs": [
        {
          "internalType": "address",
          "name": "_nftAddress",
          "type": "address"
        },
        {
          "internalType": "uint256",
          "name": "_tokenId",
          "type": "uint256"
        },
        {
          "internalType": "uint256",
          "name": "_newPrice",
          "type": "uint256"
        },
        {
          "internalType": "uint256",
          "name": "_newOGUNPrice",
          "type": "uint256"
        },
        {
          "internalType": "bool",
          "name": "_acceptsMATIC",
          "type": "bool"
        },
        {
          "internalType": "bool",
          "name": "_acceptsOGUN",
          "type": "bool"
        },
        {
          "internalType": "uint256",
          "name": "_startingTime",
          "type": "uint256"
        }
      ],
      "name": "updateListing",
      "outputs": [],
      "stateMutability": "nonpayable",
      "type": "function"
    },
    {
      "inputs": [
        {
          "internalType": "uint16",
          "name": "_platformFee",
          "type": "uint16"
        }
      ],
      "name": "updatePlatformFee",
      "outputs": [],
      "stateMutability": "nonpayable",
      "type": "function"
    },
    {
      "inputs": [
        {
          "internalType": "address payable",
          "name": "_platformFeeRecipient",
          "type": "address"
        }
      ],
      "name": "updatePlatformFeeRecipient",
      "outputs": [],
      "stateMutability": "nonpayable",
      "type": "function"
    },
    {
      "inputs": [
        {
          "internalType": "address",
          "name": "destination",
          "type": "address"
        }
      ],
      "name": "withdraw",
      "outputs": [],
      "stateMutability": "nonpayable",
      "type": "function"
    }
  ],
  "bytecode": "0x60a06040523480156200001157600080fd5b5060405162003105380380620031058339810160408190526200003491620000f3565b6200003f336200008a565b600180556001600160a01b03938416608052600680549590941662010000026001600160b01b031990951661ffff90931692909217939093179091556002919091556003556200015e565b600080546001600160a01b038381166001600160a01b0319831681178455604051919092169283917f8be0079c531659141344cd1fd0a4f28419497f9722a3daafe3b4186f6b6457e09190a35050565b6001600160a01b0381168114620000f057600080fd5b50565b600080600080600060a086880312156200010c57600080fd5b85516200011981620000da565b60208701519095506200012c81620000da565b604087015190945061ffff811681146200014557600080fd5b6060870151608090970151959894975095949392505050565b608051612f4c620001b9600039600081816103c101528181610e6a01528181610f06015281816115940152818161202e015281816121a4015281816122aa01528181612320015281816123a501526123d10152612f4c6000f3fe60806040526004361061012a5760003560e01c8063715018a6116100ab578063afb069521161006f578063afb06952146103e3578063b2ddee0614610403578063b6e6096d14610423578063ce513d3a14610439578063f2fde38b14610459578063f5fe7f711461047957600080fd5b8063715018a61461033c57806374791fb6146103515780638da5cb5b146103715780638fc80b621461038f578063a770da20146103af57600080fd5b806351cff8d9116100f257806351cff8d91461022d578063523bc7d51461024d578063568dce8c1461027157806364e21bb9146102915780636bd3a64b146102a457600080fd5b80630568e0c61461012f57806326232a2e1461017f5780632b9cac28146101ad57806339640bb6146101cf57806346904840146101ef575b600080fd5b34801561013b57600080fd5b5061016a61014a366004612964565b600560209081526000928352604080842090915290825290205460ff1681565b60405190151581526020015b60405180910390f35b34801561018b57600080fd5b5060065461019a9061ffff1681565b60405161ffff9091168152602001610176565b3480156101b957600080fd5b506101cd6101c836600461299e565b610499565b005b3480156101db57600080fd5b506101cd6101ea366004612a10565b610a34565b3480156101fb57600080fd5b50600654610215906201000090046001600160a01b031681565b6040516001600160a01b039091168152602001610176565b34801561023957600080fd5b506101cd610248366004612a8c565b610e28565b34801561025957600080fd5b5061026360025481565b604051908152602001610176565b34801561027d57600080fd5b506101cd61028c366004612964565b610f7a565b6101cd61029f366004612aa9565b61122b565b3480156102b057600080fd5b5061030b6102bf366004612afc565b60046020818152600094855260408086208252938552838520905290835291208054600182015460028301546003840154939094015491939092909160ff808316926101009004169086565b60408051968752602087019590955293850192909252151560608401521515608083015260a082015260c001610176565b34801561034857600080fd5b506101cd6117d3565b34801561035d57600080fd5b506101cd61036c366004612b3e565b611809565b34801561037d57600080fd5b506000546001600160a01b0316610215565b34801561039b57600080fd5b506101cd6103aa366004612b3e565b611838565b3480156103bb57600080fd5b506102157f000000000000000000000000000000000000000000000000000000000000000081565b3480156103ef57600080fd5b506101cd6103fe366004612b57565b611867565b34801561040f57600080fd5b506101cd61041e366004612964565b6118dc565b34801561042f57600080fd5b5061026360035481565b34801561044557600080fd5b506101cd61045436600461299e565b6119b2565b34801561046557600080fd5b506101cd610474366004612a8c565b611c7c565b34801561048557600080fd5b506101cd610494366004612a8c565b611d17565b6001600160a01b03871660009081526005602090815260408083208984529091529020548790879060ff161561050f5760405162461bcd60e51b815260206004820152601660248201527519591a5d1a5bdb88185b1c9958591e481b1a5cdd195960521b60448201526064015b60405180910390fd5b6001600160a01b03891660009081526005602090815260408083208b84529091529020805460ff1916600117905584806105465750835b6105625760405162461bcd60e51b815260040161050690612b7b565b6040516301ffc9a760e01b81526001600160a01b038a16906301ffc9a790610595906380ac58cd60e01b90600401612bbc565b602060405180830381865afa1580156105b2573d6000803e3d6000fd5b505050506040513d601f19601f820116820180604052508101906105d69190612bd1565b156109eb5788806001600160a01b03811663e985e9c5336040516001600160e01b031960e084901b1681526001600160a01b039091166004820152306024820152604401602060405180830381865afa158015610637573d6000803e3d6000fd5b505050506040513d601f19601f8201168201806040525081019061065b9190612bd1565b61069b5760405162461bcd60e51b81526020600482015260116024820152701a5d195b481b9bdd08185c1c1c9bdd9959607a1b6044820152606401610506565b6040516374e7918960e01b8152600481018b90526000906001600160a01b038316906374e7918990602401600060405180830381865afa1580156106e3573d6000803e3d6000fd5b505050506040513d6000823e601f3d908101601f1916820160405261070b9190810190612c04565b905060008151116107565760405162461bcd60e51b815260206004820152601560248201527465646974696f6e20686173206e6f20746f6b656e7360581b6044820152606401610506565b60005b815181101561099f57336001600160a01b0316846001600160a01b0316636352211e84848151811061078d5761078d612cc2565b60200260200101516040518263ffffffff1660e01b81526004016107b391815260200190565b602060405180830381865afa1580156107d0573d6000803e3d6000fd5b505050506040513d601f19601f820116820180604052508101906107f49190612cd8565b6001600160a01b0316141561098d576040518060c00160405280600181526020018c81526020018b81526020018a15158152602001891515815260200188815250600460008f6001600160a01b03166001600160a01b03168152602001908152602001600020600084848151811061086e5761086e612cc2565b60200260200101518152602001908152602001600020600061088d3390565b6001600160a01b0390811682526020808301939093526040918201600020845181559284015160018401559083015160028301556060830151600383018054608086015115156101000261ff00199315159390931661ffff199091161791909117905560a0909201516004909101558d166109053390565b6001600160a01b03167f3e525878a5c06d5b45743edd66dc00069a6078f6336073f54bc331cae70dddbb84848151811061094157610941612cc2565b602090810291909101810151604080519182526001928201929092529081018f9052606081018e90528c151560808201528b151560a082015260c081018b905260e00160405180910390a35b8061099781612d0b565b915050610759565b508b6001600160a01b03167f5e46cfcd84c15957f2a2f42bbf54bd3b957102168436269eae481e5be7bb13598c6040516109db91815260200190565b60405180910390a2505050610a29565b60405162461bcd60e51b8152602060048201526013602482015272696e76616c6964206e6674206164647265737360681b6044820152606401610506565b505050505050505050565b8787336001600160a01b0380841660009081526004602081815260408084208785528252808420948616845293815291839020835160c0810185528154808252600183015494820194909452600282015494810194909452600381015460ff808216151560608701526101009091041615156080850152015460a083015215610af05760405162461bcd60e51b815260206004820152600e60248201526d185b1c9958591e481b1a5cdd195960921b6044820152606401610506565b6040516301ffc9a760e01b81526001600160a01b038d16906301ffc9a790610b23906380ac58cd60e01b90600401612bbc565b602060405180830381865afa158015610b40573d6000803e3d6000fd5b505050506040513d601f19601f82011682018060405250810190610b649190612bd1565b156109eb578b336040516331a9108f60e11b8152600481018e90526001600160a01b0391821691831690636352211e90602401602060405180830381865afa158015610bb4573d6000803e3d6000fd5b505050506040513d601f19601f82011682018060405250810190610bd89190612cd8565b6001600160a01b031614610bfe5760405162461bcd60e51b815260040161050690612d26565b6001600160a01b03811663e985e9c5336040516001600160e01b031960e084901b1681526001600160a01b039091166004820152306024820152604401602060405180830381865afa158015610c58573d6000803e3d6000fd5b505050506040513d601f19601f82011682018060405250810190610c7c9190612bd1565b610cbc5760405162461bcd60e51b81526020600482015260116024820152701a5d195b481b9bdd08185c1c1c9bdd9959607a1b6044820152606401610506565b508680610cc65750855b610ce25760405162461bcd60e51b815260040161050690612b7b565b6040805160c0810182528b815260208082018c90528183018b90528915156060830152881515608083015260a082018890526001600160a01b038f166000908152600482528381208f82529091529182209091336001600160a01b0390811682526020808301939093526040918201600020845181559284015160018401559083015160028301556060830151600383018054608086015115156101000261ff00199315159390931661ffff199091161791909117905560a0909201516004909101558c16610dae3390565b604080518e8152602081018e90529081018c9052606081018b9052891515608082015288151560a082015260c081018890526001600160a01b0391909116907f3e525878a5c06d5b45743edd66dc00069a6078f6336073f54bc331cae70dddbb9060e00160405180910390a3505050505050505050505050565b6000546001600160a01b03163314610e525760405162461bcd60e51b815260040161050690612d4f565b6040516370a0823160e01b81523060048201526000907f00000000000000000000000000000000000000000000000000000000000000006001600160a01b0316906370a0823190602401602060405180830381865afa158015610eb9573d6000803e3d6000fd5b505050506040513d601f19601f82011682018060405250810190610edd9190612d84565b60405163a9059cbb60e01b81526001600160a01b038481166004830152602482018390529192507f00000000000000000000000000000000000000000000000000000000000000009091169063a9059cbb906044016020604051808303816000875af1158015610f51573d6000803e3d6000fd5b505050506040513d601f19601f82011682018060405250810190610f759190612bd1565b505050565b60026001541415610f9d5760405162461bcd60e51b815260040161050690612d9d565b60026001556001600160a01b03821660009081526005602090815260408083208484529091529020548290829060ff166110195760405162461bcd60e51b815260206004820152601760248201527f65646974696f6e206e6f74206c6973746564206974656d0000000000000000006044820152606401610506565b6040516374e7918960e01b815260048101849052849081906000906001600160a01b038316906374e7918990602401600060405180830381865afa158015611065573d6000803e3d6000fd5b505050506040513d6000823e601f3d908101601f1916820160405261108d9190810190612c04565b905060008151116110d85760405162461bcd60e51b815260206004820152601560248201527465646974696f6e20686173206e6f20746f6b656e7360581b6044820152606401610506565b60005b81518110156111c157336001600160a01b0316846001600160a01b0316636352211e84848151811061110f5761110f612cc2565b60200260200101516040518263ffffffff1660e01b815260040161113591815260200190565b602060405180830381865afa158015611152573d6000803e3d6000fd5b505050506040513d601f19601f820116820180604052508101906111769190612cd8565b6001600160a01b031614156111af576111af8883838151811061119b5761119b612cc2565b60200260200101516111aa3390565b611d99565b806111b981612d0b565b9150506110db565b506001600160a01b03871660008181526005602090815260408083208a8452825291829020805460ff1916905590518881527f674fcdd21ce1acfde8fa1df5529d49e3c379bdc6ccc8a09be7d84d9adca7b3e1910160405180910390a25050600180555050505050565b6002600154141561124e5760405162461bcd60e51b815260040161050690612d9d565b600260018181556001600160a01b0380871660009081526004602081815260408084208a85528252808420948916845293815291839020835160c081018552815480825295820154938101939093529485015492820192909252600384015460ff80821615156060840152610100909104161515608082015292015460a0830152859185918591906112f25760405162461bcd60e51b815260040161050690612dd4565b6001600160a01b0380891660008181526004602081815260408084208d85528252808420958c16845294815291849020845160c08101865281548152600182015493810193909352600281015483860152600381015460ff80821615156060860152610100909104161515608084015281015460a083015292516301ffc9a760e01b81528b938b938b939290916301ffc9a791611398916380ac58cd60e01b9101612bbc565b602060405180830381865afa1580156113b5573d6000803e3d6000fd5b505050506040513d601f19601f820116820180604052508101906113d99190612bd1565b156109eb576040516331a9108f60e11b81526004810184905284906001600160a01b038481169190831690636352211e90602401602060405180830381865afa15801561142a573d6000803e3d6000fd5b505050506040513d601f19601f8201168201806040525081019061144e9190612cd8565b6001600160a01b0316146114745760405162461bcd60e51b815260040161050690612d26565b5060a08101514210156114bc5760405162461bcd60e51b815260206004820152601060248201526f6974656d206e6f742062757961626c6560801b6044820152606401610506565b6000600460008e6001600160a01b03166001600160a01b0316815260200190815260200160002060008d815260200190815260200160002060008c6001600160a01b03166001600160a01b031681526020019081526020016000206040518060c00160405290816000820154815260200160018201548152602001600282015481526020016003820160009054906101000a900460ff161515151581526020016003820160019054906101000a900460ff16151515158152602001600482015481525050905089156116f35760006001600160a01b037f00000000000000000000000000000000000000000000000000000000000000001663dd62ed3e336040516001600160e01b031960e084901b1681526001600160a01b039091166004820152306024820152604401602060405180830381865afa158015611604573d6000803e3d6000fd5b505050506040513d601f19601f820116820180604052508101906116289190612d84565b8251604084015191925061163c9190611f35565b81101561168b5760405162461bcd60e51b815260206004820152601b60248201527f696e73756666696369656e742062616c616e636520746f2062757900000000006044820152606401610506565b608082015115156001146116ed5760405162461bcd60e51b815260206004820152602360248201527f746869732070757263686173652063616e277420626520646f6e6520696e204f60448201526223aaa760e91b6064820152608401610506565b506117b4565b8051602082015161170391611f35565b3410156117525760405162461bcd60e51b815260206004820152601b60248201527f696e73756666696369656e742062616c616e636520746f2062757900000000006044820152606401610506565b606081015115156001146117b45760405162461bcd60e51b8152602060048201526024808201527f746869732070757263686173652063616e277420626520646f6e6520696e204d6044820152634154494360e01b6064820152608401610506565b6117c08d8d8d8d611f48565b5050600180555050505050505050505050565b6000546001600160a01b031633146117fd5760405162461bcd60e51b815260040161050690612d4f565b61180760006125f0565b565b6000546001600160a01b031633146118335760405162461bcd60e51b815260040161050690612d4f565b600255565b6000546001600160a01b031633146118625760405162461bcd60e51b815260040161050690612d4f565b600355565b6000546001600160a01b031633146118915760405162461bcd60e51b815260040161050690612d4f565b6006805461ffff191661ffff83169081179091556040519081527fcabead39256298cdf7d1228eee68b47bc54a2192283d8d93574da08d2d7ac303906020015b60405180910390a150565b600260015414156118ff5760405162461bcd60e51b815260040161050690612d9d565b600260018181556001600160a01b038416600090815260046020818152604080842087855282528084203380865290835293819020815160c081018352815480825296820154938101939093529586015490820152600385015460ff80821615156060840152610100909104161515608082015293015460a08401528492849261199b5760405162461bcd60e51b815260040161050690612dd4565b6119a6868633611d99565b50506001805550505050565b600260015414156119d55760405162461bcd60e51b815260040161050690612d9d565b600260018181556001600160a01b03891660009081526004602081815260408084208c855282528084203380865290835293819020815160c081018352815480825296820154938101939093529586015490820152600385015460ff80821615156060840152610100909104161515608082015293015460a084015289928992611a715760405162461bcd60e51b815260040161050690612dd4565b6001600160a01b038b1660008181526004602081815260408084208f855282528084203385529091529182902091516301ffc9a760e01b81529192916301ffc9a791611ac6916380ac58cd60e01b9101612bbc565b602060405180830381865afa158015611ae3573d6000803e3d6000fd5b505050506040513d601f19601f82011682018060405250810190611b079190612bd1565b156109eb578b336040516331a9108f60e11b8152600481018e90526001600160a01b0391821691831690636352211e90602401602060405180830381865afa158015611b57573d6000803e3d6000fd5b505050506040513d601f19601f82011682018060405250810190611b7b9190612cd8565b6001600160a01b031614611ba15760405162461bcd60e51b815260040161050690612d26565b508780611bab5750865b611bc75760405162461bcd60e51b815260040161050690612b7b565b600181018a9055600381018054600283018b905561ffff191689151561ff0019161761010089151502179055600481018690556001600160a01b038c1633604080518e8152602081018e90529081018c90528a15156060820152891515608082015260a081018990526001600160a01b0391909116907f803ebeb96a46ee85996f7bee39b94f74582e64772eff5975945aca58d89c0ad69060c00160405180910390a350506001805550505050505050505050565b6000546001600160a01b03163314611ca65760405162461bcd60e51b815260040161050690612d4f565b6001600160a01b038116611d0b5760405162461bcd60e51b815260206004820152602660248201527f4f776e61626c653a206e6577206f776e657220697320746865207a65726f206160448201526564647265737360d01b6064820152608401610506565b611d14816125f0565b50565b6000546001600160a01b03163314611d415760405162461bcd60e51b815260040161050690612d4f565b6006805462010000600160b01b031916620100006001600160a01b038416908102919091179091556040519081527fe57e7c1f36cc83fade34e32351e6eee7eb9da532662b1b5da10c631e8222aca7906020016118d1565b6040516301ffc9a760e01b81526001600160a01b038416906301ffc9a790611dcc906380ac58cd60e01b90600401612bbc565b602060405180830381865afa158015611de9573d6000803e3d6000fd5b505050506040513d601f19601f82011682018060405250810190611e0d9190612bd1565b156109eb576040516331a9108f60e11b81526004810183905283906001600160a01b038381169190831690636352211e90602401602060405180830381865afa158015611e5e573d6000803e3d6000fd5b505050506040513d601f19601f82011682018060405250810190611e829190612cd8565b6001600160a01b031614611ea85760405162461bcd60e51b815260040161050690612d26565b506001600160a01b0383811660008181526004602081815260408084208885528252808420958716808552958252808420848155600181018590556002810185905560038101805461ffff1916905590920192909255518581529192917f9ba1a3cb55ce8d63d072a886f94d2a744f50cddf82128e897d0661f5ec623158910160405180910390a3505050565b6000611f418284612dfd565b9392505050565b6001600160a01b03808516600090815260046020818152604080842088855282528084209487168452938152838320845160c08101865281548152600182015492810192909252600281015494820194909452600384015460ff80821615156060840152610100909104161515608082015292015460a08301528215611fdf5781516040830151611fd891611f35565b9050611ff2565b81516020830151611fef91611f35565b90505b600654600090612015906127109061200f90859061ffff16611f35565b90612640565b905083156120635761205e336006546001600160a01b037f000000000000000000000000000000000000000000000000000000000000000081169291620100009004168461264c565b612104565b6006546040516000916201000090046001600160a01b03169083908381818185875af1925050503d80600081146120b6576040519150601f19603f3d011682016040523d82523d6000602084013e6120bb565b606091505b50509050806121025760405162461bcd60e51b8152602060048201526013602482015272199959481d1c985b9cd9995c8819985a5b1959606a1b6044820152606401610506565b505b6000806001600160a01b038916632a55205a896121218688612e1c565b6040516001600160e01b031960e085901b168152600481019290925260248201526044016040805180830381865afa158015612161573d6000803e3d6000fd5b505050506040513d601f19601f820116820180604052508101906121859190612e33565b90925090506001600160a01b0382161561228b5785156121d9576121d47f00000000000000000000000000000000000000000000000000000000000000006001600160a01b031633848461264c565b61227e565b6000826001600160a01b03168260405160006040518083038185875af1925050503d8060008114612226576040519150601f19603f3d011682016040523d82523d6000602084013e61222b565b606091505b505090508061227c5760405162461bcd60e51b815260206004820152601b60248201527f726f79616c747920666565207472616e73666572206661696c656400000000006044820152606401610506565b505b61228883826126bd565b92505b8515612406576122d233886122a087876126c9565b6001600160a01b037f00000000000000000000000000000000000000000000000000000000000000001692919061264c565b60006122ef61271061200f60025488611f3590919063ffffffff16565b905060035481111561230057506003545b61230b816002611f35565b6040516370a0823160e01b81523060048201527f00000000000000000000000000000000000000000000000000000000000000006001600160a01b0316906370a0823190602401602060405180830381865afa15801561236f573d6000803e3d6000fd5b505050506040513d601f19601f820116820180604052508101906123939190612d84565b10612400576123cc6001600160a01b037f00000000000000000000000000000000000000000000000000000000000000001689836126d5565b6124007f00000000000000000000000000000000000000000000000000000000000000006001600160a01b031633836126d5565b506124a8565b60006001600160a01b03881661241c86866126c9565b604051600081818185875af1925050503d8060008114612458576040519150601f19603f3d011682016040523d82523d6000602084013e61245d565b606091505b50509050806124a65760405162461bcd60e51b81526020600482015260156024820152741bdddb995c881d1c985b9cd9995c8819985a5b1959605a1b6044820152606401610506565b505b6001600160a01b0389166342842e0e88336040516001600160e01b031960e085901b1681526001600160a01b03928316600482015291166024820152604481018b9052606401600060405180830381600087803b15801561250857600080fd5b505af115801561251c573d6000803e3d6000fd5b50505050886001600160a01b03166125313390565b86516001600160a01b03918216918a16907fdd55b9c855642470e2d7be79adba4f717b0a0c2a8f7afb7951b408b5282275f0908c906125708a82612640565b604080519384526020840192909252908201528a1515606082015260800160405180910390a45050506001600160a01b03958616600090815260046020818152604080842098845297815287832096909816825294909652505050908220828155600181018390556002810183905560038101805461ffff191690550155565b600080546001600160a01b038381166001600160a01b0319831681178455604051919092169283917f8be0079c531659141344cd1fd0a4f28419497f9722a3daafe3b4186f6b6457e09190a35050565b6000611f418284612e61565b6040516001600160a01b03808516602483015283166044820152606481018290526126b79085906323b872dd60e01b906084015b60408051601f198184030181529190526020810180516001600160e01b03166001600160e01b031990931692909217909152612705565b50505050565b6000611f418284612e83565b6000611f418284612e1c565b6040516001600160a01b038316602482015260448101829052610f7590849063a9059cbb60e01b90606401612680565b600061275a826040518060400160405280602081526020017f5361666545524332303a206c6f772d6c6576656c2063616c6c206661696c6564815250856001600160a01b03166127d79092919063ffffffff16565b805190915015610f7557808060200190518101906127789190612bd1565b610f755760405162461bcd60e51b815260206004820152602a60248201527f5361666545524332303a204552433230206f7065726174696f6e20646964206e6044820152691bdd081cdd58d8d9595960b21b6064820152608401610506565b60606127e684846000856127ee565b949350505050565b60608247101561284f5760405162461bcd60e51b815260206004820152602660248201527f416464726573733a20696e73756666696369656e742062616c616e636520666f6044820152651c8818d85b1b60d21b6064820152608401610506565b843b61289d5760405162461bcd60e51b815260206004820152601d60248201527f416464726573733a2063616c6c20746f206e6f6e2d636f6e74726163740000006044820152606401610506565b600080866001600160a01b031685876040516128b99190612ec7565b60006040518083038185875af1925050503d80600081146128f6576040519150601f19603f3d011682016040523d82523d6000602084013e6128fb565b606091505b509150915061290b828286612916565b979650505050505050565b60608315612925575081611f41565b8251156129355782518084602001fd5b8160405162461bcd60e51b81526004016105069190612ee3565b6001600160a01b0381168114611d1457600080fd5b6000806040838503121561297757600080fd5b82356129828161294f565b946020939093013593505050565b8015158114611d1457600080fd5b600080600080600080600060e0888a0312156129b957600080fd5b87356129c48161294f565b965060208801359550604088013594506060880135935060808801356129e981612990565b925060a08801356129f981612990565b8092505060c0880135905092959891949750929550565b600080600080600080600080610100898b031215612a2d57600080fd5b8835612a388161294f565b97506020890135965060408901359550606089013594506080890135935060a0890135612a6481612990565b925060c0890135612a7481612990565b8092505060e089013590509295985092959890939650565b600060208284031215612a9e57600080fd5b8135611f418161294f565b60008060008060808587031215612abf57600080fd5b8435612aca8161294f565b9350602085013592506040850135612ae18161294f565b91506060850135612af181612990565b939692955090935050565b600080600060608486031215612b1157600080fd5b8335612b1c8161294f565b9250602084013591506040840135612b338161294f565b809150509250925092565b600060208284031215612b5057600080fd5b5035919050565b600060208284031215612b6957600080fd5b813561ffff81168114611f4157600080fd5b60208082526021908201527f6974656d2073686f756c642068617665206120776179206f66207061796d656e6040820152601d60fa1b606082015260800190565b6001600160e01b031991909116815260200190565b600060208284031215612be357600080fd5b8151611f4181612990565b634e487b7160e01b600052604160045260246000fd5b60006020808385031215612c1757600080fd5b825167ffffffffffffffff80821115612c2f57600080fd5b818501915085601f830112612c4357600080fd5b815181811115612c5557612c55612bee565b8060051b604051601f19603f83011681018181108582111715612c7a57612c7a612bee565b604052918252848201925083810185019188831115612c9857600080fd5b938501935b82851015612cb657845184529385019392850192612c9d565b98975050505050505050565b634e487b7160e01b600052603260045260246000fd5b600060208284031215612cea57600080fd5b8151611f418161294f565b634e487b7160e01b600052601160045260246000fd5b6000600019821415612d1f57612d1f612cf5565b5060010190565b6020808252600f908201526e6e6f74206f776e696e67206974656d60881b604082015260600190565b6020808252818101527f4f776e61626c653a2063616c6c6572206973206e6f7420746865206f776e6572604082015260600190565b600060208284031215612d9657600080fd5b5051919050565b6020808252601f908201527f5265656e7472616e637947756172643a207265656e7472616e742063616c6c00604082015260600190565b6020808252600f908201526e6e6f74206c6973746564206974656d60881b604082015260600190565b6000816000190483118215151615612e1757612e17612cf5565b500290565b600082821015612e2e57612e2e612cf5565b500390565b60008060408385031215612e4657600080fd5b8251612e518161294f565b6020939093015192949293505050565b600082612e7e57634e487b7160e01b600052601260045260246000fd5b500490565b60008219821115612e9657612e96612cf5565b500190565b60005b83811015612eb6578181015183820152602001612e9e565b838111156126b75750506000910152565b60008251612ed9818460208701612e9b565b9190910192915050565b6020815260008251806020840152612f02816040850160208701612e9b565b601f01601f1916919091016040019291505056fea26469706673582212200ff3c27eedee4d91024b9d0192732a6fb34cfcb85c4b9125a67d9325eb5c94b564736f6c634300080a0033",
  "linkReferences": {},
  "deployedLinkReferences": {}
}