{
  "_format": "hh-sol-artifact-1",
  "contractName": "StakingRewards",
  "sourceName": "contracts/StakingRewards.sol",
  "abi": [
    {
      "inputs": [
        {
          "internalType": "address",
          "name": "_stakingToken",
          "type": "address"
        },
        {
          "internalType": "uint256",
          "name": "_rewardsSupply",
          "type": "uint256"
        }
      ],
      "stateMutability": "nonpayable",
      "type": "constructor"
    },
    {
      "anonymous": false,
      "inputs": [
        {
          "indexed": false,
          "internalType": "uint256",
          "name": "totalRewardsAllocated",
          "type": "uint256"
        },
        {
          "indexed": false,
          "internalType": "uint256",
          "name": "totalUserBalances",
          "type": "uint256"
        },
        {
          "indexed": false,
          "internalType": "uint256",
          "name": "totalStakedPlusRewards",
          "type": "uint256"
        }
      ],
      "name": "RewardsCalculated",
      "type": "event"
    },
    {
      "anonymous": false,
      "inputs": [
        {
          "indexed": false,
          "internalType": "uint256",
          "name": "stakedAmount",
          "type": "uint256"
        },
        {
          "indexed": false,
          "internalType": "uint256",
          "name": "inclusiveRewardAmount",
          "type": "uint256"
        },
        {
          "indexed": false,
          "internalType": "uint256",
          "name": "newRewardAmount",
          "type": "uint256"
        },
        {
          "indexed": false,
          "internalType": "address",
          "name": "account",
          "type": "address"
        }
      ],
      "name": "RewardsCalculatedOf",
      "type": "event"
    },
    {
      "anonymous": false,
      "inputs": [
        {
          "indexed": true,
          "internalType": "address",
          "name": "user",
          "type": "address"
        },
        {
          "indexed": false,
          "internalType": "uint256",
          "name": "amount",
          "type": "uint256"
        }
      ],
      "name": "Stake",
      "type": "event"
    },
    {
      "anonymous": false,
      "inputs": [
        {
          "indexed": true,
          "internalType": "address",
          "name": "user",
          "type": "address"
        },
        {
          "indexed": false,
          "internalType": "uint256",
          "name": "stakedAmount",
          "type": "uint256"
        },
        {
          "indexed": false,
          "internalType": "uint256",
          "name": "rewardAmount",
          "type": "uint256"
        }
      ],
      "name": "Withdraw",
      "type": "event"
    },
    {
      "inputs": [],
      "name": "OGUN_PRECISION_FACTOR",
      "outputs": [
        {
          "internalType": "uint256",
          "name": "",
          "type": "uint256"
        }
      ],
      "stateMutability": "view",
      "type": "function"
    },
    {
      "inputs": [],
      "name": "PHASE_FOUR_BLOCK",
      "outputs": [
        {
          "internalType": "uint256",
          "name": "",
          "type": "uint256"
        }
      ],
      "stateMutability": "view",
      "type": "function"
    },
    {
      "inputs": [],
      "name": "PHASE_ONE_BLOCK",
      "outputs": [
        {
          "internalType": "uint256",
          "name": "",
          "type": "uint256"
        }
      ],
      "stateMutability": "view",
      "type": "function"
    },
    {
      "inputs": [],
      "name": "PHASE_THREE_BLOCK",
      "outputs": [
        {
          "internalType": "uint256",
          "name": "",
          "type": "uint256"
        }
      ],
      "stateMutability": "view",
      "type": "function"
    },
    {
      "inputs": [],
      "name": "PHASE_TWO_BLOCK",
      "outputs": [
        {
          "internalType": "uint256",
          "name": "",
          "type": "uint256"
        }
      ],
      "stateMutability": "view",
      "type": "function"
    },
    {
      "inputs": [],
      "name": "REWARDS_PHASE_FOUR",
      "outputs": [
        {
          "internalType": "uint256",
          "name": "",
          "type": "uint256"
        }
      ],
      "stateMutability": "view",
      "type": "function"
    },
    {
      "inputs": [],
      "name": "REWARDS_PHASE_ONE",
      "outputs": [
        {
          "internalType": "uint256",
          "name": "",
          "type": "uint256"
        }
      ],
      "stateMutability": "view",
      "type": "function"
    },
    {
      "inputs": [],
      "name": "REWARDS_PHASE_THREE",
      "outputs": [
        {
          "internalType": "uint256",
          "name": "",
          "type": "uint256"
        }
      ],
      "stateMutability": "view",
      "type": "function"
    },
    {
      "inputs": [],
      "name": "REWARDS_PHASE_TWO",
      "outputs": [
        {
          "internalType": "uint256",
          "name": "",
          "type": "uint256"
        }
      ],
      "stateMutability": "view",
      "type": "function"
    },
    {
      "inputs": [],
      "name": "_totalRewardsAllocated",
      "outputs": [
        {
          "internalType": "uint256",
          "name": "",
          "type": "uint256"
        }
      ],
      "stateMutability": "view",
      "type": "function"
    },
    {
      "inputs": [],
      "name": "_totalStaked",
      "outputs": [
        {
          "internalType": "uint256",
          "name": "",
          "type": "uint256"
        }
      ],
      "stateMutability": "view",
      "type": "function"
    },
    {
      "inputs": [],
      "name": "firstBlockNumber",
      "outputs": [
        {
          "internalType": "uint256",
          "name": "",
          "type": "uint256"
        }
      ],
      "stateMutability": "view",
      "type": "function"
    },
    {
      "inputs": [],
      "name": "getAddressesSize",
      "outputs": [
        {
          "internalType": "uint256",
          "name": "",
          "type": "uint256"
        }
      ],
      "stateMutability": "view",
      "type": "function"
    },
    {
      "inputs": [
        {
          "internalType": "address",
          "name": "_account",
          "type": "address"
        }
      ],
      "name": "getBalanceOf",
      "outputs": [
        {
          "internalType": "uint256",
          "name": "",
          "type": "uint256"
        },
        {
          "internalType": "uint256",
          "name": "",
          "type": "uint256"
        },
        {
          "internalType": "uint256",
          "name": "",
          "type": "uint256"
        }
      ],
      "stateMutability": "view",
      "type": "function"
    },
    {
      "inputs": [
        {
          "internalType": "address",
          "name": "_user",
          "type": "address"
        }
      ],
      "name": "getReward",
      "outputs": [
        {
          "internalType": "uint256",
          "name": "",
          "type": "uint256"
        }
      ],
      "stateMutability": "view",
      "type": "function"
    },
    {
      "inputs": [
        {
          "internalType": "address",
          "name": "_account",
          "type": "address"
        }
      ],
      "name": "getUpdatedBalanceOf",
      "outputs": [
        {
          "internalType": "uint256",
          "name": "",
          "type": "uint256"
        },
        {
          "internalType": "uint256",
          "name": "",
          "type": "uint256"
        },
        {
          "internalType": "uint256",
          "name": "",
          "type": "uint256"
        }
      ],
      "stateMutability": "nonpayable",
      "type": "function"
    },
    {
      "inputs": [
        {
          "internalType": "uint256",
          "name": "_amount",
          "type": "uint256"
        }
      ],
      "name": "stake",
      "outputs": [],
      "stateMutability": "nonpayable",
      "type": "function"
    },
    {
      "inputs": [],
      "name": "stakingToken",
      "outputs": [
        {
          "internalType": "contract IERC20",
          "name": "",
          "type": "address"
        }
      ],
      "stateMutability": "view",
      "type": "function"
    },
    {
      "inputs": [],
      "name": "updateReward",
      "outputs": [],
      "stateMutability": "nonpayable",
      "type": "function"
    },
    {
      "inputs": [],
      "name": "withdraw",
      "outputs": [],
      "stateMutability": "nonpayable",
      "type": "function"
    }
  ],
  "bytecode": "0x60c06040523480156200001157600080fd5b5060405162001458380380620014588339810160408190526200003491620000a1565b60016000556001600160a01b0382166080526002819055620000644360786200008c602090811b6200078a17901c565b60a052620000804360786200008c602090811b6200078a17901c565b60015550620001049050565b60006200009a8284620000dd565b9392505050565b60008060408385031215620000b557600080fd5b82516001600160a01b0381168114620000cd57600080fd5b6020939093015192949293505050565b60008219821115620000ff57634e487b7160e01b600052601160045260246000fd5b500190565b60805160a0516112fd6200015b6000396000818161026701528181610a8501528181610b0501528181610b380152610bba0152600081816101d3015281816103ed0152818161042901526106bd01526112fd6000f3fe608060405234801561001057600080fd5b506004361061012c5760003560e01c806376c58ebc116100ad578063c00007b011610071578063c00007b01461024f578063ce3a763c14610262578063dc0925c114610289578063f36c0a7214610291578063f8acb3ac146101a657600080fd5b806376c58ebc1461020d5780639b563e01146102195780639b96eece14610221578063a694fc3a14610234578063b96891e51461024757600080fd5b806345a7b39c116100f457806345a7b39c14610178578063530afd66146101a657806367a957dc146101b65780636a880669146101c657806372f702f3146101ce57600080fd5b80630399f10b14610131578063078ed7f9146101545780630c0102d01461015c5780633ccfd60b14610165578063459f3ff61461016f575b600080fd5b610141681918e6d9ede120a00081565b6040519081526020015b60405180910390f35b610141600881565b61014160045481565b61016d610299565b005b61014160035481565b61018b61018636600461109e565b610496565b6040805193845260208401929092529082015260600161014b565b610141681f5f2090695968c80081565b6101416825a55a46e4d1b0f00081565b610141600481565b6101f57f000000000000000000000000000000000000000000000000000000000000000081565b6040516001600160a01b03909116815260200161014b565b61014164e8d4a5100081565b610141600c81565b61018b61022f36600461109e565b6105b2565b61016d6102423660046110c7565b61062f565b600854610141565b61014161025d36600461109e565b61076f565b6101417f000000000000000000000000000000000000000000000000000000000000000081565b610141601081565b61016d610780565b600260005414156102c55760405162461bcd60e51b81526004016102bc906110e0565b60405180910390fd5b6002600090815533808252600760205260409091205460ff166102fa5760405162461bcd60e51b81526004016102bc90611117565b61030261079d565b33600090815260056020908152604080832054600690925282205490916103298284611170565b9050600081116103725760405162461bcd60e51b8152602060048201526014602482015273043757272656e742062616c616e636520697320360641b60448201526064016102bc565b60025481111561038157506002545b82600460008282546103939190611188565b9250508190555081600260008282546103ac9190611188565b9250508190555081600360008282546103c59190611188565b9091555050336000818152600560209081526040808320839055600690915281205561041c907f00000000000000000000000000000000000000000000000000000000000000006001600160a01b03169085610a0e565b6104506001600160a01b037f0000000000000000000000000000000000000000000000000000000000000000163384610a0e565b604080518481526020810184905233917ff279e6a1f5e320cca91135676d9cb6e44ca8a08c0b88342bcdb1144f6511b568910160405180910390a2505060016000555050565b6000806000600260005414156104be5760405162461bcd60e51b81526004016102bc906110e0565b600260009081556001600160a01b038516815260076020526040902054849060ff166104fc5760405162461bcd60e51b81526004016102bc90611117565b600061050786610a76565b905061051161079d565b6001600160a01b038616600081815260056020908152604080832054600683529281902054815193845291830191909152810183905260608101919091527f9eb35849fb235a0dc9e21ce192f6849e6dd6008e61c2b35a1e043d00927b90829060800160405180910390a16001600160a01b039590951660009081526005602090815260408083205460069092528220546001909255969095945092505050565b6001600160a01b03811660009081526007602052604081205481908190849060ff166105f05760405162461bcd60e51b81526004016102bc90611117565b60006105fb86610a76565b6001600160a01b03969096166000908152600560209081526040808320546006909252909120549097909695509350505050565b600260005414156106525760405162461bcd60e51b81526004016102bc906110e0565b6002600055806106b05760405162461bcd60e51b8152602060048201526024808201527f5374616b653a20416d6f756e74206d75737420626520677265617465722074686044820152630616e20360e41b60648201526084016102bc565b6106e56001600160a01b037f000000000000000000000000000000000000000000000000000000000000000016333084610c6b565b6106ed61079d565b80600460008282546106ff9190611170565b90915550503360009081526005602052604081208054839290610723908490611170565b90915550610732905033610ca9565b60405181815233907febedb8b3c678666e7f36970bc8f57abf6d8fa2e828c0da91ea5b75bf68ed101a9060200160405180910390a2506001600055565b600061077a82610a76565b92915050565b61078861079d565b565b60006107968284611170565b9392505050565b60015443116107a857565b60006003546004546107ba9190611170565b905060008060005b306001600160a01b031663b96891e56040518163ffffffff1660e01b8152600401602060405180830381865afa158015610800573d6000803e3d6000fd5b505050506040513d601f19601f82011682018060405250810190610824919061119f565b8110156109aa576006600060088381548110610842576108426111b8565b9060005260206000200160009054906101000a90046001600160a01b03166001600160a01b03166001600160a01b03168152602001908152602001600020546005600060088481548110610898576108986111b8565b60009182526020808320909101546001600160a01b031683528201929092526040019020546108c79190611170565b6108d19083611170565b91506000610905600883815481106108eb576108eb6111b8565b6000918252602090912001546001600160a01b0316610a76565b905080600660006008858154811061091f5761091f6111b8565b60009182526020808320909101546001600160a01b0316835282019290925260400190205461094e9190611170565b6006600060088581548110610965576109656111b8565b60009182526020808320909101546001600160a01b031683528201929092526040019020556109948185611170565b93505080806109a2906111ce565b9150506107c2565b5081600360008282546109bd9190611170565b909155505043600155600354604080519182526020820183905281018490527fbf435c36ecef852914f1b871bbd6afcd79dd1d2311fb9b824711cbe7345bdaed9060600160405180910390a1505050565b6040516001600160a01b038316602482015260448101829052610a7190849063a9059cbb60e01b906064015b60408051601f198184030181529190526020810180516001600160e01b03166001600160e01b031990931692909217909152610d32565b505050565b6002546000901580610aa857507f00000000000000000000000000000000000000000000000000000000000000004311155b15610ab557506000919050565b6001600160a01b03821660009081526005602090815260408083205460069092528220549091610ae58284611170565b905060008311610afa57506000949350505050565b600080610b2f610b2a7f000000000000000000000000000000000000000000000000000000000000000043611188565b610e04565b925050915060007f0000000000000000000000000000000000000000000000000000000000000000600154610b649190611188565b90506000806000610b7484610e04565b92509250925080851415610ba957610b9a878760015443610b959190611188565b610eaf565b9b9a5050505050505050505050565b6001546000908582610be5610bde847f0000000000000000000000000000000000000000000000000000000000000000610f02565b8790610f02565b90508686865b8b8111610c5357610bfd8e8486610eaf565b610c079088611170565b9650610c138487611170565b9550610c1f8486611170565b9450610c2f610b2a876001611170565b509093509150610c3f8583611188565b935080610c4b816111ce565b915050610beb565b50859f50505050505050505050505050505050919050565b6040516001600160a01b0380851660248301528316604482015260648101829052610ca39085906323b872dd60e01b90608401610a3a565b50505050565b6001600160a01b03811660009081526007602052604090205460ff16610d2f576001600160a01b0381166000818152600760205260408120805460ff191660019081179091556008805491820181559091527ff3f7a9fe364faab93b216da50a3214154f22a0a2b415b23a84c8169e8b636ee30180546001600160a01b03191690911790555b50565b6000610d87826040518060400160405280602081526020017f5361666545524332303a206c6f772d6c6576656c2063616c6c206661696c6564815250856001600160a01b0316610f0e9092919063ffffffff16565b805190915015610a715780806020019051810190610da591906111e9565b610a715760405162461bcd60e51b815260206004820152602a60248201527f5361666545524332303a204552433230206f7065726174696f6e20646964206e6044820152691bdd081cdd58d8d9595960b21b60648201526084016102bc565b6000806000808411610e1e57506000915081905080610ea8565b60048411610e3e5750681918e6d9ede120a0009150600490506001610ea8565b60088411610e5e5750681f5f2090695968c8009150600890506002610ea8565b600c8411610e7e5750681f5f2090695968c8009150600c90506003610ea8565b60108411610e9e57506825a55a46e4d1b0f0009150601090506004610ea8565b5060009150819050805b9193909250565b600080610eda600354600454610ec59190611170565b610ed48764e8d4a51000610f25565b90610f31565b9050610ef983610ef364e8d4a51000610ed48589610f25565b90610f25565b95945050505050565b60006107968284611188565b6060610f1d8484600085610f3d565b949350505050565b6000610796828461120b565b6000610796828461122a565b606082471015610f9e5760405162461bcd60e51b815260206004820152602660248201527f416464726573733a20696e73756666696369656e742062616c616e636520666f6044820152651c8818d85b1b60d21b60648201526084016102bc565b843b610fec5760405162461bcd60e51b815260206004820152601d60248201527f416464726573733a2063616c6c20746f206e6f6e2d636f6e747261637400000060448201526064016102bc565b600080866001600160a01b031685876040516110089190611278565b60006040518083038185875af1925050503d8060008114611045576040519150601f19603f3d011682016040523d82523d6000602084013e61104a565b606091505b509150915061105a828286611065565b979650505050505050565b60608315611074575081610796565b8251156110845782518084602001fd5b8160405162461bcd60e51b81526004016102bc9190611294565b6000602082840312156110b057600080fd5b81356001600160a01b038116811461079657600080fd5b6000602082840312156110d957600080fd5b5035919050565b6020808252601f908201527f5265656e7472616e637947756172643a207265656e7472616e742063616c6c00604082015260600190565b60208082526023908201527f61646472657373206861736e2774207374616b6520616e7920746f6b656e73206040820152621e595d60ea1b606082015260800190565b634e487b7160e01b600052601160045260246000fd5b600082198211156111835761118361115a565b500190565b60008282101561119a5761119a61115a565b500390565b6000602082840312156111b157600080fd5b5051919050565b634e487b7160e01b600052603260045260246000fd5b60006000198214156111e2576111e261115a565b5060010190565b6000602082840312156111fb57600080fd5b8151801515811461079657600080fd5b60008160001904831182151516156112255761122561115a565b500290565b60008261124757634e487b7160e01b600052601260045260246000fd5b500490565b60005b8381101561126757818101518382015260200161124f565b83811115610ca35750506000910152565b6000825161128a81846020870161124c565b9190910192915050565b60208152600082518060208401526112b381604085016020870161124c565b601f01601f1916919091016040019291505056fea26469706673582212205411d356a31411ebc37ae6e55d6e1672ea3f90ee2af89467d086f4588c9f1ece64736f6c634300080a0033",
  "linkReferences": {},
  "deployedLinkReferences": {}
}