{
  "_format": "hh-sol-artifact-1",
  "contractName": "StakingRewards",
  "sourceName": "contracts/StakingRewards.sol",
  "abi": [
    {
      "inputs": [
        {
          "internalType": "address",
          "name": "_stakingToken",
          "type": "address"
        },
        {
          "internalType": "uint256",
          "name": "_rewardsSupply",
          "type": "uint256"
        }
      ],
      "stateMutability": "nonpayable",
      "type": "constructor"
    },
    {
      "anonymous": false,
      "inputs": [
        {
          "indexed": false,
          "internalType": "uint256",
          "name": "amount",
          "type": "uint256"
        }
      ],
      "name": "RewardsCalculated",
      "type": "event"
    },
    {
      "anonymous": false,
      "inputs": [
        {
          "indexed": false,
          "internalType": "uint256",
          "name": "amount",
          "type": "uint256"
        },
        {
          "indexed": false,
          "internalType": "address",
          "name": "account",
          "type": "address"
        }
      ],
      "name": "RewardsCalculatedOf",
      "type": "event"
    },
    {
      "anonymous": false,
      "inputs": [
        {
          "indexed": true,
          "internalType": "address",
          "name": "user",
          "type": "address"
        },
        {
          "indexed": false,
          "internalType": "uint256",
          "name": "amount",
          "type": "uint256"
        }
      ],
      "name": "Stake",
      "type": "event"
    },
    {
      "anonymous": false,
      "inputs": [
        {
          "indexed": true,
          "internalType": "address",
          "name": "user",
          "type": "address"
        },
        {
          "indexed": false,
          "internalType": "uint256",
          "name": "amount",
          "type": "uint256"
        }
      ],
      "name": "Withdraw",
      "type": "event"
    },
    {
      "inputs": [],
      "name": "OGUN_PRECISION_FACTOR",
      "outputs": [
        {
          "internalType": "uint256",
          "name": "",
          "type": "uint256"
        }
      ],
      "stateMutability": "view",
      "type": "function"
    },
    {
      "inputs": [],
      "name": "PHASE_FOUR_BLOCK",
      "outputs": [
        {
          "internalType": "uint256",
          "name": "",
          "type": "uint256"
        }
      ],
      "stateMutability": "view",
      "type": "function"
    },
    {
      "inputs": [],
      "name": "PHASE_ONE_BLOCK",
      "outputs": [
        {
          "internalType": "uint256",
          "name": "",
          "type": "uint256"
        }
      ],
      "stateMutability": "view",
      "type": "function"
    },
    {
      "inputs": [],
      "name": "PHASE_THREE_BLOCK",
      "outputs": [
        {
          "internalType": "uint256",
          "name": "",
          "type": "uint256"
        }
      ],
      "stateMutability": "view",
      "type": "function"
    },
    {
      "inputs": [],
      "name": "PHASE_TWO_BLOCK",
      "outputs": [
        {
          "internalType": "uint256",
          "name": "",
          "type": "uint256"
        }
      ],
      "stateMutability": "view",
      "type": "function"
    },
    {
      "inputs": [],
      "name": "REWARDS_PHASE_FOUR",
      "outputs": [
        {
          "internalType": "uint256",
          "name": "",
          "type": "uint256"
        }
      ],
      "stateMutability": "view",
      "type": "function"
    },
    {
      "inputs": [],
      "name": "REWARDS_PHASE_ONE",
      "outputs": [
        {
          "internalType": "uint256",
          "name": "",
          "type": "uint256"
        }
      ],
      "stateMutability": "view",
      "type": "function"
    },
    {
      "inputs": [],
      "name": "REWARDS_PHASE_THREE",
      "outputs": [
        {
          "internalType": "uint256",
          "name": "",
          "type": "uint256"
        }
      ],
      "stateMutability": "view",
      "type": "function"
    },
    {
      "inputs": [],
      "name": "REWARDS_PHASE_TWO",
      "outputs": [
        {
          "internalType": "uint256",
          "name": "",
          "type": "uint256"
        }
      ],
      "stateMutability": "view",
      "type": "function"
    },
    {
      "inputs": [],
      "name": "_totalStaked",
      "outputs": [
        {
          "internalType": "uint256",
          "name": "",
          "type": "uint256"
        }
      ],
      "stateMutability": "view",
      "type": "function"
    },
    {
      "inputs": [],
      "name": "firstBlockNumber",
      "outputs": [
        {
          "internalType": "uint256",
          "name": "",
          "type": "uint256"
        }
      ],
      "stateMutability": "view",
      "type": "function"
    },
    {
      "inputs": [],
      "name": "getAddressesSize",
      "outputs": [
        {
          "internalType": "uint256",
          "name": "",
          "type": "uint256"
        }
      ],
      "stateMutability": "view",
      "type": "function"
    },
    {
      "inputs": [
        {
          "internalType": "address",
          "name": "_account",
          "type": "address"
        }
      ],
      "name": "getBalanceOf",
      "outputs": [
        {
          "internalType": "uint256",
          "name": "",
          "type": "uint256"
        }
      ],
      "stateMutability": "view",
      "type": "function"
    },
    {
      "inputs": [
        {
          "internalType": "address",
          "name": "_user",
          "type": "address"
        }
      ],
      "name": "getReward",
      "outputs": [
        {
          "internalType": "uint256",
          "name": "reward",
          "type": "uint256"
        }
      ],
      "stateMutability": "view",
      "type": "function"
    },
    {
      "inputs": [
        {
          "internalType": "address",
          "name": "_account",
          "type": "address"
        }
      ],
      "name": "getUpdatedBalanceOf",
      "outputs": [
        {
          "internalType": "uint256",
          "name": "",
          "type": "uint256"
        }
      ],
      "stateMutability": "nonpayable",
      "type": "function"
    },
    {
      "inputs": [
        {
          "internalType": "uint256",
          "name": "_amount",
          "type": "uint256"
        }
      ],
      "name": "stake",
      "outputs": [],
      "stateMutability": "nonpayable",
      "type": "function"
    },
    {
      "inputs": [],
      "name": "stakingToken",
      "outputs": [
        {
          "internalType": "contract IERC20",
          "name": "",
          "type": "address"
        }
      ],
      "stateMutability": "view",
      "type": "function"
    },
    {
      "inputs": [],
      "name": "updateReward",
      "outputs": [],
      "stateMutability": "nonpayable",
      "type": "function"
    },
    {
      "inputs": [],
      "name": "withdraw",
      "outputs": [],
      "stateMutability": "nonpayable",
      "type": "function"
    }
  ],
  "bytecode": "0x60c060405234801561001057600080fd5b5060405161123738038061123783398101604081905261002f91610054565b600160008190556001600160a01b039092166080526002554360a0819052905561008e565b6000806040838503121561006757600080fd5b82516001600160a01b038116811461007e57600080fd5b6020939093015192949293505050565b60805160a05161114c6100eb6000396000818161023e0152818161090d0152818161095c015281816109b301528181610a5601528181610aa50152610aec0152600081816101a80152818161039e01526105c9015261114c6000f3fe608060405234801561001057600080fd5b50600436106101215760003560e01c806376c58ebc116100ad578063c00007b011610071578063c00007b014610226578063ce3a763c14610239578063dc0925c114610260578063f36c0a721461026a578063f8acb3ac1461027257600080fd5b806376c58ebc146101e25780639b563e01146101ee5780639b96eece146101f8578063a694fc3a1461020b578063b96891e51461021e57600080fd5b806345a7b39c116100f457806345a7b39c14610166578063530afd661461017957806367a957dc146101895780636a8806691461019957806372f702f3146101a357600080fd5b80630399f10b14610126578063078ed7f9146101495780630c0102d0146101535780633ccfd60b1461015c575b600080fd5b6101366810ae16abe6fc15400081565b6040519081526020015b60405180910390f35b610136620be6e081565b61013660035481565b610164610282565b005b610136610174366004610eed565b610403565b6101366806f3341ca7f77c800081565b61013668021456d74c8f83200081565b6101366202f9b881565b6101ca7f000000000000000000000000000000000000000000000000000000000000000081565b6040516001600160a01b039091168152602001610140565b61013664e8d4a5100081565b6101366223b4a081565b610136610206366004610eed565b6104e4565b610164610219366004610f16565b61053b565b600754610136565b610136610234366004610eed565b610694565b6101367f000000000000000000000000000000000000000000000000000000000000000081565b610136624781aa81565b6101646106a5565b61013668029b338ad64545980081565b600260005414156102ae5760405162461bcd60e51b81526004016102a590610f2f565b60405180910390fd5b6002600090815533808252600660205260409091205460ff166102e35760405162461bcd60e51b81526004016102a590610f66565b6102eb6106af565b336000908152600560205260409020548061033f5760405162461bcd60e51b8152602060048201526014602482015273043757272656e742062616c616e636520697320360641b60448201526064016102a5565b60025481111561034e57506002545b33600090815260056020526040812081905560038054839290610372908490610fbf565b92505081905550806002600082825461038b9190610fbf565b909155506103c590506001600160a01b037f00000000000000000000000000000000000000000000000000000000000000001633836107b0565b60405181815233907f884edad9ce6fa2440d8a54cc123490eb96d2768479d49ff9c7366125a94243649060200160405180910390a250506001600055565b6000600260005414156104285760405162461bcd60e51b81526004016102a590610f2f565b600260009081556001600160a01b038316815260066020526040902054829060ff166104665760405162461bcd60e51b81526004016102a590610f66565b61046e6106af565b6001600160a01b038316600081815260056020908152604091829020548251908152908101929092527f3673432d551f526c4959883170cfdf836dddf6f8b29f41ec71b19ceffebbab7f910160405180910390a150506001600160a01b0316600090815260056020526040812054600190915590565b6001600160a01b038116600090815260066020526040812054829060ff1661051e5760405162461bcd60e51b81526004016102a590610f66565b50506001600160a01b031660009081526005602052604090205490565b6002600054141561055e5760405162461bcd60e51b81526004016102a590610f2f565b6002600055806105bc5760405162461bcd60e51b8152602060048201526024808201527f5374616b653a20416d6f756e74206d75737420626520677265617465722074686044820152630616e20360e41b60648201526084016102a5565b6105f16001600160a01b037f000000000000000000000000000000000000000000000000000000000000000016333084610818565b6105f96106af565b806003600082825461060b9190610fd6565b9250508190555080600260008282546106249190610fd6565b90915550503360009081526005602052604081208054839290610648908490610fd6565b90915550610657905033610856565b60405181815233907febedb8b3c678666e7f36970bc8f57abf6d8fa2e828c0da91ea5b75bf68ed101a9060200160405180910390a2506001600055565b600061069f826108df565b92915050565b6106ad6106af565b565b60015443116106ba57565b60005b306001600160a01b031663b96891e56040518163ffffffff1660e01b8152600401602060405180830381865afa1580156106fb573d6000803e3d6000fd5b505050506040513d601f19601f8201168201806040525081019061071f9190610fee565b811015610768576107566007828154811061073c5761073c611007565b6000918252602090912001546001600160a01b0316610a20565b806107608161101d565b9150506106bd565b504360015560048054600381905560009091556040519081527f9f80903d8a397edd2acd2d5f9d8b9641fe6add91c324d935c687cbf80da4a4e99060200160405180910390a1565b6040516001600160a01b03831660248201526044810182905261081390849063a9059cbb60e01b906064015b60408051601f198184030181529190526020810180516001600160e01b03166001600160e01b031990931692909217909152610b8f565b505050565b6040516001600160a01b03808516602483015283166044820152606481018290526108509085906323b872dd60e01b906084016107dc565b50505050565b6001600160a01b03811660009081526006602052604090205460ff166108dc576001600160a01b0381166000818152600660205260408120805460ff191660019081179091556007805491820181559091527fa66cc928b5edb82af9bd49922954155ab7b0942694bea4ce44661d9a8736c6880180546001600160a01b03191690911790555b50565b6001600160a01b038116600090815260056020526040812054806109065750600092915050565b60006109327f000000000000000000000000000000000000000000000000000000000000000043610fbf565b90506000600154436109449190610fbf565b9050600061095183610c61565b5090506000806109987f00000000000000000000000000000000000000000000000000000000000000006001546109889190610fbf565b610993906001610fd6565b610c61565b915091506000808385146109ee576001546109de906109d7907f0000000000000000000000000000000000000000000000000000000000000000610cef565b8490610cef565b90506109eb888583610d02565b91505b60006109fb898789610d02565b9050610a1183610a0b8b84610d51565b90610d51565b9b9a5050505050505050505050565b600060025411610a2d5750565b6001600160a01b03811660009081526005602052604090205480610a4f575050565b6000610a7b7f000000000000000000000000000000000000000000000000000000000000000043610fbf565b9050600060015443610a8d9190610fbf565b90506000610a9a83610c61565b509050600080610ad17f00000000000000000000000000000000000000000000000000000000000000006001546109889190610fbf565b91509150600080838514610b2c57600154610b10906109d7907f0000000000000000000000000000000000000000000000000000000000000000610cef565b9050610b1d888583610d02565b9150610b298187610fbf565b95505b6000610b39898789610d02565b90506000610b4b84610a0b8c85610d51565b6001600160a01b038c166000908152600560205260408120829055600480549293508392909190610b7d908490610fd6565b90915550505050505050505050505050565b6000610be4826040518060400160405280602081526020017f5361666545524332303a206c6f772d6c6576656c2063616c6c206661696c6564815250856001600160a01b0316610d5d9092919063ffffffff16565b8051909150156108135780806020019051810190610c029190611038565b6108135760405162461bcd60e51b815260206004820152602a60248201527f5361666545524332303a204552433230206f7065726174696f6e20646964206e6044820152691bdd081cdd58d8d9595960b21b60648201526084016102a5565b6000806202f9b88311610c8457506810ae16abe6fc154000926202f9b892509050565b620be6e08311610ca457506806f3341ca7f77c800092620be6e092509050565b6223b4a08311610cc4575068029b338ad645459800926223b4a092509050565b624781aa8311610ce4575068021456d74c8f83200092624781aa92509050565b506000928392509050565b6000610cfb8284610fbf565b9392505050565b600080610d29600354610d2364e8d4a5100088610d7490919063ffffffff16565b90610d80565b9050610d4883610d4264e8d4a51000610d238589610d74565b90610d74565b95945050505050565b6000610cfb8284610fd6565b6060610d6c8484600085610d8c565b949350505050565b6000610cfb828461105a565b6000610cfb8284611079565b606082471015610ded5760405162461bcd60e51b815260206004820152602660248201527f416464726573733a20696e73756666696369656e742062616c616e636520666f6044820152651c8818d85b1b60d21b60648201526084016102a5565b843b610e3b5760405162461bcd60e51b815260206004820152601d60248201527f416464726573733a2063616c6c20746f206e6f6e2d636f6e747261637400000060448201526064016102a5565b600080866001600160a01b03168587604051610e5791906110c7565b60006040518083038185875af1925050503d8060008114610e94576040519150601f19603f3d011682016040523d82523d6000602084013e610e99565b606091505b5091509150610ea9828286610eb4565b979650505050505050565b60608315610ec3575081610cfb565b825115610ed35782518084602001fd5b8160405162461bcd60e51b81526004016102a591906110e3565b600060208284031215610eff57600080fd5b81356001600160a01b0381168114610cfb57600080fd5b600060208284031215610f2857600080fd5b5035919050565b6020808252601f908201527f5265656e7472616e637947756172643a207265656e7472616e742063616c6c00604082015260600190565b60208082526023908201527f61646472657373206861736e2774207374616b6520616e7920746f6b656e73206040820152621e595d60ea1b606082015260800190565b634e487b7160e01b600052601160045260246000fd5b600082821015610fd157610fd1610fa9565b500390565b60008219821115610fe957610fe9610fa9565b500190565b60006020828403121561100057600080fd5b5051919050565b634e487b7160e01b600052603260045260246000fd5b600060001982141561103157611031610fa9565b5060010190565b60006020828403121561104a57600080fd5b81518015158114610cfb57600080fd5b600081600019048311821515161561107457611074610fa9565b500290565b60008261109657634e487b7160e01b600052601260045260246000fd5b500490565b60005b838110156110b657818101518382015260200161109e565b838111156108505750506000910152565b600082516110d981846020870161109b565b9190910192915050565b602081526000825180602084015261110281604085016020870161109b565b601f01601f1916919091016040019291505056fea26469706673582212207297f38b601421be1bfa28800d241286bee4b143f9f633d297abe70c04d4b37964736f6c634300080a0033",
  "linkReferences": {},
  "deployedLinkReferences": {}
}