{
  "_format": "hh-sol-artifact-1",
  "contractName": "StakingRewards",
  "sourceName": "contracts/StakingRewards.sol",
  "abi": [
    {
      "inputs": [
        {
          "internalType": "address",
          "name": "_stakingToken",
          "type": "address"
        },
        {
          "internalType": "uint256",
          "name": "_rewardsSupply",
          "type": "uint256"
        }
      ],
      "stateMutability": "nonpayable",
      "type": "constructor"
    },
    {
      "anonymous": false,
      "inputs": [
        {
          "indexed": false,
          "internalType": "uint256",
          "name": "amount",
          "type": "uint256"
        }
      ],
      "name": "RewardsCalculated",
      "type": "event"
    },
    {
      "anonymous": false,
      "inputs": [
        {
          "indexed": false,
          "internalType": "uint256",
          "name": "amount",
          "type": "uint256"
        },
        {
          "indexed": false,
          "internalType": "address",
          "name": "account",
          "type": "address"
        }
      ],
      "name": "RewardsCalculatedOf",
      "type": "event"
    },
    {
      "anonymous": false,
      "inputs": [
        {
          "indexed": true,
          "internalType": "address",
          "name": "user",
          "type": "address"
        },
        {
          "indexed": false,
          "internalType": "uint256",
          "name": "amount",
          "type": "uint256"
        }
      ],
      "name": "Stake",
      "type": "event"
    },
    {
      "anonymous": false,
      "inputs": [
        {
          "indexed": true,
          "internalType": "address",
          "name": "user",
          "type": "address"
        },
        {
          "indexed": false,
          "internalType": "uint256",
          "name": "amount",
          "type": "uint256"
        }
      ],
      "name": "Withdraw",
      "type": "event"
    },
    {
      "inputs": [],
      "name": "OGUN_PRECISION_FACTOR",
      "outputs": [
        {
          "internalType": "uint256",
          "name": "",
          "type": "uint256"
        }
      ],
      "stateMutability": "view",
      "type": "function"
    },
    {
      "inputs": [],
      "name": "PHASE_FOUR_BLOCK",
      "outputs": [
        {
          "internalType": "uint256",
          "name": "",
          "type": "uint256"
        }
      ],
      "stateMutability": "view",
      "type": "function"
    },
    {
      "inputs": [],
      "name": "PHASE_ONE_BLOCK",
      "outputs": [
        {
          "internalType": "uint256",
          "name": "",
          "type": "uint256"
        }
      ],
      "stateMutability": "view",
      "type": "function"
    },
    {
      "inputs": [],
      "name": "PHASE_THREE_BLOCK",
      "outputs": [
        {
          "internalType": "uint256",
          "name": "",
          "type": "uint256"
        }
      ],
      "stateMutability": "view",
      "type": "function"
    },
    {
      "inputs": [],
      "name": "PHASE_TWO_BLOCK",
      "outputs": [
        {
          "internalType": "uint256",
          "name": "",
          "type": "uint256"
        }
      ],
      "stateMutability": "view",
      "type": "function"
    },
    {
      "inputs": [],
      "name": "REWARDS_PHASE_FOUR",
      "outputs": [
        {
          "internalType": "uint256",
          "name": "",
          "type": "uint256"
        }
      ],
      "stateMutability": "view",
      "type": "function"
    },
    {
      "inputs": [],
      "name": "REWARDS_PHASE_ONE",
      "outputs": [
        {
          "internalType": "uint256",
          "name": "",
          "type": "uint256"
        }
      ],
      "stateMutability": "view",
      "type": "function"
    },
    {
      "inputs": [],
      "name": "REWARDS_PHASE_THREE",
      "outputs": [
        {
          "internalType": "uint256",
          "name": "",
          "type": "uint256"
        }
      ],
      "stateMutability": "view",
      "type": "function"
    },
    {
      "inputs": [],
      "name": "REWARDS_PHASE_TWO",
      "outputs": [
        {
          "internalType": "uint256",
          "name": "",
          "type": "uint256"
        }
      ],
      "stateMutability": "view",
      "type": "function"
    },
    {
      "inputs": [],
      "name": "firstBlockNumber",
      "outputs": [
        {
          "internalType": "uint256",
          "name": "",
          "type": "uint256"
        }
      ],
      "stateMutability": "view",
      "type": "function"
    },
    {
      "inputs": [],
      "name": "getAddressesSize",
      "outputs": [
        {
          "internalType": "uint256",
          "name": "",
          "type": "uint256"
        }
      ],
      "stateMutability": "view",
      "type": "function"
    },
    {
      "inputs": [
        {
          "internalType": "address",
          "name": "_account",
          "type": "address"
        }
      ],
      "name": "getBalanceOf",
      "outputs": [
        {
          "internalType": "uint256",
          "name": "",
          "type": "uint256"
        }
      ],
      "stateMutability": "view",
      "type": "function"
    },
    {
      "inputs": [
        {
          "internalType": "address",
          "name": "_account",
          "type": "address"
        }
      ],
      "name": "getUpdatedBalanceOf",
      "outputs": [
        {
          "internalType": "uint256",
          "name": "",
          "type": "uint256"
        }
      ],
      "stateMutability": "nonpayable",
      "type": "function"
    },
    {
      "inputs": [
        {
          "internalType": "uint256",
          "name": "_amount",
          "type": "uint256"
        }
      ],
      "name": "stake",
      "outputs": [],
      "stateMutability": "nonpayable",
      "type": "function"
    },
    {
      "inputs": [],
      "name": "stakingToken",
      "outputs": [
        {
          "internalType": "contract IERC20",
          "name": "",
          "type": "address"
        }
      ],
      "stateMutability": "view",
      "type": "function"
    },
    {
      "inputs": [],
      "name": "withdraw",
      "outputs": [],
      "stateMutability": "nonpayable",
      "type": "function"
    }
  ],
  "bytecode": "0x60c060405234801561001057600080fd5b5060405161109e38038061109e83398101604081905261002f91610054565b600160008190556001600160a01b039092166080526002554360a0819052905561008e565b6000806040838503121561006757600080fd5b82516001600160a01b038116811461007e57600080fd5b6020939093015192949293505050565b60805160a051610fc86100d660003960008181610201015281816108b501528181610904015261095b01526000818161017e0152818161035901526105840152610fc86000f3fe608060405234801561001057600080fd5b50600436106101005760003560e01c806376c58ebc11610097578063b96891e511610066578063b96891e5146101f4578063ce3a763c146101fc578063dc0925c114610223578063f8acb3ac1461022d57600080fd5b806376c58ebc146101b85780639b563e01146101c45780639b96eece146101ce578063a694fc3a146101e157600080fd5b8063530afd66116100d3578063530afd661461014f57806367a957dc1461015f5780636a8806691461016f57806372f702f31461017957600080fd5b80630399f10b14610105578063078ed7f9146101285780633ccfd60b1461013257806345a7b39c1461013c575b600080fd5b6101156810ae16abe6fc15400081565b6040519081526020015b60405180910390f35b610115620be6e081565b61013a61023d565b005b61011561014a366004610d69565b6103be565b6101156806f3341ca7f77c800081565b61011568021456d74c8f83200081565b6101156202f9b881565b6101a07f000000000000000000000000000000000000000000000000000000000000000081565b6040516001600160a01b03909116815260200161011f565b61011564e8d4a5100081565b6101156223b4a081565b6101156101dc366004610d69565b61049f565b61013a6101ef366004610d92565b6104f6565b600754610115565b6101157f000000000000000000000000000000000000000000000000000000000000000081565b610115624781aa81565b61011568029b338ad64545980081565b600260005414156102695760405162461bcd60e51b815260040161026090610dab565b60405180910390fd5b6002600090815533808252600660205260409091205460ff1661029e5760405162461bcd60e51b815260040161026090610de2565b6102a661064f565b33600090815260056020526040902054806102fa5760405162461bcd60e51b8152602060048201526014602482015273043757272656e742062616c616e636520697320360641b6044820152606401610260565b60025481111561030957506002545b3360009081526005602052604081208190556003805483929061032d908490610e3b565b9250508190555080600260008282546103469190610e3b565b9091555061038090506001600160a01b037f0000000000000000000000000000000000000000000000000000000000000000163383610750565b60405181815233907f884edad9ce6fa2440d8a54cc123490eb96d2768479d49ff9c7366125a94243649060200160405180910390a250506001600055565b6000600260005414156103e35760405162461bcd60e51b815260040161026090610dab565b600260009081556001600160a01b038316815260066020526040902054829060ff166104215760405162461bcd60e51b815260040161026090610de2565b61042961064f565b6001600160a01b038316600081815260056020908152604091829020548251908152908101929092527f3673432d551f526c4959883170cfdf836dddf6f8b29f41ec71b19ceffebbab7f910160405180910390a150506001600160a01b0316600090815260056020526040812054600190915590565b6001600160a01b038116600090815260066020526040812054829060ff166104d95760405162461bcd60e51b815260040161026090610de2565b50506001600160a01b031660009081526005602052604090205490565b600260005414156105195760405162461bcd60e51b815260040161026090610dab565b6002600055806105775760405162461bcd60e51b8152602060048201526024808201527f5374616b653a20416d6f756e74206d75737420626520677265617465722074686044820152630616e20360e41b6064820152608401610260565b6105ac6001600160a01b037f0000000000000000000000000000000000000000000000000000000000000000163330846107b8565b6105b461064f565b80600360008282546105c69190610e52565b9250508190555080600260008282546105df9190610e52565b90915550503360009081526005602052604081208054839290610603908490610e52565b909155506106129050336107f6565b60405181815233907febedb8b3c678666e7f36970bc8f57abf6d8fa2e828c0da91ea5b75bf68ed101a9060200160405180910390a2506001600055565b600154431161065a57565b60005b306001600160a01b031663b96891e56040518163ffffffff1660e01b8152600401602060405180830381865afa15801561069b573d6000803e3d6000fd5b505050506040513d601f19601f820116820180604052508101906106bf9190610e6a565b811015610708576106f6600782815481106106dc576106dc610e83565b6000918252602090912001546001600160a01b031661087f565b8061070081610e99565b91505061065d565b504360015560048054600381905560009091556040519081527f9f80903d8a397edd2acd2d5f9d8b9641fe6add91c324d935c687cbf80da4a4e99060200160405180910390a1565b6040516001600160a01b0383166024820152604481018290526107b390849063a9059cbb60e01b906064015b60408051601f198184030181529190526020810180516001600160e01b03166001600160e01b031990931692909217909152610a0b565b505050565b6040516001600160a01b03808516602483015283166044820152606481018290526107f09085906323b872dd60e01b9060840161077c565b50505050565b6001600160a01b03811660009081526006602052604090205460ff1661087c576001600160a01b0381166000818152600660205260408120805460ff191660019081179091556007805491820181559091527fa66cc928b5edb82af9bd49922954155ab7b0942694bea4ce44661d9a8736c6880180546001600160a01b03191690911790555b50565b60006002541161088c5750565b6001600160a01b038116600090815260056020526040902054806108ae575050565b60006108da7f000000000000000000000000000000000000000000000000000000000000000043610e3b565b90506000600154436108ec9190610e3b565b905060006108f983610add565b5090506000806109407f00000000000000000000000000000000000000000000000000000000000000006001546109309190610e3b565b61093b906001610e52565b610add565b915091506000808385146109a2576001546109869061097f907f0000000000000000000000000000000000000000000000000000000000000000610b6b565b8490610b6b565b9050610993888583610b7e565b915061099f8187610e3b565b95505b60006109af898789610b7e565b905060006109c7846109c18c85610bcd565b90610bcd565b6001600160a01b038c1660009081526005602052604081208290556004805492935083929091906109f9908490610e52565b90915550505050505050505050505050565b6000610a60826040518060400160405280602081526020017f5361666545524332303a206c6f772d6c6576656c2063616c6c206661696c6564815250856001600160a01b0316610bd99092919063ffffffff16565b8051909150156107b35780806020019051810190610a7e9190610eb4565b6107b35760405162461bcd60e51b815260206004820152602a60248201527f5361666545524332303a204552433230206f7065726174696f6e20646964206e6044820152691bdd081cdd58d8d9595960b21b6064820152608401610260565b6000806202f9b88311610b0057506810ae16abe6fc154000926202f9b892509050565b620be6e08311610b2057506806f3341ca7f77c800092620be6e092509050565b6223b4a08311610b40575068029b338ad645459800926223b4a092509050565b624781aa8311610b60575068021456d74c8f83200092624781aa92509050565b506000928392509050565b6000610b778284610e3b565b9392505050565b600080610ba5600354610b9f64e8d4a5100088610bf090919063ffffffff16565b90610bfc565b9050610bc483610bbe64e8d4a51000610b9f8589610bf0565b90610bf0565b95945050505050565b6000610b778284610e52565b6060610be88484600085610c08565b949350505050565b6000610b778284610ed6565b6000610b778284610ef5565b606082471015610c695760405162461bcd60e51b815260206004820152602660248201527f416464726573733a20696e73756666696369656e742062616c616e636520666f6044820152651c8818d85b1b60d21b6064820152608401610260565b843b610cb75760405162461bcd60e51b815260206004820152601d60248201527f416464726573733a2063616c6c20746f206e6f6e2d636f6e74726163740000006044820152606401610260565b600080866001600160a01b03168587604051610cd39190610f43565b60006040518083038185875af1925050503d8060008114610d10576040519150601f19603f3d011682016040523d82523d6000602084013e610d15565b606091505b5091509150610d25828286610d30565b979650505050505050565b60608315610d3f575081610b77565b825115610d4f5782518084602001fd5b8160405162461bcd60e51b81526004016102609190610f5f565b600060208284031215610d7b57600080fd5b81356001600160a01b0381168114610b7757600080fd5b600060208284031215610da457600080fd5b5035919050565b6020808252601f908201527f5265656e7472616e637947756172643a207265656e7472616e742063616c6c00604082015260600190565b60208082526023908201527f61646472657373206861736e2774207374616b6520616e7920746f6b656e73206040820152621e595d60ea1b606082015260800190565b634e487b7160e01b600052601160045260246000fd5b600082821015610e4d57610e4d610e25565b500390565b60008219821115610e6557610e65610e25565b500190565b600060208284031215610e7c57600080fd5b5051919050565b634e487b7160e01b600052603260045260246000fd5b6000600019821415610ead57610ead610e25565b5060010190565b600060208284031215610ec657600080fd5b81518015158114610b7757600080fd5b6000816000190483118215151615610ef057610ef0610e25565b500290565b600082610f1257634e487b7160e01b600052601260045260246000fd5b500490565b60005b83811015610f32578181015183820152602001610f1a565b838111156107f05750506000910152565b60008251610f55818460208701610f17565b9190910192915050565b6020815260008251806020840152610f7e816040850160208701610f17565b601f01601f1916919091016040019291505056fea2646970667358221220f5ae25e920b77c8fdaf909d12b2a43a6bc4a5c7774b32cfcab1ff6e94844324964736f6c634300080a0033",
  "linkReferences": {},
  "deployedLinkReferences": {}
}