{
  "_format": "hh-sol-artifact-1",
  "contractName": "StakingRewards",
  "sourceName": "contracts/StakingRewards.sol",
  "abi": [
    {
      "inputs": [
        {
          "internalType": "address",
          "name": "_stakingToken",
          "type": "address"
        },
        {
          "internalType": "uint256",
          "name": "_rewardsSupply",
          "type": "uint256"
        }
      ],
      "stateMutability": "nonpayable",
      "type": "constructor"
    },
    {
      "anonymous": false,
      "inputs": [
        {
          "indexed": true,
          "internalType": "address",
          "name": "previousOwner",
          "type": "address"
        },
        {
          "indexed": true,
          "internalType": "address",
          "name": "newOwner",
          "type": "address"
        }
      ],
      "name": "OwnershipTransferred",
      "type": "event"
    },
    {
      "anonymous": false,
      "inputs": [
        {
          "indexed": false,
          "internalType": "uint256",
          "name": "totalRewardsAllocated",
          "type": "uint256"
        },
        {
          "indexed": false,
          "internalType": "uint256",
          "name": "totalUserBalances",
          "type": "uint256"
        },
        {
          "indexed": false,
          "internalType": "uint256",
          "name": "totalStakedPlusRewards",
          "type": "uint256"
        }
      ],
      "name": "RewardsCalculated",
      "type": "event"
    },
    {
      "anonymous": false,
      "inputs": [
        {
          "indexed": false,
          "internalType": "uint256",
          "name": "stakedAmount",
          "type": "uint256"
        },
        {
          "indexed": false,
          "internalType": "uint256",
          "name": "inclusiveRewardAmount",
          "type": "uint256"
        },
        {
          "indexed": false,
          "internalType": "uint256",
          "name": "newRewardAmount",
          "type": "uint256"
        },
        {
          "indexed": false,
          "internalType": "address",
          "name": "account",
          "type": "address"
        }
      ],
      "name": "RewardsCalculatedOf",
      "type": "event"
    },
    {
      "anonymous": false,
      "inputs": [
        {
          "indexed": true,
          "internalType": "address",
          "name": "user",
          "type": "address"
        },
        {
          "indexed": false,
          "internalType": "uint256",
          "name": "amount",
          "type": "uint256"
        }
      ],
      "name": "Stake",
      "type": "event"
    },
    {
      "anonymous": false,
      "inputs": [
        {
          "indexed": true,
          "internalType": "address",
          "name": "user",
          "type": "address"
        },
        {
          "indexed": false,
          "internalType": "uint256",
          "name": "amount",
          "type": "uint256"
        }
      ],
      "name": "Withdraw",
      "type": "event"
    },
    {
      "inputs": [],
      "name": "OGUN_PRECISION_FACTOR",
      "outputs": [
        {
          "internalType": "uint256",
          "name": "",
          "type": "uint256"
        }
      ],
      "stateMutability": "view",
      "type": "function"
    },
    {
      "inputs": [],
      "name": "PHASE_FOUR_BLOCK",
      "outputs": [
        {
          "internalType": "uint256",
          "name": "",
          "type": "uint256"
        }
      ],
      "stateMutability": "view",
      "type": "function"
    },
    {
      "inputs": [],
      "name": "PHASE_ONE_BLOCK",
      "outputs": [
        {
          "internalType": "uint256",
          "name": "",
          "type": "uint256"
        }
      ],
      "stateMutability": "view",
      "type": "function"
    },
    {
      "inputs": [],
      "name": "PHASE_THREE_BLOCK",
      "outputs": [
        {
          "internalType": "uint256",
          "name": "",
          "type": "uint256"
        }
      ],
      "stateMutability": "view",
      "type": "function"
    },
    {
      "inputs": [],
      "name": "PHASE_TWO_BLOCK",
      "outputs": [
        {
          "internalType": "uint256",
          "name": "",
          "type": "uint256"
        }
      ],
      "stateMutability": "view",
      "type": "function"
    },
    {
      "inputs": [],
      "name": "REWARDS_PHASE_FOUR",
      "outputs": [
        {
          "internalType": "uint256",
          "name": "",
          "type": "uint256"
        }
      ],
      "stateMutability": "view",
      "type": "function"
    },
    {
      "inputs": [],
      "name": "REWARDS_PHASE_ONE",
      "outputs": [
        {
          "internalType": "uint256",
          "name": "",
          "type": "uint256"
        }
      ],
      "stateMutability": "view",
      "type": "function"
    },
    {
      "inputs": [],
      "name": "REWARDS_PHASE_THREE",
      "outputs": [
        {
          "internalType": "uint256",
          "name": "",
          "type": "uint256"
        }
      ],
      "stateMutability": "view",
      "type": "function"
    },
    {
      "inputs": [],
      "name": "REWARDS_PHASE_TWO",
      "outputs": [
        {
          "internalType": "uint256",
          "name": "",
          "type": "uint256"
        }
      ],
      "stateMutability": "view",
      "type": "function"
    },
    {
      "inputs": [],
      "name": "_totalRewardsAllocated",
      "outputs": [
        {
          "internalType": "uint256",
          "name": "",
          "type": "uint256"
        }
      ],
      "stateMutability": "view",
      "type": "function"
    },
    {
      "inputs": [],
      "name": "_totalStaked",
      "outputs": [
        {
          "internalType": "uint256",
          "name": "",
          "type": "uint256"
        }
      ],
      "stateMutability": "view",
      "type": "function"
    },
    {
      "inputs": [],
      "name": "firstBlockNumber",
      "outputs": [
        {
          "internalType": "uint256",
          "name": "",
          "type": "uint256"
        }
      ],
      "stateMutability": "view",
      "type": "function"
    },
    {
      "inputs": [],
      "name": "getAddressesSize",
      "outputs": [
        {
          "internalType": "uint256",
          "name": "",
          "type": "uint256"
        }
      ],
      "stateMutability": "view",
      "type": "function"
    },
    {
      "inputs": [
        {
          "internalType": "address",
          "name": "_account",
          "type": "address"
        }
      ],
      "name": "getBalanceOf",
      "outputs": [
        {
          "internalType": "uint256",
          "name": "",
          "type": "uint256"
        },
        {
          "internalType": "uint256",
          "name": "",
          "type": "uint256"
        },
        {
          "internalType": "uint256",
          "name": "",
          "type": "uint256"
        }
      ],
      "stateMutability": "view",
      "type": "function"
    },
    {
      "inputs": [
        {
          "internalType": "address",
          "name": "_user",
          "type": "address"
        }
      ],
      "name": "getReward",
      "outputs": [
        {
          "internalType": "uint256",
          "name": "",
          "type": "uint256"
        }
      ],
      "stateMutability": "view",
      "type": "function"
    },
    {
      "inputs": [
        {
          "internalType": "address",
          "name": "_account",
          "type": "address"
        }
      ],
      "name": "getUpdatedBalanceOf",
      "outputs": [
        {
          "internalType": "uint256",
          "name": "",
          "type": "uint256"
        },
        {
          "internalType": "uint256",
          "name": "",
          "type": "uint256"
        },
        {
          "internalType": "uint256",
          "name": "",
          "type": "uint256"
        }
      ],
      "stateMutability": "nonpayable",
      "type": "function"
    },
    {
      "inputs": [],
      "name": "owner",
      "outputs": [
        {
          "internalType": "address",
          "name": "",
          "type": "address"
        }
      ],
      "stateMutability": "view",
      "type": "function"
    },
    {
      "inputs": [
        {
          "internalType": "address",
          "name": "destination",
          "type": "address"
        }
      ],
      "name": "reclaimOgun",
      "outputs": [],
      "stateMutability": "nonpayable",
      "type": "function"
    },
    {
      "inputs": [],
      "name": "renounceOwnership",
      "outputs": [],
      "stateMutability": "nonpayable",
      "type": "function"
    },
    {
      "inputs": [
        {
          "internalType": "uint256",
          "name": "_amount",
          "type": "uint256"
        }
      ],
      "name": "stake",
      "outputs": [],
      "stateMutability": "nonpayable",
      "type": "function"
    },
    {
      "inputs": [],
      "name": "stakingToken",
      "outputs": [
        {
          "internalType": "contract IERC20",
          "name": "",
          "type": "address"
        }
      ],
      "stateMutability": "view",
      "type": "function"
    },
    {
      "inputs": [
        {
          "internalType": "address",
          "name": "newOwner",
          "type": "address"
        }
      ],
      "name": "transferOwnership",
      "outputs": [],
      "stateMutability": "nonpayable",
      "type": "function"
    },
    {
      "inputs": [],
      "name": "updateReward",
      "outputs": [],
      "stateMutability": "nonpayable",
      "type": "function"
    },
    {
      "inputs": [],
      "name": "withdrawRewards",
      "outputs": [],
      "stateMutability": "nonpayable",
      "type": "function"
    },
    {
      "inputs": [
        {
          "internalType": "uint256",
          "name": "_amount",
          "type": "uint256"
        }
      ],
      "name": "withdrawStake",
      "outputs": [],
      "stateMutability": "nonpayable",
      "type": "function"
    }
  ],
  "bytecode": "0x60c06040523480156200001157600080fd5b5060405162001aa638038062001aa68339810160408190526200003491620000fb565b6200003f3362000096565b600180556001600160a01b03821660805260038190556200006e436078620000e6602090811b62000bd617901c565b60a0526200008a436078620000e6602090811b62000bd617901c565b600255506200015e9050565b600080546001600160a01b038381166001600160a01b0319831681178455604051919092169283917f8be0079c531659141344cd1fd0a4f28419497f9722a3daafe3b4186f6b6457e09190a35050565b6000620000f4828462000137565b9392505050565b600080604083850312156200010f57600080fd5b82516001600160a01b03811681146200012757600080fd5b6020939093015192949293505050565b600082198211156200015957634e487b7160e01b600052601160045260246000fd5b500190565b60805160a0516118ce620001d8600039600081816102ed01528181610eaa01528181610ed801528181610f8b01528181610fc00152818161101001528181611083015261111301526000818161022d015281816104b701528181610735015281816107d10152818161090e0152610acb01526118ce6000f3fe608060405234801561001057600080fd5b50600436106101735760003560e01c80638da5cb5b116100de578063c00007b011610097578063dc0925c111610071578063dc0925c11461030f578063f2fde38b14610317578063f36c0a721461032a578063f8acb3ac1461033257600080fd5b8063c00007b0146102cd578063c7b8981c146102e0578063ce3a763c146102e857600080fd5b80638da5cb5b146102735780639b563e01146102845780639b96eece1461028c578063a601f84e1461029f578063a694fc3a146102b2578063b96891e5146102c557600080fd5b8063530afd6611610130578063530afd66146101f857806367a957dc146102075780636a88066914610216578063715018a61461022057806372f702f31461022857806376c58ebc1461026757600080fd5b80630399f10b14610178578063078ed7f91461019b5780630c0102d0146101a357806325d5971f146101ac578063459f3ff6146101c157806345a7b39c146101ca575b600080fd5b6101886801bc16d674ec80000081565b6040519081526020015b60405180910390f35b610188610341565b61018860055481565b6101bf6101ba3660046116a6565b610354565b005b61018860045481565b6101dd6101d83660046116bf565b610518565b60408051938452602084019290925290820152606001610192565b61018867de0b6b3a7640000081565b610188673782dace9d90000081565b610188621312d081565b6101bf610667565b61024f7f000000000000000000000000000000000000000000000000000000000000000081565b6040516001600160a01b039091168152602001610192565b61018864e8d4a5100081565b6000546001600160a01b031661024f565b61018861067b565b6101dd61029a3660046116bf565b610698565b6101bf6102ad3660046116bf565b610715565b6101bf6102c03660046116a6565b610845565b600954610188565b6101886102db3660046116bf565b6109b8565b6101bf6109eb565b6101887f000000000000000000000000000000000000000000000000000000000000000081565b610188610b2b565b6101bf6103253660046116bf565b610b55565b6101bf610bce565b610188674563918244f4000081565b610351621312d0622faf086116fe565b81565b3360008181526008602052604090205460ff1661038c5760405162461bcd60e51b815260040161038390611716565b60405180910390fd5b610394610be9565b600082116103fa5760405162461bcd60e51b815260206004820152602d60248201527f5769746864726177205374616b653a20416d6f756e74206d757374206265206760448201526c0726561746572207468616e203609c1b6064820152608401610383565b33600090815260066020526040902054828110156104705760405162461bcd60e51b815260206004820152602d60248201527f576974686472617720616d6f756e742069732067726561746572207468616e2060448201526c1cdd185ad95908185b5bdd5b9d609a1b6064820152608401610383565b3360009081526006602052604090205461048a9084610e2c565b336000908152600660205260409020556005546104a79084610e2c565b6005556104de6001600160a01b037f0000000000000000000000000000000000000000000000000000000000000000163385610e38565b60405181815233907f884edad9ce6fa2440d8a54cc123490eb96d2768479d49ff9c7366125a94243649060200160405180910390a2505050565b6000806000600260015414156105705760405162461bcd60e51b815260206004820152601f60248201527f5265656e7472616e637947756172643a207265656e7472616e742063616c6c006044820152606401610383565b60026001556001600160a01b038416600090815260086020526040902054849060ff166105af5760405162461bcd60e51b815260040161038390611716565b6105b7610be9565b60006105c286610e9b565b6001600160a01b038716600081815260066020908152604080832054600783529281902054815193845291830191909152810183905260608101919091529091507f9eb35849fb235a0dc9e21ce192f6849e6dd6008e61c2b35a1e043d00927b90829060800160405180910390a16001600160a01b03959095166000908152600660209081526040808320546007909252909120546001805590969095945092505050565b61066f611163565b61067960006111bd565b565b61068b621312d0622faf086116fe565b61035190629896806116fe565b6001600160a01b03811660009081526008602052604081205481908190849060ff166106d65760405162461bcd60e51b815260040161038390611716565b60006106e186610e9b565b6001600160a01b03969096166000908152600660209081526040808320546007909252909120549097909695509350505050565b61071d611163565b6040516370a0823160e01b81523060048201526000907f00000000000000000000000000000000000000000000000000000000000000006001600160a01b0316906370a0823190602401602060405180830381865afa158015610784573d6000803e3d6000fd5b505050506040513d601f19601f820116820180604052508101906107a89190611759565b60405163a9059cbb60e01b81526001600160a01b038481166004830152602482018390529192507f00000000000000000000000000000000000000000000000000000000000000009091169063a9059cbb906044016020604051808303816000875af115801561081c573d6000803e3d6000fd5b505050506040513d601f19601f820116820180604052508101906108409190611772565b505050565b600260015414156108985760405162461bcd60e51b815260206004820152601f60248201527f5265656e7472616e637947756172643a207265656e7472616e742063616c6c006044820152606401610383565b60026001556108a5610be9565b600081116109015760405162461bcd60e51b8152602060048201526024808201527f5374616b653a20416d6f756e74206d75737420626520677265617465722074686044820152630616e20360e41b6064820152608401610383565b6109366001600160a01b037f00000000000000000000000000000000000000000000000000000000000000001633308461120d565b6005546109439082610bd6565b600555336000908152600660205260409020546109609082610bd6565b3360008181526006602052604090209190915561097c9061124b565b60405181815233907febedb8b3c678666e7f36970bc8f57abf6d8fa2e828c0da91ea5b75bf68ed101a9060200160405180910390a25060018055565b60006109e56109c683610e9b565b6001600160a01b03841660009081526007602052604090205490610bd6565b92915050565b3360008181526008602052604090205460ff16610a1a5760405162461bcd60e51b815260040161038390611716565b610a22610be9565b3360009081526007602052604090205480610a7f5760405162461bcd60e51b815260206004820152601960248201527f4e6f2072657761726420746f2062652077697468647261776e000000000000006044820152606401610383565b600354811115610a8e57506003545b33600090815260076020526040812055600354610aab9082610e2c565b600355600454610abb9082610e2c565b600455610af26001600160a01b037f0000000000000000000000000000000000000000000000000000000000000000163383610e38565b60405181815233907f884edad9ce6fa2440d8a54cc123490eb96d2768479d49ff9c7366125a94243649060200160405180910390a25050565b610b3b621312d0622faf086116fe565b610b4890629896806116fe565b6103519062e4e1c06116fe565b610b5d611163565b6001600160a01b038116610bc25760405162461bcd60e51b815260206004820152602660248201527f4f776e61626c653a206e6577206f776e657220697320746865207a65726f206160448201526564647265737360d01b6064820152608401610383565b610bcb816111bd565b50565b610679610be9565b6000610be282846116fe565b9392505050565b6002544311610bf457565b6000610c0d600454600554610bd690919063ffffffff16565b905060008060005b306001600160a01b031663b96891e56040518163ffffffff1660e01b8152600401602060405180830381865afa158015610c53573d6000803e3d6000fd5b505050506040513d601f19601f82011682018060405250810190610c779190611759565b811015610dd057610d23610d1c6007600060098581548110610c9b57610c9b611794565b9060005260206000200160009054906101000a90046001600160a01b03166001600160a01b03166001600160a01b03168152602001908152602001600020546006600060098681548110610cf157610cf1611794565b60009182526020808320909101546001600160a01b0316835282019290925260400190205490610bd6565b8390610bd6565b91506000610d5760098381548110610d3d57610d3d611794565b6000918252602090912001546001600160a01b0316610e9b565b9050610d74816007600060098681548110610cf157610cf1611794565b6007600060098581548110610d8b57610d8b611794565b60009182526020808320909101546001600160a01b03168352820192909252604001902055610dba8482610bd6565b9350508080610dc8906117aa565b915050610c15565b50600454610dde9083610bd6565b600481905543600255604080519182526020820183905281018490527fbf435c36ecef852914f1b871bbd6afcd79dd1d2311fb9b824711cbe7345bdaed9060600160405180910390a1505050565b6000610be282846117c5565b6040516001600160a01b03831660248201526044810182905261084090849063a9059cbb60e01b906064015b60408051601f198184030181529190526020810180516001600160e01b03166001600160e01b0319909316929092179091526112d1565b6003546000901580610ecd57507f00000000000000000000000000000000000000000000000000000000000000004311155b80610f2d5750610f277f0000000000000000000000000000000000000000000000000000000000000000610f07621312d0622faf086116fe565b610f1490629896806116fe565b610f219062e4e1c06116fe565b90610bd6565b60025410155b15610f3a57506000919050565b6001600160a01b03821660009081526006602090815260408083205460079092528220549091610f6a8383610bd6565b905060008311610f7f57506000949350505050565b600080610fb4610faf437f0000000000000000000000000000000000000000000000000000000000000000610e2c565b6113a3565b92505091506000610ff07f0000000000000000000000000000000000000000000000000000000000000000600254610e2c90919063ffffffff16565b90506000806000611000846113a3565b91945092509050611034621312d07f0000000000000000000000000000000000000000000000000000000000000000610bd6565b431161106857611059878761105460025443610e2c90919063ffffffff16565b6114b3565b9b9a5050505050505050505050565b600084816110768583610e2c565b905060006110ae6110a7847f0000000000000000000000000000000000000000000000000000000000000000610bd6565b4390610e2c565b90508686865b8b811161114b57838511156110c7578394505b6110dc6110d58f85886114b3565b8890610bd6565b96506110e88686610bd6565b95506110f8610faf876001610bd6565b5090935091506111088287610e2c565b94506111376110a7877f0000000000000000000000000000000000000000000000000000000000000000610bd6565b935080611143816117aa565b9150506110b4565b50859f50505050505050505050505050505050919050565b6000546001600160a01b031633146106795760405162461bcd60e51b815260206004820181905260248201527f4f776e61626c653a2063616c6c6572206973206e6f7420746865206f776e65726044820152606401610383565b600080546001600160a01b038381166001600160a01b0319831681178455604051919092169283917f8be0079c531659141344cd1fd0a4f28419497f9722a3daafe3b4186f6b6457e09190a35050565b6040516001600160a01b03808516602483015283166044820152606481018290526112459085906323b872dd60e01b90608401610e64565b50505050565b6001600160a01b03811660009081526008602052604090205460ff16610bcb576001600160a01b03166000818152600860205260408120805460ff191660019081179091556009805491820181559091527f6e1540171b6c0c960b71a7020d9f60077f6af931a8bbf590da0223dacf75c7af0180546001600160a01b0319169091179055565b6000611326826040518060400160405280602081526020017f5361666545524332303a206c6f772d6c6576656c2063616c6c206661696c6564815250856001600160a01b031661150d9092919063ffffffff16565b80519091501561084057808060200190518101906113449190611772565b6108405760405162461bcd60e51b815260206004820152602a60248201527f5361666545524332303a204552433230206f7065726174696f6e20646964206e6044820152691bdd081cdd58d8d9595960b21b6064820152608401610383565b60008080836113ba575060009150819050806114ac565b621312d084116113de57506801bc16d674ec8000009150621312d0905060016114ac565b6113ee621312d0622faf086116fe565b841161141a5767de0b6b3a7640000061140d621312d0622faf086116fe565b60029250925092506114ac565b61142a621312d0622faf086116fe565b61143790629896806116fe565b841161147057674563918244f40000611456621312d0622faf086116fe565b61146390629896806116fe565b60039250925092506114ac565b673782dace9d900000611489621312d0622faf086116fe565b61149690629896806116fe565b6114a39062e4e1c06116fe565b60049250925092505b9193909250565b6000806114e56114d0600454600554610bd690919063ffffffff16565b6114df8764e8d4a51000611524565b90611530565b9050611504836114fe64e8d4a510006114df8589611524565b90611524565b95945050505050565b606061151c848460008561153c565b949350505050565b6000610be282846117dc565b6000610be282846117fb565b60608247101561159d5760405162461bcd60e51b815260206004820152602660248201527f416464726573733a20696e73756666696369656e742062616c616e636520666f6044820152651c8818d85b1b60d21b6064820152608401610383565b6001600160a01b0385163b6115f45760405162461bcd60e51b815260206004820152601d60248201527f416464726573733a2063616c6c20746f206e6f6e2d636f6e74726163740000006044820152606401610383565b600080866001600160a01b031685876040516116109190611849565b60006040518083038185875af1925050503d806000811461164d576040519150601f19603f3d011682016040523d82523d6000602084013e611652565b606091505b509150915061166282828661166d565b979650505050505050565b6060831561167c575081610be2565b82511561168c5782518084602001fd5b8160405162461bcd60e51b81526004016103839190611865565b6000602082840312156116b857600080fd5b5035919050565b6000602082840312156116d157600080fd5b81356001600160a01b0381168114610be257600080fd5b634e487b7160e01b600052601160045260246000fd5b60008219821115611711576117116116e8565b500190565b60208082526023908201527f61646472657373206861736e2774207374616b6520616e7920746f6b656e73206040820152621e595d60ea1b606082015260800190565b60006020828403121561176b57600080fd5b5051919050565b60006020828403121561178457600080fd5b81518015158114610be257600080fd5b634e487b7160e01b600052603260045260246000fd5b60006000198214156117be576117be6116e8565b5060010190565b6000828210156117d7576117d76116e8565b500390565b60008160001904831182151516156117f6576117f66116e8565b500290565b60008261181857634e487b7160e01b600052601260045260246000fd5b500490565b60005b83811015611838578181015183820152602001611820565b838111156112455750506000910152565b6000825161185b81846020870161181d565b9190910192915050565b602081526000825180602084015261188481604085016020870161181d565b601f01601f1916919091016040019291505056fea2646970667358221220407f83c1feecd545779e96b612ce1b66ba54cdbb0cfdd69b30499aa7f2f71be264736f6c634300080a0033",
  "linkReferences": {},
  "deployedLinkReferences": {}
}