{
  "_format": "hh-sol-artifact-1",
  "contractName": "StakingRewards",
  "sourceName": "contracts/StakingRewards.sol",
  "abi": [
    {
      "inputs": [
        {
          "internalType": "address",
          "name": "_stakingToken",
          "type": "address"
        },
        {
          "internalType": "uint256",
          "name": "_rewardsSupply",
          "type": "uint256"
        }
      ],
      "stateMutability": "nonpayable",
      "type": "constructor"
    },
    {
      "anonymous": false,
      "inputs": [
        {
          "indexed": false,
          "internalType": "uint256",
          "name": "totalRewardsAllocated",
          "type": "uint256"
        },
        {
          "indexed": false,
          "internalType": "uint256",
          "name": "totalUserBalances",
          "type": "uint256"
        },
        {
          "indexed": false,
          "internalType": "uint256",
          "name": "totalStakedPlusRewards",
          "type": "uint256"
        }
      ],
      "name": "RewardsCalculated",
      "type": "event"
    },
    {
      "anonymous": false,
      "inputs": [
        {
          "indexed": false,
          "internalType": "uint256",
          "name": "stakedAmount",
          "type": "uint256"
        },
        {
          "indexed": false,
          "internalType": "uint256",
          "name": "inclusiveRewardAmount",
          "type": "uint256"
        },
        {
          "indexed": false,
          "internalType": "uint256",
          "name": "newRewardAmount",
          "type": "uint256"
        },
        {
          "indexed": false,
          "internalType": "address",
          "name": "account",
          "type": "address"
        }
      ],
      "name": "RewardsCalculatedOf",
      "type": "event"
    },
    {
      "anonymous": false,
      "inputs": [
        {
          "indexed": true,
          "internalType": "address",
          "name": "user",
          "type": "address"
        },
        {
          "indexed": false,
          "internalType": "uint256",
          "name": "amount",
          "type": "uint256"
        }
      ],
      "name": "Stake",
      "type": "event"
    },
    {
      "anonymous": false,
      "inputs": [
        {
          "indexed": true,
          "internalType": "address",
          "name": "user",
          "type": "address"
        },
        {
          "indexed": false,
          "internalType": "uint256",
          "name": "stakedAmount",
          "type": "uint256"
        },
        {
          "indexed": false,
          "internalType": "uint256",
          "name": "rewardAmount",
          "type": "uint256"
        }
      ],
      "name": "Withdraw",
      "type": "event"
    },
    {
      "inputs": [],
      "name": "OGUN_PRECISION_FACTOR",
      "outputs": [
        {
          "internalType": "uint256",
          "name": "",
          "type": "uint256"
        }
      ],
      "stateMutability": "view",
      "type": "function"
    },
    {
      "inputs": [],
      "name": "PHASE_FOUR_BLOCK",
      "outputs": [
        {
          "internalType": "uint256",
          "name": "",
          "type": "uint256"
        }
      ],
      "stateMutability": "view",
      "type": "function"
    },
    {
      "inputs": [],
      "name": "PHASE_ONE_BLOCK",
      "outputs": [
        {
          "internalType": "uint256",
          "name": "",
          "type": "uint256"
        }
      ],
      "stateMutability": "view",
      "type": "function"
    },
    {
      "inputs": [],
      "name": "PHASE_THREE_BLOCK",
      "outputs": [
        {
          "internalType": "uint256",
          "name": "",
          "type": "uint256"
        }
      ],
      "stateMutability": "view",
      "type": "function"
    },
    {
      "inputs": [],
      "name": "PHASE_TWO_BLOCK",
      "outputs": [
        {
          "internalType": "uint256",
          "name": "",
          "type": "uint256"
        }
      ],
      "stateMutability": "view",
      "type": "function"
    },
    {
      "inputs": [],
      "name": "REWARDS_PHASE_FOUR",
      "outputs": [
        {
          "internalType": "uint256",
          "name": "",
          "type": "uint256"
        }
      ],
      "stateMutability": "view",
      "type": "function"
    },
    {
      "inputs": [],
      "name": "REWARDS_PHASE_ONE",
      "outputs": [
        {
          "internalType": "uint256",
          "name": "",
          "type": "uint256"
        }
      ],
      "stateMutability": "view",
      "type": "function"
    },
    {
      "inputs": [],
      "name": "REWARDS_PHASE_THREE",
      "outputs": [
        {
          "internalType": "uint256",
          "name": "",
          "type": "uint256"
        }
      ],
      "stateMutability": "view",
      "type": "function"
    },
    {
      "inputs": [],
      "name": "REWARDS_PHASE_TWO",
      "outputs": [
        {
          "internalType": "uint256",
          "name": "",
          "type": "uint256"
        }
      ],
      "stateMutability": "view",
      "type": "function"
    },
    {
      "inputs": [],
      "name": "_totalRewardsAllocated",
      "outputs": [
        {
          "internalType": "uint256",
          "name": "",
          "type": "uint256"
        }
      ],
      "stateMutability": "view",
      "type": "function"
    },
    {
      "inputs": [],
      "name": "_totalStaked",
      "outputs": [
        {
          "internalType": "uint256",
          "name": "",
          "type": "uint256"
        }
      ],
      "stateMutability": "view",
      "type": "function"
    },
    {
      "inputs": [],
      "name": "firstBlockNumber",
      "outputs": [
        {
          "internalType": "uint256",
          "name": "",
          "type": "uint256"
        }
      ],
      "stateMutability": "view",
      "type": "function"
    },
    {
      "inputs": [],
      "name": "getAddressesSize",
      "outputs": [
        {
          "internalType": "uint256",
          "name": "",
          "type": "uint256"
        }
      ],
      "stateMutability": "view",
      "type": "function"
    },
    {
      "inputs": [
        {
          "internalType": "address",
          "name": "_account",
          "type": "address"
        }
      ],
      "name": "getBalanceOf",
      "outputs": [
        {
          "internalType": "uint256",
          "name": "",
          "type": "uint256"
        },
        {
          "internalType": "uint256",
          "name": "",
          "type": "uint256"
        },
        {
          "internalType": "uint256",
          "name": "",
          "type": "uint256"
        }
      ],
      "stateMutability": "view",
      "type": "function"
    },
    {
      "inputs": [
        {
          "internalType": "address",
          "name": "_user",
          "type": "address"
        }
      ],
      "name": "getReward",
      "outputs": [
        {
          "internalType": "uint256",
          "name": "",
          "type": "uint256"
        }
      ],
      "stateMutability": "view",
      "type": "function"
    },
    {
      "inputs": [
        {
          "internalType": "address",
          "name": "_account",
          "type": "address"
        }
      ],
      "name": "getUpdatedBalanceOf",
      "outputs": [
        {
          "internalType": "uint256",
          "name": "",
          "type": "uint256"
        },
        {
          "internalType": "uint256",
          "name": "",
          "type": "uint256"
        },
        {
          "internalType": "uint256",
          "name": "",
          "type": "uint256"
        }
      ],
      "stateMutability": "nonpayable",
      "type": "function"
    },
    {
      "inputs": [
        {
          "internalType": "uint256",
          "name": "_amount",
          "type": "uint256"
        }
      ],
      "name": "stake",
      "outputs": [],
      "stateMutability": "nonpayable",
      "type": "function"
    },
    {
      "inputs": [],
      "name": "stakingToken",
      "outputs": [
        {
          "internalType": "contract IERC20",
          "name": "",
          "type": "address"
        }
      ],
      "stateMutability": "view",
      "type": "function"
    },
    {
      "inputs": [],
      "name": "updateReward",
      "outputs": [],
      "stateMutability": "nonpayable",
      "type": "function"
    },
    {
      "inputs": [],
      "name": "withdraw",
      "outputs": [],
      "stateMutability": "nonpayable",
      "type": "function"
    }
  ],
  "bytecode": "0x60c06040523480156200001157600080fd5b50604051620014f2380380620014f28339810160408190526200003491620000a1565b60016000556001600160a01b0382166080526002819055620000644360786200008c602090811b6200078a17901c565b60a052620000804360786200008c602090811b6200078a17901c565b60015550620001049050565b60006200009a8284620000dd565b9392505050565b60008060408385031215620000b557600080fd5b82516001600160a01b0381168114620000cd57600080fd5b6020939093015192949293505050565b60008219821115620000ff57634e487b7160e01b600052601160045260246000fd5b500190565b60805160a051611382620001706000396000818161026701528181610a8501528181610ab301528181610b3c01528181610b6f01528181610bb701528181610c210152610cb10152600081816101d3015281816103ed0152818161042901526106bd01526113826000f3fe608060405234801561001057600080fd5b506004361061012c5760003560e01c806376c58ebc116100ad578063c00007b011610071578063c00007b01461024f578063ce3a763c14610262578063dc0925c114610289578063f36c0a7214610291578063f8acb3ac146101a657600080fd5b806376c58ebc1461020d5780639b563e01146102195780639b96eece14610221578063a694fc3a14610234578063b96891e51461024757600080fd5b806345a7b39c116100f457806345a7b39c14610178578063530afd66146101a657806367a957dc146101b65780636a880669146101c657806372f702f3146101ce57600080fd5b80630399f10b14610131578063078ed7f9146101545780630c0102d01461015c5780633ccfd60b14610165578063459f3ff61461016f575b600080fd5b610141681b1ae4d6e2ef50000081565b6040519081526020015b60405180910390f35b610141600881565b61014160045481565b61016d610299565b005b61014160035481565b61018b610186366004611123565b610496565b6040805193845260208401929092529082015260600161014b565b6101416821e19e0c9bab24000081565b6101416828a857425466f8000081565b610141600481565b6101f57f000000000000000000000000000000000000000000000000000000000000000081565b6040516001600160a01b03909116815260200161014b565b61014164e8d4a5100081565b610141600c81565b61018b61022f366004611123565b6105b2565b61016d61024236600461114c565b61062f565b600854610141565b61014161025d366004611123565b61076f565b6101417f000000000000000000000000000000000000000000000000000000000000000081565b610141601081565b61016d610780565b600260005414156102c55760405162461bcd60e51b81526004016102bc90611165565b60405180910390fd5b6002600090815533808252600760205260409091205460ff166102fa5760405162461bcd60e51b81526004016102bc9061119c565b61030261079d565b336000908152600560209081526040808320546006909252822054909161032982846111f5565b9050600081116103725760405162461bcd60e51b8152602060048201526014602482015273043757272656e742062616c616e636520697320360641b60448201526064016102bc565b60025481111561038157506002545b8260046000828254610393919061120d565b9250508190555081600260008282546103ac919061120d565b9250508190555081600360008282546103c5919061120d565b9091555050336000818152600560209081526040808320839055600690915281205561041c907f00000000000000000000000000000000000000000000000000000000000000006001600160a01b03169085610a0e565b6104506001600160a01b037f0000000000000000000000000000000000000000000000000000000000000000163384610a0e565b604080518481526020810184905233917ff279e6a1f5e320cca91135676d9cb6e44ca8a08c0b88342bcdb1144f6511b568910160405180910390a2505060016000555050565b6000806000600260005414156104be5760405162461bcd60e51b81526004016102bc90611165565b600260009081556001600160a01b038516815260076020526040902054849060ff166104fc5760405162461bcd60e51b81526004016102bc9061119c565b600061050786610a76565b905061051161079d565b6001600160a01b038616600081815260056020908152604080832054600683529281902054815193845291830191909152810183905260608101919091527f9eb35849fb235a0dc9e21ce192f6849e6dd6008e61c2b35a1e043d00927b90829060800160405180910390a16001600160a01b039590951660009081526005602090815260408083205460069092528220546001909255969095945092505050565b6001600160a01b03811660009081526007602052604081205481908190849060ff166105f05760405162461bcd60e51b81526004016102bc9061119c565b60006105fb86610a76565b6001600160a01b03969096166000908152600560209081526040808320546006909252909120549097909695509350505050565b600260005414156106525760405162461bcd60e51b81526004016102bc90611165565b6002600055806106b05760405162461bcd60e51b8152602060048201526024808201527f5374616b653a20416d6f756e74206d75737420626520677265617465722074686044820152630616e20360e41b60648201526084016102bc565b6106e56001600160a01b037f000000000000000000000000000000000000000000000000000000000000000016333084610d0c565b6106ed61079d565b80600460008282546106ff91906111f5565b909155505033600090815260056020526040812080548392906107239084906111f5565b90915550610732905033610d4a565b60405181815233907febedb8b3c678666e7f36970bc8f57abf6d8fa2e828c0da91ea5b75bf68ed101a9060200160405180910390a2506001600055565b600061077a82610a76565b92915050565b61078861079d565b565b600061079682846111f5565b9392505050565b60015443116107a857565b60006003546004546107ba91906111f5565b905060008060005b306001600160a01b031663b96891e56040518163ffffffff1660e01b8152600401602060405180830381865afa158015610800573d6000803e3d6000fd5b505050506040513d601f19601f820116820180604052508101906108249190611224565b8110156109aa5760066000600883815481106108425761084261123d565b9060005260206000200160009054906101000a90046001600160a01b03166001600160a01b03166001600160a01b031681526020019081526020016000205460056000600884815481106108985761089861123d565b60009182526020808320909101546001600160a01b031683528201929092526040019020546108c791906111f5565b6108d190836111f5565b91506000610905600883815481106108eb576108eb61123d565b6000918252602090912001546001600160a01b0316610a76565b905080600660006008858154811061091f5761091f61123d565b60009182526020808320909101546001600160a01b0316835282019290925260400190205461094e91906111f5565b60066000600885815481106109655761096561123d565b60009182526020808320909101546001600160a01b0316835282019290925260400190205561099481856111f5565b93505080806109a290611253565b9150506107c2565b5081600360008282546109bd91906111f5565b909155505043600155600354604080519182526020820183905281018490527fbf435c36ecef852914f1b871bbd6afcd79dd1d2311fb9b824711cbe7345bdaed9060600160405180910390a1505050565b6040516001600160a01b038316602482015260448101829052610a7190849063a9059cbb60e01b906064015b60408051601f198184030181529190526020810180516001600160e01b03166001600160e01b031990931692909217909152610dd3565b505050565b6002546000901580610aa857507f00000000000000000000000000000000000000000000000000000000000000004311155b80610adf5750610ad97f000000000000000000000000000000000000000000000000000000000000000060106111f5565b60015410155b15610aec57506000919050565b6001600160a01b03821660009081526005602090815260408083205460069092528220549091610b1c82846111f5565b905060008311610b3157506000949350505050565b600080610b66610b617f00000000000000000000000000000000000000000000000000000000000000004361120d565b610ea5565b925050915060007f0000000000000000000000000000000000000000000000000000000000000000600154610b9b919061120d565b90506000806000610bab84610ea5565b91945092509050610bdd7f000000000000000000000000000000000000000000000000000000000000000060046111f5565b4311610c0a57610bfb878760015443610bf6919061120d565b610f37565b9b9a5050505050505050505050565b60008481610c18828661120d565b90506000610c467f0000000000000000000000000000000000000000000000000000000000000000846111f5565b610c50904361120d565b90508686865b8b8111610cf45783851115610c69578394505b610c748e8487610f37565b610c7e90886111f5565b9650610c8a85876111f5565b9550610c9a610b618760016111f5565b509093509150610caa868361120d565b9450610cd67f0000000000000000000000000000000000000000000000000000000000000000876111f5565b610ce0904361120d565b935080610cec81611253565b915050610c56565b50859f50505050505050505050505050505050919050565b6040516001600160a01b0380851660248301528316604482015260648101829052610d449085906323b872dd60e01b90608401610a3a565b50505050565b6001600160a01b03811660009081526007602052604090205460ff16610dd0576001600160a01b0381166000818152600760205260408120805460ff191660019081179091556008805491820181559091527ff3f7a9fe364faab93b216da50a3214154f22a0a2b415b23a84c8169e8b636ee30180546001600160a01b03191690911790555b50565b6000610e28826040518060400160405280602081526020017f5361666545524332303a206c6f772d6c6576656c2063616c6c206661696c6564815250856001600160a01b0316610f8a9092919063ffffffff16565b805190915015610a715780806020019051810190610e46919061126e565b610a715760405162461bcd60e51b815260206004820152602a60248201527f5361666545524332303a204552433230206f7065726174696f6e20646964206e6044820152691bdd081cdd58d8d9595960b21b60648201526084016102bc565b6000808083610ebc57506000915081905080610f30565b60048411610edc5750681b1ae4d6e2ef5000009150600490506001610f30565b60088411610efc57506821e19e0c9bab2400009150600890506002610f30565b600c8411610f1c57506821e19e0c9bab2400009150600c90506003610f30565b506828a857425466f8000091506010905060045b9193909250565b600080610f62600354600454610f4d91906111f5565b610f5c8764e8d4a51000610fa1565b90610fad565b9050610f8183610f7b64e8d4a51000610f5c8589610fa1565b90610fa1565b95945050505050565b6060610f998484600085610fb9565b949350505050565b60006107968284611290565b600061079682846112af565b60608247101561101a5760405162461bcd60e51b815260206004820152602660248201527f416464726573733a20696e73756666696369656e742062616c616e636520666f6044820152651c8818d85b1b60d21b60648201526084016102bc565b6001600160a01b0385163b6110715760405162461bcd60e51b815260206004820152601d60248201527f416464726573733a2063616c6c20746f206e6f6e2d636f6e747261637400000060448201526064016102bc565b600080866001600160a01b0316858760405161108d91906112fd565b60006040518083038185875af1925050503d80600081146110ca576040519150601f19603f3d011682016040523d82523d6000602084013e6110cf565b606091505b50915091506110df8282866110ea565b979650505050505050565b606083156110f9575081610796565b8251156111095782518084602001fd5b8160405162461bcd60e51b81526004016102bc9190611319565b60006020828403121561113557600080fd5b81356001600160a01b038116811461079657600080fd5b60006020828403121561115e57600080fd5b5035919050565b6020808252601f908201527f5265656e7472616e637947756172643a207265656e7472616e742063616c6c00604082015260600190565b60208082526023908201527f61646472657373206861736e2774207374616b6520616e7920746f6b656e73206040820152621e595d60ea1b606082015260800190565b634e487b7160e01b600052601160045260246000fd5b60008219821115611208576112086111df565b500190565b60008282101561121f5761121f6111df565b500390565b60006020828403121561123657600080fd5b5051919050565b634e487b7160e01b600052603260045260246000fd5b6000600019821415611267576112676111df565b5060010190565b60006020828403121561128057600080fd5b8151801515811461079657600080fd5b60008160001904831182151516156112aa576112aa6111df565b500290565b6000826112cc57634e487b7160e01b600052601260045260246000fd5b500490565b60005b838110156112ec5781810151838201526020016112d4565b83811115610d445750506000910152565b6000825161130f8184602087016112d1565b9190910192915050565b60208152600082518060208401526113388160408501602087016112d1565b601f01601f1916919091016040019291505056fea26469706673582212200c04982fc4258a49a1db68f831889bd6efc42644d7e85d7f64f6093382d6c1b564736f6c634300080a0033",
  "linkReferences": {},
  "deployedLinkReferences": {}
}