{
  "_format": "hh-sol-artifact-1",
  "contractName": "LiquidityPoolRewards",
  "sourceName": "contracts/LiquidityPoolRewards.sol",
  "abi": [
    {
      "inputs": [
        {
          "internalType": "address",
          "name": "_OGUNToken",
          "type": "address"
        },
        {
          "internalType": "address",
          "name": "_lpToken",
          "type": "address"
        },
        {
          "internalType": "uint256",
          "name": "_rewardsSupply",
          "type": "uint256"
        }
      ],
      "stateMutability": "nonpayable",
      "type": "constructor"
    },
    {
      "anonymous": false,
      "inputs": [
        {
          "indexed": true,
          "internalType": "address",
          "name": "previousOwner",
          "type": "address"
        },
        {
          "indexed": true,
          "internalType": "address",
          "name": "newOwner",
          "type": "address"
        }
      ],
      "name": "OwnershipTransferred",
      "type": "event"
    },
    {
      "anonymous": false,
      "inputs": [
        {
          "indexed": false,
          "internalType": "uint256",
          "name": "amount",
          "type": "uint256"
        }
      ],
      "name": "RewardsCalculated",
      "type": "event"
    },
    {
      "anonymous": false,
      "inputs": [
        {
          "indexed": false,
          "internalType": "uint256",
          "name": "balance",
          "type": "uint256"
        },
        {
          "indexed": false,
          "internalType": "uint256",
          "name": "rewards",
          "type": "uint256"
        },
        {
          "indexed": false,
          "internalType": "address",
          "name": "account",
          "type": "address"
        }
      ],
      "name": "RewardsCalculatedOf",
      "type": "event"
    },
    {
      "anonymous": false,
      "inputs": [
        {
          "indexed": true,
          "internalType": "address",
          "name": "user",
          "type": "address"
        },
        {
          "indexed": false,
          "internalType": "uint256",
          "name": "amount",
          "type": "uint256"
        }
      ],
      "name": "Stake",
      "type": "event"
    },
    {
      "anonymous": false,
      "inputs": [
        {
          "indexed": true,
          "internalType": "address",
          "name": "user",
          "type": "address"
        },
        {
          "indexed": false,
          "internalType": "uint256",
          "name": "rewardsAmount",
          "type": "uint256"
        }
      ],
      "name": "WithdrawRewards",
      "type": "event"
    },
    {
      "anonymous": false,
      "inputs": [
        {
          "indexed": true,
          "internalType": "address",
          "name": "user",
          "type": "address"
        },
        {
          "indexed": false,
          "internalType": "uint256",
          "name": "lpAmount",
          "type": "uint256"
        }
      ],
      "name": "WithdrawStake",
      "type": "event"
    },
    {
      "inputs": [],
      "name": "OGUNToken",
      "outputs": [
        {
          "internalType": "contract IERC20",
          "name": "",
          "type": "address"
        }
      ],
      "stateMutability": "view",
      "type": "function"
    },
    {
      "inputs": [],
      "name": "OGUN_PRECISION_FACTOR",
      "outputs": [
        {
          "internalType": "uint256",
          "name": "",
          "type": "uint256"
        }
      ],
      "stateMutability": "view",
      "type": "function"
    },
    {
      "inputs": [],
      "name": "REWARDS_RATE",
      "outputs": [
        {
          "internalType": "uint256",
          "name": "",
          "type": "uint256"
        }
      ],
      "stateMutability": "view",
      "type": "function"
    },
    {
      "inputs": [],
      "name": "TOTAL_BLOCKS",
      "outputs": [
        {
          "internalType": "uint256",
          "name": "",
          "type": "uint256"
        }
      ],
      "stateMutability": "view",
      "type": "function"
    },
    {
      "inputs": [],
      "name": "firstBlockNumber",
      "outputs": [
        {
          "internalType": "uint256",
          "name": "",
          "type": "uint256"
        }
      ],
      "stateMutability": "view",
      "type": "function"
    },
    {
      "inputs": [],
      "name": "getAddressesSize",
      "outputs": [
        {
          "internalType": "uint256",
          "name": "",
          "type": "uint256"
        }
      ],
      "stateMutability": "view",
      "type": "function"
    },
    {
      "inputs": [
        {
          "internalType": "address",
          "name": "_account",
          "type": "address"
        }
      ],
      "name": "getBalanceOf",
      "outputs": [
        {
          "internalType": "uint256",
          "name": "",
          "type": "uint256"
        },
        {
          "internalType": "uint256",
          "name": "",
          "type": "uint256"
        }
      ],
      "stateMutability": "view",
      "type": "function"
    },
    {
      "inputs": [
        {
          "internalType": "address",
          "name": "_user",
          "type": "address"
        }
      ],
      "name": "getReward",
      "outputs": [
        {
          "internalType": "uint256",
          "name": "reward",
          "type": "uint256"
        }
      ],
      "stateMutability": "view",
      "type": "function"
    },
    {
      "inputs": [
        {
          "internalType": "address",
          "name": "_account",
          "type": "address"
        }
      ],
      "name": "getUpdatedBalanceOf",
      "outputs": [
        {
          "internalType": "uint256",
          "name": "",
          "type": "uint256"
        },
        {
          "internalType": "uint256",
          "name": "",
          "type": "uint256"
        }
      ],
      "stateMutability": "nonpayable",
      "type": "function"
    },
    {
      "inputs": [],
      "name": "lpToken",
      "outputs": [
        {
          "internalType": "contract IERC20",
          "name": "",
          "type": "address"
        }
      ],
      "stateMutability": "view",
      "type": "function"
    },
    {
      "inputs": [],
      "name": "owner",
      "outputs": [
        {
          "internalType": "address",
          "name": "",
          "type": "address"
        }
      ],
      "stateMutability": "view",
      "type": "function"
    },
    {
      "inputs": [
        {
          "internalType": "address",
          "name": "destination",
          "type": "address"
        }
      ],
      "name": "reclaimOgun",
      "outputs": [],
      "stateMutability": "nonpayable",
      "type": "function"
    },
    {
      "inputs": [],
      "name": "renounceOwnership",
      "outputs": [],
      "stateMutability": "nonpayable",
      "type": "function"
    },
    {
      "inputs": [
        {
          "internalType": "uint256",
          "name": "_amount",
          "type": "uint256"
        }
      ],
      "name": "stake",
      "outputs": [],
      "stateMutability": "nonpayable",
      "type": "function"
    },
    {
      "inputs": [],
      "name": "totalLpStaked",
      "outputs": [
        {
          "internalType": "uint256",
          "name": "",
          "type": "uint256"
        }
      ],
      "stateMutability": "view",
      "type": "function"
    },
    {
      "inputs": [
        {
          "internalType": "address",
          "name": "newOwner",
          "type": "address"
        }
      ],
      "name": "transferOwnership",
      "outputs": [],
      "stateMutability": "nonpayable",
      "type": "function"
    },
    {
      "inputs": [],
      "name": "withdrawRewards",
      "outputs": [],
      "stateMutability": "nonpayable",
      "type": "function"
    },
    {
      "inputs": [
        {
          "internalType": "uint256",
          "name": "_amount",
          "type": "uint256"
        }
      ],
      "name": "withdrawStake",
      "outputs": [],
      "stateMutability": "nonpayable",
      "type": "function"
    }
  ],
  "bytecode": "0x60e06040523480156200001157600080fd5b506040516200165f3803806200165f8339810160408190526200003491620000d0565b6200003f3362000063565b600180556001600160a01b03928316608052911660a0526003554360c05262000111565b600080546001600160a01b038381166001600160a01b0319831681178455604051919092169283917f8be0079c531659141344cd1fd0a4f28419497f9722a3daafe3b4186f6b6457e09190a35050565b80516001600160a01b0381168114620000cb57600080fd5b919050565b600080600060608486031215620000e657600080fd5b620000f184620000b3565b92506200010160208501620000b3565b9150604084015190509250925092565b60805160a05160c0516114d16200018e6000396000818161027a015281816107b801528181610b0301528181610e6501528181610e9c01528181610f3c0152610f7301526000818161017b015281816104120152610878015260008181610221015281816105e10152818161067d0152610a0301526114d16000f3fe608060405234801561001057600080fd5b50600436106101165760003560e01c8063a601f84e116100a2578063b96891e511610071578063b96891e514610252578063c00007b01461025a578063c7b8981c1461026d578063ce3a763c14610275578063f2fde38b1461029c57600080fd5b8063a601f84e146101f6578063a694fc3a14610209578063a770da201461021c578063af7807e11461024357600080fd5b8063715018a6116100e9578063715018a6146101b557806376c58ebc146101bd5780638da5cb5b146101c9578063983d90b4146101da5780639b96eece146101e357600080fd5b80631af5f6841461011b57806325d5971f1461013957806345a7b39c1461014e5780635fcbd28514610176575b600080fd5b6101266301312d0081565b6040519081526020015b60405180910390f35b61014c6101473660046112a9565b6102af565b005b61016161015c3660046112c2565b610473565b60408051928352602083019190915201610130565b61019d7f000000000000000000000000000000000000000000000000000000000000000081565b6040516001600160a01b039091168152602001610130565b61014c610546565b61012664e8d4a5100081565b6000546001600160a01b031661019d565b61012660045481565b6101616101f13660046112c2565b61055a565b61014c6102043660046112c2565b6105c1565b61014c6102173660046112a9565b6106f1565b61019d7f000000000000000000000000000000000000000000000000000000000000000081565b610126674563918244f4000081565b600854610126565b6101266102683660046112c2565b610922565b61014c610933565b6101267f000000000000000000000000000000000000000000000000000000000000000081565b61014c6102aa3660046112c2565b610a63565b3360008181526007602052604090205460ff166102e75760405162461bcd60e51b81526004016102de906112eb565b60405180910390fd5b6102ef610adc565b600082116103555760405162461bcd60e51b815260206004820152602d60248201527f5769746864726177205374616b653a20416d6f756e74206d757374206265206760448201526c0726561746572207468616e203609c1b60648201526084016102de565b33600090815260066020526040902054828110156103cb5760405162461bcd60e51b815260206004820152602d60248201527f576974686472617720616d6f756e742069732067726561746572207468616e2060448201526c1cdd185ad95908185b5bdd5b9d609a1b60648201526084016102de565b336000908152600660205260409020546103e59084610c2a565b336000908152600660205260409020556004546104029084610c2a565b6004556104396001600160a01b037f0000000000000000000000000000000000000000000000000000000000000000163385610c3d565b60405181815233907f141ef67c4a6d3ec2adfb2f66d33c2b11de5b4f34344757554d430570b18a92ec9060200160405180910390a2505050565b6001600160a01b0381166000908152600760205260408120548190839060ff166104af5760405162461bcd60e51b81526004016102de906112eb565b6104b7610adc565b6001600160a01b0384166000818152600660209081526040808320546005835292819020548151938452918301919091528101919091527fc2fd675b9bc91fa8974355d8b234966cbb3aabac8a22d3c08279ce63fb2bc5ca9060600160405180910390a15050506001600160a01b03166000908152600660209081526040808320546005909252909120549091565b61054e610ca0565b6105586000610cfa565b565b6001600160a01b0381166000908152600760205260408120548190839060ff166105965760405162461bcd60e51b81526004016102de906112eb565b5050506001600160a01b03166000908152600660209081526040808320546005909252909120549091565b6105c9610ca0565b6040516370a0823160e01b81523060048201526000907f00000000000000000000000000000000000000000000000000000000000000006001600160a01b0316906370a0823190602401602060405180830381865afa158015610630573d6000803e3d6000fd5b505050506040513d601f19601f82011682018060405250810190610654919061132e565b60405163a9059cbb60e01b81526001600160a01b038481166004830152602482018390529192507f00000000000000000000000000000000000000000000000000000000000000009091169063a9059cbb906044016020604051808303816000875af11580156106c8573d6000803e3d6000fd5b505050506040513d601f19601f820116820180604052508101906106ec9190611347565b505050565b600260015414156107445760405162461bcd60e51b815260206004820152601f60248201527f5265656e7472616e637947756172643a207265656e7472616e742063616c6c0060448201526064016102de565b6002600155610751610adc565b600081116107ad5760405162461bcd60e51b8152602060048201526024808201527f5374616b653a20416d6f756e74206d75737420626520677265617465722074686044820152630616e20360e41b60648201526084016102de565b6301312d006107dc437f0000000000000000000000000000000000000000000000000000000000000000610c2a565b1061086b5760405162461bcd60e51b815260206004820152605360248201527f54686973206c697175696469747920706f6f6c207374616b652068617320656e60448201527f6465642e20596f752063616e20776974686472617720696e2063617365206f6660648201527220616e79206163746976652062616c616e636560681b608482015260a4016102de565b6108a06001600160a01b037f000000000000000000000000000000000000000000000000000000000000000016333084610d4a565b6004546108ad9082610d88565b600455336000908152600660205260409020546108ca9082610d88565b336000818152600660205260409020919091556108e690610d94565b60405181815233907febedb8b3c678666e7f36970bc8f57abf6d8fa2e828c0da91ea5b75bf68ed101a9060200160405180910390a25060018055565b600061092d82610e1a565b92915050565b3360008181526007602052604090205460ff166109625760405162461bcd60e51b81526004016102de906112eb565b61096a610adc565b33600090815260056020526040902054806109c75760405162461bcd60e51b815260206004820152601960248201527f4e6f2072657761726420746f2062652077697468647261776e0000000000000060448201526064016102de565b6003548111156109d657506003545b336000908152600560205260408120556003546109f39082610c2a565b600355610a2a6001600160a01b037f0000000000000000000000000000000000000000000000000000000000000000163383610c3d565b60405181815233907faa1377f7ec93c239e959efa811f7b8554c036fd7a706c23e58024626a8f3db969060200160405180910390a25050565b610a6b610ca0565b6001600160a01b038116610ad05760405162461bcd60e51b815260206004820152602660248201527f4f776e61626c653a206e6577206f776e657220697320746865207a65726f206160448201526564647265737360d01b60648201526084016102de565b610ad981610cfa565b50565b6002544311610ae757565b600254610af45743600255565b6002546301312d0090610b27907f0000000000000000000000000000000000000000000000000000000000000000610c2a565b1115610b2f57565b600060045411610b3f5743600255565b60005b306001600160a01b031663b96891e56040518163ffffffff1660e01b8152600401602060405180830381865afa158015610b80573d6000803e3d6000fd5b505050506040513d601f19601f82011682018060405250810190610ba4919061132e565b811015610bed57610bdb60088281548110610bc157610bc1611369565b6000918252602090912001546001600160a01b0316610ee9565b80610be581611395565b915050610b42565b50436002556004546040519081527f9f80903d8a397edd2acd2d5f9d8b9641fe6add91c324d935c687cbf80da4a4e99060200160405180910390a1565b6000610c3682846113b0565b9392505050565b6040516001600160a01b0383166024820152604481018290526106ec90849063a9059cbb60e01b906064015b60408051601f198184030181529190526020810180516001600160e01b03166001600160e01b031990931692909217909152610ff7565b6000546001600160a01b031633146105585760405162461bcd60e51b815260206004820181905260248201527f4f776e61626c653a2063616c6c6572206973206e6f7420746865206f776e657260448201526064016102de565b600080546001600160a01b038381166001600160a01b0319831681178455604051919092169283917f8be0079c531659141344cd1fd0a4f28419497f9722a3daafe3b4186f6b6457e09190a35050565b6040516001600160a01b0380851660248301528316604482015260648101829052610d829085906323b872dd60e01b90608401610c69565b50505050565b6000610c3682846113c7565b6001600160a01b03811660009081526007602052604090205460ff16610ad9576001600160a01b03166000818152600760205260408120805460ff191660019081179091556008805491820181559091527ff3f7a9fe364faab93b216da50a3214154f22a0a2b415b23a84c8169e8b636ee30180546001600160a01b0319169091179055565b6001600160a01b03811660009081526006602052604081205480610e415750600092915050565b6000610e5860025443610c2a90919063ffffffff16565b90506301312d00610e89437f0000000000000000000000000000000000000000000000000000000000000000610c2a565b1115610ece57600254610ecb90610ec0907f0000000000000000000000000000000000000000000000000000000000000000610c2a565b6301312d0090610c2a565b90505b610ee182674563918244f40000836110c9565b949350505050565b600060035411610ef65750565b6001600160a01b03811660009081526006602052604090205480610f18575050565b6000610f2f60025443610c2a90919063ffffffff16565b90506301312d00610f60437f0000000000000000000000000000000000000000000000000000000000000000610c2a565b1115610f9a57600254610f9790610ec0907f0000000000000000000000000000000000000000000000000000000000000000610c2a565b90505b6000610faf83674563918244f40000846110c9565b6001600160a01b038516600090815260056020526040902054909150610fd59082610d88565b6001600160a01b03909416600090815260056020526040902093909355505050565b600061104c826040518060400160405280602081526020017f5361666545524332303a206c6f772d6c6576656c2063616c6c206661696c6564815250856001600160a01b03166111189092919063ffffffff16565b8051909150156106ec578080602001905181019061106a9190611347565b6106ec5760405162461bcd60e51b815260206004820152602a60248201527f5361666545524332303a204552433230206f7065726174696f6e20646964206e6044820152691bdd081cdd58d8d9595960b21b60648201526084016102de565b6000806110f06004546110ea64e8d4a510008861112790919063ffffffff16565b90611133565b905061110f8361110964e8d4a510006110ea8589611127565b90611127565b95945050505050565b6060610ee1848460008561113f565b6000610c3682846113df565b6000610c3682846113fe565b6060824710156111a05760405162461bcd60e51b815260206004820152602660248201527f416464726573733a20696e73756666696369656e742062616c616e636520666f6044820152651c8818d85b1b60d21b60648201526084016102de565b6001600160a01b0385163b6111f75760405162461bcd60e51b815260206004820152601d60248201527f416464726573733a2063616c6c20746f206e6f6e2d636f6e747261637400000060448201526064016102de565b600080866001600160a01b03168587604051611213919061144c565b60006040518083038185875af1925050503d8060008114611250576040519150601f19603f3d011682016040523d82523d6000602084013e611255565b606091505b5091509150611265828286611270565b979650505050505050565b6060831561127f575081610c36565b82511561128f5782518084602001fd5b8160405162461bcd60e51b81526004016102de9190611468565b6000602082840312156112bb57600080fd5b5035919050565b6000602082840312156112d457600080fd5b81356001600160a01b0381168114610c3657600080fd5b60208082526023908201527f61646472657373206861736e2774207374616b6520616e7920746f6b656e73206040820152621e595d60ea1b606082015260800190565b60006020828403121561134057600080fd5b5051919050565b60006020828403121561135957600080fd5b81518015158114610c3657600080fd5b634e487b7160e01b600052603260045260246000fd5b634e487b7160e01b600052601160045260246000fd5b60006000198214156113a9576113a961137f565b5060010190565b6000828210156113c2576113c261137f565b500390565b600082198211156113da576113da61137f565b500190565b60008160001904831182151516156113f9576113f961137f565b500290565b60008261141b57634e487b7160e01b600052601260045260246000fd5b500490565b60005b8381101561143b578181015183820152602001611423565b83811115610d825750506000910152565b6000825161145e818460208701611420565b9190910192915050565b6020815260008251806020840152611487816040850160208701611420565b601f01601f1916919091016040019291505056fea26469706673582212205bd5a2a44d2f130b00216c264f09f4cbec60259d4ca711849a25dd02cb8dfa1d64736f6c634300080a0033",
  "linkReferences": {},
  "deployedLinkReferences": {}
}