{
  "_format": "hh-sol-artifact-1",
  "contractName": "LiquidityPoolRewards",
  "sourceName": "contracts/LiquidityPoolRewards.sol",
  "abi": [
    {
      "inputs": [
        {
          "internalType": "address",
          "name": "_OGUNToken",
          "type": "address"
        },
        {
          "internalType": "address",
          "name": "_lpToken",
          "type": "address"
        },
        {
          "internalType": "uint256",
          "name": "_rewardsSupply",
          "type": "uint256"
        }
      ],
      "stateMutability": "nonpayable",
      "type": "constructor"
    },
    {
      "anonymous": false,
      "inputs": [
        {
          "indexed": false,
          "internalType": "uint256",
          "name": "amount",
          "type": "uint256"
        }
      ],
      "name": "RewardsCalculated",
      "type": "event"
    },
    {
      "anonymous": false,
      "inputs": [
        {
          "indexed": false,
          "internalType": "uint256",
          "name": "balance",
          "type": "uint256"
        },
        {
          "indexed": false,
          "internalType": "uint256",
          "name": "rewards",
          "type": "uint256"
        },
        {
          "indexed": false,
          "internalType": "address",
          "name": "account",
          "type": "address"
        }
      ],
      "name": "RewardsCalculatedOf",
      "type": "event"
    },
    {
      "anonymous": false,
      "inputs": [
        {
          "indexed": true,
          "internalType": "address",
          "name": "user",
          "type": "address"
        },
        {
          "indexed": false,
          "internalType": "uint256",
          "name": "amount",
          "type": "uint256"
        }
      ],
      "name": "Stake",
      "type": "event"
    },
    {
      "anonymous": false,
      "inputs": [
        {
          "indexed": true,
          "internalType": "address",
          "name": "user",
          "type": "address"
        },
        {
          "indexed": false,
          "internalType": "uint256",
          "name": "lpAmount",
          "type": "uint256"
        },
        {
          "indexed": false,
          "internalType": "uint256",
          "name": "rewardsAmount",
          "type": "uint256"
        }
      ],
      "name": "Withdraw",
      "type": "event"
    },
    {
      "inputs": [],
      "name": "OGUNToken",
      "outputs": [
        {
          "internalType": "contract IERC20",
          "name": "",
          "type": "address"
        }
      ],
      "stateMutability": "view",
      "type": "function"
    },
    {
      "inputs": [],
      "name": "OGUN_PRECISION_FACTOR",
      "outputs": [
        {
          "internalType": "uint256",
          "name": "",
          "type": "uint256"
        }
      ],
      "stateMutability": "view",
      "type": "function"
    },
    {
      "inputs": [],
      "name": "REWARDS_RATE",
      "outputs": [
        {
          "internalType": "uint256",
          "name": "",
          "type": "uint256"
        }
      ],
      "stateMutability": "view",
      "type": "function"
    },
    {
      "inputs": [
        {
          "internalType": "address",
          "name": "",
          "type": "address"
        }
      ],
      "name": "_OGUNrewards",
      "outputs": [
        {
          "internalType": "uint256",
          "name": "",
          "type": "uint256"
        }
      ],
      "stateMutability": "view",
      "type": "function"
    },
    {
      "inputs": [
        {
          "internalType": "address",
          "name": "",
          "type": "address"
        }
      ],
      "name": "_addressInserted",
      "outputs": [
        {
          "internalType": "bool",
          "name": "",
          "type": "bool"
        }
      ],
      "stateMutability": "view",
      "type": "function"
    },
    {
      "inputs": [
        {
          "internalType": "uint256",
          "name": "",
          "type": "uint256"
        }
      ],
      "name": "_addresses",
      "outputs": [
        {
          "internalType": "address",
          "name": "",
          "type": "address"
        }
      ],
      "stateMutability": "view",
      "type": "function"
    },
    {
      "inputs": [],
      "name": "_lastUpdatedBlockNumber",
      "outputs": [
        {
          "internalType": "uint256",
          "name": "",
          "type": "uint256"
        }
      ],
      "stateMutability": "view",
      "type": "function"
    },
    {
      "inputs": [
        {
          "internalType": "address",
          "name": "",
          "type": "address"
        }
      ],
      "name": "_lpBalances",
      "outputs": [
        {
          "internalType": "uint256",
          "name": "",
          "type": "uint256"
        }
      ],
      "stateMutability": "view",
      "type": "function"
    },
    {
      "inputs": [],
      "name": "_totalLpStaked",
      "outputs": [
        {
          "internalType": "uint256",
          "name": "",
          "type": "uint256"
        }
      ],
      "stateMutability": "view",
      "type": "function"
    },
    {
      "inputs": [],
      "name": "_totalRewardsSupply",
      "outputs": [
        {
          "internalType": "uint256",
          "name": "",
          "type": "uint256"
        }
      ],
      "stateMutability": "view",
      "type": "function"
    },
    {
      "inputs": [],
      "name": "firstBlockNumber",
      "outputs": [
        {
          "internalType": "uint256",
          "name": "",
          "type": "uint256"
        }
      ],
      "stateMutability": "view",
      "type": "function"
    },
    {
      "inputs": [],
      "name": "getAddressesSize",
      "outputs": [
        {
          "internalType": "uint256",
          "name": "",
          "type": "uint256"
        }
      ],
      "stateMutability": "view",
      "type": "function"
    },
    {
      "inputs": [
        {
          "internalType": "address",
          "name": "_account",
          "type": "address"
        }
      ],
      "name": "getBalanceOf",
      "outputs": [
        {
          "internalType": "uint256",
          "name": "",
          "type": "uint256"
        },
        {
          "internalType": "uint256",
          "name": "",
          "type": "uint256"
        }
      ],
      "stateMutability": "view",
      "type": "function"
    },
    {
      "inputs": [
        {
          "internalType": "address",
          "name": "_account",
          "type": "address"
        }
      ],
      "name": "getUpdatedBalanceOf",
      "outputs": [
        {
          "internalType": "uint256",
          "name": "",
          "type": "uint256"
        },
        {
          "internalType": "uint256",
          "name": "",
          "type": "uint256"
        }
      ],
      "stateMutability": "nonpayable",
      "type": "function"
    },
    {
      "inputs": [],
      "name": "lpToken",
      "outputs": [
        {
          "internalType": "contract IERC20",
          "name": "",
          "type": "address"
        }
      ],
      "stateMutability": "view",
      "type": "function"
    },
    {
      "inputs": [
        {
          "internalType": "uint256",
          "name": "_amount",
          "type": "uint256"
        }
      ],
      "name": "stake",
      "outputs": [],
      "stateMutability": "nonpayable",
      "type": "function"
    },
    {
      "inputs": [],
      "name": "updateReward",
      "outputs": [],
      "stateMutability": "nonpayable",
      "type": "function"
    },
    {
      "inputs": [],
      "name": "withdraw",
      "outputs": [],
      "stateMutability": "nonpayable",
      "type": "function"
    }
  ],
  "bytecode": "0x60e060405234801561001057600080fd5b506040516111db3803806111db83398101604081905261002f9161006f565b60016000556001600160a01b03928316608052911660a0526002554360c0526100ab565b80516001600160a01b038116811461006a57600080fd5b919050565b60008060006060848603121561008457600080fd5b61008d84610053565b925061009b60208501610053565b9150604084015190509250925092565b60805160a05160c0516110d061010b6000396000818161028d015281816106ff0152818161089a01528181610b3e0152610b6b0152600081816101b90152818161044101526107c0015260008181610245015261047501526110d06000f3fe608060405234801561001057600080fd5b50600436106101165760003560e01c8063a694fc3a116100a2578063c0d13b4811610071578063c0d13b481461027f578063ce3a763c14610288578063eef64183146102af578063f36c0a72146102cf578063ff9a0056146102d757600080fd5b8063a694fc3a1461022d578063a770da2014610240578063af7807e114610267578063b96891e51461027757600080fd5b80634f82517c116100e95780634f82517c146101895780635fcbd285146101b457806376c58ebc146101db57806392f4ef88146101e75780639b96eece1461021a57600080fd5b80630c7814391461011b5780633ccfd60b146101375780633eea55ba1461014157806345a7b39c14610161575b600080fd5b61012460015481565b6040519081526020015b60405180910390f35b61013f6102e0565b005b61012461014f366004610ea8565b60056020526000908152604090205481565b61017461016f366004610ea8565b6104e1565b6040805192835260208301919091520161012e565b61019c610197366004610ed1565b6105b4565b6040516001600160a01b03909116815260200161012e565b61019c7f000000000000000000000000000000000000000000000000000000000000000081565b61012464e8d4a5100081565b61020a6101f5366004610ea8565b60066020526000908152604090205460ff1681565b604051901515815260200161012e565b610174610228366004610ea8565b6105de565b61013f61023b366004610ed1565b610645565b61019c7f000000000000000000000000000000000000000000000000000000000000000081565b6101246801158e460913d0000081565b600754610124565b61012460025481565b6101247f000000000000000000000000000000000000000000000000000000000000000081565b6101246102bd366004610ea8565b60046020526000908152604090205481565b61013f610872565b61012460035481565b600260005414156103385760405162461bcd60e51b815260206004820152601f60248201527f5265656e7472616e637947756172643a207265656e7472616e742063616c6c0060448201526064015b60405180910390fd5b6002600090815533808252600660205260409091205460ff1661036d5760405162461bcd60e51b815260040161032f90610eea565b61037561087c565b33600090815260056020908152604080832054600490925290912054816103d55760405162461bcd60e51b8152602060048201526014602482015273043757272656e742062616c616e636520697320360641b604482015260640161032f565b6002548111156103e457506002545b3360009081526005602090815260408083208390556004909152812081905560038054849290610415908490610f43565b92505081905550806002600082825461042e9190610f43565b9091555061046890506001600160a01b037f00000000000000000000000000000000000000000000000000000000000000001633846109c5565b61049c6001600160a01b037f00000000000000000000000000000000000000000000000000000000000000001633836109c5565b604080518381526020810183905233917ff279e6a1f5e320cca91135676d9cb6e44ca8a08c0b88342bcdb1144f6511b568910160405180910390a25050600160005550565b6001600160a01b0381166000908152600660205260408120548190839060ff1661051d5760405162461bcd60e51b815260040161032f90610eea565b61052561087c565b6001600160a01b0384166000818152600560209081526040808320546004835292819020548151938452918301919091528101919091527fc2fd675b9bc91fa8974355d8b234966cbb3aabac8a22d3c08279ce63fb2bc5ca9060600160405180910390a15050506001600160a01b03166000908152600560209081526040808320546004909252909120549091565b600781815481106105c457600080fd5b6000918252602090912001546001600160a01b0316905081565b6001600160a01b0381166000908152600660205260408120548190839060ff1661061a5760405162461bcd60e51b815260040161032f90610eea565b5050506001600160a01b03166000908152600560209081526040808320546004909252909120549091565b600260005414156106985760405162461bcd60e51b815260206004820152601f60248201527f5265656e7472616e637947756172643a207265656e7472616e742063616c6c00604482015260640161032f565b6002600055806106f65760405162461bcd60e51b8152602060048201526024808201527f5374616b653a20416d6f756e74206d75737420626520677265617465722074686044820152630616e20360e41b606482015260840161032f565b620f42406107247f000000000000000000000000000000000000000000000000000000000000000043610f43565b106107b35760405162461bcd60e51b815260206004820152605360248201527f54686973206c697175696469747920706f6f6c207374616b652068617320656e60448201527f6465642e20596f752063616e20776974686472617720696e2063617365206f6660648201527220616e79206163746976652062616c616e636560681b608482015260a40161032f565b6107e86001600160a01b037f000000000000000000000000000000000000000000000000000000000000000016333084610a2d565b6107f061087c565b80600360008282546108029190610f5a565b90915550503360009081526005602052604081208054839290610826908490610f5a565b90915550610835905033610a6b565b60405181815233907febedb8b3c678666e7f36970bc8f57abf6d8fa2e828c0da91ea5b75bf68ed101a9060200160405180910390a2506001600055565b61087a61087c565b565b600154431161088757565b6001546108945743600155565b620f42407f00000000000000000000000000000000000000000000000000000000000000006001546108c69190610f43565b11156108ce57565b6000600354116108da57565b60005b306001600160a01b031663b96891e56040518163ffffffff1660e01b8152600401602060405180830381865afa15801561091b573d6000803e3d6000fd5b505050506040513d601f19601f8201168201806040525081019061093f9190610f72565b811015610988576109766007828154811061095c5761095c610f8b565b6000918252602090912001546001600160a01b0316610af4565b8061098081610fa1565b9150506108dd565b50436001556003546040519081527f9f80903d8a397edd2acd2d5f9d8b9641fe6add91c324d935c687cbf80da4a4e99060200160405180910390a1565b6040516001600160a01b038316602482015260448101829052610a2890849063a9059cbb60e01b906064015b60408051601f198184030181529190526020810180516001600160e01b03166001600160e01b031990931692909217909152610bf5565b505050565b6040516001600160a01b0380851660248301528316604482015260648101829052610a659085906323b872dd60e01b906084016109f1565b50505050565b6001600160a01b03811660009081526006602052604090205460ff16610af1576001600160a01b0381166000818152600660205260408120805460ff191660019081179091556007805491820181559091527fa66cc928b5edb82af9bd49922954155ab7b0942694bea4ce44661d9a8736c6880180546001600160a01b03191690911790555b50565b600060025411610b015750565b6001600160a01b03811660009081526005602052604090205480610b23575050565b600060015443610b339190610f43565b9050620f4240610b637f000000000000000000000000000000000000000000000000000000000000000043610f43565b1115610ba7577f0000000000000000000000000000000000000000000000000000000000000000600154610b979190610f43565b610ba490620f4240610f43565b90505b6000610bbd836801158e460913d0000084610cc7565b6001600160a01b038516600090815260046020526040812080549293508392909190610bea908490610f5a565b909155505050505050565b6000610c4a826040518060400160405280602081526020017f5361666545524332303a206c6f772d6c6576656c2063616c6c206661696c6564815250856001600160a01b0316610d189092919063ffffffff16565b805190915015610a285780806020019051810190610c689190610fbc565b610a285760405162461bcd60e51b815260206004820152602a60248201527f5361666545524332303a204552433230206f7065726174696f6e20646964206e6044820152691bdd081cdd58d8d9595960b21b606482015260840161032f565b600080610cee600354610ce864e8d4a5100088610d2f90919063ffffffff16565b90610d3b565b9050610d0d83610d0764e8d4a51000610ce88589610d2f565b90610d2f565b9150505b9392505050565b6060610d278484600085610d47565b949350505050565b6000610d118284610fde565b6000610d118284610ffd565b606082471015610da85760405162461bcd60e51b815260206004820152602660248201527f416464726573733a20696e73756666696369656e742062616c616e636520666f6044820152651c8818d85b1b60d21b606482015260840161032f565b843b610df65760405162461bcd60e51b815260206004820152601d60248201527f416464726573733a2063616c6c20746f206e6f6e2d636f6e7472616374000000604482015260640161032f565b600080866001600160a01b03168587604051610e12919061104b565b60006040518083038185875af1925050503d8060008114610e4f576040519150601f19603f3d011682016040523d82523d6000602084013e610e54565b606091505b5091509150610e64828286610e6f565b979650505050505050565b60608315610e7e575081610d11565b825115610e8e5782518084602001fd5b8160405162461bcd60e51b815260040161032f9190611067565b600060208284031215610eba57600080fd5b81356001600160a01b0381168114610d1157600080fd5b600060208284031215610ee357600080fd5b5035919050565b60208082526023908201527f61646472657373206861736e2774207374616b6520616e7920746f6b656e73206040820152621e595d60ea1b606082015260800190565b634e487b7160e01b600052601160045260246000fd5b600082821015610f5557610f55610f2d565b500390565b60008219821115610f6d57610f6d610f2d565b500190565b600060208284031215610f8457600080fd5b5051919050565b634e487b7160e01b600052603260045260246000fd5b6000600019821415610fb557610fb5610f2d565b5060010190565b600060208284031215610fce57600080fd5b81518015158114610d1157600080fd5b6000816000190483118215151615610ff857610ff8610f2d565b500290565b60008261101a57634e487b7160e01b600052601260045260246000fd5b500490565b60005b8381101561103a578181015183820152602001611022565b83811115610a655750506000910152565b6000825161105d81846020870161101f565b9190910192915050565b602081526000825180602084015261108681604085016020870161101f565b601f01601f1916919091016040019291505056fea264697066735822122094381a22dd9b5741b5d70eb602bdd909a80a8a735b9b046c5428aa98a4d64e3e64736f6c634300080a0033",
  "linkReferences": {},
  "deployedLinkReferences": {}
}