{
  "_format": "hh-sol-artifact-1",
  "contractName": "LiquidityPoolRewards",
  "sourceName": "contracts/LiquidityPoolRewards.sol",
  "abi": [
    {
      "inputs": [
        {
          "internalType": "address",
          "name": "_OGUNToken",
          "type": "address"
        },
        {
          "internalType": "address",
          "name": "_lpToken",
          "type": "address"
        },
        {
          "internalType": "uint256",
          "name": "_rewardsSupply",
          "type": "uint256"
        }
      ],
      "stateMutability": "nonpayable",
      "type": "constructor"
    },
    {
      "anonymous": false,
      "inputs": [
        {
          "indexed": false,
          "internalType": "uint256",
          "name": "amount",
          "type": "uint256"
        }
      ],
      "name": "RewardsCalculated",
      "type": "event"
    },
    {
      "anonymous": false,
      "inputs": [
        {
          "indexed": false,
          "internalType": "uint256",
          "name": "balance",
          "type": "uint256"
        },
        {
          "indexed": false,
          "internalType": "uint256",
          "name": "rewards",
          "type": "uint256"
        },
        {
          "indexed": false,
          "internalType": "address",
          "name": "account",
          "type": "address"
        }
      ],
      "name": "RewardsCalculatedOf",
      "type": "event"
    },
    {
      "anonymous": false,
      "inputs": [
        {
          "indexed": true,
          "internalType": "address",
          "name": "user",
          "type": "address"
        },
        {
          "indexed": false,
          "internalType": "uint256",
          "name": "amount",
          "type": "uint256"
        }
      ],
      "name": "Stake",
      "type": "event"
    },
    {
      "anonymous": false,
      "inputs": [
        {
          "indexed": true,
          "internalType": "address",
          "name": "user",
          "type": "address"
        },
        {
          "indexed": false,
          "internalType": "uint256",
          "name": "lpAmount",
          "type": "uint256"
        },
        {
          "indexed": false,
          "internalType": "uint256",
          "name": "rewardsAmount",
          "type": "uint256"
        }
      ],
      "name": "Withdraw",
      "type": "event"
    },
    {
      "inputs": [],
      "name": "OGUNToken",
      "outputs": [
        {
          "internalType": "contract IERC20",
          "name": "",
          "type": "address"
        }
      ],
      "stateMutability": "view",
      "type": "function"
    },
    {
      "inputs": [],
      "name": "OGUN_PRECISION_FACTOR",
      "outputs": [
        {
          "internalType": "uint256",
          "name": "",
          "type": "uint256"
        }
      ],
      "stateMutability": "view",
      "type": "function"
    },
    {
      "inputs": [],
      "name": "REWARDS_RATE",
      "outputs": [
        {
          "internalType": "uint256",
          "name": "",
          "type": "uint256"
        }
      ],
      "stateMutability": "view",
      "type": "function"
    },
    {
      "inputs": [],
      "name": "firstBlockNumber",
      "outputs": [
        {
          "internalType": "uint256",
          "name": "",
          "type": "uint256"
        }
      ],
      "stateMutability": "view",
      "type": "function"
    },
    {
      "inputs": [],
      "name": "getAddressesSize",
      "outputs": [
        {
          "internalType": "uint256",
          "name": "",
          "type": "uint256"
        }
      ],
      "stateMutability": "view",
      "type": "function"
    },
    {
      "inputs": [
        {
          "internalType": "address",
          "name": "_account",
          "type": "address"
        }
      ],
      "name": "getLastCalculatedBalanceOf",
      "outputs": [
        {
          "internalType": "uint256",
          "name": "",
          "type": "uint256"
        },
        {
          "internalType": "uint256",
          "name": "",
          "type": "uint256"
        }
      ],
      "stateMutability": "view",
      "type": "function"
    },
    {
      "inputs": [
        {
          "internalType": "address",
          "name": "_account",
          "type": "address"
        }
      ],
      "name": "getUpdatedBalanceOf",
      "outputs": [
        {
          "internalType": "uint256",
          "name": "",
          "type": "uint256"
        },
        {
          "internalType": "uint256",
          "name": "",
          "type": "uint256"
        }
      ],
      "stateMutability": "nonpayable",
      "type": "function"
    },
    {
      "inputs": [],
      "name": "lpToken",
      "outputs": [
        {
          "internalType": "contract IERC20",
          "name": "",
          "type": "address"
        }
      ],
      "stateMutability": "view",
      "type": "function"
    },
    {
      "inputs": [
        {
          "internalType": "uint256",
          "name": "_amount",
          "type": "uint256"
        }
      ],
      "name": "stake",
      "outputs": [],
      "stateMutability": "nonpayable",
      "type": "function"
    },
    {
      "inputs": [],
      "name": "withdraw",
      "outputs": [],
      "stateMutability": "nonpayable",
      "type": "function"
    }
  ],
  "bytecode": "0x60e060405234801561001057600080fd5b506040516110b73803806110b783398101604081905261002f9161006f565b60016000556001600160a01b03928316608052911660a0526002554360c0526100ab565b80516001600160a01b038116811461006a57600080fd5b919050565b60008060006060848603121561008457600080fd5b61008d84610053565b925061009b60208501610053565b9150604084015190509250925092565b60805160a05160c051610fad61010a6000396000818161018a0152818161054d0152818161075e01528181610a020152610a2f01526000818160df01528181610320015261060e01526000818161014b01526103540152610fad6000f3fe608060405234801561001057600080fd5b506004361061009e5760003560e01c8063a770da2011610066578063a770da2014610146578063af7807e11461016d578063b96891e51461017d578063ce3a763c14610185578063f3de98cf146101ac57600080fd5b80633ccfd60b146100a357806345a7b39c146100ad5780635fcbd285146100da57806376c58ebc14610119578063a694fc3a14610133575b600080fd5b6100ab6101bf565b005b6100c06100bb366004610d85565b6103c0565b604080519283526020830191909152015b60405180910390f35b6101017f000000000000000000000000000000000000000000000000000000000000000081565b6040516001600160a01b0390911681526020016100d1565b61012564e8d4a5100081565b6040519081526020016100d1565b6100ab610141366004610dae565b610493565b6101017f000000000000000000000000000000000000000000000000000000000000000081565b6101256801158e460913d0000081565b600954610125565b6101257f000000000000000000000000000000000000000000000000000000000000000081565b6100c06101ba366004610d85565b6106d9565b600260005414156102175760405162461bcd60e51b815260206004820152601f60248201527f5265656e7472616e637947756172643a207265656e7472616e742063616c6c0060448201526064015b60405180910390fd5b6002600090815533808252600860205260409091205460ff1661024c5760405162461bcd60e51b815260040161020e90610dc7565b610254610740565b33600090815260076020908152604080832054600690925290912054816102b45760405162461bcd60e51b8152602060048201526014602482015273043757272656e742062616c616e636520697320360641b604482015260640161020e565b6002548111156102c357506002545b33600090815260076020908152604080832083905560069091528120819055600480548492906102f4908490610e20565b92505081905550806002600082825461030d9190610e20565b9091555061034790506001600160a01b037f0000000000000000000000000000000000000000000000000000000000000000163384610889565b61037b6001600160a01b037f0000000000000000000000000000000000000000000000000000000000000000163383610889565b604080518381526020810183905233917ff279e6a1f5e320cca91135676d9cb6e44ca8a08c0b88342bcdb1144f6511b568910160405180910390a25050600160005550565b6001600160a01b0381166000908152600860205260408120548190839060ff166103fc5760405162461bcd60e51b815260040161020e90610dc7565b610404610740565b6001600160a01b0384166000818152600760209081526040808320546006835292819020548151938452918301919091528101919091527fc2fd675b9bc91fa8974355d8b234966cbb3aabac8a22d3c08279ce63fb2bc5ca9060600160405180910390a15050506001600160a01b03166000908152600760209081526040808320546006909252909120549091565b600260005414156104e65760405162461bcd60e51b815260206004820152601f60248201527f5265656e7472616e637947756172643a207265656e7472616e742063616c6c00604482015260640161020e565b6002600055806105445760405162461bcd60e51b8152602060048201526024808201527f5374616b653a20416d6f756e74206d75737420626520677265617465722074686044820152630616e20360e41b606482015260840161020e565b620f42406105727f000000000000000000000000000000000000000000000000000000000000000043610e20565b106106015760405162461bcd60e51b815260206004820152605360248201527f54686973206c697175696469747920706f6f6c207374616b652068617320656e60448201527f6465642e20596f752063616e20776974686472617720696e2063617365206f6660648201527220616e79206163746976652062616c616e636560681b608482015260a40161020e565b6106366001600160a01b037f0000000000000000000000000000000000000000000000000000000000000000163330846108f1565b61063e610740565b80600460008282546106509190610e37565b9250508190555080600260008282546106699190610e37565b9091555050336000908152600760205260408120805483929061068d908490610e37565b9091555061069c90503361092f565b60405181815233907febedb8b3c678666e7f36970bc8f57abf6d8fa2e828c0da91ea5b75bf68ed101a9060200160405180910390a2506001600055565b6001600160a01b0381166000908152600860205260408120548190839060ff166107155760405162461bcd60e51b815260040161020e90610dc7565b5050506001600160a01b03166000908152600760209081526040808320546006909252909120549091565b600154431161074b57565b6001546107585743600155565b620f42407f000000000000000000000000000000000000000000000000000000000000000060015461078a9190610e20565b111561079257565b60006004541161079e57565b60005b306001600160a01b031663b96891e56040518163ffffffff1660e01b8152600401602060405180830381865afa1580156107df573d6000803e3d6000fd5b505050506040513d601f19601f820116820180604052508101906108039190610e4f565b81101561084c5761083a6009828154811061082057610820610e68565b6000918252602090912001546001600160a01b03166109b8565b8061084481610e7e565b9150506107a1565b50436001556004546040519081527f9f80903d8a397edd2acd2d5f9d8b9641fe6add91c324d935c687cbf80da4a4e99060200160405180910390a1565b6040516001600160a01b0383166024820152604481018290526108ec90849063a9059cbb60e01b906064015b60408051601f198184030181529190526020810180516001600160e01b03166001600160e01b031990931692909217909152610ad2565b505050565b6040516001600160a01b03808516602483015283166044820152606481018290526109299085906323b872dd60e01b906084016108b5565b50505050565b6001600160a01b03811660009081526008602052604090205460ff166109b5576001600160a01b0381166000818152600860205260408120805460ff191660019081179091556009805491820181559091527f6e1540171b6c0c960b71a7020d9f60077f6af931a8bbf590da0223dacf75c7af0180546001600160a01b03191690911790555b50565b6000600254116109c55750565b6001600160a01b038116600090815260076020526040902054806109e7575050565b6000600154436109f79190610e20565b9050620f4240610a277f000000000000000000000000000000000000000000000000000000000000000043610e20565b1115610a6b577f0000000000000000000000000000000000000000000000000000000000000000600154610a5b9190610e20565b610a6890620f4240610e20565b90505b6000610a81836801158e460913d0000084610ba4565b6001600160a01b038516600090815260066020526040812080549293508392909190610aae908490610e37565b925050819055508060036000828254610ac79190610e37565b909155505050505050565b6000610b27826040518060400160405280602081526020017f5361666545524332303a206c6f772d6c6576656c2063616c6c206661696c6564815250856001600160a01b0316610bf59092919063ffffffff16565b8051909150156108ec5780806020019051810190610b459190610e99565b6108ec5760405162461bcd60e51b815260206004820152602a60248201527f5361666545524332303a204552433230206f7065726174696f6e20646964206e6044820152691bdd081cdd58d8d9595960b21b606482015260840161020e565b600080610bcb600454610bc564e8d4a5100088610c0c90919063ffffffff16565b90610c18565b9050610bea83610be464e8d4a51000610bc58589610c0c565b90610c0c565b9150505b9392505050565b6060610c048484600085610c24565b949350505050565b6000610bee8284610ebb565b6000610bee8284610eda565b606082471015610c855760405162461bcd60e51b815260206004820152602660248201527f416464726573733a20696e73756666696369656e742062616c616e636520666f6044820152651c8818d85b1b60d21b606482015260840161020e565b843b610cd35760405162461bcd60e51b815260206004820152601d60248201527f416464726573733a2063616c6c20746f206e6f6e2d636f6e7472616374000000604482015260640161020e565b600080866001600160a01b03168587604051610cef9190610f28565b60006040518083038185875af1925050503d8060008114610d2c576040519150601f19603f3d011682016040523d82523d6000602084013e610d31565b606091505b5091509150610d41828286610d4c565b979650505050505050565b60608315610d5b575081610bee565b825115610d6b5782518084602001fd5b8160405162461bcd60e51b815260040161020e9190610f44565b600060208284031215610d9757600080fd5b81356001600160a01b0381168114610bee57600080fd5b600060208284031215610dc057600080fd5b5035919050565b60208082526023908201527f61646472657373206861736e2774207374616b6520616e7920746f6b656e73206040820152621e595d60ea1b606082015260800190565b634e487b7160e01b600052601160045260246000fd5b600082821015610e3257610e32610e0a565b500390565b60008219821115610e4a57610e4a610e0a565b500190565b600060208284031215610e6157600080fd5b5051919050565b634e487b7160e01b600052603260045260246000fd5b6000600019821415610e9257610e92610e0a565b5060010190565b600060208284031215610eab57600080fd5b81518015158114610bee57600080fd5b6000816000190483118215151615610ed557610ed5610e0a565b500290565b600082610ef757634e487b7160e01b600052601260045260246000fd5b500490565b60005b83811015610f17578181015183820152602001610eff565b838111156109295750506000910152565b60008251610f3a818460208701610efc565b9190910192915050565b6020815260008251806020840152610f63816040850160208701610efc565b601f01601f1916919091016040019291505056fea2646970667358221220c1c01a30c7b0378cf5b34737803277a3eb8b703aa69803471746ab736c49ab5064736f6c634300080a0033",
  "linkReferences": {},
  "deployedLinkReferences": {}
}