{
  "_format": "hh-sol-artifact-1",
  "contractName": "LiquidityPoolRewards",
  "sourceName": "contracts/LiquidityPoolRewards.sol",
  "abi": [
    {
      "inputs": [
        {
          "internalType": "address",
          "name": "_OGUNToken",
          "type": "address"
        },
        {
          "internalType": "address",
          "name": "_lpToken",
          "type": "address"
        },
        {
          "internalType": "uint256",
          "name": "_rewardsSupply",
          "type": "uint256"
        }
      ],
      "stateMutability": "nonpayable",
      "type": "constructor"
    },
    {
      "anonymous": false,
      "inputs": [
        {
          "indexed": false,
          "internalType": "uint256",
          "name": "amount",
          "type": "uint256"
        }
      ],
      "name": "RewardsCalculated",
      "type": "event"
    },
    {
      "anonymous": false,
      "inputs": [
        {
          "indexed": false,
          "internalType": "uint256",
          "name": "balance",
          "type": "uint256"
        },
        {
          "indexed": false,
          "internalType": "uint256",
          "name": "rewards",
          "type": "uint256"
        },
        {
          "indexed": false,
          "internalType": "address",
          "name": "account",
          "type": "address"
        }
      ],
      "name": "RewardsCalculatedOf",
      "type": "event"
    },
    {
      "anonymous": false,
      "inputs": [
        {
          "indexed": true,
          "internalType": "address",
          "name": "user",
          "type": "address"
        },
        {
          "indexed": false,
          "internalType": "uint256",
          "name": "amount",
          "type": "uint256"
        }
      ],
      "name": "Stake",
      "type": "event"
    },
    {
      "anonymous": false,
      "inputs": [
        {
          "indexed": true,
          "internalType": "address",
          "name": "user",
          "type": "address"
        },
        {
          "indexed": false,
          "internalType": "uint256",
          "name": "lpAmount",
          "type": "uint256"
        },
        {
          "indexed": false,
          "internalType": "uint256",
          "name": "rewardsAmount",
          "type": "uint256"
        }
      ],
      "name": "Withdraw",
      "type": "event"
    },
    {
      "inputs": [],
      "name": "OGUNToken",
      "outputs": [
        {
          "internalType": "contract IERC20",
          "name": "",
          "type": "address"
        }
      ],
      "stateMutability": "view",
      "type": "function"
    },
    {
      "inputs": [],
      "name": "OGUN_PRECISION_FACTOR",
      "outputs": [
        {
          "internalType": "uint256",
          "name": "",
          "type": "uint256"
        }
      ],
      "stateMutability": "view",
      "type": "function"
    },
    {
      "inputs": [],
      "name": "REWARDS_RATE",
      "outputs": [
        {
          "internalType": "uint256",
          "name": "",
          "type": "uint256"
        }
      ],
      "stateMutability": "view",
      "type": "function"
    },
    {
      "inputs": [],
      "name": "TOTAL_BLOCKS",
      "outputs": [
        {
          "internalType": "uint256",
          "name": "",
          "type": "uint256"
        }
      ],
      "stateMutability": "view",
      "type": "function"
    },
    {
      "inputs": [],
      "name": "firstBlockNumber",
      "outputs": [
        {
          "internalType": "uint256",
          "name": "",
          "type": "uint256"
        }
      ],
      "stateMutability": "view",
      "type": "function"
    },
    {
      "inputs": [],
      "name": "getAddressesSize",
      "outputs": [
        {
          "internalType": "uint256",
          "name": "",
          "type": "uint256"
        }
      ],
      "stateMutability": "view",
      "type": "function"
    },
    {
      "inputs": [
        {
          "internalType": "address",
          "name": "_account",
          "type": "address"
        }
      ],
      "name": "getBalanceOf",
      "outputs": [
        {
          "internalType": "uint256",
          "name": "",
          "type": "uint256"
        },
        {
          "internalType": "uint256",
          "name": "",
          "type": "uint256"
        }
      ],
      "stateMutability": "view",
      "type": "function"
    },
    {
      "inputs": [
        {
          "internalType": "address",
          "name": "_user",
          "type": "address"
        }
      ],
      "name": "getReward",
      "outputs": [
        {
          "internalType": "uint256",
          "name": "reward",
          "type": "uint256"
        }
      ],
      "stateMutability": "view",
      "type": "function"
    },
    {
      "inputs": [
        {
          "internalType": "address",
          "name": "_account",
          "type": "address"
        }
      ],
      "name": "getUpdatedBalanceOf",
      "outputs": [
        {
          "internalType": "uint256",
          "name": "",
          "type": "uint256"
        },
        {
          "internalType": "uint256",
          "name": "",
          "type": "uint256"
        }
      ],
      "stateMutability": "nonpayable",
      "type": "function"
    },
    {
      "inputs": [],
      "name": "lpToken",
      "outputs": [
        {
          "internalType": "contract IERC20",
          "name": "",
          "type": "address"
        }
      ],
      "stateMutability": "view",
      "type": "function"
    },
    {
      "inputs": [
        {
          "internalType": "uint256",
          "name": "_amount",
          "type": "uint256"
        }
      ],
      "name": "stake",
      "outputs": [],
      "stateMutability": "nonpayable",
      "type": "function"
    },
    {
      "inputs": [],
      "name": "totalLpStaked",
      "outputs": [
        {
          "internalType": "uint256",
          "name": "",
          "type": "uint256"
        }
      ],
      "stateMutability": "view",
      "type": "function"
    },
    {
      "inputs": [],
      "name": "updateReward",
      "outputs": [],
      "stateMutability": "nonpayable",
      "type": "function"
    },
    {
      "inputs": [],
      "name": "withdraw",
      "outputs": [],
      "stateMutability": "nonpayable",
      "type": "function"
    }
  ],
  "bytecode": "0x60e060405234801561001057600080fd5b5060405161121738038061121783398101604081905261002f9161006f565b60016000556001600160a01b03928316608052911660a0526002554360c0526100ab565b80516001600160a01b038116811461006a57600080fd5b919050565b60008060006060848603121561008457600080fd5b61008d84610053565b925061009b60208501610053565b9150604084015190509250925092565b60805160a05160c0516110fe6101196000396000818161020f0152818161061d015281816107d201528181610a9201528181610ac901528181610b690152610ba00152600081816101440152818161038701526106dd0152600081816101be01526103bb01526110fe6000f3fe608060405234801561001057600080fd5b50600436106100ea5760003560e01c8063a694fc3a1161008c578063b96891e511610066578063b96891e5146101ef578063c00007b0146101f7578063ce3a763c1461020a578063f36c0a721461023157600080fd5b8063a694fc3a146101a6578063a770da20146101b9578063af7807e1146101e057600080fd5b80635fcbd285116100c85780635fcbd2851461013f57806376c58ebc1461017e578063983d90b41461018a5780639b96eece1461019357600080fd5b80631af5f684146100ef5780633ccfd60b1461010d57806345a7b39c14610117575b600080fd5b6100fa6301312d0081565b6040519081526020015b60405180910390f35b610115610239565b005b61012a610125366004610ed6565b610427565b60408051928352602083019190915201610104565b6101667f000000000000000000000000000000000000000000000000000000000000000081565b6040516001600160a01b039091168152602001610104565b6100fa64e8d4a5100081565b6100fa60035481565b61012a6101a1366004610ed6565b6104fa565b6101156101b4366004610eff565b610561565b6101667f000000000000000000000000000000000000000000000000000000000000000081565b6100fa674563918244f4000081565b6007546100fa565b6100fa610205366004610ed6565b610790565b6100fa7f000000000000000000000000000000000000000000000000000000000000000081565b6101156107a1565b600260005414156102915760405162461bcd60e51b815260206004820152601f60248201527f5265656e7472616e637947756172643a207265656e7472616e742063616c6c0060448201526064015b60405180910390fd5b6002600090815533808252600660205260409091205460ff166102c65760405162461bcd60e51b815260040161028890610f18565b6102ce6107ab565b336000908152600560209081526040808320546004909252909120548161032e5760405162461bcd60e51b8152602060048201526014602482015273043757272656e742062616c616e636520697320360641b6044820152606401610288565b60025481111561033d57506002545b336000908152600560209081526040808320839055600490915281205560035461036790836108f9565b60035560025461037790826108f9565b6002556103ae6001600160a01b037f000000000000000000000000000000000000000000000000000000000000000016338461090c565b6103e26001600160a01b037f000000000000000000000000000000000000000000000000000000000000000016338361090c565b604080518381526020810183905233917ff279e6a1f5e320cca91135676d9cb6e44ca8a08c0b88342bcdb1144f6511b568910160405180910390a25050600160005550565b6001600160a01b0381166000908152600660205260408120548190839060ff166104635760405162461bcd60e51b815260040161028890610f18565b61046b6107ab565b6001600160a01b0384166000818152600560209081526040808320546004835292819020548151938452918301919091528101919091527fc2fd675b9bc91fa8974355d8b234966cbb3aabac8a22d3c08279ce63fb2bc5ca9060600160405180910390a15050506001600160a01b03166000908152600560209081526040808320546004909252909120549091565b6001600160a01b0381166000908152600660205260408120548190839060ff166105365760405162461bcd60e51b815260040161028890610f18565b5050506001600160a01b03166000908152600560209081526040808320546004909252909120549091565b600260005414156105b45760405162461bcd60e51b815260206004820152601f60248201527f5265656e7472616e637947756172643a207265656e7472616e742063616c6c006044820152606401610288565b6002600055806106125760405162461bcd60e51b8152602060048201526024808201527f5374616b653a20416d6f756e74206d75737420626520677265617465722074686044820152630616e20360e41b6064820152608401610288565b6301312d00610641437f00000000000000000000000000000000000000000000000000000000000000006108f9565b106106d05760405162461bcd60e51b815260206004820152605360248201527f54686973206c697175696469747920706f6f6c207374616b652068617320656e60448201527f6465642e20596f752063616e20776974686472617720696e2063617365206f6660648201527220616e79206163746976652062616c616e636560681b608482015260a401610288565b6107056001600160a01b037f000000000000000000000000000000000000000000000000000000000000000016333084610974565b61070d6107ab565b60035461071a90826109b2565b6003553360009081526005602052604090205461073790826109b2565b33600081815260056020526040902091909155610753906109be565b60405181815233907febedb8b3c678666e7f36970bc8f57abf6d8fa2e828c0da91ea5b75bf68ed101a9060200160405180910390a2506001600055565b600061079b82610a47565b92915050565b6107a96107ab565b565b60015443116107b657565b6001546107c35743600155565b6001546301312d00906107f6907f00000000000000000000000000000000000000000000000000000000000000006108f9565b11156107fe57565b60006003541161080e5743600155565b60005b306001600160a01b031663b96891e56040518163ffffffff1660e01b8152600401602060405180830381865afa15801561084f573d6000803e3d6000fd5b505050506040513d601f19601f820116820180604052508101906108739190610f5b565b8110156108bc576108aa6007828154811061089057610890610f74565b6000918252602090912001546001600160a01b0316610b16565b806108b481610fa0565b915050610811565b50436001556003546040519081527f9f80903d8a397edd2acd2d5f9d8b9641fe6add91c324d935c687cbf80da4a4e99060200160405180910390a1565b60006109058284610fbb565b9392505050565b6040516001600160a01b03831660248201526044810182905261096f90849063a9059cbb60e01b906064015b60408051601f198184030181529190526020810180516001600160e01b03166001600160e01b031990931692909217909152610c24565b505050565b6040516001600160a01b03808516602483015283166044820152606481018290526109ac9085906323b872dd60e01b90608401610938565b50505050565b60006109058284610fd2565b6001600160a01b03811660009081526006602052604090205460ff16610a44576001600160a01b0381166000818152600660205260408120805460ff191660019081179091556007805491820181559091527fa66cc928b5edb82af9bd49922954155ab7b0942694bea4ce44661d9a8736c6880180546001600160a01b03191690911790555b50565b6001600160a01b03811660009081526005602052604081205480610a6e5750600092915050565b6000610a85600154436108f990919063ffffffff16565b90506301312d00610ab6437f00000000000000000000000000000000000000000000000000000000000000006108f9565b1115610afb57600154610af890610aed907f00000000000000000000000000000000000000000000000000000000000000006108f9565b6301312d00906108f9565b90505b610b0e82674563918244f4000083610cf6565b949350505050565b600060025411610b235750565b6001600160a01b03811660009081526005602052604090205480610b45575050565b6000610b5c600154436108f990919063ffffffff16565b90506301312d00610b8d437f00000000000000000000000000000000000000000000000000000000000000006108f9565b1115610bc757600154610bc490610aed907f00000000000000000000000000000000000000000000000000000000000000006108f9565b90505b6000610bdc83674563918244f4000084610cf6565b6001600160a01b038516600090815260046020526040902054909150610c0290826109b2565b6001600160a01b03909416600090815260046020526040902093909355505050565b6000610c79826040518060400160405280602081526020017f5361666545524332303a206c6f772d6c6576656c2063616c6c206661696c6564815250856001600160a01b0316610d459092919063ffffffff16565b80519091501561096f5780806020019051810190610c979190610fea565b61096f5760405162461bcd60e51b815260206004820152602a60248201527f5361666545524332303a204552433230206f7065726174696f6e20646964206e6044820152691bdd081cdd58d8d9595960b21b6064820152608401610288565b600080610d1d600354610d1764e8d4a5100088610d5490919063ffffffff16565b90610d60565b9050610d3c83610d3664e8d4a51000610d178589610d54565b90610d54565b95945050505050565b6060610b0e8484600085610d6c565b6000610905828461100c565b6000610905828461102b565b606082471015610dcd5760405162461bcd60e51b815260206004820152602660248201527f416464726573733a20696e73756666696369656e742062616c616e636520666f6044820152651c8818d85b1b60d21b6064820152608401610288565b6001600160a01b0385163b610e245760405162461bcd60e51b815260206004820152601d60248201527f416464726573733a2063616c6c20746f206e6f6e2d636f6e74726163740000006044820152606401610288565b600080866001600160a01b03168587604051610e409190611079565b60006040518083038185875af1925050503d8060008114610e7d576040519150601f19603f3d011682016040523d82523d6000602084013e610e82565b606091505b5091509150610e92828286610e9d565b979650505050505050565b60608315610eac575081610905565b825115610ebc5782518084602001fd5b8160405162461bcd60e51b81526004016102889190611095565b600060208284031215610ee857600080fd5b81356001600160a01b038116811461090557600080fd5b600060208284031215610f1157600080fd5b5035919050565b60208082526023908201527f61646472657373206861736e2774207374616b6520616e7920746f6b656e73206040820152621e595d60ea1b606082015260800190565b600060208284031215610f6d57600080fd5b5051919050565b634e487b7160e01b600052603260045260246000fd5b634e487b7160e01b600052601160045260246000fd5b6000600019821415610fb457610fb4610f8a565b5060010190565b600082821015610fcd57610fcd610f8a565b500390565b60008219821115610fe557610fe5610f8a565b500190565b600060208284031215610ffc57600080fd5b8151801515811461090557600080fd5b600081600019048311821515161561102657611026610f8a565b500290565b60008261104857634e487b7160e01b600052601260045260246000fd5b500490565b60005b83811015611068578181015183820152602001611050565b838111156109ac5750506000910152565b6000825161108b81846020870161104d565b9190910192915050565b60208152600082518060208401526110b481604085016020870161104d565b601f01601f1916919091016040019291505056fea2646970667358221220800762ff8c52cc0d7fbe48f77cab273c50d7d09f0f35777eee2b211afef9286064736f6c634300080a0033",
  "linkReferences": {},
  "deployedLinkReferences": {}
}