{
  "_format": "hh-sol-artifact-1",
  "contractName": "LiquidityPoolRewards",
  "sourceName": "contracts/LiquidityPoolRewards.sol",
  "abi": [
    {
      "inputs": [
        {
          "internalType": "address",
          "name": "_OGUNToken",
          "type": "address"
        },
        {
          "internalType": "address",
          "name": "_lpToken",
          "type": "address"
        },
        {
          "internalType": "uint256",
          "name": "_rewardsSupply",
          "type": "uint256"
        }
      ],
      "stateMutability": "nonpayable",
      "type": "constructor"
    },
    {
      "anonymous": false,
      "inputs": [
        {
          "indexed": false,
          "internalType": "uint256",
          "name": "amount",
          "type": "uint256"
        }
      ],
      "name": "RewardsCalculated",
      "type": "event"
    },
    {
      "anonymous": false,
      "inputs": [
        {
          "indexed": false,
          "internalType": "uint256",
          "name": "balance",
          "type": "uint256"
        },
        {
          "indexed": false,
          "internalType": "uint256",
          "name": "rewards",
          "type": "uint256"
        },
        {
          "indexed": false,
          "internalType": "address",
          "name": "account",
          "type": "address"
        }
      ],
      "name": "RewardsCalculatedOf",
      "type": "event"
    },
    {
      "anonymous": false,
      "inputs": [
        {
          "indexed": true,
          "internalType": "address",
          "name": "user",
          "type": "address"
        },
        {
          "indexed": false,
          "internalType": "uint256",
          "name": "amount",
          "type": "uint256"
        }
      ],
      "name": "Stake",
      "type": "event"
    },
    {
      "anonymous": false,
      "inputs": [
        {
          "indexed": true,
          "internalType": "address",
          "name": "user",
          "type": "address"
        },
        {
          "indexed": false,
          "internalType": "uint256",
          "name": "lpAmount",
          "type": "uint256"
        },
        {
          "indexed": false,
          "internalType": "uint256",
          "name": "rewardsAmount",
          "type": "uint256"
        }
      ],
      "name": "Withdraw",
      "type": "event"
    },
    {
      "inputs": [],
      "name": "OGUNToken",
      "outputs": [
        {
          "internalType": "contract IERC20",
          "name": "",
          "type": "address"
        }
      ],
      "stateMutability": "view",
      "type": "function"
    },
    {
      "inputs": [],
      "name": "OGUN_PRECISION_FACTOR",
      "outputs": [
        {
          "internalType": "uint256",
          "name": "",
          "type": "uint256"
        }
      ],
      "stateMutability": "view",
      "type": "function"
    },
    {
      "inputs": [],
      "name": "REWARDS_RATE",
      "outputs": [
        {
          "internalType": "uint256",
          "name": "",
          "type": "uint256"
        }
      ],
      "stateMutability": "view",
      "type": "function"
    },
    {
      "inputs": [],
      "name": "firstBlockNumber",
      "outputs": [
        {
          "internalType": "uint256",
          "name": "",
          "type": "uint256"
        }
      ],
      "stateMutability": "view",
      "type": "function"
    },
    {
      "inputs": [],
      "name": "getAddressesSize",
      "outputs": [
        {
          "internalType": "uint256",
          "name": "",
          "type": "uint256"
        }
      ],
      "stateMutability": "view",
      "type": "function"
    },
    {
      "inputs": [
        {
          "internalType": "address",
          "name": "_account",
          "type": "address"
        }
      ],
      "name": "getLastCalculatedBalanceOf",
      "outputs": [
        {
          "internalType": "uint256",
          "name": "",
          "type": "uint256"
        },
        {
          "internalType": "uint256",
          "name": "",
          "type": "uint256"
        }
      ],
      "stateMutability": "view",
      "type": "function"
    },
    {
      "inputs": [
        {
          "internalType": "address",
          "name": "_account",
          "type": "address"
        }
      ],
      "name": "getUpdatedBalanceOf",
      "outputs": [
        {
          "internalType": "uint256",
          "name": "",
          "type": "uint256"
        },
        {
          "internalType": "uint256",
          "name": "",
          "type": "uint256"
        }
      ],
      "stateMutability": "nonpayable",
      "type": "function"
    },
    {
      "inputs": [],
      "name": "lpToken",
      "outputs": [
        {
          "internalType": "contract IERC20",
          "name": "",
          "type": "address"
        }
      ],
      "stateMutability": "view",
      "type": "function"
    },
    {
      "inputs": [
        {
          "internalType": "uint256",
          "name": "_amount",
          "type": "uint256"
        }
      ],
      "name": "stake",
      "outputs": [],
      "stateMutability": "nonpayable",
      "type": "function"
    },
    {
      "inputs": [],
      "name": "updateReward",
      "outputs": [],
      "stateMutability": "nonpayable",
      "type": "function"
    },
    {
      "inputs": [],
      "name": "withdraw",
      "outputs": [],
      "stateMutability": "nonpayable",
      "type": "function"
    }
  ],
  "bytecode": "0x60e060405234801561001057600080fd5b506040516110d43803806110d483398101604081905261002f9161006f565b60016000556001600160a01b03928316608052911660a0526002554360c0526100ab565b80516001600160a01b038116811461006a57600080fd5b919050565b60008060006060848603121561008457600080fd5b61008d84610053565b925061009b60208501610053565b9150604084015190509250925092565b60805160a05160c051610fca61010a600039600081816101a8015281816105c70152818161077b01528181610a1f0152610a4c01526000818160ea01528181610333015261068801526000818161016901526103670152610fca6000f3fe608060405234801561001057600080fd5b50600436106100a95760003560e01c8063a694fc3a11610071578063a694fc3a14610151578063a770da2014610164578063af7807e11461018b578063b96891e51461019b578063ce3a763c146101a3578063f36c0a72146101ca57600080fd5b80633ccfd60b146100ae57806345a7b39c146100b85780635fcbd285146100e557806376c58ebc146101245780639b96eece1461013e575b600080fd5b6100b66101d2565b005b6100cb6100c6366004610da2565b6103d3565b604080519283526020830191909152015b60405180910390f35b61010c7f000000000000000000000000000000000000000000000000000000000000000081565b6040516001600160a01b0390911681526020016100dc565b61013064e8d4a5100081565b6040519081526020016100dc565b6100cb61014c366004610da2565b6104a6565b6100b661015f366004610dcb565b61050d565b61010c7f000000000000000000000000000000000000000000000000000000000000000081565b6101306801158e460913d0000081565b600954610130565b6101307f000000000000000000000000000000000000000000000000000000000000000081565b6100b6610753565b6002600054141561022a5760405162461bcd60e51b815260206004820152601f60248201527f5265656e7472616e637947756172643a207265656e7472616e742063616c6c0060448201526064015b60405180910390fd5b6002600090815533808252600860205260409091205460ff1661025f5760405162461bcd60e51b815260040161022190610de4565b61026761075d565b33600090815260076020908152604080832054600690925290912054816102c75760405162461bcd60e51b8152602060048201526014602482015273043757272656e742062616c616e636520697320360641b6044820152606401610221565b6002548111156102d657506002545b3360009081526007602090815260408083208390556006909152812081905560048054849290610307908490610e3d565b9250508190555080600260008282546103209190610e3d565b9091555061035a90506001600160a01b037f00000000000000000000000000000000000000000000000000000000000000001633846108a6565b61038e6001600160a01b037f00000000000000000000000000000000000000000000000000000000000000001633836108a6565b604080518381526020810183905233917ff279e6a1f5e320cca91135676d9cb6e44ca8a08c0b88342bcdb1144f6511b568910160405180910390a25050600160005550565b6001600160a01b0381166000908152600860205260408120548190839060ff1661040f5760405162461bcd60e51b815260040161022190610de4565b61041761075d565b6001600160a01b0384166000818152600760209081526040808320546006835292819020548151938452918301919091528101919091527fc2fd675b9bc91fa8974355d8b234966cbb3aabac8a22d3c08279ce63fb2bc5ca9060600160405180910390a15050506001600160a01b03166000908152600760209081526040808320546006909252909120549091565b6001600160a01b0381166000908152600860205260408120548190839060ff166104e25760405162461bcd60e51b815260040161022190610de4565b5050506001600160a01b03166000908152600760209081526040808320546006909252909120549091565b600260005414156105605760405162461bcd60e51b815260206004820152601f60248201527f5265656e7472616e637947756172643a207265656e7472616e742063616c6c006044820152606401610221565b6002600055806105be5760405162461bcd60e51b8152602060048201526024808201527f5374616b653a20416d6f756e74206d75737420626520677265617465722074686044820152630616e20360e41b6064820152608401610221565b620f42406105ec7f000000000000000000000000000000000000000000000000000000000000000043610e3d565b1061067b5760405162461bcd60e51b815260206004820152605360248201527f54686973206c697175696469747920706f6f6c207374616b652068617320656e60448201527f6465642e20596f752063616e20776974686472617720696e2063617365206f6660648201527220616e79206163746976652062616c616e636560681b608482015260a401610221565b6106b06001600160a01b037f00000000000000000000000000000000000000000000000000000000000000001633308461090e565b6106b861075d565b80600460008282546106ca9190610e54565b9250508190555080600260008282546106e39190610e54565b90915550503360009081526007602052604081208054839290610707908490610e54565b9091555061071690503361094c565b60405181815233907febedb8b3c678666e7f36970bc8f57abf6d8fa2e828c0da91ea5b75bf68ed101a9060200160405180910390a2506001600055565b61075b61075d565b565b600154431161076857565b6001546107755743600155565b620f42407f00000000000000000000000000000000000000000000000000000000000000006001546107a79190610e3d565b11156107af57565b6000600454116107bb57565b60005b306001600160a01b031663b96891e56040518163ffffffff1660e01b8152600401602060405180830381865afa1580156107fc573d6000803e3d6000fd5b505050506040513d601f19601f820116820180604052508101906108209190610e6c565b811015610869576108576009828154811061083d5761083d610e85565b6000918252602090912001546001600160a01b03166109d5565b8061086181610e9b565b9150506107be565b50436001556004546040519081527f9f80903d8a397edd2acd2d5f9d8b9641fe6add91c324d935c687cbf80da4a4e99060200160405180910390a1565b6040516001600160a01b03831660248201526044810182905261090990849063a9059cbb60e01b906064015b60408051601f198184030181529190526020810180516001600160e01b03166001600160e01b031990931692909217909152610aef565b505050565b6040516001600160a01b03808516602483015283166044820152606481018290526109469085906323b872dd60e01b906084016108d2565b50505050565b6001600160a01b03811660009081526008602052604090205460ff166109d2576001600160a01b0381166000818152600860205260408120805460ff191660019081179091556009805491820181559091527f6e1540171b6c0c960b71a7020d9f60077f6af931a8bbf590da0223dacf75c7af0180546001600160a01b03191690911790555b50565b6000600254116109e25750565b6001600160a01b03811660009081526007602052604090205480610a04575050565b600060015443610a149190610e3d565b9050620f4240610a447f000000000000000000000000000000000000000000000000000000000000000043610e3d565b1115610a88577f0000000000000000000000000000000000000000000000000000000000000000600154610a789190610e3d565b610a8590620f4240610e3d565b90505b6000610a9e836801158e460913d0000084610bc1565b6001600160a01b038516600090815260066020526040812080549293508392909190610acb908490610e54565b925050819055508060036000828254610ae49190610e54565b909155505050505050565b6000610b44826040518060400160405280602081526020017f5361666545524332303a206c6f772d6c6576656c2063616c6c206661696c6564815250856001600160a01b0316610c129092919063ffffffff16565b8051909150156109095780806020019051810190610b629190610eb6565b6109095760405162461bcd60e51b815260206004820152602a60248201527f5361666545524332303a204552433230206f7065726174696f6e20646964206e6044820152691bdd081cdd58d8d9595960b21b6064820152608401610221565b600080610be8600454610be264e8d4a5100088610c2990919063ffffffff16565b90610c35565b9050610c0783610c0164e8d4a51000610be28589610c29565b90610c29565b9150505b9392505050565b6060610c218484600085610c41565b949350505050565b6000610c0b8284610ed8565b6000610c0b8284610ef7565b606082471015610ca25760405162461bcd60e51b815260206004820152602660248201527f416464726573733a20696e73756666696369656e742062616c616e636520666f6044820152651c8818d85b1b60d21b6064820152608401610221565b843b610cf05760405162461bcd60e51b815260206004820152601d60248201527f416464726573733a2063616c6c20746f206e6f6e2d636f6e74726163740000006044820152606401610221565b600080866001600160a01b03168587604051610d0c9190610f45565b60006040518083038185875af1925050503d8060008114610d49576040519150601f19603f3d011682016040523d82523d6000602084013e610d4e565b606091505b5091509150610d5e828286610d69565b979650505050505050565b60608315610d78575081610c0b565b825115610d885782518084602001fd5b8160405162461bcd60e51b81526004016102219190610f61565b600060208284031215610db457600080fd5b81356001600160a01b0381168114610c0b57600080fd5b600060208284031215610ddd57600080fd5b5035919050565b60208082526023908201527f61646472657373206861736e2774207374616b6520616e7920746f6b656e73206040820152621e595d60ea1b606082015260800190565b634e487b7160e01b600052601160045260246000fd5b600082821015610e4f57610e4f610e27565b500390565b60008219821115610e6757610e67610e27565b500190565b600060208284031215610e7e57600080fd5b5051919050565b634e487b7160e01b600052603260045260246000fd5b6000600019821415610eaf57610eaf610e27565b5060010190565b600060208284031215610ec857600080fd5b81518015158114610c0b57600080fd5b6000816000190483118215151615610ef257610ef2610e27565b500290565b600082610f1457634e487b7160e01b600052601260045260246000fd5b500490565b60005b83811015610f34578181015183820152602001610f1c565b838111156109465750506000910152565b60008251610f57818460208701610f19565b9190910192915050565b6020815260008251806020840152610f80816040850160208701610f19565b601f01601f1916919091016040019291505056fea2646970667358221220f4ed00f5c3d2710032c601a94742b36fc487fb321ffd5426f6a61561ef243ac364736f6c634300080a0033",
  "linkReferences": {},
  "deployedLinkReferences": {}
}