{
  "_format": "hh-sol-artifact-1",
  "contractName": "LiquidityPoolRewards",
  "sourceName": "contracts/LiquidityPoolRewards.sol",
  "abi": [
    {
      "inputs": [
        {
          "internalType": "address",
          "name": "_OGUNToken",
          "type": "address"
        },
        {
          "internalType": "address",
          "name": "_lpToken",
          "type": "address"
        },
        {
          "internalType": "uint256",
          "name": "_rewardsSupply",
          "type": "uint256"
        }
      ],
      "stateMutability": "nonpayable",
      "type": "constructor"
    },
    {
      "anonymous": false,
      "inputs": [
        {
          "indexed": false,
          "internalType": "uint256",
          "name": "amount",
          "type": "uint256"
        }
      ],
      "name": "RewardsCalculated",
      "type": "event"
    },
    {
      "anonymous": false,
      "inputs": [
        {
          "indexed": false,
          "internalType": "uint256",
          "name": "balance",
          "type": "uint256"
        },
        {
          "indexed": false,
          "internalType": "uint256",
          "name": "rewards",
          "type": "uint256"
        },
        {
          "indexed": false,
          "internalType": "address",
          "name": "account",
          "type": "address"
        }
      ],
      "name": "RewardsCalculatedOf",
      "type": "event"
    },
    {
      "anonymous": false,
      "inputs": [
        {
          "indexed": true,
          "internalType": "address",
          "name": "user",
          "type": "address"
        },
        {
          "indexed": false,
          "internalType": "uint256",
          "name": "amount",
          "type": "uint256"
        }
      ],
      "name": "Stake",
      "type": "event"
    },
    {
      "anonymous": false,
      "inputs": [
        {
          "indexed": true,
          "internalType": "address",
          "name": "user",
          "type": "address"
        },
        {
          "indexed": false,
          "internalType": "uint256",
          "name": "lpAmount",
          "type": "uint256"
        },
        {
          "indexed": false,
          "internalType": "uint256",
          "name": "rewardsAmount",
          "type": "uint256"
        }
      ],
      "name": "Withdraw",
      "type": "event"
    },
    {
      "inputs": [],
      "name": "OGUNToken",
      "outputs": [
        {
          "internalType": "contract IERC20",
          "name": "",
          "type": "address"
        }
      ],
      "stateMutability": "view",
      "type": "function"
    },
    {
      "inputs": [],
      "name": "OGUN_PRECISION_FACTOR",
      "outputs": [
        {
          "internalType": "uint256",
          "name": "",
          "type": "uint256"
        }
      ],
      "stateMutability": "view",
      "type": "function"
    },
    {
      "inputs": [],
      "name": "REWARDS_RATE",
      "outputs": [
        {
          "internalType": "uint256",
          "name": "",
          "type": "uint256"
        }
      ],
      "stateMutability": "view",
      "type": "function"
    },
    {
      "inputs": [],
      "name": "firstBlockNumber",
      "outputs": [
        {
          "internalType": "uint256",
          "name": "",
          "type": "uint256"
        }
      ],
      "stateMutability": "view",
      "type": "function"
    },
    {
      "inputs": [],
      "name": "getAddressesSize",
      "outputs": [
        {
          "internalType": "uint256",
          "name": "",
          "type": "uint256"
        }
      ],
      "stateMutability": "view",
      "type": "function"
    },
    {
      "inputs": [
        {
          "internalType": "address",
          "name": "_account",
          "type": "address"
        }
      ],
      "name": "getBalanceOf",
      "outputs": [
        {
          "internalType": "uint256",
          "name": "",
          "type": "uint256"
        },
        {
          "internalType": "uint256",
          "name": "",
          "type": "uint256"
        }
      ],
      "stateMutability": "view",
      "type": "function"
    },
    {
      "inputs": [
        {
          "internalType": "address",
          "name": "_user",
          "type": "address"
        }
      ],
      "name": "getReward",
      "outputs": [
        {
          "internalType": "uint256",
          "name": "reward",
          "type": "uint256"
        }
      ],
      "stateMutability": "view",
      "type": "function"
    },
    {
      "inputs": [
        {
          "internalType": "address",
          "name": "_account",
          "type": "address"
        }
      ],
      "name": "getUpdatedBalanceOf",
      "outputs": [
        {
          "internalType": "uint256",
          "name": "",
          "type": "uint256"
        },
        {
          "internalType": "uint256",
          "name": "",
          "type": "uint256"
        }
      ],
      "stateMutability": "nonpayable",
      "type": "function"
    },
    {
      "inputs": [],
      "name": "lpToken",
      "outputs": [
        {
          "internalType": "contract IERC20",
          "name": "",
          "type": "address"
        }
      ],
      "stateMutability": "view",
      "type": "function"
    },
    {
      "inputs": [
        {
          "internalType": "uint256",
          "name": "_amount",
          "type": "uint256"
        }
      ],
      "name": "stake",
      "outputs": [],
      "stateMutability": "nonpayable",
      "type": "function"
    },
    {
      "inputs": [],
      "name": "totalLpStaked",
      "outputs": [
        {
          "internalType": "uint256",
          "name": "",
          "type": "uint256"
        }
      ],
      "stateMutability": "view",
      "type": "function"
    },
    {
      "inputs": [],
      "name": "updateReward",
      "outputs": [],
      "stateMutability": "nonpayable",
      "type": "function"
    },
    {
      "inputs": [],
      "name": "withdraw",
      "outputs": [],
      "stateMutability": "nonpayable",
      "type": "function"
    }
  ],
  "bytecode": "0x60e060405234801561001057600080fd5b506040516111c73803806111c783398101604081905261002f9161006f565b60016000556001600160a01b03928316608052911660a0526002554360c0526100ab565b80516001600160a01b038116811461006a57600080fd5b919050565b60008060006060848603121561008457600080fd5b61008d84610053565b925061009b60208501610053565b9150604084015190509250925092565b60805160a05160c0516110ae610119600039600081816101ea01528181610609015281816107b501528181610a5501528181610a8201528181610b240152610b510152600081816101100152818161037501526106ca01526000818161019801526103a901526110ae6000f3fe608060405234801561001057600080fd5b50600436106100cf5760003560e01c8063a694fc3a1161008c578063b96891e511610066578063b96891e5146101ca578063c00007b0146101d2578063ce3a763c146101e5578063f36c0a721461020c57600080fd5b8063a694fc3a14610180578063a770da2014610193578063af7807e1146101ba57600080fd5b80633ccfd60b146100d457806345a7b39c146100de5780635fcbd2851461010b57806376c58ebc1461014a578063983d90b4146101645780639b96eece1461016d575b600080fd5b6100dc610214565b005b6100f16100ec366004610e86565b610415565b604080519283526020830191909152015b60405180910390f35b6101327f000000000000000000000000000000000000000000000000000000000000000081565b6040516001600160a01b039091168152602001610102565b61015664e8d4a5100081565b604051908152602001610102565b61015660035481565b6100f161017b366004610e86565b6104e8565b6100dc61018e366004610eaf565b61054f565b6101327f000000000000000000000000000000000000000000000000000000000000000081565b6101566801158e460913d0000081565b600754610156565b6101566101e0366004610e86565b61077c565b6101567f000000000000000000000000000000000000000000000000000000000000000081565b6100dc61078d565b6002600054141561026c5760405162461bcd60e51b815260206004820152601f60248201527f5265656e7472616e637947756172643a207265656e7472616e742063616c6c0060448201526064015b60405180910390fd5b6002600090815533808252600660205260409091205460ff166102a15760405162461bcd60e51b815260040161026390610ec8565b6102a9610797565b33600090815260056020908152604080832054600490925290912054816103095760405162461bcd60e51b8152602060048201526014602482015273043757272656e742062616c616e636520697320360641b6044820152606401610263565b60025481111561031857506002545b3360009081526005602090815260408083208390556004909152812081905560038054849290610349908490610f21565b9250508190555080600260008282546103629190610f21565b9091555061039c90506001600160a01b037f00000000000000000000000000000000000000000000000000000000000000001633846108e4565b6103d06001600160a01b037f00000000000000000000000000000000000000000000000000000000000000001633836108e4565b604080518381526020810183905233917ff279e6a1f5e320cca91135676d9cb6e44ca8a08c0b88342bcdb1144f6511b568910160405180910390a25050600160005550565b6001600160a01b0381166000908152600660205260408120548190839060ff166104515760405162461bcd60e51b815260040161026390610ec8565b610459610797565b6001600160a01b0384166000818152600560209081526040808320546004835292819020548151938452918301919091528101919091527fc2fd675b9bc91fa8974355d8b234966cbb3aabac8a22d3c08279ce63fb2bc5ca9060600160405180910390a15050506001600160a01b03166000908152600560209081526040808320546004909252909120549091565b6001600160a01b0381166000908152600660205260408120548190839060ff166105245760405162461bcd60e51b815260040161026390610ec8565b5050506001600160a01b03166000908152600560209081526040808320546004909252909120549091565b600260005414156105a25760405162461bcd60e51b815260206004820152601f60248201527f5265656e7472616e637947756172643a207265656e7472616e742063616c6c006044820152606401610263565b6002600055806106005760405162461bcd60e51b8152602060048201526024808201527f5374616b653a20416d6f756e74206d75737420626520677265617465722074686044820152630616e20360e41b6064820152608401610263565b620f424061062e7f000000000000000000000000000000000000000000000000000000000000000043610f21565b106106bd5760405162461bcd60e51b815260206004820152605360248201527f54686973206c697175696469747920706f6f6c207374616b652068617320656e60448201527f6465642e20596f752063616e20776974686472617720696e2063617365206f6660648201527220616e79206163746976652062616c616e636560681b608482015260a401610263565b6106f26001600160a01b037f00000000000000000000000000000000000000000000000000000000000000001633308461094c565b6106fa610797565b806003600082825461070c9190610f38565b90915550503360009081526005602052604081208054839290610730908490610f38565b9091555061073f90503361098a565b60405181815233907febedb8b3c678666e7f36970bc8f57abf6d8fa2e828c0da91ea5b75bf68ed101a9060200160405180910390a2506001600055565b600061078782610a13565b92915050565b610795610797565b565b60015443116107a257565b6001546107af5743600155565b620f42407f00000000000000000000000000000000000000000000000000000000000000006001546107e19190610f21565b11156107e957565b6000600354116107f95743600155565b60005b306001600160a01b031663b96891e56040518163ffffffff1660e01b8152600401602060405180830381865afa15801561083a573d6000803e3d6000fd5b505050506040513d601f19601f8201168201806040525081019061085e9190610f50565b8110156108a7576108956007828154811061087b5761087b610f69565b6000918252602090912001546001600160a01b0316610ada565b8061089f81610f7f565b9150506107fc565b50436001556003546040519081527f9f80903d8a397edd2acd2d5f9d8b9641fe6add91c324d935c687cbf80da4a4e99060200160405180910390a1565b6040516001600160a01b03831660248201526044810182905261094790849063a9059cbb60e01b906064015b60408051601f198184030181529190526020810180516001600160e01b03166001600160e01b031990931692909217909152610bdb565b505050565b6040516001600160a01b03808516602483015283166044820152606481018290526109849085906323b872dd60e01b90608401610910565b50505050565b6001600160a01b03811660009081526006602052604090205460ff16610a10576001600160a01b0381166000818152600660205260408120805460ff191660019081179091556007805491820181559091527fa66cc928b5edb82af9bd49922954155ab7b0942694bea4ce44661d9a8736c6880180546001600160a01b03191690911790555b50565b6001600160a01b03811660009081526005602052604081205480610a3a5750600092915050565b600060015443610a4a9190610f21565b9050620f4240610a7a7f000000000000000000000000000000000000000000000000000000000000000043610f21565b1115610abe577f0000000000000000000000000000000000000000000000000000000000000000600154610aae9190610f21565b610abb90620f4240610f21565b90505b610ad2826801158e460913d0000083610cad565b949350505050565b600060025411610ae75750565b6001600160a01b03811660009081526005602052604090205480610b09575050565b600060015443610b199190610f21565b9050620f4240610b497f000000000000000000000000000000000000000000000000000000000000000043610f21565b1115610b8d577f0000000000000000000000000000000000000000000000000000000000000000600154610b7d9190610f21565b610b8a90620f4240610f21565b90505b6000610ba3836801158e460913d0000084610cad565b6001600160a01b038516600090815260046020526040812080549293508392909190610bd0908490610f38565b909155505050505050565b6000610c30826040518060400160405280602081526020017f5361666545524332303a206c6f772d6c6576656c2063616c6c206661696c6564815250856001600160a01b0316610cfe9092919063ffffffff16565b8051909150156109475780806020019051810190610c4e9190610f9a565b6109475760405162461bcd60e51b815260206004820152602a60248201527f5361666545524332303a204552433230206f7065726174696f6e20646964206e6044820152691bdd081cdd58d8d9595960b21b6064820152608401610263565b600080610cd4600354610cce64e8d4a5100088610d0d90919063ffffffff16565b90610d19565b9050610cf383610ced64e8d4a51000610cce8589610d0d565b90610d0d565b9150505b9392505050565b6060610ad28484600085610d25565b6000610cf78284610fbc565b6000610cf78284610fdb565b606082471015610d865760405162461bcd60e51b815260206004820152602660248201527f416464726573733a20696e73756666696369656e742062616c616e636520666f6044820152651c8818d85b1b60d21b6064820152608401610263565b843b610dd45760405162461bcd60e51b815260206004820152601d60248201527f416464726573733a2063616c6c20746f206e6f6e2d636f6e74726163740000006044820152606401610263565b600080866001600160a01b03168587604051610df09190611029565b60006040518083038185875af1925050503d8060008114610e2d576040519150601f19603f3d011682016040523d82523d6000602084013e610e32565b606091505b5091509150610e42828286610e4d565b979650505050505050565b60608315610e5c575081610cf7565b825115610e6c5782518084602001fd5b8160405162461bcd60e51b81526004016102639190611045565b600060208284031215610e9857600080fd5b81356001600160a01b0381168114610cf757600080fd5b600060208284031215610ec157600080fd5b5035919050565b60208082526023908201527f61646472657373206861736e2774207374616b6520616e7920746f6b656e73206040820152621e595d60ea1b606082015260800190565b634e487b7160e01b600052601160045260246000fd5b600082821015610f3357610f33610f0b565b500390565b60008219821115610f4b57610f4b610f0b565b500190565b600060208284031215610f6257600080fd5b5051919050565b634e487b7160e01b600052603260045260246000fd5b6000600019821415610f9357610f93610f0b565b5060010190565b600060208284031215610fac57600080fd5b81518015158114610cf757600080fd5b6000816000190483118215151615610fd657610fd6610f0b565b500290565b600082610ff857634e487b7160e01b600052601260045260246000fd5b500490565b60005b83811015611018578181015183820152602001611000565b838111156109845750506000910152565b6000825161103b818460208701610ffd565b9190910192915050565b6020815260008251806020840152611064816040850160208701610ffd565b601f01601f1916919091016040019291505056fea2646970667358221220b875ed2133f781aa86fedd4fcd127f419acbe08aa82baaff3d100c85e2f1268864736f6c634300080a0033",
  "linkReferences": {},
  "deployedLinkReferences": {}
}