{
  "_format": "hh-sol-artifact-1",
  "contractName": "SoundchainCollectible",
  "sourceName": "contract/SoundchainCollectible.sol",
  "abi": [
    {
      "inputs": [],
      "stateMutability": "nonpayable",
      "type": "constructor"
    },
    {
      "anonymous": false,
      "inputs": [
        {
          "indexed": true,
          "internalType": "address",
          "name": "owner",
          "type": "address"
        },
        {
          "indexed": true,
          "internalType": "address",
          "name": "approved",
          "type": "address"
        },
        {
          "indexed": true,
          "internalType": "uint256",
          "name": "tokenId",
          "type": "uint256"
        }
      ],
      "name": "Approval",
      "type": "event"
    },
    {
      "anonymous": false,
      "inputs": [
        {
          "indexed": true,
          "internalType": "address",
          "name": "owner",
          "type": "address"
        },
        {
          "indexed": true,
          "internalType": "address",
          "name": "operator",
          "type": "address"
        },
        {
          "indexed": false,
          "internalType": "bool",
          "name": "approved",
          "type": "bool"
        }
      ],
      "name": "ApprovalForAll",
      "type": "event"
    },
    {
      "anonymous": false,
      "inputs": [
        {
          "indexed": true,
          "internalType": "address",
          "name": "previousOwner",
          "type": "address"
        },
        {
          "indexed": true,
          "internalType": "address",
          "name": "newOwner",
          "type": "address"
        }
      ],
      "name": "OwnershipTransferred",
      "type": "event"
    },
    {
      "anonymous": false,
      "inputs": [
        {
          "indexed": true,
          "internalType": "address",
          "name": "from",
          "type": "address"
        },
        {
          "indexed": true,
          "internalType": "address",
          "name": "to",
          "type": "address"
        },
        {
          "indexed": true,
          "internalType": "uint256",
          "name": "tokenId",
          "type": "uint256"
        }
      ],
      "name": "Transfer",
      "type": "event"
    },
    {
      "inputs": [
        {
          "internalType": "address",
          "name": "to",
          "type": "address"
        },
        {
          "internalType": "uint256",
          "name": "tokenId",
          "type": "uint256"
        }
      ],
      "name": "approve",
      "outputs": [],
      "stateMutability": "nonpayable",
      "type": "function"
    },
    {
      "inputs": [
        {
          "internalType": "address",
          "name": "owner",
          "type": "address"
        }
      ],
      "name": "balanceOf",
      "outputs": [
        {
          "internalType": "uint256",
          "name": "",
          "type": "uint256"
        }
      ],
      "stateMutability": "view",
      "type": "function"
    },
    {
      "inputs": [
        {
          "internalType": "uint256",
          "name": "tokenId",
          "type": "uint256"
        }
      ],
      "name": "burn",
      "outputs": [],
      "stateMutability": "nonpayable",
      "type": "function"
    },
    {
      "inputs": [
        {
          "internalType": "uint256",
          "name": "tokenId",
          "type": "uint256"
        }
      ],
      "name": "getApproved",
      "outputs": [
        {
          "internalType": "address",
          "name": "",
          "type": "address"
        }
      ],
      "stateMutability": "view",
      "type": "function"
    },
    {
      "inputs": [
        {
          "internalType": "address",
          "name": "owner",
          "type": "address"
        },
        {
          "internalType": "address",
          "name": "operator",
          "type": "address"
        }
      ],
      "name": "isApprovedForAll",
      "outputs": [
        {
          "internalType": "bool",
          "name": "",
          "type": "bool"
        }
      ],
      "stateMutability": "view",
      "type": "function"
    },
    {
      "inputs": [],
      "name": "name",
      "outputs": [
        {
          "internalType": "string",
          "name": "",
          "type": "string"
        }
      ],
      "stateMutability": "view",
      "type": "function"
    },
    {
      "inputs": [],
      "name": "owner",
      "outputs": [
        {
          "internalType": "address",
          "name": "",
          "type": "address"
        }
      ],
      "stateMutability": "view",
      "type": "function"
    },
    {
      "inputs": [
        {
          "internalType": "uint256",
          "name": "tokenId",
          "type": "uint256"
        }
      ],
      "name": "ownerOf",
      "outputs": [
        {
          "internalType": "address",
          "name": "",
          "type": "address"
        }
      ],
      "stateMutability": "view",
      "type": "function"
    },
    {
      "inputs": [],
      "name": "renounceOwnership",
      "outputs": [],
      "stateMutability": "nonpayable",
      "type": "function"
    },
    {
      "inputs": [
        {
          "internalType": "address",
          "name": "to",
          "type": "address"
        },
        {
          "internalType": "string",
          "name": "_tokenURI",
          "type": "string"
        }
      ],
      "name": "safeMint",
      "outputs": [],
      "stateMutability": "nonpayable",
      "type": "function"
    },
    {
      "inputs": [
        {
          "internalType": "address",
          "name": "from",
          "type": "address"
        },
        {
          "internalType": "address",
          "name": "to",
          "type": "address"
        },
        {
          "internalType": "uint256",
          "name": "tokenId",
          "type": "uint256"
        }
      ],
      "name": "safeTransferFrom",
      "outputs": [],
      "stateMutability": "nonpayable",
      "type": "function"
    },
    {
      "inputs": [
        {
          "internalType": "address",
          "name": "from",
          "type": "address"
        },
        {
          "internalType": "address",
          "name": "to",
          "type": "address"
        },
        {
          "internalType": "uint256",
          "name": "tokenId",
          "type": "uint256"
        },
        {
          "internalType": "bytes",
          "name": "_data",
          "type": "bytes"
        }
      ],
      "name": "safeTransferFrom",
      "outputs": [],
      "stateMutability": "nonpayable",
      "type": "function"
    },
    {
      "inputs": [
        {
          "internalType": "address",
          "name": "operator",
          "type": "address"
        },
        {
          "internalType": "bool",
          "name": "approved",
          "type": "bool"
        }
      ],
      "name": "setApprovalForAll",
      "outputs": [],
      "stateMutability": "nonpayable",
      "type": "function"
    },
    {
      "inputs": [
        {
          "internalType": "bytes4",
          "name": "interfaceId",
          "type": "bytes4"
        }
      ],
      "name": "supportsInterface",
      "outputs": [
        {
          "internalType": "bool",
          "name": "",
          "type": "bool"
        }
      ],
      "stateMutability": "view",
      "type": "function"
    },
    {
      "inputs": [],
      "name": "symbol",
      "outputs": [
        {
          "internalType": "string",
          "name": "",
          "type": "string"
        }
      ],
      "stateMutability": "view",
      "type": "function"
    },
    {
      "inputs": [
        {
          "internalType": "uint256",
          "name": "index",
          "type": "uint256"
        }
      ],
      "name": "tokenByIndex",
      "outputs": [
        {
          "internalType": "uint256",
          "name": "",
          "type": "uint256"
        }
      ],
      "stateMutability": "view",
      "type": "function"
    },
    {
      "inputs": [
        {
          "internalType": "address",
          "name": "owner",
          "type": "address"
        },
        {
          "internalType": "uint256",
          "name": "index",
          "type": "uint256"
        }
      ],
      "name": "tokenOfOwnerByIndex",
      "outputs": [
        {
          "internalType": "uint256",
          "name": "",
          "type": "uint256"
        }
      ],
      "stateMutability": "view",
      "type": "function"
    },
    {
      "inputs": [
        {
          "internalType": "uint256",
          "name": "tokenId",
          "type": "uint256"
        }
      ],
      "name": "tokenURI",
      "outputs": [
        {
          "internalType": "string",
          "name": "",
          "type": "string"
        }
      ],
      "stateMutability": "view",
      "type": "function"
    },
    {
      "inputs": [],
      "name": "totalSupply",
      "outputs": [
        {
          "internalType": "uint256",
          "name": "",
          "type": "uint256"
        }
      ],
      "stateMutability": "view",
      "type": "function"
    },
    {
      "inputs": [
        {
          "internalType": "address",
          "name": "from",
          "type": "address"
        },
        {
          "internalType": "address",
          "name": "to",
          "type": "address"
        },
        {
          "internalType": "uint256",
          "name": "tokenId",
          "type": "uint256"
        }
      ],
      "name": "transferFrom",
      "outputs": [],
      "stateMutability": "nonpayable",
      "type": "function"
    },
    {
      "inputs": [
        {
          "internalType": "address",
          "name": "newOwner",
          "type": "address"
        }
      ],
      "name": "transferOwnership",
      "outputs": [],
      "stateMutability": "nonpayable",
      "type": "function"
    }
  ],
  "bytecode": "0x60806040523480156200001157600080fd5b50604080518082018252601581527f536f756e64636861696e436f6c6c65637469626c650000000000000000000000602080830191825283518085019094526002845261534360f01b908401528151919291620000719160009162000100565b5080516200008790600190602084019062000100565b505050620000a46200009e620000aa60201b60201c565b620000ae565b620001e3565b3390565b600b80546001600160a01b038381166001600160a01b0319831681179093556040519116919082907f8be0079c531659141344cd1fd0a4f28419497f9722a3daafe3b4186f6b6457e090600090a35050565b8280546200010e90620001a6565b90600052602060002090601f0160209004810192826200013257600085556200017d565b82601f106200014d57805160ff19168380011785556200017d565b828001600101855582156200017d579182015b828111156200017d57825182559160200191906001019062000160565b506200018b9291506200018f565b5090565b5b808211156200018b576000815560010162000190565b600281046001821680620001bb57607f821691505b60208210811415620001dd57634e487b7160e01b600052602260045260246000fd5b50919050565b611f0c80620001f36000396000f3fe608060405234801561001057600080fd5b50600436106101375760003560e01c80636352211e116100b8578063a22cb4651161007c578063a22cb46514610271578063b88d4fde14610284578063c87b56dd14610297578063d204c45e146102aa578063e985e9c5146102bd578063f2fde38b146102f957610137565b80636352211e1461022a57806370a082311461023d578063715018a6146102505780638da5cb5b1461025857806395d89b411461026957610137565b806323b872dd116100ff57806323b872dd146101cb5780632f745c59146101de57806342842e0e146101f157806342966c68146102045780634f6ccce71461021757610137565b806301ffc9a71461013c57806306fdde0314610164578063081812fc14610179578063095ea7b3146101a457806318160ddd146101b9575b600080fd5b61014f61014a366004611bd2565b61030c565b60405190151581526020015b60405180910390f35b61016c61031f565b60405161015b9190611cba565b61018c610187366004611c0a565b6103b1565b6040516001600160a01b03909116815260200161015b565b6101b76101b2366004611ba9565b61043e565b005b6008545b60405190815260200161015b565b6101b76101d9366004611a5c565b610554565b6101bd6101ec366004611ba9565b610586565b6101b76101ff366004611a5c565b61061c565b6101b7610212366004611c0a565b610637565b6101bd610225366004611c0a565b6106b1565b61018c610238366004611c0a565b610752565b6101bd61024b366004611a10565b6107c9565b6101b7610850565b600b546001600160a01b031661018c565b61016c610886565b6101b761027f366004611b10565b610895565b6101b7610292366004611a97565b610967565b61016c6102a5366004611c0a565b61099f565b6101b76102b8366004611b4a565b6109aa565b61014f6102cb366004611a2a565b6001600160a01b03918216600090815260056020908152604080832093909416825291909152205460ff1690565b6101b7610307366004611a10565b610a03565b600061031782610a9b565b90505b919050565b60606000805461032e90611e14565b80601f016020809104026020016040519081016040528092919081815260200182805461035a90611e14565b80156103a75780601f1061037c576101008083540402835291602001916103a7565b820191906000526020600020905b81548152906001019060200180831161038a57829003601f168201915b5050505050905090565b60006103bc82610ac0565b6104225760405162461bcd60e51b815260206004820152602c60248201527f4552433732313a20617070726f76656420717565727920666f72206e6f6e657860448201526b34b9ba32b73a103a37b5b2b760a11b60648201526084015b60405180910390fd5b506000908152600460205260409020546001600160a01b031690565b600061044982610752565b9050806001600160a01b0316836001600160a01b031614156104b75760405162461bcd60e51b815260206004820152602160248201527f4552433732313a20617070726f76616c20746f2063757272656e74206f776e656044820152603960f91b6064820152608401610419565b336001600160a01b03821614806104d357506104d381336102cb565b6105455760405162461bcd60e51b815260206004820152603860248201527f4552433732313a20617070726f76652063616c6c6572206973206e6f74206f7760448201527f6e6572206e6f7220617070726f76656420666f7220616c6c00000000000000006064820152608401610419565b61054f8383610add565b505050565b61055f335b82610b4b565b61057b5760405162461bcd60e51b815260040161041990611d54565b61054f838383610c35565b6000610591836107c9565b82106105f35760405162461bcd60e51b815260206004820152602b60248201527f455243373231456e756d657261626c653a206f776e657220696e646578206f7560448201526a74206f6620626f756e647360a81b6064820152608401610419565b506001600160a01b03919091166000908152600660209081526040808320938352929052205490565b61054f83838360405180602001604052806000815250610967565b61064033610559565b6106a55760405162461bcd60e51b815260206004820152603060248201527f4552433732314275726e61626c653a2063616c6c6572206973206e6f74206f7760448201526f1b995c881b9bdc88185c1c1c9bdd995960821b6064820152608401610419565b6106ae81610de0565b50565b60006106bc60085490565b821061071f5760405162461bcd60e51b815260206004820152602c60248201527f455243373231456e756d657261626c653a20676c6f62616c20696e646578206f60448201526b7574206f6620626f756e647360a01b6064820152608401610419565b6008828154811061074057634e487b7160e01b600052603260045260246000fd5b90600052602060002001549050919050565b6000818152600260205260408120546001600160a01b0316806103175760405162461bcd60e51b815260206004820152602960248201527f4552433732313a206f776e657220717565727920666f72206e6f6e657869737460448201526832b73a103a37b5b2b760b91b6064820152608401610419565b60006001600160a01b0382166108345760405162461bcd60e51b815260206004820152602a60248201527f4552433732313a2062616c616e636520717565727920666f7220746865207a65604482015269726f206164647265737360b01b6064820152608401610419565b506001600160a01b031660009081526003602052604090205490565b600b546001600160a01b0316331461087a5760405162461bcd60e51b815260040161041990611d1f565b6108846000610de9565b565b60606001805461032e90611e14565b6001600160a01b0382163314156108ee5760405162461bcd60e51b815260206004820152601960248201527f4552433732313a20617070726f766520746f2063616c6c6572000000000000006044820152606401610419565b3360008181526005602090815260408083206001600160a01b0387168085529252909120805460ff1916841515179055906001600160a01b03167f17307eab39ab6107e8899845ad3d59bd9653f200f220920489ca2b5937696c318360405161095b911515815260200190565b60405180910390a35050565b6109713383610b4b565b61098d5760405162461bcd60e51b815260040161041990611d54565b61099984848484610e3b565b50505050565b606061031782610e6e565b600b546001600160a01b031633146109d45760405162461bcd60e51b815260040161041990611d1f565b60006109df600c5490565b90506109eb8382610fde565b6109f58183610ffc565b61054f600c80546001019055565b600b546001600160a01b03163314610a2d5760405162461bcd60e51b815260040161041990611d1f565b6001600160a01b038116610a925760405162461bcd60e51b815260206004820152602660248201527f4f776e61626c653a206e6577206f776e657220697320746865207a65726f206160448201526564647265737360d01b6064820152608401610419565b6106ae81610de9565b60006001600160e01b0319821663780e9d6360e01b1480610317575061031782611087565b6000908152600260205260409020546001600160a01b0316151590565b600081815260046020526040902080546001600160a01b0319166001600160a01b0384169081179091558190610b1282610752565b6001600160a01b03167f8c5be1e5ebec7d5bd14f71427d1e84f3dd0314c0f7b2291e5b200ac8c7c3b92560405160405180910390a45050565b6000610b5682610ac0565b610bb75760405162461bcd60e51b815260206004820152602c60248201527f4552433732313a206f70657261746f7220717565727920666f72206e6f6e657860448201526b34b9ba32b73a103a37b5b2b760a11b6064820152608401610419565b6000610bc283610752565b9050806001600160a01b0316846001600160a01b03161480610bfd5750836001600160a01b0316610bf2846103b1565b6001600160a01b0316145b80610c2d57506001600160a01b0380821660009081526005602090815260408083209388168352929052205460ff165b949350505050565b826001600160a01b0316610c4882610752565b6001600160a01b031614610cb05760405162461bcd60e51b815260206004820152602960248201527f4552433732313a207472616e73666572206f6620746f6b656e2074686174206960448201526839903737ba1037bbb760b91b6064820152608401610419565b6001600160a01b038216610d125760405162461bcd60e51b8152602060048201526024808201527f4552433732313a207472616e7366657220746f20746865207a65726f206164646044820152637265737360e01b6064820152608401610419565b610d1d8383836110d7565b610d28600082610add565b6001600160a01b0383166000908152600360205260408120805460019290610d51908490611dd1565b90915550506001600160a01b0382166000908152600360205260408120805460019290610d7f908490611da5565b909155505060008181526002602052604080822080546001600160a01b0319166001600160a01b0386811691821790925591518493918716917fddf252ad1be2c89b69c2b068fc378daa952ba7f163c4a11628f55a4df523b3ef91a4505050565b6106ae816110e2565b600b80546001600160a01b038381166001600160a01b0319831681179093556040519116919082907f8be0079c531659141344cd1fd0a4f28419497f9722a3daafe3b4186f6b6457e090600090a35050565b610e46848484610c35565b610e5284848484611122565b6109995760405162461bcd60e51b815260040161041990611ccd565b6060610e7982610ac0565b610edf5760405162461bcd60e51b815260206004820152603160248201527f45524337323155524953746f726167653a2055524920717565727920666f72206044820152703737b732bc34b9ba32b73a103a37b5b2b760791b6064820152608401610419565b6000828152600a602052604081208054610ef890611e14565b80601f0160208091040260200160405190810160405280929190818152602001828054610f2490611e14565b8015610f715780601f10610f4657610100808354040283529160200191610f71565b820191906000526020600020905b815481529060010190602001808311610f5457829003601f168201915b505050505090506000610f8f60408051602081019091526000815290565b9050805160001415610fa35750905061031a565b815115610fd5578082604051602001610fbd929190611c4e565b6040516020818303038152906040529250505061031a565b610c2d8461122f565b610ff8828260405180602001604052806000815250611307565b5050565b61100582610ac0565b6110685760405162461bcd60e51b815260206004820152602e60248201527f45524337323155524953746f726167653a2055524920736574206f66206e6f6e60448201526d32bc34b9ba32b73a103a37b5b2b760911b6064820152608401610419565b6000828152600a60209081526040909120825161054f928401906118b2565b60006001600160e01b031982166380ac58cd60e01b14806110b857506001600160e01b03198216635b5e139f60e01b145b8061031757506301ffc9a760e01b6001600160e01b0319831614610317565b61054f83838361133a565b6110eb816113f7565b6000818152600a60205260409020805461110490611e14565b1590506106ae576000818152600a602052604081206106ae91611936565b60006001600160a01b0384163b1561122457604051630a85bd0160e11b81526001600160a01b0385169063150b7a0290611166903390899088908890600401611c7d565b602060405180830381600087803b15801561118057600080fd5b505af19250505080156111b0575060408051601f3d908101601f191682019092526111ad91810190611bee565b60015b61120a573d8080156111de576040519150601f19603f3d011682016040523d82523d6000602084013e6111e3565b606091505b5080516112025760405162461bcd60e51b815260040161041990611ccd565b805181602001fd5b6001600160e01b031916630a85bd0160e11b149050610c2d565b506001949350505050565b606061123a82610ac0565b61129e5760405162461bcd60e51b815260206004820152602f60248201527f4552433732314d657461646174613a2055524920717565727920666f72206e6f60448201526e3732bc34b9ba32b73a103a37b5b2b760891b6064820152608401610419565b60006112b560408051602081019091526000815290565b905060008151116112d55760405180602001604052806000815250611300565b806112df8461149e565b6040516020016112f0929190611c4e565b6040516020818303038152906040525b9392505050565b61131183836115b9565b61131e6000848484611122565b61054f5760405162461bcd60e51b815260040161041990611ccd565b6001600160a01b0383166113955761139081600880546000838152600960205260408120829055600182018355919091527ff3f7a9fe364faab93b216da50a3214154f22a0a2b415b23a84c8169e8b636ee30155565b6113b8565b816001600160a01b0316836001600160a01b0316146113b8576113b883826116f8565b6001600160a01b0382166113d4576113cf81611795565b61054f565b826001600160a01b0316826001600160a01b03161461054f5761054f828261186e565b600061140282610752565b9050611410816000846110d7565b61141b600083610add565b6001600160a01b0381166000908152600360205260408120805460019290611444908490611dd1565b909155505060008281526002602052604080822080546001600160a01b0319169055518391906001600160a01b038416907fddf252ad1be2c89b69c2b068fc378daa952ba7f163c4a11628f55a4df523b3ef908390a45050565b6060816114c357506040805180820190915260018152600360fc1b602082015261031a565b8160005b81156114ed57806114d781611e4f565b91506114e69050600a83611dbd565b91506114c7565b60008167ffffffffffffffff81111561151657634e487b7160e01b600052604160045260246000fd5b6040519080825280601f01601f191660200182016040528015611540576020820181803683370190505b5090505b8415610c2d57611555600183611dd1565b9150611562600a86611e6a565b61156d906030611da5565b60f81b81838151811061159057634e487b7160e01b600052603260045260246000fd5b60200101906001600160f81b031916908160001a9053506115b2600a86611dbd565b9450611544565b6001600160a01b03821661160f5760405162461bcd60e51b815260206004820181905260248201527f4552433732313a206d696e7420746f20746865207a65726f20616464726573736044820152606401610419565b61161881610ac0565b156116655760405162461bcd60e51b815260206004820152601c60248201527f4552433732313a20746f6b656e20616c7265616479206d696e746564000000006044820152606401610419565b611671600083836110d7565b6001600160a01b038216600090815260036020526040812080546001929061169a908490611da5565b909155505060008181526002602052604080822080546001600160a01b0319166001600160a01b03861690811790915590518392907fddf252ad1be2c89b69c2b068fc378daa952ba7f163c4a11628f55a4df523b3ef908290a45050565b60006001611705846107c9565b61170f9190611dd1565b600083815260076020526040902054909150808214611762576001600160a01b03841660009081526006602090815260408083208584528252808320548484528184208190558352600790915290208190555b5060009182526007602090815260408084208490556001600160a01b039094168352600681528383209183525290812055565b6008546000906117a790600190611dd1565b600083815260096020526040812054600880549394509092849081106117dd57634e487b7160e01b600052603260045260246000fd5b90600052602060002001549050806008838154811061180c57634e487b7160e01b600052603260045260246000fd5b600091825260208083209091019290925582815260099091526040808220849055858252812055600880548061185257634e487b7160e01b600052603160045260246000fd5b6001900381819060005260206000200160009055905550505050565b6000611879836107c9565b6001600160a01b039093166000908152600660209081526040808320868452825280832085905593825260079052919091209190915550565b8280546118be90611e14565b90600052602060002090601f0160209004810192826118e05760008555611926565b82601f106118f957805160ff1916838001178555611926565b82800160010185558215611926579182015b8281111561192657825182559160200191906001019061190b565b5061193292915061196e565b5090565b50805461194290611e14565b6000825580601f1061195457506106ae565b601f0160209004906000526020600020908101906106ae91905b5b80821115611932576000815560010161196f565b600067ffffffffffffffff8084111561199e5761199e611eaa565b604051601f8501601f19908116603f011681019082821181831017156119c6576119c6611eaa565b816040528093508581528686860111156119df57600080fd5b858560208301376000602087830101525050509392505050565b80356001600160a01b038116811461031a57600080fd5b600060208284031215611a21578081fd5b611300826119f9565b60008060408385031215611a3c578081fd5b611a45836119f9565b9150611a53602084016119f9565b90509250929050565b600080600060608486031215611a70578081fd5b611a79846119f9565b9250611a87602085016119f9565b9150604084013590509250925092565b60008060008060808587031215611aac578081fd5b611ab5856119f9565b9350611ac3602086016119f9565b925060408501359150606085013567ffffffffffffffff811115611ae5578182fd5b8501601f81018713611af5578182fd5b611b0487823560208401611983565b91505092959194509250565b60008060408385031215611b22578182fd5b611b2b836119f9565b915060208301358015158114611b3f578182fd5b809150509250929050565b60008060408385031215611b5c578182fd5b611b65836119f9565b9150602083013567ffffffffffffffff811115611b80578182fd5b8301601f81018513611b90578182fd5b611b9f85823560208401611983565b9150509250929050565b60008060408385031215611bbb578182fd5b611bc4836119f9565b946020939093013593505050565b600060208284031215611be3578081fd5b813561130081611ec0565b600060208284031215611bff578081fd5b815161130081611ec0565b600060208284031215611c1b578081fd5b5035919050565b60008151808452611c3a816020860160208601611de8565b601f01601f19169290920160200192915050565b60008351611c60818460208801611de8565b835190830190611c74818360208801611de8565b01949350505050565b6001600160a01b0385811682528416602082015260408101839052608060608201819052600090611cb090830184611c22565b9695505050505050565b6000602082526113006020830184611c22565b60208082526032908201527f4552433732313a207472616e7366657220746f206e6f6e20455243373231526560408201527131b2b4bb32b91034b6b83632b6b2b73a32b960711b606082015260800190565b6020808252818101527f4f776e61626c653a2063616c6c6572206973206e6f7420746865206f776e6572604082015260600190565b60208082526031908201527f4552433732313a207472616e736665722063616c6c6572206973206e6f74206f6040820152701ddb995c881b9bdc88185c1c1c9bdd9959607a1b606082015260800190565b60008219821115611db857611db8611e7e565b500190565b600082611dcc57611dcc611e94565b500490565b600082821015611de357611de3611e7e565b500390565b60005b83811015611e03578181015183820152602001611deb565b838111156109995750506000910152565b600281046001821680611e2857607f821691505b60208210811415611e4957634e487b7160e01b600052602260045260246000fd5b50919050565b6000600019821415611e6357611e63611e7e565b5060010190565b600082611e7957611e79611e94565b500690565b634e487b7160e01b600052601160045260246000fd5b634e487b7160e01b600052601260045260246000fd5b634e487b7160e01b600052604160045260246000fd5b6001600160e01b0319811681146106ae57600080fdfea264697066735822122018d88c690571dc3aa47db11edbf307fcb2b313566757972784707e1dfb7197f964736f6c63430008020033",
  "linkReferences": {},
  "deployedLinkReferences": {}
}