{
  "_format": "hh-sol-artifact-1",
  "contractName": "MerkleClaimERC20",
  "sourceName": "contracts/MerkleClaimERC20.sol",
  "abi": [
    {
      "inputs": [
        {
          "internalType": "address",
          "name": "_ogunToken",
          "type": "address"
        },
        {
          "internalType": "bytes32",
          "name": "_merkleRoot",
          "type": "bytes32"
        }
      ],
      "stateMutability": "nonpayable",
      "type": "constructor"
    },
    {
      "inputs": [],
      "name": "AlreadyClaimed",
      "type": "error"
    },
    {
      "inputs": [],
      "name": "NotInMerkle",
      "type": "error"
    },
    {
      "anonymous": false,
      "inputs": [
        {
          "indexed": true,
          "internalType": "address",
          "name": "to",
          "type": "address"
        },
        {
          "indexed": false,
          "internalType": "uint256",
          "name": "amount",
          "type": "uint256"
        }
      ],
      "name": "Claim",
      "type": "event"
    },
    {
      "anonymous": false,
      "inputs": [
        {
          "indexed": true,
          "internalType": "address",
          "name": "previousOwner",
          "type": "address"
        },
        {
          "indexed": true,
          "internalType": "address",
          "name": "newOwner",
          "type": "address"
        }
      ],
      "name": "OwnershipTransferred",
      "type": "event"
    },
    {
      "inputs": [
        {
          "internalType": "address",
          "name": "to",
          "type": "address"
        },
        {
          "internalType": "uint256",
          "name": "amount",
          "type": "uint256"
        },
        {
          "internalType": "bytes32[]",
          "name": "proof",
          "type": "bytes32[]"
        }
      ],
      "name": "claim",
      "outputs": [],
      "stateMutability": "nonpayable",
      "type": "function"
    },
    {
      "inputs": [
        {
          "internalType": "address",
          "name": "to",
          "type": "address"
        },
        {
          "internalType": "uint256",
          "name": "value",
          "type": "uint256"
        }
      ],
      "name": "getLeafValue",
      "outputs": [
        {
          "internalType": "bytes32",
          "name": "",
          "type": "bytes32"
        }
      ],
      "stateMutability": "pure",
      "type": "function"
    },
    {
      "inputs": [
        {
          "internalType": "address",
          "name": "",
          "type": "address"
        }
      ],
      "name": "hasClaimed",
      "outputs": [
        {
          "internalType": "bool",
          "name": "",
          "type": "bool"
        }
      ],
      "stateMutability": "view",
      "type": "function"
    },
    {
      "inputs": [],
      "name": "merkleRoot",
      "outputs": [
        {
          "internalType": "bytes32",
          "name": "",
          "type": "bytes32"
        }
      ],
      "stateMutability": "view",
      "type": "function"
    },
    {
      "inputs": [],
      "name": "ogunToken",
      "outputs": [
        {
          "internalType": "address",
          "name": "",
          "type": "address"
        }
      ],
      "stateMutability": "view",
      "type": "function"
    },
    {
      "inputs": [],
      "name": "owner",
      "outputs": [
        {
          "internalType": "address",
          "name": "",
          "type": "address"
        }
      ],
      "stateMutability": "view",
      "type": "function"
    },
    {
      "inputs": [],
      "name": "renounceOwnership",
      "outputs": [],
      "stateMutability": "nonpayable",
      "type": "function"
    },
    {
      "inputs": [
        {
          "internalType": "address",
          "name": "newOwner",
          "type": "address"
        }
      ],
      "name": "transferOwnership",
      "outputs": [],
      "stateMutability": "nonpayable",
      "type": "function"
    },
    {
      "inputs": [
        {
          "internalType": "address",
          "name": "destination",
          "type": "address"
        }
      ],
      "name": "withdraw",
      "outputs": [],
      "stateMutability": "nonpayable",
      "type": "function"
    }
  ],
  "bytecode": "0x60c060405234801561001057600080fd5b5060405161099738038061099783398101604081905261002f9161009c565b6100383361004c565b6080526001600160a01b031660a0526100d6565b600080546001600160a01b038381166001600160a01b0319831681178455604051919092169283917f8be0079c531659141344cd1fd0a4f28419497f9722a3daafe3b4186f6b6457e09190a35050565b600080604083850312156100af57600080fd5b82516001600160a01b03811681146100c657600080fd5b6020939093015192949293505050565b60805160a051610881610116600039600081816101b40152818161032a0152818161040501526104a1015260008181609d015261029b01526108816000f3fe608060405234801561001057600080fd5b50600436106100935760003560e01c806373b2e80e1161006657806373b2e80e1461010257806382896140146101355780638da5cb5b1461018a578063b33c7fe3146101af578063f2fde38b146101d657600080fd5b80632eb4a7ab146100985780633d13f874146100d257806351cff8d9146100e7578063715018a6146100fa575b600080fd5b6100bf7f000000000000000000000000000000000000000000000000000000000000000081565b6040519081526020015b60405180910390f35b6100e56100e0366004610702565b6101e9565b005b6100e56100f536600461078c565b6103e5565b6100e5610515565b61012561011036600461078c565b60016020526000908152604090205460ff1681565b60405190151581526020016100c9565b6100bf6101433660046107a7565b6040516bffffffffffffffffffffffff19606084901b1660208201526034810182905260009060540160405160208183030381529060405280519060200120905092915050565b6000546001600160a01b03165b6040516001600160a01b0390911681526020016100c9565b6101977f000000000000000000000000000000000000000000000000000000000000000081565b6100e56101e436600461078c565b610529565b6001600160a01b03841660009081526001602052604090205460ff161561022357604051630c8d9eab60e31b815260040160405180910390fd5b6040516bffffffffffffffffffffffff19606086901b1660208201526034810184905260009060540160405160208183030381529060405280519060200120905060006102c68484808060200260200160405190810160405280939291908181526020018383602002808284376000920191909152507f000000000000000000000000000000000000000000000000000000000000000092508691506105a79050565b9050806102e65760405163452c2df160e11b815260040160405180910390fd5b6001600160a01b03868116600081815260016020819052604091829020805460ff191690911790555163a9059cbb60e01b81526004810191909152602481018790527f00000000000000000000000000000000000000000000000000000000000000009091169063a9059cbb906044016020604051808303816000875af1158015610375573d6000803e3d6000fd5b505050506040513d601f19601f8201168201806040525081019061039991906107d1565b50856001600160a01b03167f47cee97cb7acd717b3c0aa1435d004cd5b3c8c57d70dbceb4e4458bbd60e39d4866040516103d591815260200190565b60405180910390a2505050505050565b6103ed6105bd565b6040516370a0823160e01b81523060048201526000907f00000000000000000000000000000000000000000000000000000000000000006001600160a01b0316906370a0823190602401602060405180830381865afa158015610454573d6000803e3d6000fd5b505050506040513d601f19601f8201168201806040525081019061047891906107f3565b60405163a9059cbb60e01b81526001600160a01b038481166004830152602482018390529192507f00000000000000000000000000000000000000000000000000000000000000009091169063a9059cbb906044016020604051808303816000875af11580156104ec573d6000803e3d6000fd5b505050506040513d601f19601f8201168201806040525081019061051091906107d1565b505050565b61051d6105bd565b6105276000610617565b565b6105316105bd565b6001600160a01b03811661059b5760405162461bcd60e51b815260206004820152602660248201527f4f776e61626c653a206e6577206f776e657220697320746865207a65726f206160448201526564647265737360d01b60648201526084015b60405180910390fd5b6105a481610617565b50565b6000826105b48584610667565b14949350505050565b6000546001600160a01b031633146105275760405162461bcd60e51b815260206004820181905260248201527f4f776e61626c653a2063616c6c6572206973206e6f7420746865206f776e65726044820152606401610592565b600080546001600160a01b038381166001600160a01b0319831681178455604051919092169283917f8be0079c531659141344cd1fd0a4f28419497f9722a3daafe3b4186f6b6457e09190a35050565b600081815b84518110156106ac576106988286838151811061068b5761068b61080c565b60200260200101516106b4565b9150806106a481610822565b91505061066c565b509392505050565b60008183106106d05760008281526020849052604090206106df565b60008381526020839052604090205b9392505050565b80356001600160a01b03811681146106fd57600080fd5b919050565b6000806000806060858703121561071857600080fd5b610721856106e6565b935060208501359250604085013567ffffffffffffffff8082111561074557600080fd5b818701915087601f83011261075957600080fd5b81358181111561076857600080fd5b8860208260051b850101111561077d57600080fd5b95989497505060200194505050565b60006020828403121561079e57600080fd5b6106df826106e6565b600080604083850312156107ba57600080fd5b6107c3836106e6565b946020939093013593505050565b6000602082840312156107e357600080fd5b815180151581146106df57600080fd5b60006020828403121561080557600080fd5b5051919050565b634e487b7160e01b600052603260045260246000fd5b600060001982141561084457634e487b7160e01b600052601160045260246000fd5b506001019056fea2646970667358221220143d05f6047b3dd0ca14172f8a718d4d347af3c385972cf0ed7ac46320e3d94f64736f6c634300080a0033",
  "linkReferences": {},
  "deployedLinkReferences": {}
}