{
  "_format": "hh-sol-artifact-1",
  "contractName": "SoundchainMarketplaceEditions",
  "sourceName": "contracts/MarketplaceEditions.sol",
  "abi": [
    {
      "inputs": [
        {
          "internalType": "address payable",
          "name": "_feeRecipient",
          "type": "address"
        },
        {
          "internalType": "address",
          "name": "_OGUNToken",
          "type": "address"
        },
        {
          "internalType": "uint16",
          "name": "_platformFee",
          "type": "uint16"
        },
        {
          "internalType": "uint256",
          "name": "_rewardsRate",
          "type": "uint256"
        },
        {
          "internalType": "uint256",
          "name": "_rewardsLimit",
          "type": "uint256"
        }
      ],
      "stateMutability": "nonpayable",
      "type": "constructor"
    },
    {
      "anonymous": false,
      "inputs": [
        {
          "indexed": true,
          "internalType": "address",
          "name": "nft",
          "type": "address"
        },
        {
          "indexed": false,
          "internalType": "uint256",
          "name": "editionId",
          "type": "uint256"
        }
      ],
      "name": "EditionCanceled",
      "type": "event"
    },
    {
      "anonymous": false,
      "inputs": [
        {
          "indexed": true,
          "internalType": "address",
          "name": "nft",
          "type": "address"
        },
        {
          "indexed": false,
          "internalType": "uint256",
          "name": "editionId",
          "type": "uint256"
        }
      ],
      "name": "EditionListed",
      "type": "event"
    },
    {
      "anonymous": false,
      "inputs": [
        {
          "indexed": true,
          "internalType": "address",
          "name": "owner",
          "type": "address"
        },
        {
          "indexed": true,
          "internalType": "address",
          "name": "nft",
          "type": "address"
        },
        {
          "indexed": false,
          "internalType": "uint256",
          "name": "tokenId",
          "type": "uint256"
        }
      ],
      "name": "ItemCanceled",
      "type": "event"
    },
    {
      "anonymous": false,
      "inputs": [
        {
          "indexed": true,
          "internalType": "address",
          "name": "owner",
          "type": "address"
        },
        {
          "indexed": true,
          "internalType": "address",
          "name": "nft",
          "type": "address"
        },
        {
          "indexed": false,
          "internalType": "uint256",
          "name": "tokenId",
          "type": "uint256"
        },
        {
          "indexed": false,
          "internalType": "uint256",
          "name": "quantity",
          "type": "uint256"
        },
        {
          "indexed": false,
          "internalType": "uint256",
          "name": "pricePerItem",
          "type": "uint256"
        },
        {
          "indexed": false,
          "internalType": "uint256",
          "name": "OGUNPricePerItem",
          "type": "uint256"
        },
        {
          "indexed": false,
          "internalType": "bool",
          "name": "acceptsMATIC",
          "type": "bool"
        },
        {
          "indexed": false,
          "internalType": "bool",
          "name": "acceptsOGUN",
          "type": "bool"
        },
        {
          "indexed": false,
          "internalType": "uint256",
          "name": "startingTime",
          "type": "uint256"
        }
      ],
      "name": "ItemListed",
      "type": "event"
    },
    {
      "anonymous": false,
      "inputs": [
        {
          "indexed": true,
          "internalType": "address",
          "name": "seller",
          "type": "address"
        },
        {
          "indexed": true,
          "internalType": "address",
          "name": "buyer",
          "type": "address"
        },
        {
          "indexed": true,
          "internalType": "address",
          "name": "nft",
          "type": "address"
        },
        {
          "indexed": false,
          "internalType": "uint256",
          "name": "tokenId",
          "type": "uint256"
        },
        {
          "indexed": false,
          "internalType": "uint256",
          "name": "quantity",
          "type": "uint256"
        },
        {
          "indexed": false,
          "internalType": "uint256",
          "name": "pricePerItem",
          "type": "uint256"
        },
        {
          "indexed": false,
          "internalType": "bool",
          "name": "isPaymentOGUN",
          "type": "bool"
        }
      ],
      "name": "ItemSold",
      "type": "event"
    },
    {
      "anonymous": false,
      "inputs": [
        {
          "indexed": true,
          "internalType": "address",
          "name": "owner",
          "type": "address"
        },
        {
          "indexed": true,
          "internalType": "address",
          "name": "nft",
          "type": "address"
        },
        {
          "indexed": false,
          "internalType": "uint256",
          "name": "tokenId",
          "type": "uint256"
        },
        {
          "indexed": false,
          "internalType": "uint256",
          "name": "newPrice",
          "type": "uint256"
        },
        {
          "indexed": false,
          "internalType": "uint256",
          "name": "newOGUNPrice",
          "type": "uint256"
        },
        {
          "indexed": false,
          "internalType": "bool",
          "name": "acceptsMATIC",
          "type": "bool"
        },
        {
          "indexed": false,
          "internalType": "bool",
          "name": "acceptsOGUN",
          "type": "bool"
        },
        {
          "indexed": false,
          "internalType": "uint256",
          "name": "startingTime",
          "type": "uint256"
        }
      ],
      "name": "ItemUpdated",
      "type": "event"
    },
    {
      "anonymous": false,
      "inputs": [
        {
          "indexed": true,
          "internalType": "address",
          "name": "previousOwner",
          "type": "address"
        },
        {
          "indexed": true,
          "internalType": "address",
          "name": "newOwner",
          "type": "address"
        }
      ],
      "name": "OwnershipTransferred",
      "type": "event"
    },
    {
      "anonymous": false,
      "inputs": [
        {
          "indexed": false,
          "internalType": "uint16",
          "name": "platformFee",
          "type": "uint16"
        }
      ],
      "name": "UpdatePlatformFee",
      "type": "event"
    },
    {
      "anonymous": false,
      "inputs": [
        {
          "indexed": false,
          "internalType": "address payable",
          "name": "platformFeeRecipient",
          "type": "address"
        }
      ],
      "name": "UpdatePlatformFeeRecipient",
      "type": "event"
    },
    {
      "inputs": [],
      "name": "OGUNToken",
      "outputs": [
        {
          "internalType": "contract IERC20",
          "name": "",
          "type": "address"
        }
      ],
      "stateMutability": "view",
      "type": "function"
    },
    {
      "inputs": [
        {
          "internalType": "address",
          "name": "_nftAddress",
          "type": "address"
        },
        {
          "internalType": "uint256",
          "name": "_tokenId",
          "type": "uint256"
        },
        {
          "internalType": "address payable",
          "name": "_owner",
          "type": "address"
        },
        {
          "internalType": "bool",
          "name": "_isPaymentOGUN",
          "type": "bool"
        }
      ],
      "name": "buyItem",
      "outputs": [],
      "stateMutability": "payable",
      "type": "function"
    },
    {
      "inputs": [
        {
          "internalType": "address",
          "name": "_nftAddress",
          "type": "address"
        },
        {
          "internalType": "uint256",
          "name": "_editionNumber",
          "type": "uint256"
        }
      ],
      "name": "cancelEditionListing",
      "outputs": [],
      "stateMutability": "nonpayable",
      "type": "function"
    },
    {
      "inputs": [
        {
          "internalType": "address",
          "name": "_nftAddress",
          "type": "address"
        },
        {
          "internalType": "uint256",
          "name": "_tokenId",
          "type": "uint256"
        }
      ],
      "name": "cancelListing",
      "outputs": [],
      "stateMutability": "nonpayable",
      "type": "function"
    },
    {
      "inputs": [
        {
          "internalType": "address",
          "name": "_nftAddress",
          "type": "address"
        },
        {
          "internalType": "uint256[]",
          "name": "tokenIds",
          "type": "uint256[]"
        }
      ],
      "name": "cancelListingBatch",
      "outputs": [],
      "stateMutability": "nonpayable",
      "type": "function"
    },
    {
      "inputs": [
        {
          "internalType": "address",
          "name": "",
          "type": "address"
        },
        {
          "internalType": "uint256",
          "name": "",
          "type": "uint256"
        }
      ],
      "name": "editionListings",
      "outputs": [
        {
          "internalType": "bool",
          "name": "",
          "type": "bool"
        }
      ],
      "stateMutability": "view",
      "type": "function"
    },
    {
      "inputs": [],
      "name": "feeRecipient",
      "outputs": [
        {
          "internalType": "address payable",
          "name": "",
          "type": "address"
        }
      ],
      "stateMutability": "view",
      "type": "function"
    },
    {
      "inputs": [
        {
          "internalType": "address",
          "name": "_nftAddress",
          "type": "address"
        },
        {
          "internalType": "uint256[]",
          "name": "tokenIds",
          "type": "uint256[]"
        },
        {
          "internalType": "uint256",
          "name": "_pricePerItem",
          "type": "uint256"
        },
        {
          "internalType": "uint256",
          "name": "_OGUNPricePerItem",
          "type": "uint256"
        },
        {
          "internalType": "bool",
          "name": "_acceptsMATIC",
          "type": "bool"
        },
        {
          "internalType": "bool",
          "name": "_acceptsOGUN",
          "type": "bool"
        },
        {
          "internalType": "uint256",
          "name": "_startingTime",
          "type": "uint256"
        }
      ],
      "name": "listBatch",
      "outputs": [],
      "stateMutability": "nonpayable",
      "type": "function"
    },
    {
      "inputs": [
        {
          "internalType": "address",
          "name": "_nftEditionAddress",
          "type": "address"
        },
        {
          "internalType": "uint256",
          "name": "editionNumber",
          "type": "uint256"
        },
        {
          "internalType": "uint256",
          "name": "_pricePerItem",
          "type": "uint256"
        },
        {
          "internalType": "uint256",
          "name": "_OGUNPricePerItem",
          "type": "uint256"
        },
        {
          "internalType": "bool",
          "name": "_acceptsMATIC",
          "type": "bool"
        },
        {
          "internalType": "bool",
          "name": "_acceptsOGUN",
          "type": "bool"
        },
        {
          "internalType": "uint256",
          "name": "_startingTime",
          "type": "uint256"
        }
      ],
      "name": "listEdition",
      "outputs": [],
      "stateMutability": "nonpayable",
      "type": "function"
    },
    {
      "inputs": [
        {
          "internalType": "address",
          "name": "_nftAddress",
          "type": "address"
        },
        {
          "internalType": "uint256",
          "name": "_tokenId",
          "type": "uint256"
        },
        {
          "internalType": "uint256",
          "name": "_quantity",
          "type": "uint256"
        },
        {
          "internalType": "uint256",
          "name": "_pricePerItem",
          "type": "uint256"
        },
        {
          "internalType": "uint256",
          "name": "_OGUNPricePerItem",
          "type": "uint256"
        },
        {
          "internalType": "bool",
          "name": "_acceptsMATIC",
          "type": "bool"
        },
        {
          "internalType": "bool",
          "name": "_acceptsOGUN",
          "type": "bool"
        },
        {
          "internalType": "uint256",
          "name": "_startingTime",
          "type": "uint256"
        }
      ],
      "name": "listItem",
      "outputs": [],
      "stateMutability": "nonpayable",
      "type": "function"
    },
    {
      "inputs": [
        {
          "internalType": "address",
          "name": "",
          "type": "address"
        },
        {
          "internalType": "uint256",
          "name": "",
          "type": "uint256"
        },
        {
          "internalType": "address",
          "name": "",
          "type": "address"
        }
      ],
      "name": "listings",
      "outputs": [
        {
          "internalType": "uint256",
          "name": "quantity",
          "type": "uint256"
        },
        {
          "internalType": "uint256",
          "name": "pricePerItem",
          "type": "uint256"
        },
        {
          "internalType": "uint256",
          "name": "OGUNPricePerItem",
          "type": "uint256"
        },
        {
          "internalType": "bool",
          "name": "acceptsMATIC",
          "type": "bool"
        },
        {
          "internalType": "bool",
          "name": "acceptsOGUN",
          "type": "bool"
        },
        {
          "internalType": "uint256",
          "name": "startingTime",
          "type": "uint256"
        }
      ],
      "stateMutability": "view",
      "type": "function"
    },
    {
      "inputs": [],
      "name": "owner",
      "outputs": [
        {
          "internalType": "address",
          "name": "",
          "type": "address"
        }
      ],
      "stateMutability": "view",
      "type": "function"
    },
    {
      "inputs": [],
      "name": "platformFee",
      "outputs": [
        {
          "internalType": "uint16",
          "name": "",
          "type": "uint16"
        }
      ],
      "stateMutability": "view",
      "type": "function"
    },
    {
      "inputs": [],
      "name": "renounceOwnership",
      "outputs": [],
      "stateMutability": "nonpayable",
      "type": "function"
    },
    {
      "inputs": [],
      "name": "rewardsLimit",
      "outputs": [
        {
          "internalType": "uint256",
          "name": "",
          "type": "uint256"
        }
      ],
      "stateMutability": "view",
      "type": "function"
    },
    {
      "inputs": [],
      "name": "rewardsRate",
      "outputs": [
        {
          "internalType": "uint256",
          "name": "",
          "type": "uint256"
        }
      ],
      "stateMutability": "view",
      "type": "function"
    },
    {
      "inputs": [
        {
          "internalType": "uint256",
          "name": "newLimit",
          "type": "uint256"
        }
      ],
      "name": "setRewardsLimit",
      "outputs": [],
      "stateMutability": "nonpayable",
      "type": "function"
    },
    {
      "inputs": [
        {
          "internalType": "uint256",
          "name": "_rewardsRate",
          "type": "uint256"
        }
      ],
      "name": "setRewardsRate",
      "outputs": [],
      "stateMutability": "nonpayable",
      "type": "function"
    },
    {
      "inputs": [
        {
          "internalType": "address",
          "name": "newOwner",
          "type": "address"
        }
      ],
      "name": "transferOwnership",
      "outputs": [],
      "stateMutability": "nonpayable",
      "type": "function"
    },
    {
      "inputs": [
        {
          "internalType": "address",
          "name": "_nftAddress",
          "type": "address"
        },
        {
          "internalType": "uint256",
          "name": "_tokenId",
          "type": "uint256"
        },
        {
          "internalType": "uint256",
          "name": "_newPrice",
          "type": "uint256"
        },
        {
          "internalType": "uint256",
          "name": "_newOGUNPrice",
          "type": "uint256"
        },
        {
          "internalType": "bool",
          "name": "_acceptsMATIC",
          "type": "bool"
        },
        {
          "internalType": "bool",
          "name": "_acceptsOGUN",
          "type": "bool"
        },
        {
          "internalType": "uint256",
          "name": "_startingTime",
          "type": "uint256"
        }
      ],
      "name": "updateListing",
      "outputs": [],
      "stateMutability": "nonpayable",
      "type": "function"
    },
    {
      "inputs": [
        {
          "internalType": "uint16",
          "name": "_platformFee",
          "type": "uint16"
        }
      ],
      "name": "updatePlatformFee",
      "outputs": [],
      "stateMutability": "nonpayable",
      "type": "function"
    },
    {
      "inputs": [
        {
          "internalType": "address payable",
          "name": "_platformFeeRecipient",
          "type": "address"
        }
      ],
      "name": "updatePlatformFeeRecipient",
      "outputs": [],
      "stateMutability": "nonpayable",
      "type": "function"
    },
    {
      "inputs": [
        {
          "internalType": "address",
          "name": "destination",
          "type": "address"
        }
      ],
      "name": "withdraw",
      "outputs": [],
      "stateMutability": "nonpayable",
      "type": "function"
    }
  ],
  "bytecode": "0x60a06040523480156200001157600080fd5b5060405162003767380380620037678339810160408190526200003491620000f3565b6200003f336200008a565b600180556001600160a01b03938416608052600680549590941662010000026001600160b01b031990951661ffff90931692909217939093179091556002919091556003556200015e565b600080546001600160a01b038381166001600160a01b0319831681178455604051919092169283917f8be0079c531659141344cd1fd0a4f28419497f9722a3daafe3b4186f6b6457e09190a35050565b6001600160a01b0381168114620000f057600080fd5b50565b600080600080600060a086880312156200010c57600080fd5b85516200011981620000da565b60208701519095506200012c81620000da565b604087015190945061ffff811681146200014557600080fd5b6060870151608090970151959894975095949392505050565b6080516135ae620001b96000396000818161041701528181610e3701528181610ed301528181611561015281816124ec0152818161266201528181612768015281816127de01528181612863015261288f01526135ae6000f3fe6080604052600436106101405760003560e01c806374791fb6116100b6578063afb069521161006f578063afb0695214610439578063b2ddee0614610459578063b6e6096d14610479578063ce513d3a1461048f578063f2fde38b146104af578063f5fe7f71146104cf57600080fd5b806374791fb61461036757806386d06099146103875780638da5cb5b146103a75780638fc80b62146103c557806398bd3af7146103e5578063a770da201461040557600080fd5b806351cff8d91161010857806351cff8d914610243578063523bc7d514610263578063568dce8c1461028757806364e21bb9146102a75780636bd3a64b146102ba578063715018a61461035257600080fd5b80630568e0c61461014557806326232a2e146101955780632b9cac28146101c357806339640bb6146101e55780634690484014610205575b600080fd5b34801561015157600080fd5b50610180610160366004612e22565b600560209081526000928352604080842090915290825290205460ff1681565b60405190151581526020015b60405180910390f35b3480156101a157600080fd5b506006546101b09061ffff1681565b60405161ffff909116815260200161018c565b3480156101cf57600080fd5b506101e36101de366004612e5c565b6104ef565b005b3480156101f157600080fd5b506101e3610200366004612ece565b610a45565b34801561021157600080fd5b5060065461022b906201000090046001600160a01b031681565b6040516001600160a01b03909116815260200161018c565b34801561024f57600080fd5b506101e361025e366004612f4a565b610df5565b34801561026f57600080fd5b5061027960025481565b60405190815260200161018c565b34801561029357600080fd5b506101e36102a2366004612e22565b610f47565b6101e36102b5366004612f67565b6111f8565b3480156102c657600080fd5b506103216102d5366004612fba565b60046020818152600094855260408086208252938552838520905290835291208054600182015460028301546003840154939094015491939092909160ff808316926101009004169086565b60408051968752602087019590955293850192909252151560608401521515608083015260a082015260c00161018c565b34801561035e57600080fd5b506101e36117a0565b34801561037357600080fd5b506101e3610382366004612ffc565b6117d6565b34801561039357600080fd5b506101e36103a23660046130eb565b611805565b3480156103b357600080fd5b506000546001600160a01b031661022b565b3480156103d157600080fd5b506101e36103e0366004612ffc565b611950565b3480156103f157600080fd5b506101e361040036600461313b565b61197f565b34801561041157600080fd5b5061022b7f000000000000000000000000000000000000000000000000000000000000000081565b34801561044557600080fd5b506101e36104543660046131a8565b611d25565b34801561046557600080fd5b506101e3610474366004612e22565b611d9a565b34801561048557600080fd5b5061027960035481565b34801561049b57600080fd5b506101e36104aa366004612e5c565b611e70565b3480156104bb57600080fd5b506101e36104ca366004612f4a565b61213a565b3480156104db57600080fd5b506101e36104ea366004612f4a565b6121d5565b6001600160a01b03871660009081526005602090815260408083208984529091529020548790879060ff16156105655760405162461bcd60e51b815260206004820152601660248201527519591a5d1a5bdb88185b1c9958591e481b1a5cdd195960521b60448201526064015b60405180910390fd5b6001600160a01b03891660009081526005602090815260408083208b84529091529020805460ff19166001179055848061059c5750835b6105b85760405162461bcd60e51b815260040161055c906131cc565b6040516301ffc9a760e01b81526001600160a01b038a16906301ffc9a7906105eb906380ac58cd60e01b9060040161320d565b602060405180830381865afa158015610608573d6000803e3d6000fd5b505050506040513d601f19601f8201168201806040525081019061062c9190613222565b156109fc5788806001600160a01b03811663e985e9c5336040516001600160e01b031960e084901b1681526001600160a01b039091166004820152306024820152604401602060405180830381865afa15801561068d573d6000803e3d6000fd5b505050506040513d601f19601f820116820180604052508101906106b19190613222565b6106cd5760405162461bcd60e51b815260040161055c9061323f565b6040516374e7918960e01b8152600481018b90526000906001600160a01b038316906374e7918990602401600060405180830381865afa158015610715573d6000803e3d6000fd5b505050506040513d6000823e601f3d908101601f1916820160405261073d919081019061326a565b905060008151116107885760405162461bcd60e51b815260206004820152601560248201527465646974696f6e20686173206e6f20746f6b656e7360581b604482015260640161055c565b60005b81518110156109b057336001600160a01b0316846001600160a01b0316636352211e8484815181106107bf576107bf6132f0565b60200260200101516040518263ffffffff1660e01b81526004016107e591815260200190565b602060405180830381865afa158015610802573d6000803e3d6000fd5b505050506040513d601f19601f820116820180604052508101906108269190613306565b6001600160a01b0316141561099e576040518060c00160405280600181526020018c81526020018b81526020018a15158152602001891515815260200188815250600460008f6001600160a01b03166001600160a01b0316815260200190815260200160002060008484815181106108a0576108a06132f0565b6020026020010151815260200190815260200160002060006108bf3390565b6001600160a01b0390811682526020808301939093526040918201600020845181559284015160018401559083015160028301556060830151600383018054608086015115156101000261ff00199315159390931661ffff199091161791909117905560a0909201516004909101558d166109373390565b6001600160a01b03167f3e525878a5c06d5b45743edd66dc00069a6078f6336073f54bc331cae70dddbb848481518110610973576109736132f0565b602002602001015160018f8f8f8f8f6040516109959796959493929190613323565b60405180910390a35b806109a88161336d565b91505061078b565b508b6001600160a01b03167f5e46cfcd84c15957f2a2f42bbf54bd3b957102168436269eae481e5be7bb13598c6040516109ec91815260200190565b60405180910390a2505050610a3a565b60405162461bcd60e51b8152602060048201526013602482015272696e76616c6964206e6674206164647265737360681b604482015260640161055c565b505050505050505050565b8787336001600160a01b0380841660009081526004602081815260408084208785528252808420948616845293815291839020835160c0810185528154808252600183015494820194909452600282015494810194909452600381015460ff808216151560608701526101009091041615156080850152015460a083015215610b015760405162461bcd60e51b815260206004820152600e60248201526d185b1c9958591e481b1a5cdd195960921b604482015260640161055c565b6040516301ffc9a760e01b81526001600160a01b038d16906301ffc9a790610b34906380ac58cd60e01b9060040161320d565b602060405180830381865afa158015610b51573d6000803e3d6000fd5b505050506040513d601f19601f82011682018060405250810190610b759190613222565b156109fc578b336040516331a9108f60e11b8152600481018e90526001600160a01b0391821691831690636352211e90602401602060405180830381865afa158015610bc5573d6000803e3d6000fd5b505050506040513d601f19601f82011682018060405250810190610be99190613306565b6001600160a01b031614610c0f5760405162461bcd60e51b815260040161055c90613388565b6001600160a01b03811663e985e9c5336040516001600160e01b031960e084901b1681526001600160a01b039091166004820152306024820152604401602060405180830381865afa158015610c69573d6000803e3d6000fd5b505050506040513d601f19601f82011682018060405250810190610c8d9190613222565b610ca95760405162461bcd60e51b815260040161055c9061323f565b508680610cb35750855b610ccf5760405162461bcd60e51b815260040161055c906131cc565b6040805160c0810182528b815260208082018c90528183018b90528915156060830152881515608083015260a082018890526001600160a01b038f166000908152600482528381208f82529091529182209091336001600160a01b0390811682526020808301939093526040918201600020845181559284015160018401559083015160028301556060830151600383018054608086015115156101000261ff00199315159390931661ffff199091161791909117905560a0909201516004909101558c16610d9b3390565b6001600160a01b03167f3e525878a5c06d5b45743edd66dc00069a6078f6336073f54bc331cae70dddbb8d8d8d8d8d8d8d604051610ddf9796959493929190613323565b60405180910390a3505050505050505050505050565b6000546001600160a01b03163314610e1f5760405162461bcd60e51b815260040161055c906133b1565b6040516370a0823160e01b81523060048201526000907f00000000000000000000000000000000000000000000000000000000000000006001600160a01b0316906370a0823190602401602060405180830381865afa158015610e86573d6000803e3d6000fd5b505050506040513d601f19601f82011682018060405250810190610eaa91906133e6565b60405163a9059cbb60e01b81526001600160a01b038481166004830152602482018390529192507f00000000000000000000000000000000000000000000000000000000000000009091169063a9059cbb906044016020604051808303816000875af1158015610f1e573d6000803e3d6000fd5b505050506040513d601f19601f82011682018060405250810190610f429190613222565b505050565b60026001541415610f6a5760405162461bcd60e51b815260040161055c906133ff565b60026001556001600160a01b03821660009081526005602090815260408083208484529091529020548290829060ff16610fe65760405162461bcd60e51b815260206004820152601760248201527f65646974696f6e206e6f74206c6973746564206974656d000000000000000000604482015260640161055c565b6040516374e7918960e01b815260048101849052849081906000906001600160a01b038316906374e7918990602401600060405180830381865afa158015611032573d6000803e3d6000fd5b505050506040513d6000823e601f3d908101601f1916820160405261105a919081019061326a565b905060008151116110a55760405162461bcd60e51b815260206004820152601560248201527465646974696f6e20686173206e6f20746f6b656e7360581b604482015260640161055c565b60005b815181101561118e57336001600160a01b0316846001600160a01b0316636352211e8484815181106110dc576110dc6132f0565b60200260200101516040518263ffffffff1660e01b815260040161110291815260200190565b602060405180830381865afa15801561111f573d6000803e3d6000fd5b505050506040513d601f19601f820116820180604052508101906111439190613306565b6001600160a01b0316141561117c5761117c88838381518110611168576111686132f0565b60200260200101516111773390565b612257565b806111868161336d565b9150506110a8565b506001600160a01b03871660008181526005602090815260408083208a8452825291829020805460ff1916905590518881527f674fcdd21ce1acfde8fa1df5529d49e3c379bdc6ccc8a09be7d84d9adca7b3e1910160405180910390a25050600180555050505050565b6002600154141561121b5760405162461bcd60e51b815260040161055c906133ff565b600260018181556001600160a01b0380871660009081526004602081815260408084208a85528252808420948916845293815291839020835160c081018552815480825295820154938101939093529485015492820192909252600384015460ff80821615156060840152610100909104161515608082015292015460a0830152859185918591906112bf5760405162461bcd60e51b815260040161055c90613436565b6001600160a01b0380891660008181526004602081815260408084208d85528252808420958c16845294815291849020845160c08101865281548152600182015493810193909352600281015483860152600381015460ff80821615156060860152610100909104161515608084015281015460a083015292516301ffc9a760e01b81528b938b938b939290916301ffc9a791611365916380ac58cd60e01b910161320d565b602060405180830381865afa158015611382573d6000803e3d6000fd5b505050506040513d601f19601f820116820180604052508101906113a69190613222565b156109fc576040516331a9108f60e11b81526004810184905284906001600160a01b038481169190831690636352211e90602401602060405180830381865afa1580156113f7573d6000803e3d6000fd5b505050506040513d601f19601f8201168201806040525081019061141b9190613306565b6001600160a01b0316146114415760405162461bcd60e51b815260040161055c90613388565b5060a08101514210156114895760405162461bcd60e51b815260206004820152601060248201526f6974656d206e6f742062757961626c6560801b604482015260640161055c565b6000600460008e6001600160a01b03166001600160a01b0316815260200190815260200160002060008d815260200190815260200160002060008c6001600160a01b03166001600160a01b031681526020019081526020016000206040518060c00160405290816000820154815260200160018201548152602001600282015481526020016003820160009054906101000a900460ff161515151581526020016003820160019054906101000a900460ff16151515158152602001600482015481525050905089156116c05760006001600160a01b037f00000000000000000000000000000000000000000000000000000000000000001663dd62ed3e336040516001600160e01b031960e084901b1681526001600160a01b039091166004820152306024820152604401602060405180830381865afa1580156115d1573d6000803e3d6000fd5b505050506040513d601f19601f820116820180604052508101906115f591906133e6565b8251604084015191925061160991906123f3565b8110156116585760405162461bcd60e51b815260206004820152601b60248201527f696e73756666696369656e742062616c616e636520746f206275790000000000604482015260640161055c565b608082015115156001146116ba5760405162461bcd60e51b815260206004820152602360248201527f746869732070757263686173652063616e277420626520646f6e6520696e204f60448201526223aaa760e91b606482015260840161055c565b50611781565b805160208201516116d0916123f3565b34101561171f5760405162461bcd60e51b815260206004820152601b60248201527f696e73756666696369656e742062616c616e636520746f206275790000000000604482015260640161055c565b606081015115156001146117815760405162461bcd60e51b8152602060048201526024808201527f746869732070757263686173652063616e277420626520646f6e6520696e204d6044820152634154494360e01b606482015260840161055c565b61178d8d8d8d8d612406565b5050600180555050505050505050505050565b6000546001600160a01b031633146117ca5760405162461bcd60e51b815260040161055c906133b1565b6117d46000612aae565b565b6000546001600160a01b031633146118005760405162461bcd60e51b815260040161055c906133b1565b600255565b600260015414156118285760405162461bcd60e51b815260040161055c906133ff565b6002600155805182906118715760405162461bcd60e51b8152602060048201526011602482015270746f6b656e49647320697320656d70747960781b604482015260640161055c565b60005b825181101561194657336001600160a01b0316826001600160a01b0316636352211e8584815181106118a8576118a86132f0565b60200260200101516040518263ffffffff1660e01b81526004016118ce91815260200190565b602060405180830381865afa1580156118eb573d6000803e3d6000fd5b505050506040513d601f19601f8201168201806040525081019061190f9190613306565b6001600160a01b031614156119345761193484848381518110611168576111686132f0565b8061193e8161336d565b915050611874565b5050600180555050565b6000546001600160a01b0316331461197a5760405162461bcd60e51b815260040161055c906133b1565b600355565b82806119885750815b6119a45760405162461bcd60e51b815260040161055c906131cc565b60008651116119e95760405162461bcd60e51b8152602060048201526011602482015270746f6b656e49647320697320656d70747960781b604482015260640161055c565b6040516301ffc9a760e01b81526001600160a01b038816906301ffc9a790611a1c906380ac58cd60e01b9060040161320d565b602060405180830381865afa158015611a39573d6000803e3d6000fd5b505050506040513d601f19601f82011682018060405250810190611a5d9190613222565b156109fc57866001600160a01b03811663e985e9c5336040516001600160e01b031960e084901b1681526001600160a01b039091166004820152306024820152604401602060405180830381865afa158015611abd573d6000803e3d6000fd5b505050506040513d601f19601f82011682018060405250810190611ae19190613222565b611afd5760405162461bcd60e51b815260040161055c9061323f565b60005b8751811015610a3a57336001600160a01b0316826001600160a01b0316636352211e8a8481518110611b3457611b346132f0565b60200260200101516040518263ffffffff1660e01b8152600401611b5a91815260200190565b602060405180830381865afa158015611b77573d6000803e3d6000fd5b505050506040513d601f19601f82011682018060405250810190611b9b9190613306565b6001600160a01b03161415611d13576040518060c00160405280600181526020018881526020018781526020018615158152602001851515815260200184815250600460008b6001600160a01b03166001600160a01b0316815260200190815260200160002060008a8481518110611c1557611c156132f0565b602002602001015181526020019081526020016000206000611c343390565b6001600160a01b0390811682526020808301939093526040918201600020845181559284015160018401559083015160028301556060830151600383018054608086015115156101000261ff00199315159390931661ffff199091161791909117905560a0909201516004909101558916611cac3390565b6001600160a01b03167f3e525878a5c06d5b45743edd66dc00069a6078f6336073f54bc331cae70dddbb8a8481518110611ce857611ce86132f0565b602002602001015160018b8b8b8b8b604051611d0a9796959493929190613323565b60405180910390a35b80611d1d8161336d565b915050611b00565b6000546001600160a01b03163314611d4f5760405162461bcd60e51b815260040161055c906133b1565b6006805461ffff191661ffff83169081179091556040519081527fcabead39256298cdf7d1228eee68b47bc54a2192283d8d93574da08d2d7ac303906020015b60405180910390a150565b60026001541415611dbd5760405162461bcd60e51b815260040161055c906133ff565b600260018181556001600160a01b038416600090815260046020818152604080842087855282528084203380865290835293819020815160c081018352815480825296820154938101939093529586015490820152600385015460ff80821615156060840152610100909104161515608082015293015460a084015284928492611e595760405162461bcd60e51b815260040161055c90613436565b611e64868633612257565b50506001805550505050565b60026001541415611e935760405162461bcd60e51b815260040161055c906133ff565b600260018181556001600160a01b03891660009081526004602081815260408084208c855282528084203380865290835293819020815160c081018352815480825296820154938101939093529586015490820152600385015460ff80821615156060840152610100909104161515608082015293015460a084015289928992611f2f5760405162461bcd60e51b815260040161055c90613436565b6001600160a01b038b1660008181526004602081815260408084208f855282528084203385529091529182902091516301ffc9a760e01b81529192916301ffc9a791611f84916380ac58cd60e01b910161320d565b602060405180830381865afa158015611fa1573d6000803e3d6000fd5b505050506040513d601f19601f82011682018060405250810190611fc59190613222565b156109fc578b336040516331a9108f60e11b8152600481018e90526001600160a01b0391821691831690636352211e90602401602060405180830381865afa158015612015573d6000803e3d6000fd5b505050506040513d601f19601f820116820180604052508101906120399190613306565b6001600160a01b03161461205f5760405162461bcd60e51b815260040161055c90613388565b5087806120695750865b6120855760405162461bcd60e51b815260040161055c906131cc565b600181018a9055600381018054600283018b905561ffff191689151561ff0019161761010089151502179055600481018690556001600160a01b038c1633604080518e8152602081018e90529081018c90528a15156060820152891515608082015260a081018990526001600160a01b0391909116907f803ebeb96a46ee85996f7bee39b94f74582e64772eff5975945aca58d89c0ad69060c00160405180910390a350506001805550505050505050505050565b6000546001600160a01b031633146121645760405162461bcd60e51b815260040161055c906133b1565b6001600160a01b0381166121c95760405162461bcd60e51b815260206004820152602660248201527f4f776e61626c653a206e6577206f776e657220697320746865207a65726f206160448201526564647265737360d01b606482015260840161055c565b6121d281612aae565b50565b6000546001600160a01b031633146121ff5760405162461bcd60e51b815260040161055c906133b1565b6006805462010000600160b01b031916620100006001600160a01b038416908102919091179091556040519081527fe57e7c1f36cc83fade34e32351e6eee7eb9da532662b1b5da10c631e8222aca790602001611d8f565b6040516301ffc9a760e01b81526001600160a01b038416906301ffc9a79061228a906380ac58cd60e01b9060040161320d565b602060405180830381865afa1580156122a7573d6000803e3d6000fd5b505050506040513d601f19601f820116820180604052508101906122cb9190613222565b156109fc576040516331a9108f60e11b81526004810183905283906001600160a01b038381169190831690636352211e90602401602060405180830381865afa15801561231c573d6000803e3d6000fd5b505050506040513d601f19601f820116820180604052508101906123409190613306565b6001600160a01b0316146123665760405162461bcd60e51b815260040161055c90613388565b506001600160a01b0383811660008181526004602081815260408084208885528252808420958716808552958252808420848155600181018590556002810185905560038101805461ffff1916905590920192909255518581529192917f9ba1a3cb55ce8d63d072a886f94d2a744f50cddf82128e897d0661f5ec623158910160405180910390a3505050565b60006123ff828461345f565b9392505050565b6001600160a01b03808516600090815260046020818152604080842088855282528084209487168452938152838320845160c08101865281548152600182015492810192909252600281015494820194909452600384015460ff80821615156060840152610100909104161515608082015292015460a0830152821561249d5781516040830151612496916123f3565b90506124b0565b815160208301516124ad916123f3565b90505b6006546000906124d390612710906124cd90859061ffff166123f3565b90612afe565b905083156125215761251c336006546001600160a01b037f0000000000000000000000000000000000000000000000000000000000000000811692916201000090041684612b0a565b6125c2565b6006546040516000916201000090046001600160a01b03169083908381818185875af1925050503d8060008114612574576040519150601f19603f3d011682016040523d82523d6000602084013e612579565b606091505b50509050806125c05760405162461bcd60e51b8152602060048201526013602482015272199959481d1c985b9cd9995c8819985a5b1959606a1b604482015260640161055c565b505b6000806001600160a01b038916632a55205a896125df868861347e565b6040516001600160e01b031960e085901b168152600481019290925260248201526044016040805180830381865afa15801561261f573d6000803e3d6000fd5b505050506040513d601f19601f820116820180604052508101906126439190613495565b90925090506001600160a01b03821615612749578515612697576126927f00000000000000000000000000000000000000000000000000000000000000006001600160a01b0316338484612b0a565b61273c565b6000826001600160a01b03168260405160006040518083038185875af1925050503d80600081146126e4576040519150601f19603f3d011682016040523d82523d6000602084013e6126e9565b606091505b505090508061273a5760405162461bcd60e51b815260206004820152601b60248201527f726f79616c747920666565207472616e73666572206661696c65640000000000604482015260640161055c565b505b6127468382612b7b565b92505b85156128c457612790338861275e8787612b87565b6001600160a01b037f000000000000000000000000000000000000000000000000000000000000000016929190612b0a565b60006127ad6127106124cd600254886123f390919063ffffffff16565b90506003548111156127be57506003545b6127c98160026123f3565b6040516370a0823160e01b81523060048201527f00000000000000000000000000000000000000000000000000000000000000006001600160a01b0316906370a0823190602401602060405180830381865afa15801561282d573d6000803e3d6000fd5b505050506040513d601f19601f8201168201806040525081019061285191906133e6565b106128be5761288a6001600160a01b037f0000000000000000000000000000000000000000000000000000000000000000168983612b93565b6128be7f00000000000000000000000000000000000000000000000000000000000000006001600160a01b03163383612b93565b50612966565b60006001600160a01b0388166128da8686612b87565b604051600081818185875af1925050503d8060008114612916576040519150601f19603f3d011682016040523d82523d6000602084013e61291b565b606091505b50509050806129645760405162461bcd60e51b81526020600482015260156024820152741bdddb995c881d1c985b9cd9995c8819985a5b1959605a1b604482015260640161055c565b505b6001600160a01b0389166342842e0e88336040516001600160e01b031960e085901b1681526001600160a01b03928316600482015291166024820152604481018b9052606401600060405180830381600087803b1580156129c657600080fd5b505af11580156129da573d6000803e3d6000fd5b50505050886001600160a01b03166129ef3390565b86516001600160a01b03918216918a16907fdd55b9c855642470e2d7be79adba4f717b0a0c2a8f7afb7951b408b5282275f0908c90612a2e8a82612afe565b604080519384526020840192909252908201528a1515606082015260800160405180910390a45050506001600160a01b03958616600090815260046020818152604080842098845297815287832096909816825294909652505050908220828155600181018390556002810183905560038101805461ffff191690550155565b600080546001600160a01b038381166001600160a01b0319831681178455604051919092169283917f8be0079c531659141344cd1fd0a4f28419497f9722a3daafe3b4186f6b6457e09190a35050565b60006123ff82846134c3565b6040516001600160a01b0380851660248301528316604482015260648101829052612b759085906323b872dd60e01b906084015b60408051601f198184030181529190526020810180516001600160e01b03166001600160e01b031990931692909217909152612bc3565b50505050565b60006123ff82846134e5565b60006123ff828461347e565b6040516001600160a01b038316602482015260448101829052610f4290849063a9059cbb60e01b90606401612b3e565b6000612c18826040518060400160405280602081526020017f5361666545524332303a206c6f772d6c6576656c2063616c6c206661696c6564815250856001600160a01b0316612c959092919063ffffffff16565b805190915015610f425780806020019051810190612c369190613222565b610f425760405162461bcd60e51b815260206004820152602a60248201527f5361666545524332303a204552433230206f7065726174696f6e20646964206e6044820152691bdd081cdd58d8d9595960b21b606482015260840161055c565b6060612ca48484600085612cac565b949350505050565b606082471015612d0d5760405162461bcd60e51b815260206004820152602660248201527f416464726573733a20696e73756666696369656e742062616c616e636520666f6044820152651c8818d85b1b60d21b606482015260840161055c565b843b612d5b5760405162461bcd60e51b815260206004820152601d60248201527f416464726573733a2063616c6c20746f206e6f6e2d636f6e7472616374000000604482015260640161055c565b600080866001600160a01b03168587604051612d779190613529565b60006040518083038185875af1925050503d8060008114612db4576040519150601f19603f3d011682016040523d82523d6000602084013e612db9565b606091505b5091509150612dc9828286612dd4565b979650505050505050565b60608315612de35750816123ff565b825115612df35782518084602001fd5b8160405162461bcd60e51b815260040161055c9190613545565b6001600160a01b03811681146121d257600080fd5b60008060408385031215612e3557600080fd5b8235612e4081612e0d565b946020939093013593505050565b80151581146121d257600080fd5b600080600080600080600060e0888a031215612e7757600080fd5b8735612e8281612e0d565b96506020880135955060408801359450606088013593506080880135612ea781612e4e565b925060a0880135612eb781612e4e565b8092505060c0880135905092959891949750929550565b600080600080600080600080610100898b031215612eeb57600080fd5b8835612ef681612e0d565b97506020890135965060408901359550606089013594506080890135935060a0890135612f2281612e4e565b925060c0890135612f3281612e4e565b8092505060e089013590509295985092959890939650565b600060208284031215612f5c57600080fd5b81356123ff81612e0d565b60008060008060808587031215612f7d57600080fd5b8435612f8881612e0d565b9350602085013592506040850135612f9f81612e0d565b91506060850135612faf81612e4e565b939692955090935050565b600080600060608486031215612fcf57600080fd5b8335612fda81612e0d565b9250602084013591506040840135612ff181612e0d565b809150509250925092565b60006020828403121561300e57600080fd5b5035919050565b634e487b7160e01b600052604160045260246000fd5b604051601f8201601f1916810167ffffffffffffffff8111828210171561305457613054613015565b604052919050565b600067ffffffffffffffff82111561307657613076613015565b5060051b60200190565b600082601f83011261309157600080fd5b813560206130a66130a18361305c565b61302b565b82815260059290921b840181019181810190868411156130c557600080fd5b8286015b848110156130e057803583529183019183016130c9565b509695505050505050565b600080604083850312156130fe57600080fd5b823561310981612e0d565b9150602083013567ffffffffffffffff81111561312557600080fd5b61313185828601613080565b9150509250929050565b600080600080600080600060e0888a03121561315657600080fd5b873561316181612e0d565b9650602088013567ffffffffffffffff81111561317d57600080fd5b6131898a828b01613080565b96505060408801359450606088013593506080880135612ea781612e4e565b6000602082840312156131ba57600080fd5b813561ffff811681146123ff57600080fd5b60208082526021908201527f6974656d2073686f756c642068617665206120776179206f66207061796d656e6040820152601d60fa1b606082015260800190565b6001600160e01b031991909116815260200190565b60006020828403121561323457600080fd5b81516123ff81612e4e565b6020808252601190820152701a5d195b481b9bdd08185c1c1c9bdd9959607a1b604082015260600190565b6000602080838503121561327d57600080fd5b825167ffffffffffffffff81111561329457600080fd5b8301601f810185136132a557600080fd5b80516132b36130a18261305c565b81815260059190911b820183019083810190878311156132d257600080fd5b928401925b82841015612dc9578351825292840192908401906132d7565b634e487b7160e01b600052603260045260246000fd5b60006020828403121561331857600080fd5b81516123ff81612e0d565b96875260208701959095526040860193909352606085019190915215156080840152151560a083015260c082015260e00190565b634e487b7160e01b600052601160045260246000fd5b600060001982141561338157613381613357565b5060010190565b6020808252600f908201526e6e6f74206f776e696e67206974656d60881b604082015260600190565b6020808252818101527f4f776e61626c653a2063616c6c6572206973206e6f7420746865206f776e6572604082015260600190565b6000602082840312156133f857600080fd5b5051919050565b6020808252601f908201527f5265656e7472616e637947756172643a207265656e7472616e742063616c6c00604082015260600190565b6020808252600f908201526e6e6f74206c6973746564206974656d60881b604082015260600190565b600081600019048311821515161561347957613479613357565b500290565b60008282101561349057613490613357565b500390565b600080604083850312156134a857600080fd5b82516134b381612e0d565b6020939093015192949293505050565b6000826134e057634e487b7160e01b600052601260045260246000fd5b500490565b600082198211156134f8576134f8613357565b500190565b60005b83811015613518578181015183820152602001613500565b83811115612b755750506000910152565b6000825161353b8184602087016134fd565b9190910192915050565b60208152600082518060208401526135648160408501602087016134fd565b601f01601f1916919091016040019291505056fea2646970667358221220ae62e47ed4c20b22a27b201d01c9550dbeab2c2dbcecdbfd11fd903adf40b12464736f6c634300080a0033",
  "linkReferences": {},
  "deployedLinkReferences": {}
}