{
  "_format": "hh-sol-artifact-1",
  "contractName": "SoundchainAuction",
  "sourceName": "contracts/Auction.sol",
  "abi": [
    {
      "inputs": [
        {
          "internalType": "address payable",
          "name": "_platformFeeRecipient",
          "type": "address"
        },
        {
          "internalType": "address",
          "name": "_OGUNToken",
          "type": "address"
        },
        {
          "internalType": "uint16",
          "name": "_platformFee",
          "type": "uint16"
        },
        {
          "internalType": "uint256",
          "name": "_rewardsRate",
          "type": "uint256"
        },
        {
          "internalType": "uint256",
          "name": "_rewardsLimit",
          "type": "uint256"
        }
      ],
      "stateMutability": "nonpayable",
      "type": "constructor"
    },
    {
      "anonymous": false,
      "inputs": [
        {
          "indexed": true,
          "internalType": "address",
          "name": "nftAddress",
          "type": "address"
        },
        {
          "indexed": true,
          "internalType": "uint256",
          "name": "tokenId",
          "type": "uint256"
        }
      ],
      "name": "AuctionCancelled",
      "type": "event"
    },
    {
      "anonymous": false,
      "inputs": [
        {
          "indexed": true,
          "internalType": "address",
          "name": "nftAddress",
          "type": "address"
        },
        {
          "indexed": true,
          "internalType": "uint256",
          "name": "tokenId",
          "type": "uint256"
        },
        {
          "indexed": false,
          "internalType": "address",
          "name": "owner",
          "type": "address"
        },
        {
          "indexed": false,
          "internalType": "uint256",
          "name": "reservePrice",
          "type": "uint256"
        },
        {
          "indexed": false,
          "internalType": "bool",
          "name": "isPaymentOGUN",
          "type": "bool"
        },
        {
          "indexed": false,
          "internalType": "uint256",
          "name": "startTimestamp",
          "type": "uint256"
        },
        {
          "indexed": false,
          "internalType": "uint256",
          "name": "endTimestamp",
          "type": "uint256"
        }
      ],
      "name": "AuctionCreated",
      "type": "event"
    },
    {
      "anonymous": false,
      "inputs": [
        {
          "indexed": false,
          "internalType": "address",
          "name": "oldOwner",
          "type": "address"
        },
        {
          "indexed": true,
          "internalType": "address",
          "name": "nftAddress",
          "type": "address"
        },
        {
          "indexed": true,
          "internalType": "uint256",
          "name": "tokenId",
          "type": "uint256"
        },
        {
          "indexed": true,
          "internalType": "address",
          "name": "winner",
          "type": "address"
        },
        {
          "indexed": false,
          "internalType": "uint256",
          "name": "winningBid",
          "type": "uint256"
        }
      ],
      "name": "AuctionResulted",
      "type": "event"
    },
    {
      "anonymous": false,
      "inputs": [
        {
          "indexed": true,
          "internalType": "address",
          "name": "nftAddress",
          "type": "address"
        },
        {
          "indexed": true,
          "internalType": "uint256",
          "name": "tokenId",
          "type": "uint256"
        },
        {
          "indexed": true,
          "internalType": "address",
          "name": "bidder",
          "type": "address"
        },
        {
          "indexed": false,
          "internalType": "uint256",
          "name": "bid",
          "type": "uint256"
        }
      ],
      "name": "BidPlaced",
      "type": "event"
    },
    {
      "anonymous": false,
      "inputs": [
        {
          "indexed": true,
          "internalType": "address",
          "name": "nftAddress",
          "type": "address"
        },
        {
          "indexed": true,
          "internalType": "uint256",
          "name": "tokenId",
          "type": "uint256"
        },
        {
          "indexed": true,
          "internalType": "address",
          "name": "bidder",
          "type": "address"
        },
        {
          "indexed": false,
          "internalType": "uint256",
          "name": "bid",
          "type": "uint256"
        }
      ],
      "name": "BidRefunded",
      "type": "event"
    },
    {
      "anonymous": false,
      "inputs": [
        {
          "indexed": true,
          "internalType": "address",
          "name": "previousOwner",
          "type": "address"
        },
        {
          "indexed": true,
          "internalType": "address",
          "name": "newOwner",
          "type": "address"
        }
      ],
      "name": "OwnershipTransferred",
      "type": "event"
    },
    {
      "anonymous": false,
      "inputs": [
        {
          "indexed": false,
          "internalType": "bool",
          "name": "isPaused",
          "type": "bool"
        }
      ],
      "name": "PauseToggled",
      "type": "event"
    },
    {
      "anonymous": false,
      "inputs": [
        {
          "indexed": true,
          "internalType": "address",
          "name": "nftAddress",
          "type": "address"
        },
        {
          "indexed": true,
          "internalType": "uint256",
          "name": "tokenId",
          "type": "uint256"
        },
        {
          "indexed": false,
          "internalType": "uint256",
          "name": "reservePrice",
          "type": "uint256"
        },
        {
          "indexed": false,
          "internalType": "bool",
          "name": "isPaymentOGUN",
          "type": "bool"
        },
        {
          "indexed": false,
          "internalType": "uint256",
          "name": "startTime",
          "type": "uint256"
        },
        {
          "indexed": false,
          "internalType": "uint256",
          "name": "endTime",
          "type": "uint256"
        }
      ],
      "name": "UpdateAuction",
      "type": "event"
    },
    {
      "anonymous": false,
      "inputs": [
        {
          "indexed": false,
          "internalType": "uint256",
          "name": "minBidIncrement",
          "type": "uint256"
        }
      ],
      "name": "UpdateMinBidIncrement",
      "type": "event"
    },
    {
      "anonymous": false,
      "inputs": [
        {
          "indexed": false,
          "internalType": "uint256",
          "name": "platformFee",
          "type": "uint256"
        }
      ],
      "name": "UpdatePlatformFee",
      "type": "event"
    },
    {
      "anonymous": false,
      "inputs": [
        {
          "indexed": false,
          "internalType": "address payable",
          "name": "platformFeeRecipient",
          "type": "address"
        }
      ],
      "name": "UpdatePlatformFeeRecipient",
      "type": "event"
    },
    {
      "inputs": [],
      "name": "OGUNToken",
      "outputs": [
        {
          "internalType": "contract IERC20",
          "name": "",
          "type": "address"
        }
      ],
      "stateMutability": "view",
      "type": "function"
    },
    {
      "inputs": [
        {
          "internalType": "address",
          "name": "",
          "type": "address"
        },
        {
          "internalType": "uint256",
          "name": "",
          "type": "uint256"
        }
      ],
      "name": "auctions",
      "outputs": [
        {
          "internalType": "address",
          "name": "owner",
          "type": "address"
        },
        {
          "internalType": "uint256",
          "name": "reservePrice",
          "type": "uint256"
        },
        {
          "internalType": "bool",
          "name": "isPaymentOGUN",
          "type": "bool"
        },
        {
          "internalType": "uint256",
          "name": "startTime",
          "type": "uint256"
        },
        {
          "internalType": "uint256",
          "name": "endTime",
          "type": "uint256"
        },
        {
          "internalType": "bool",
          "name": "resulted",
          "type": "bool"
        }
      ],
      "stateMutability": "view",
      "type": "function"
    },
    {
      "inputs": [
        {
          "internalType": "address",
          "name": "_nftAddress",
          "type": "address"
        },
        {
          "internalType": "uint256",
          "name": "_tokenId",
          "type": "uint256"
        }
      ],
      "name": "cancelAuction",
      "outputs": [],
      "stateMutability": "nonpayable",
      "type": "function"
    },
    {
      "inputs": [
        {
          "internalType": "address",
          "name": "_nftAddress",
          "type": "address"
        },
        {
          "internalType": "uint256",
          "name": "_tokenId",
          "type": "uint256"
        },
        {
          "internalType": "uint256",
          "name": "_reservePrice",
          "type": "uint256"
        },
        {
          "internalType": "bool",
          "name": "_isPaymentOGUN",
          "type": "bool"
        },
        {
          "internalType": "uint256",
          "name": "_startTimestamp",
          "type": "uint256"
        },
        {
          "internalType": "uint256",
          "name": "_endTimestamp",
          "type": "uint256"
        }
      ],
      "name": "createAuction",
      "outputs": [],
      "stateMutability": "nonpayable",
      "type": "function"
    },
    {
      "inputs": [
        {
          "internalType": "address",
          "name": "_nftAddress",
          "type": "address"
        },
        {
          "internalType": "uint256",
          "name": "_tokenId",
          "type": "uint256"
        }
      ],
      "name": "getAuction",
      "outputs": [
        {
          "internalType": "address",
          "name": "_owner",
          "type": "address"
        },
        {
          "internalType": "uint256",
          "name": "_reservePrice",
          "type": "uint256"
        },
        {
          "internalType": "bool",
          "name": "_isPaymentOGUN",
          "type": "bool"
        },
        {
          "internalType": "uint256",
          "name": "_startTime",
          "type": "uint256"
        },
        {
          "internalType": "uint256",
          "name": "_endTime",
          "type": "uint256"
        },
        {
          "internalType": "bool",
          "name": "_resulted",
          "type": "bool"
        }
      ],
      "stateMutability": "view",
      "type": "function"
    },
    {
      "inputs": [
        {
          "internalType": "address",
          "name": "_nftAddress",
          "type": "address"
        },
        {
          "internalType": "uint256",
          "name": "_tokenId",
          "type": "uint256"
        }
      ],
      "name": "getHighestBidder",
      "outputs": [
        {
          "internalType": "address payable",
          "name": "_bidder",
          "type": "address"
        },
        {
          "internalType": "uint256",
          "name": "_bid",
          "type": "uint256"
        },
        {
          "internalType": "uint256",
          "name": "_lastBidTime",
          "type": "uint256"
        }
      ],
      "stateMutability": "view",
      "type": "function"
    },
    {
      "inputs": [
        {
          "internalType": "address",
          "name": "",
          "type": "address"
        },
        {
          "internalType": "uint256",
          "name": "",
          "type": "uint256"
        }
      ],
      "name": "highestBids",
      "outputs": [
        {
          "internalType": "address payable",
          "name": "bidder",
          "type": "address"
        },
        {
          "internalType": "uint256",
          "name": "bid",
          "type": "uint256"
        },
        {
          "internalType": "uint256",
          "name": "lastBidTime",
          "type": "uint256"
        }
      ],
      "stateMutability": "view",
      "type": "function"
    },
    {
      "inputs": [],
      "name": "isPaused",
      "outputs": [
        {
          "internalType": "bool",
          "name": "",
          "type": "bool"
        }
      ],
      "stateMutability": "view",
      "type": "function"
    },
    {
      "inputs": [],
      "name": "minBidIncrement",
      "outputs": [
        {
          "internalType": "uint256",
          "name": "",
          "type": "uint256"
        }
      ],
      "stateMutability": "view",
      "type": "function"
    },
    {
      "inputs": [],
      "name": "owner",
      "outputs": [
        {
          "internalType": "address",
          "name": "",
          "type": "address"
        }
      ],
      "stateMutability": "view",
      "type": "function"
    },
    {
      "inputs": [
        {
          "internalType": "address",
          "name": "_nftAddress",
          "type": "address"
        },
        {
          "internalType": "uint256",
          "name": "_tokenId",
          "type": "uint256"
        },
        {
          "internalType": "bool",
          "name": "_isPaymentOGUN",
          "type": "bool"
        },
        {
          "internalType": "uint256",
          "name": "_bidAmount",
          "type": "uint256"
        }
      ],
      "name": "placeBid",
      "outputs": [],
      "stateMutability": "payable",
      "type": "function"
    },
    {
      "inputs": [],
      "name": "platformFee",
      "outputs": [
        {
          "internalType": "uint256",
          "name": "",
          "type": "uint256"
        }
      ],
      "stateMutability": "view",
      "type": "function"
    },
    {
      "inputs": [],
      "name": "platformFeeRecipient",
      "outputs": [
        {
          "internalType": "address payable",
          "name": "",
          "type": "address"
        }
      ],
      "stateMutability": "view",
      "type": "function"
    },
    {
      "inputs": [],
      "name": "renounceOwnership",
      "outputs": [],
      "stateMutability": "nonpayable",
      "type": "function"
    },
    {
      "inputs": [
        {
          "internalType": "address",
          "name": "_nftAddress",
          "type": "address"
        },
        {
          "internalType": "uint256",
          "name": "_tokenId",
          "type": "uint256"
        }
      ],
      "name": "resultAuction",
      "outputs": [],
      "stateMutability": "nonpayable",
      "type": "function"
    },
    {
      "inputs": [],
      "name": "rewardsLimit",
      "outputs": [
        {
          "internalType": "uint256",
          "name": "",
          "type": "uint256"
        }
      ],
      "stateMutability": "view",
      "type": "function"
    },
    {
      "inputs": [],
      "name": "rewardsRate",
      "outputs": [
        {
          "internalType": "uint256",
          "name": "",
          "type": "uint256"
        }
      ],
      "stateMutability": "view",
      "type": "function"
    },
    {
      "inputs": [
        {
          "internalType": "uint256",
          "name": "newLimit",
          "type": "uint256"
        }
      ],
      "name": "setRewardsLimit",
      "outputs": [],
      "stateMutability": "nonpayable",
      "type": "function"
    },
    {
      "inputs": [
        {
          "internalType": "uint256",
          "name": "_rewardsRate",
          "type": "uint256"
        }
      ],
      "name": "setRewardsRate",
      "outputs": [],
      "stateMutability": "nonpayable",
      "type": "function"
    },
    {
      "inputs": [],
      "name": "toggleIsPaused",
      "outputs": [],
      "stateMutability": "nonpayable",
      "type": "function"
    },
    {
      "inputs": [
        {
          "internalType": "address",
          "name": "newOwner",
          "type": "address"
        }
      ],
      "name": "transferOwnership",
      "outputs": [],
      "stateMutability": "nonpayable",
      "type": "function"
    },
    {
      "inputs": [
        {
          "internalType": "address",
          "name": "_nftAddress",
          "type": "address"
        },
        {
          "internalType": "uint256",
          "name": "_tokenId",
          "type": "uint256"
        },
        {
          "internalType": "uint256",
          "name": "_reservePrice",
          "type": "uint256"
        },
        {
          "internalType": "bool",
          "name": "_isPaymentOGUN",
          "type": "bool"
        },
        {
          "internalType": "uint256",
          "name": "_startTime",
          "type": "uint256"
        },
        {
          "internalType": "uint256",
          "name": "_endTime",
          "type": "uint256"
        }
      ],
      "name": "updateAuction",
      "outputs": [],
      "stateMutability": "nonpayable",
      "type": "function"
    },
    {
      "inputs": [
        {
          "internalType": "uint256",
          "name": "_minBidIncrement",
          "type": "uint256"
        }
      ],
      "name": "updateMinBidIncrement",
      "outputs": [],
      "stateMutability": "nonpayable",
      "type": "function"
    },
    {
      "inputs": [
        {
          "internalType": "uint256",
          "name": "_platformFee",
          "type": "uint256"
        }
      ],
      "name": "updatePlatformFee",
      "outputs": [],
      "stateMutability": "nonpayable",
      "type": "function"
    },
    {
      "inputs": [
        {
          "internalType": "address payable",
          "name": "_platformFeeRecipient",
          "type": "address"
        }
      ],
      "name": "updatePlatformFeeRecipient",
      "outputs": [],
      "stateMutability": "nonpayable",
      "type": "function"
    },
    {
      "inputs": [
        {
          "internalType": "address",
          "name": "destination",
          "type": "address"
        }
      ],
      "name": "withdraw",
      "outputs": [],
      "stateMutability": "nonpayable",
      "type": "function"
    }
  ],
  "bytecode": "0x60a060405260016006553480156200001657600080fd5b5060405162002ce538038062002ce5833981016040819052620000399162000167565b6200004433620000fe565b600180556001600160a01b038085166080528516620000c35760405162461bcd60e51b815260206004820152603160248201527f536f756e64636861696e41756374696f6e3a20496e76616c696420506c6174666044820152701bdc9b4811995948149958da5c1a595b9d607a1b606482015260840160405180910390fd5b61ffff909216600755600880546001600160a01b039095166001600160a01b03199095169490941790935560029290925550600355620001d2565b600080546001600160a01b038381166001600160a01b0319831681178455604051919092169283917f8be0079c531659141344cd1fd0a4f28419497f9722a3daafe3b4186f6b6457e09190a35050565b6001600160a01b03811681146200016457600080fd5b50565b600080600080600060a086880312156200018057600080fd5b85516200018d816200014e565b6020870151909550620001a0816200014e565b604087015190945061ffff81168114620001b957600080fd5b6060870151608090970151959894975095949392505050565b608051612ab162000234600039600081816105080152818161083c015281816108d801528181610d3e01528181610ec801528181610fda01528181611051015281816110d90152818161110f01528181611ee101526123950152612ab16000f3fe6080604052600436106101815760003560e01c80638da5cb5b116100d1578063b187bd261161008a578063eb13554f11610064578063eb13554f146105b1578063f2fde38b146105d1578063f5fe7f71146105f1578063f9613d7f1461061157600080fd5b8063b187bd261461054a578063b6e6096d1461057b578063ca8a0d421461059157600080fd5b80638da5cb5b146104315780638fc80b621461046357806395d546a114610483578063a670a9b4146104a3578063a770da20146104f6578063aa0b59881461052a57600080fd5b8063523bc7d51161013e578063715018a611610118578063715018a61461036e57806374791fb614610383578063762a66a2146103a3578063859b97fe1461041157600080fd5b8063523bc7d5146102c25780635f7063ef146102d85780636b753f36146102f857600080fd5b8063077c2fbb14610186578063083759e01461019b57806326232a2e146101bb578063335b115e146101e457806344f91c1e146101fa57806351cff8d9146102a2575b600080fd5b610199610194366004612731565b610626565b005b3480156101a757600080fd5b506101996101b6366004612779565b6107d8565b3480156101c757600080fd5b506101d160075481565b6040519081526020015b60405180910390f35b3480156101f057600080fd5b506101d160065481565b34801561020657600080fd5b50610263610215366004612792565b600460208181526000938452604080852090915291835291208054600182015460028301546003840154948401546005909401546001600160a01b0390931694919360ff9182169390911686565b604080516001600160a01b03909716875260208701959095529215159385019390935260608401526080830191909152151560a082015260c0016101db565b3480156102ae57600080fd5b506101996102bd3660046127be565b61081c565b3480156102ce57600080fd5b506101d160025481565b3480156102e457600080fd5b506101996102f3366004612792565b61094c565b34801561030457600080fd5b50610349610313366004612792565b60056020908152600092835260408084209091529082529020805460018201546002909201546001600160a01b03909116919083565b604080516001600160a01b0390941684526020840192909252908201526060016101db565b34801561037a57600080fd5b5061019961138b565b34801561038f57600080fd5b5061019961039e366004612779565b61139f565b3480156103af57600080fd5b506102636103be366004612792565b6001600160a01b0391821660009081526004602081815260408084209484529390529190208054600182015460028301546003840154948401546005909401549290951695909460ff9081169493921690565b34801561041d57600080fd5b5061019961042c366004612792565b6113ac565b34801561043d57600080fd5b506000546001600160a01b03165b6040516001600160a01b0390911681526020016101db565b34801561046f57600080fd5b5061019961047e366004612779565b611671565b34801561048f57600080fd5b5061019961049e3660046127db565b61167e565b3480156104af57600080fd5b506103496104be366004612792565b6001600160a01b0391821660009081526005602090815260408083209383529290522080546001820154600290920154921692909190565b34801561050257600080fd5b5061044b7f000000000000000000000000000000000000000000000000000000000000000081565b34801561053657600080fd5b50610199610545366004612779565b611a22565b34801561055657600080fd5b5060085461056b90600160a01b900460ff1681565b60405190151581526020016101db565b34801561058757600080fd5b506101d160035481565b34801561059d57600080fd5b506101996105ac3660046127db565b611a5f565b3480156105bd57600080fd5b5060085461044b906001600160a01b031681565b3480156105dd57600080fd5b506101996105ec3660046127be565b611bf7565b3480156105fd57600080fd5b5061019961060c3660046127be565b611c70565b34801561061d57600080fd5b50610199611d0b565b600260015414156106525760405162461bcd60e51b815260040161064990612837565b60405180910390fd5b6002600155600854600160a01b900460ff16156106815760405162461bcd60e51b81526004016106499061286e565b333b156106c95760405162461bcd60e51b81526020600482015260166024820152751b9bc818dbdb9d1c9858dd1cc81c195c9b5a5d1d195960521b6044820152606401610649565b6001600160a01b038481166000908152600460208181526040808420888552825292839020835160c08101855281549095168552600181015491850191909152600281015460ff90811615159385019390935260038101546060850181905291810154608085015260050154909116151560a08301524210158015610752575060808101514211155b6107ac5760405162461bcd60e51b815260206004820152602560248201527f62696464696e67206f757473696465206f66207468652061756374696f6e2077604482015264696e646f7760d81b6064820152608401610649565b82156107c2576107bd858584611d79565b6107cd565b6107cd858534611d79565b505060018055505050565b6107e0611fb0565b60068190556040518181527f489b0441344cbdcb036bee4857de51567f580e9747166f76b581be803ca45fcb906020015b60405180910390a150565b610824611fb0565b6040516370a0823160e01b81523060048201526000907f00000000000000000000000000000000000000000000000000000000000000006001600160a01b0316906370a0823190602401602060405180830381865afa15801561088b573d6000803e3d6000fd5b505050506040513d601f19601f820116820180604052508101906108af9190612897565b60405163a9059cbb60e01b81526001600160a01b038481166004830152602482018390529192507f00000000000000000000000000000000000000000000000000000000000000009091169063a9059cbb906044016020604051808303816000875af1158015610923573d6000803e3d6000fd5b505050506040513d601f19601f8201168201806040525081019061094791906128b0565b505050565b6002600154141561096f5760405162461bcd60e51b815260040161064990612837565b600260019081556001600160a01b0383811660008181526004602090815260408083208784528252808320938352600582528083208784529091529020805493810154919390921690336040516331a9108f60e11b8152600481018790526001600160a01b0391821691881690636352211e90602401602060405180830381865afa158015610a02573d6000803e3d6000fd5b505050506040513d601f19601f82011682018060405250810190610a2691906128cd565b6001600160a01b0316148015610a4e575083546001600160a01b0316336001600160a01b0316145b80610a615750336001600160a01b038316145b610ab95760405162461bcd60e51b815260206004820152602360248201527f73656e646572206d757374206265206974656d206f776e6572206f722077696e6044820152623732b960e91b6064820152608401610649565b6000846004015411610add5760405162461bcd60e51b8152600401610649906128ea565b60048401544211610b245760405162461bcd60e51b8152602060048201526011602482015270185d58dd1a5bdb881b9bdd08195b991959607a1b6044820152606401610649565b600584015460ff1615610b495760405162461bcd60e51b815260040161064990612915565b6001600160a01b038216610b8e5760405162461bcd60e51b815260206004820152600c60248201526b6e6f206f70656e206269647360a01b6044820152606401610649565b83600101548111610beb5760405162461bcd60e51b815260206004820152602160248201527f68696768657374206269642069732062656c6f772072657365727665507269636044820152606560f81b6064820152608401610649565b835460405163e985e9c560e01b81526001600160a01b0391821660048201523060248201529087169063e985e9c590604401602060405180830381865afa158015610c3a573d6000803e3d6000fd5b505050506040513d601f19601f82011682018060405250810190610c5e91906128b0565b610ca15760405162461bcd60e51b8152602060048201526014602482015273185d58dd1a5bdb881b9bdd08185c1c1c9bdd995960621b6044820152606401610649565b6005808501805460ff191660019081179091556001600160a01b03881660009081526020928352604080822089835290935291822080546001600160a01b0319168155808201839055600201829055850154821115610e23576000610d1d612710610d176007548661200a90919063ffffffff16565b9061201d565b600287015490915060ff1615610d6c57600854610d67906001600160a01b037f00000000000000000000000000000000000000000000000000000000000000008116911683612029565b610e11565b6008546040516000916001600160a01b03169083908381818185875af1925050503d8060008114610db9576040519150601f19603f3d011682016040523d82523d6000602084013e610dbe565b606091505b5050905080610e0f5760405162461bcd60e51b815260206004820152601b60248201527f6661696c656420746f2073656e6420706c6174666f726d2066656500000000006044820152606401610649565b505b610e1b838261208c565b915050610e26565b50805b60405163152a902d60e11b8152600481018790526024810182905260009081906001600160a01b038a1690632a55205a906044016040805180830381865afa158015610e76573d6000803e3d6000fd5b505050506040513d601f19601f82011682018060405250810190610e9a919061294c565b90925090506001600160a01b03821615610fb757600287015460ff1615610ef457610eef6001600160a01b037f0000000000000000000000000000000000000000000000000000000000000000168383612029565b610faa565b6000826001600160a01b03168260405160006040518083038185875af1925050503d8060008114610f41576040519150601f19603f3d011682016040523d82523d6000602084013e610f46565b606091505b5050905080610fa85760405162461bcd60e51b815260206004820152602860248201527f6661696c656420746f2073656e6420746865206f776e657220746865697220726044820152676f79616c7469657360c01b6064820152608401610649565b505b610fb4838261208c565b92505b82156111f557600287015460ff161561113c578654611003906001600160a01b037f00000000000000000000000000000000000000000000000000000000000000008116911685612029565b6000611020612710610d176002548861200a90919063ffffffff16565b905060035481111561103157506003545b61103c81600261200a565b6040516370a0823160e01b81523060048201527f00000000000000000000000000000000000000000000000000000000000000006001600160a01b0316906370a0823190602401602060405180830381865afa1580156110a0573d6000803e3d6000fd5b505050506040513d601f19601f820116820180604052508101906110c49190612897565b10611136578754611102906001600160a01b037f00000000000000000000000000000000000000000000000000000000000000008116911683612029565b6111366001600160a01b037f0000000000000000000000000000000000000000000000000000000000000000168783612029565b506111f5565b86546040516000916001600160a01b03169085908381818185875af1925050503d8060008114611188576040519150601f19603f3d011682016040523d82523d6000602084013e61118d565b606091505b50509050806111f35760405162461bcd60e51b815260206004820152602c60248201527f6661696c656420746f2073656e6420746865206f776e6572207468652061756360448201526b74696f6e2062616c616e636560a01b6064820152608401610649565b505b6040516331a9108f60e11b8152600481018990526001600160a01b038a16906342842e0e908290636352211e90602401602060405180830381865afa158015611242573d6000803e3d6000fd5b505050506040513d601f19601f8201168201806040525081019061126691906128cd565b6040516001600160e01b031960e084901b1681526001600160a01b0391821660048201529088166024820152604481018b9052606401600060405180830381600087803b1580156112b657600080fd5b505af11580156112ca573d6000803e3d6000fd5b50508854604080516001600160a01b0392831681526020810189905289831694508c9350918d16917f5a0c36f9e4fbfc64c8006c9c268b8b075c000da8498da5148237875465b28926910160405180910390a45050506001600160a01b03909516600090815260046020818152604080842097845296905294812080546001600160a01b0319168155600180820183905560028201805460ff1990811690915560038301849055968201929092556005018054909516909455505050805550565b611393611fb0565b61139d6000612098565b565b6113a7611fb0565b600255565b600260015414156113cf5760405162461bcd60e51b815260040161064990612837565b600260018181556001600160a01b038481166000818152600460208181526040808420898552825292839020835160c0810185528154909616865295860154858201529585015460ff90811615158584015260038601546060860152858201546080860152600590950154909416151560a084015280516331a9108f60e11b815293840186905251919333939192636352211e9260248082019392918290030181865afa158015611484573d6000803e3d6000fd5b505050506040513d601f19601f820116820180604052508101906114a891906128cd565b6001600160a01b03161480156114d0575080516001600160a01b0316336001600160a01b0316145b6115135760405162461bcd60e51b815260206004820152601460248201527339b2b73232b91036bab9ba1031329037bbb732b960611b6044820152606401610649565b60008160800151116115375760405162461bcd60e51b8152600401610649906128ea565b8060a00151156115595760405162461bcd60e51b815260040161064990612915565b6001600160a01b0383166000908152600560209081526040808320858452909152902060010154156115e15760405162461bcd60e51b815260206004820152602b60248201527f63616e206e6f742063616e63656c2069662061756374696f6e2068617320612060448201526a62696420616c726561647960a81b6064820152608401610649565b6001600160a01b038316600081815260046020818152604080842087855290915280832080546001600160a01b03191681556001810184905560028101805460ff19908116909155600382018590559281018490556005018054909216909155518492917f018b64b6242d32aa550e95d78985b938d71af5b3f10827b0683f55da1639304891a350506001805550565b611679611fb0565b600355565b6001600160a01b0386811660009081526004602090815260408083208984529091529020805490911633146116f55760405162461bcd60e51b815260206004820152601960248201527f73656e646572206d757374206265206974656d206f776e6572000000000000006044820152606401610649565b600581015460ff161561171a5760405162461bcd60e51b815260040161064990612915565b600081600401541161173e5760405162461bcd60e51b8152600401610649906128ea565b600083116117835760405162461bcd60e51b8152602060048201526012602482015271696e76616c69642073746172742074696d6560701b6044820152606401610649565b42600382015461179490603c612990565b116117db5760405162461bcd60e51b8152602060048201526017602482015276185d58dd1a5bdb88185b1c9958591e481cdd185c9d1959604a1b6044820152606401610649565b816117e88461012c612990565b106118545760405162461bcd60e51b815260206004820152603660248201527f73746172742074696d652073686f756c64206265206c657373207468616e20656044820152756e642074696d65202862792035206d696e757465732960501b6064820152608401610649565b8183106118af5760405162461bcd60e51b815260206004820152602360248201527f656e642074696d65206d7573742062652067726561746572207468616e207374604482015262185c9d60ea1b6064820152608401610649565b6118bb4261012c612990565b82116119145760405162461bcd60e51b815260206004820152602260248201527f61756374696f6e2073686f756c6420656e642061667465722035206d696e7574604482015261657360f01b6064820152608401610649565b6001600160a01b03871660009081526005602090815260408083208984529091529020600101541561199c5760405162461bcd60e51b815260206004820152602b60248201527f63616e206e6f74207570646174652069662061756374696f6e2068617320612060448201526a62696420616c726561647960a81b6064820152608401610649565b600481018290556001810185905560028101805460ff19168515159081179091556003820184905560408051878152602081019290925281018490526060810183905286906001600160a01b038916907f6bcff5757f1a9df62fe92a00740dffad0fb4b82bd7a1ffafcd00cdc2c2d2d5af9060800160405180910390a350505050505050565b611a2a611fb0565b60078190556040518181527f2644fd26359c107ff7991b6dfc36ce902b334ce4e3891bbecacc5922aa620efa90602001610811565b600854600160a01b900460ff1615611a895760405162461bcd60e51b81526004016106499061286e565b336040516331a9108f60e11b8152600481018790526001600160a01b0391821691881690636352211e90602401602060405180830381865afa158015611ad3573d6000803e3d6000fd5b505050506040513d601f19601f82011682018060405250810190611af791906128cd565b6001600160a01b0316148015611b8657506001600160a01b03861663e985e9c5336040516001600160e01b031960e084901b1681526001600160a01b039091166004820152306024820152604401602060405180830381865afa158015611b62573d6000803e3d6000fd5b505050506040513d601f19601f82011682018060405250810190611b8691906128b0565b611be15760405162461bcd60e51b815260206004820152602660248201527f6e6f74206f776e657220616e64206f7220636f6e7472616374206e6f742061706044820152651c1c9bdd995960d21b6064820152608401610649565b611bef8686868686866120e8565b505050505050565b611bff611fb0565b6001600160a01b038116611c645760405162461bcd60e51b815260206004820152602660248201527f4f776e61626c653a206e6577206f776e657220697320746865207a65726f206160448201526564647265737360d01b6064820152608401610649565b611c6d81612098565b50565b611c78611fb0565b6001600160a01b038116611cbd5760405162461bcd60e51b815260206004820152600c60248201526b7a65726f206164647265737360a01b6044820152606401610649565b600880546001600160a01b0319166001600160a01b0383169081179091556040519081527fe57e7c1f36cc83fade34e32351e6eee7eb9da532662b1b5da10c631e8222aca790602001610811565b611d13611fb0565b6008805460ff600160a01b808304821615810260ff60a01b1990931692909217928390556040517f9077d36bc00859b5c3f320310707208543dd35092cb0a0fe117d0c6a558b148b93611d6f9390049091161515815260200190565b60405180910390a1565b600854600160a01b900460ff1615611da35760405162461bcd60e51b81526004016106499061286e565b6001600160a01b038316600090815260046020908152604080832085845290915290206001810154821015611e295760405162461bcd60e51b815260206004820152602660248201527f6269642063616e6e6f74206265206c6f776572207468616e207265736572766560448201526520707269636560d01b6064820152608401610649565b6001600160a01b038416600090815260056020908152604080832086845290915281206006546001820154919291611e7d91606491611e6891906129a8565b611e7291906129c7565b600184015490612338565b905080841015611ecf5760405162461bcd60e51b815260206004820152601f60248201527f6661696c656420746f206f7574626964206869676865737420626964646572006044820152606401610649565b600283015460ff1615611f1157611f117f00000000000000000000000000000000000000000000000000000000000000006001600160a01b0316333087612344565b81546001600160a01b031615611f4957815460018301546002850154611f4992899289926001600160a01b039092169160ff16612382565b81546001600160a01b0319163390811783556001830185905542600284015560405185815286906001600160a01b038916907f0158f5674dc243762459b88cfc91b10d2d1ef9d40821cca978c2b680aa4446829060200160405180910390a4505050505050565b6000546001600160a01b0316331461139d5760405162461bcd60e51b815260206004820181905260248201527f4f776e61626c653a2063616c6c6572206973206e6f7420746865206f776e65726044820152606401610649565b600061201682846129a8565b9392505050565b600061201682846129c7565b6040516001600160a01b03831660248201526044810182905261094790849063a9059cbb60e01b906064015b60408051601f198184030181529190526020810180516001600160e01b03166001600160e01b0319909316929092179091526124bb565b600061201682846129e9565b600080546001600160a01b038381166001600160a01b0319831681178455604051919092169283917f8be0079c531659141344cd1fd0a4f28419497f9722a3daafe3b4186f6b6457e09190a35050565b6001600160a01b03861660009081526004602081815260408084208985529091529091200154156121555760405162461bcd60e51b8152602060048201526017602482015276185d58dd1a5bdb88185b1c9958591e481cdd185c9d1959604a1b6044820152606401610649565b6121618261012c612990565b8110156121cb5760405162461bcd60e51b815260206004820152603260248201527f656e642074696d65206d7573742062652067726561746572207468616e207374604482015271617274202862792035206d696e757465732960701b6064820152608401610649565b42821161220f5760405162461bcd60e51b8152602060048201526012602482015271696e76616c69642073746172742074696d6560701b6044820152606401610649565b6040518060c001604052806122213390565b6001600160a01b039081168252602080830188905286151560408085019190915260608085018890526080808601889052600060a09687018190528d861680825260048087528583208f8452875291859020895181546001600160a01b03191698169790971787559488015160018701559287015160028601805460ff19908116921515929092179055918701516003860155860151918401919091559390920151600590910180549093169015151790915585907f23b5f938d25f967726cff150f2a68c53a5023ce609cf7d4fb399ff0b27e9925e33604080516001600160a01b0390921682526020820189905287151590820152606081018690526080810185905260a00160405180910390a3505050505050565b60006120168284612990565b6040516001600160a01b038085166024830152831660448201526064810182905261237c9085906323b872dd60e01b90608401612055565b50505050565b80156123c1576123bc6001600160a01b037f0000000000000000000000000000000000000000000000000000000000000000168484612029565b612466565b6000836001600160a01b03168360405160006040518083038185875af1925050503d806000811461240e576040519150601f19603f3d011682016040523d82523d6000602084013e612413565b606091505b50509050806124645760405162461bcd60e51b815260206004820181905260248201527f6661696c656420746f20726566756e642070726576696f7573206269646465726044820152606401610649565b505b826001600160a01b031684866001600160a01b03167f90e20d1ba82eaa07a212267355536f76bc83bf91c81fd41b74283c4082e76952856040516124ac91815260200190565b60405180910390a45050505050565b6000612510826040518060400160405280602081526020017f5361666545524332303a206c6f772d6c6576656c2063616c6c206661696c6564815250856001600160a01b031661258d9092919063ffffffff16565b805190915015610947578080602001905181019061252e91906128b0565b6109475760405162461bcd60e51b815260206004820152602a60248201527f5361666545524332303a204552433230206f7065726174696f6e20646964206e6044820152691bdd081cdd58d8d9595960b21b6064820152608401610649565b606061259c84846000856125a4565b949350505050565b6060824710156126055760405162461bcd60e51b815260206004820152602660248201527f416464726573733a20696e73756666696369656e742062616c616e636520666f6044820152651c8818d85b1b60d21b6064820152608401610649565b6001600160a01b0385163b61265c5760405162461bcd60e51b815260206004820152601d60248201527f416464726573733a2063616c6c20746f206e6f6e2d636f6e74726163740000006044820152606401610649565b600080866001600160a01b031685876040516126789190612a2c565b60006040518083038185875af1925050503d80600081146126b5576040519150601f19603f3d011682016040523d82523d6000602084013e6126ba565b606091505b50915091506126ca8282866126d5565b979650505050505050565b606083156126e4575081612016565b8251156126f45782518084602001fd5b8160405162461bcd60e51b81526004016106499190612a48565b6001600160a01b0381168114611c6d57600080fd5b8015158114611c6d57600080fd5b6000806000806080858703121561274757600080fd5b84356127528161270e565b935060208501359250604085013561276981612723565b9396929550929360600135925050565b60006020828403121561278b57600080fd5b5035919050565b600080604083850312156127a557600080fd5b82356127b08161270e565b946020939093013593505050565b6000602082840312156127d057600080fd5b81356120168161270e565b60008060008060008060c087890312156127f457600080fd5b86356127ff8161270e565b95506020870135945060408701359350606087013561281d81612723565b9598949750929560808101359460a0909101359350915050565b6020808252601f908201527f5265656e7472616e637947756172643a207265656e7472616e742063616c6c00604082015260600190565b6020808252600f908201526e18dbdb9d1c9858dd081c185d5cd959608a1b604082015260600190565b6000602082840312156128a957600080fd5b5051919050565b6000602082840312156128c257600080fd5b815161201681612723565b6000602082840312156128df57600080fd5b81516120168161270e565b6020808252601190820152706e6f2061756374696f6e2065786973747360781b604082015260600190565b60208082526018908201527f61756374696f6e20616c726561647920726573756c7465640000000000000000604082015260600190565b6000806040838503121561295f57600080fd5b825161296a8161270e565b6020939093015192949293505050565b634e487b7160e01b600052601160045260246000fd5b600082198211156129a3576129a361297a565b500190565b60008160001904831182151516156129c2576129c261297a565b500290565b6000826129e457634e487b7160e01b600052601260045260246000fd5b500490565b6000828210156129fb576129fb61297a565b500390565b60005b83811015612a1b578181015183820152602001612a03565b8381111561237c5750506000910152565b60008251612a3e818460208701612a00565b9190910192915050565b6020815260008251806020840152612a67816040850160208701612a00565b601f01601f1916919091016040019291505056fea2646970667358221220a6944d859d38741680f401bb78a9edcac07cd4a227994e3b57d74c0e7dd1071d64736f6c634300080a0033",
  "linkReferences": {},
  "deployedLinkReferences": {}
}