{
  "_format": "hh-sol-artifact-1",
  "contractName": "Soundchain721Editions",
  "sourceName": "contracts/Soundchain721Editions.sol",
  "abi": [
    {
      "inputs": [
        {
          "internalType": "string",
          "name": "contractURI_",
          "type": "string"
        }
      ],
      "stateMutability": "nonpayable",
      "type": "constructor"
    },
    {
      "inputs": [],
      "name": "ApprovalCallerNotOwnerNorApproved",
      "type": "error"
    },
    {
      "inputs": [],
      "name": "ApprovalQueryForNonexistentToken",
      "type": "error"
    },
    {
      "inputs": [],
      "name": "ApproveToCaller",
      "type": "error"
    },
    {
      "inputs": [],
      "name": "BalanceQueryForZeroAddress",
      "type": "error"
    },
    {
      "inputs": [],
      "name": "MintERC2309QuantityExceedsLimit",
      "type": "error"
    },
    {
      "inputs": [],
      "name": "MintToZeroAddress",
      "type": "error"
    },
    {
      "inputs": [],
      "name": "MintZeroQuantity",
      "type": "error"
    },
    {
      "inputs": [],
      "name": "OwnerQueryForNonexistentToken",
      "type": "error"
    },
    {
      "inputs": [],
      "name": "OwnershipNotInitializedForExtraData",
      "type": "error"
    },
    {
      "inputs": [],
      "name": "TransferCallerNotOwnerNorApproved",
      "type": "error"
    },
    {
      "inputs": [],
      "name": "TransferFromIncorrectOwner",
      "type": "error"
    },
    {
      "inputs": [],
      "name": "TransferToNonERC721ReceiverImplementer",
      "type": "error"
    },
    {
      "inputs": [],
      "name": "TransferToZeroAddress",
      "type": "error"
    },
    {
      "inputs": [],
      "name": "URIQueryForNonexistentToken",
      "type": "error"
    },
    {
      "anonymous": false,
      "inputs": [
        {
          "indexed": true,
          "internalType": "address",
          "name": "owner",
          "type": "address"
        },
        {
          "indexed": true,
          "internalType": "address",
          "name": "approved",
          "type": "address"
        },
        {
          "indexed": true,
          "internalType": "uint256",
          "name": "tokenId",
          "type": "uint256"
        }
      ],
      "name": "Approval",
      "type": "event"
    },
    {
      "anonymous": false,
      "inputs": [
        {
          "indexed": true,
          "internalType": "address",
          "name": "owner",
          "type": "address"
        },
        {
          "indexed": true,
          "internalType": "address",
          "name": "operator",
          "type": "address"
        },
        {
          "indexed": false,
          "internalType": "bool",
          "name": "approved",
          "type": "bool"
        }
      ],
      "name": "ApprovalForAll",
      "type": "event"
    },
    {
      "anonymous": false,
      "inputs": [
        {
          "indexed": true,
          "internalType": "uint256",
          "name": "fromTokenId",
          "type": "uint256"
        },
        {
          "indexed": false,
          "internalType": "uint256",
          "name": "toTokenId",
          "type": "uint256"
        },
        {
          "indexed": true,
          "internalType": "address",
          "name": "from",
          "type": "address"
        },
        {
          "indexed": true,
          "internalType": "address",
          "name": "to",
          "type": "address"
        }
      ],
      "name": "ConsecutiveTransfer",
      "type": "event"
    },
    {
      "anonymous": false,
      "inputs": [
        {
          "indexed": false,
          "internalType": "uint256",
          "name": "quantity",
          "type": "uint256"
        },
        {
          "indexed": true,
          "internalType": "uint256",
          "name": "editionNumber",
          "type": "uint256"
        },
        {
          "indexed": false,
          "internalType": "address",
          "name": "owner",
          "type": "address"
        }
      ],
      "name": "EditionCreated",
      "type": "event"
    },
    {
      "anonymous": false,
      "inputs": [
        {
          "indexed": true,
          "internalType": "address",
          "name": "previousOwner",
          "type": "address"
        },
        {
          "indexed": true,
          "internalType": "address",
          "name": "newOwner",
          "type": "address"
        }
      ],
      "name": "OwnershipTransferred",
      "type": "event"
    },
    {
      "anonymous": false,
      "inputs": [
        {
          "indexed": true,
          "internalType": "address",
          "name": "from",
          "type": "address"
        },
        {
          "indexed": true,
          "internalType": "address",
          "name": "to",
          "type": "address"
        },
        {
          "indexed": true,
          "internalType": "uint256",
          "name": "tokenId",
          "type": "uint256"
        }
      ],
      "name": "Transfer",
      "type": "event"
    },
    {
      "inputs": [
        {
          "internalType": "address",
          "name": "to",
          "type": "address"
        },
        {
          "internalType": "uint256",
          "name": "tokenId",
          "type": "uint256"
        }
      ],
      "name": "approve",
      "outputs": [],
      "stateMutability": "nonpayable",
      "type": "function"
    },
    {
      "inputs": [
        {
          "internalType": "address",
          "name": "owner",
          "type": "address"
        }
      ],
      "name": "balanceOf",
      "outputs": [
        {
          "internalType": "uint256",
          "name": "",
          "type": "uint256"
        }
      ],
      "stateMutability": "view",
      "type": "function"
    },
    {
      "inputs": [
        {
          "internalType": "uint256",
          "name": "tokenId",
          "type": "uint256"
        }
      ],
      "name": "burn",
      "outputs": [],
      "stateMutability": "nonpayable",
      "type": "function"
    },
    {
      "inputs": [],
      "name": "contractURI",
      "outputs": [
        {
          "internalType": "string",
          "name": "",
          "type": "string"
        }
      ],
      "stateMutability": "view",
      "type": "function"
    },
    {
      "inputs": [
        {
          "internalType": "uint256",
          "name": "editionQuantity",
          "type": "uint256"
        },
        {
          "internalType": "address",
          "name": "to",
          "type": "address"
        },
        {
          "internalType": "uint8",
          "name": "_royaltyPercentage",
          "type": "uint8"
        }
      ],
      "name": "createEdition",
      "outputs": [
        {
          "internalType": "uint256",
          "name": "retEditionNumber",
          "type": "uint256"
        }
      ],
      "stateMutability": "nonpayable",
      "type": "function"
    },
    {
      "inputs": [
        {
          "internalType": "uint256",
          "name": "editionQuantity",
          "type": "uint256"
        },
        {
          "internalType": "address",
          "name": "to",
          "type": "address"
        },
        {
          "internalType": "string",
          "name": "_tokenURI",
          "type": "string"
        },
        {
          "internalType": "uint8",
          "name": "_royaltyPercentage",
          "type": "uint8"
        }
      ],
      "name": "createEditionWithNFTs",
      "outputs": [
        {
          "internalType": "uint256",
          "name": "retEditionNumber",
          "type": "uint256"
        }
      ],
      "stateMutability": "nonpayable",
      "type": "function"
    },
    {
      "inputs": [
        {
          "internalType": "uint256",
          "name": "",
          "type": "uint256"
        }
      ],
      "name": "editions",
      "outputs": [
        {
          "internalType": "uint256",
          "name": "quantity",
          "type": "uint256"
        },
        {
          "internalType": "uint256",
          "name": "numSold",
          "type": "uint256"
        },
        {
          "internalType": "uint256",
          "name": "numRemaining",
          "type": "uint256"
        },
        {
          "internalType": "address",
          "name": "owner",
          "type": "address"
        },
        {
          "internalType": "address",
          "name": "royaltyReceiver",
          "type": "address"
        },
        {
          "internalType": "uint8",
          "name": "royaltyPercentage",
          "type": "uint8"
        }
      ],
      "stateMutability": "view",
      "type": "function"
    },
    {
      "inputs": [
        {
          "internalType": "uint256",
          "name": "tokenId",
          "type": "uint256"
        }
      ],
      "name": "getApproved",
      "outputs": [
        {
          "internalType": "address",
          "name": "",
          "type": "address"
        }
      ],
      "stateMutability": "view",
      "type": "function"
    },
    {
      "inputs": [
        {
          "internalType": "uint256",
          "name": "editionNumber",
          "type": "uint256"
        }
      ],
      "name": "getTokenIdsOfEdition",
      "outputs": [
        {
          "internalType": "uint256[]",
          "name": "",
          "type": "uint256[]"
        }
      ],
      "stateMutability": "view",
      "type": "function"
    },
    {
      "inputs": [
        {
          "internalType": "address",
          "name": "owner",
          "type": "address"
        },
        {
          "internalType": "address",
          "name": "operator",
          "type": "address"
        }
      ],
      "name": "isApprovedForAll",
      "outputs": [
        {
          "internalType": "bool",
          "name": "",
          "type": "bool"
        }
      ],
      "stateMutability": "view",
      "type": "function"
    },
    {
      "inputs": [],
      "name": "name",
      "outputs": [
        {
          "internalType": "string",
          "name": "",
          "type": "string"
        }
      ],
      "stateMutability": "view",
      "type": "function"
    },
    {
      "inputs": [],
      "name": "owner",
      "outputs": [
        {
          "internalType": "address",
          "name": "",
          "type": "address"
        }
      ],
      "stateMutability": "view",
      "type": "function"
    },
    {
      "inputs": [
        {
          "internalType": "uint256",
          "name": "tokenId",
          "type": "uint256"
        }
      ],
      "name": "ownerOf",
      "outputs": [
        {
          "internalType": "address",
          "name": "",
          "type": "address"
        }
      ],
      "stateMutability": "view",
      "type": "function"
    },
    {
      "inputs": [],
      "name": "renounceOwnership",
      "outputs": [],
      "stateMutability": "nonpayable",
      "type": "function"
    },
    {
      "inputs": [
        {
          "internalType": "uint256",
          "name": "tokenId",
          "type": "uint256"
        },
        {
          "internalType": "uint256",
          "name": "_salePrice",
          "type": "uint256"
        }
      ],
      "name": "royaltyInfo",
      "outputs": [
        {
          "internalType": "address",
          "name": "receiver",
          "type": "address"
        },
        {
          "internalType": "uint256",
          "name": "royaltyAmount",
          "type": "uint256"
        }
      ],
      "stateMutability": "view",
      "type": "function"
    },
    {
      "inputs": [
        {
          "internalType": "uint256",
          "name": "",
          "type": "uint256"
        }
      ],
      "name": "royaltyPercentage",
      "outputs": [
        {
          "internalType": "uint8",
          "name": "",
          "type": "uint8"
        }
      ],
      "stateMutability": "view",
      "type": "function"
    },
    {
      "inputs": [
        {
          "internalType": "uint256",
          "name": "",
          "type": "uint256"
        }
      ],
      "name": "royaltyReceivers",
      "outputs": [
        {
          "internalType": "address",
          "name": "",
          "type": "address"
        }
      ],
      "stateMutability": "view",
      "type": "function"
    },
    {
      "inputs": [
        {
          "internalType": "address",
          "name": "to",
          "type": "address"
        },
        {
          "internalType": "string",
          "name": "_tokenURI",
          "type": "string"
        },
        {
          "internalType": "uint8",
          "name": "_royaltyPercentage",
          "type": "uint8"
        }
      ],
      "name": "safeMint",
      "outputs": [],
      "stateMutability": "nonpayable",
      "type": "function"
    },
    {
      "inputs": [
        {
          "internalType": "address",
          "name": "to",
          "type": "address"
        },
        {
          "internalType": "string",
          "name": "_tokenURI",
          "type": "string"
        },
        {
          "internalType": "uint256",
          "name": "editionNumber",
          "type": "uint256"
        }
      ],
      "name": "safeMintToEdition",
      "outputs": [],
      "stateMutability": "nonpayable",
      "type": "function"
    },
    {
      "inputs": [
        {
          "internalType": "address",
          "name": "to",
          "type": "address"
        },
        {
          "internalType": "string",
          "name": "_tokenURI",
          "type": "string"
        },
        {
          "internalType": "uint256",
          "name": "editionNumber",
          "type": "uint256"
        },
        {
          "internalType": "uint16",
          "name": "quantity",
          "type": "uint16"
        }
      ],
      "name": "safeMintToEditionQuantity",
      "outputs": [],
      "stateMutability": "nonpayable",
      "type": "function"
    },
    {
      "inputs": [
        {
          "internalType": "address",
          "name": "from",
          "type": "address"
        },
        {
          "internalType": "address",
          "name": "to",
          "type": "address"
        },
        {
          "internalType": "uint256",
          "name": "tokenId",
          "type": "uint256"
        }
      ],
      "name": "safeTransferFrom",
      "outputs": [],
      "stateMutability": "nonpayable",
      "type": "function"
    },
    {
      "inputs": [
        {
          "internalType": "address",
          "name": "from",
          "type": "address"
        },
        {
          "internalType": "address",
          "name": "to",
          "type": "address"
        },
        {
          "internalType": "uint256",
          "name": "tokenId",
          "type": "uint256"
        },
        {
          "internalType": "bytes",
          "name": "_data",
          "type": "bytes"
        }
      ],
      "name": "safeTransferFrom",
      "outputs": [],
      "stateMutability": "nonpayable",
      "type": "function"
    },
    {
      "inputs": [
        {
          "internalType": "address",
          "name": "operator",
          "type": "address"
        },
        {
          "internalType": "bool",
          "name": "approved",
          "type": "bool"
        }
      ],
      "name": "setApprovalForAll",
      "outputs": [],
      "stateMutability": "nonpayable",
      "type": "function"
    },
    {
      "inputs": [
        {
          "internalType": "bytes4",
          "name": "interfaceId",
          "type": "bytes4"
        }
      ],
      "name": "supportsInterface",
      "outputs": [
        {
          "internalType": "bool",
          "name": "",
          "type": "bool"
        }
      ],
      "stateMutability": "view",
      "type": "function"
    },
    {
      "inputs": [],
      "name": "symbol",
      "outputs": [
        {
          "internalType": "string",
          "name": "",
          "type": "string"
        }
      ],
      "stateMutability": "view",
      "type": "function"
    },
    {
      "inputs": [
        {
          "internalType": "uint256",
          "name": "",
          "type": "uint256"
        }
      ],
      "name": "tokenToEdition",
      "outputs": [
        {
          "internalType": "uint256",
          "name": "",
          "type": "uint256"
        }
      ],
      "stateMutability": "view",
      "type": "function"
    },
    {
      "inputs": [
        {
          "internalType": "uint256",
          "name": "tokenId",
          "type": "uint256"
        }
      ],
      "name": "tokenURI",
      "outputs": [
        {
          "internalType": "string",
          "name": "",
          "type": "string"
        }
      ],
      "stateMutability": "view",
      "type": "function"
    },
    {
      "inputs": [],
      "name": "totalSupply",
      "outputs": [
        {
          "internalType": "uint256",
          "name": "",
          "type": "uint256"
        }
      ],
      "stateMutability": "view",
      "type": "function"
    },
    {
      "inputs": [
        {
          "internalType": "address",
          "name": "from",
          "type": "address"
        },
        {
          "internalType": "address",
          "name": "to",
          "type": "address"
        },
        {
          "internalType": "uint256",
          "name": "tokenId",
          "type": "uint256"
        }
      ],
      "name": "transferFrom",
      "outputs": [],
      "stateMutability": "nonpayable",
      "type": "function"
    },
    {
      "inputs": [
        {
          "internalType": "address",
          "name": "newOwner",
          "type": "address"
        }
      ],
      "name": "transferOwnership",
      "outputs": [],
      "stateMutability": "nonpayable",
      "type": "function"
    }
  ],
  "bytecode": "0x60806040523480156200001157600080fd5b506040516200250f3803806200250f833981016040819052620000349162000210565b6040518060400160405280601581526020017f536f756e64636861696e436f6c6c65637469626c65000000000000000000000081525060405180604001604052806002815260200161534360f01b81525081600290805190602001906200009d92919062000154565b508051620000b390600390602084019062000154565b50506000805550620000c533620000f9565b620000dc600f6200014b60201b620013951760201c565b8051620000f190600c90602084019062000154565b505062000329565b600880546001600160a01b038381166001600160a01b0319831681179093556040519116919082907f8be0079c531659141344cd1fd0a4f28419497f9722a3daafe3b4186f6b6457e090600090a35050565b80546001019055565b8280546200016290620002ec565b90600052602060002090601f016020900481019282620001865760008555620001d1565b82601f10620001a157805160ff1916838001178555620001d1565b82800160010185558215620001d1579182015b82811115620001d1578251825591602001919060010190620001b4565b50620001df929150620001e3565b5090565b5b80821115620001df5760008155600101620001e4565b634e487b7160e01b600052604160045260246000fd5b600060208083850312156200022457600080fd5b82516001600160401b03808211156200023c57600080fd5b818501915085601f8301126200025157600080fd5b815181811115620002665762000266620001fa565b604051601f8201601f19908116603f01168101908382118183101715620002915762000291620001fa565b816040528281528886848701011115620002aa57600080fd5b600093505b82841015620002ce5784840186015181850187015292850192620002af565b82841115620002e05760008684830101525b98975050505050505050565b600181811c908216806200030157607f821691505b602082108114156200032357634e487b7160e01b600052602260045260246000fd5b50919050565b6121d680620003396000396000f3fe608060405234801561001057600080fd5b50600436106101da5760003560e01c8063602787ed1161010457806395d89b41116100a2578063e431cc1f11610071578063e431cc1f146104d9578063e8a3d485146104ec578063e985e9c5146104f4578063f2fde38b1461053057600080fd5b806395d89b4114610498578063a22cb465146104a0578063b88d4fde146104b3578063c87b56dd146104c657600080fd5b8063715018a6116100de578063715018a61461044c57806374e79189146104545780638da5cb5b1461047457806390819b451461048557600080fd5b8063602787ed146104065780636352211e1461042657806370a082311461043957600080fd5b80631f7622f71161017c5780633c768d0e1161014b5780633c768d0e146103a457806342842e0e146103cd57806342966c68146103e057806349a78ffa146103f357600080fd5b80631f7622f7146102ba57806323b872dd146102cd578063279c806e146102e05780632a55205a1461037257600080fd5b8063095ea7b3116101b8578063095ea7b314610247578063129260301461025c578063159fabe31461029157806318160ddd146102a457600080fd5b806301ffc9a7146101df57806306fdde0314610207578063081812fc1461021c575b600080fd5b6101f26101ed366004611ab5565b610543565b60405190151581526020015b60405180910390f35b61020f61056e565b6040516101fe9190611b2a565b61022f61022a366004611b3d565b610600565b6040516001600160a01b0390911681526020016101fe565b61025a610255366004611b72565b610644565b005b61027f61026a366004611b3d565b600a6020526000908152604090205460ff1681565b60405160ff90911681526020016101fe565b61025a61029f366004611c48565b6106e4565b600154600054035b6040519081526020016101fe565b6102ac6102c8366004611cca565b610717565b61025a6102db366004611d06565b610882565b6103366102ee366004611b3d565b600d60205260009081526040902080546001820154600283015460038401546004909401549293919290916001600160a01b039081169190811690600160a01b900460ff1686565b604080519687526020870195909552938501929092526001600160a01b03908116606085015216608083015260ff1660a082015260c0016101fe565b610385610380366004611d42565b610a1d565b604080516001600160a01b0390931683526020830191909152016101fe565b61022f6103b2366004611b3d565b6009602052600090815260409020546001600160a01b031681565b61025a6103db366004611d06565b610ad4565b61025a6103ee366004611b3d565b610af4565b6102ac610401366004611d64565b610b37565b6102ac610414366004611b3d565b600e6020526000908152604090205481565b61022f610434366004611b3d565b610cc7565b6102ac610447366004611dcc565b610cd2565b61025a610d21565b610467610462366004611b3d565b610d57565b6040516101fe9190611de7565b6008546001600160a01b031661022f565b61025a610493366004611e2b565b610e2f565b61020f610ff4565b61025a6104ae366004611e82565b611003565b61025a6104c1366004611ebe565b611099565b61020f6104d4366004611b3d565b6110e3565b61025a6104e7366004611f3a565b611252565b61020f6112c3565b6101f2610502366004611f8f565b6001600160a01b03918216600090815260076020908152604080832093909416825291909152205460ff1690565b61025a61053e366004611dcc565b6112fd565b600063152a902d60e11b6001600160e01b03198316148061056857506105688261139e565b92915050565b60606002805461057d90611fc2565b80601f01602080910402602001604051908101604052809291908181526020018280546105a990611fc2565b80156105f65780601f106105cb576101008083540402835291602001916105f6565b820191906000526020600020905b8154815290600101906020018083116105d957829003601f168201915b5050505050905090565b600061060b826113ec565b610628576040516333d1c03960e21b815260040160405180910390fd5b506000908152600660205260409020546001600160a01b031690565b600061064f82610cc7565b9050336001600160a01b038216146106885761066b8133610502565b610688576040516367d9dca160e11b815260040160405180910390fd5b60008281526006602052604080822080546001600160a01b0319166001600160a01b0387811691821790925591518593918516917f8c5be1e5ebec7d5bd14f71427d1e84f3dd0314c0f7b2291e5b200ac8c7c3b92591a4505050565b60005b8161ffff16811015610710576106fe858585610e2f565b8061070881612013565b9150506106e7565b5050505050565b60008084116107415760405162461bcd60e51b81526004016107389061202e565b60405180910390fd5b6040518060c0016040528085815260200160008152602001858152602001846001600160a01b03168152602001846001600160a01b031681526020018360ff16815250600d6000610791600f5490565b8152602080820192909252604090810160002083518155918301516001830155820151600282015560608201516003820180546001600160a01b0319166001600160a01b0392831617905560808301516004909201805460a090940151929091166001600160a81b031990931692909217600160a01b60ff90921691909102179055600f54604080518681526001600160a01b03861660208201527f7fe7f72f14a53255f3c9e225ab1d40fdb21335b87a7912726a196fb816866ae0910160405180910390a2610865600f80546001019055565b6001610870600f5490565b61087a9190612074565b949350505050565b600061088d82611413565b9050836001600160a01b0316816001600160a01b0316146108c05760405162a1148160e81b815260040160405180910390fd5b600082815260066020526040902080546108ec8187335b6001600160a01b039081169116811491141790565b610917576108fa8633610502565b61091757604051632ce44b5f60e11b815260040160405180910390fd5b6001600160a01b03851661093e57604051633a954ecd60e21b815260040160405180910390fd5b801561094957600082555b6001600160a01b038681166000908152600560205260408082208054600019019055918716808252919020805460010190554260a01b17600160e11b17600085815260046020526040902055600160e11b83166109d457600184016000818152600460205260409020546109d25760005481146109d25760008181526004602052604090208490555b505b83856001600160a01b0316876001600160a01b03167fddf252ad1be2c89b69c2b068fc378daa952ba7f163c4a11628f55a4df523b3ef60405160405180910390a4505050505050565b6000828152600e60209081526040808320548352600d90915281205481908190819015610a7e5750506000848152600e60209081526040808320548352600d909152902060040154600160a01b810460ff16906001600160a01b0316610aab565b50506000848152600a602090815260408083205460099092529091205460ff909116906001600160a01b03165b60006064610abc60ff85168861208b565b610ac691906120aa565b919791965090945050505050565b610aef83838360405180602001604052806000815250611099565b505050565b610afd8161147b565b6000818152600b602052604090208054610b1690611fc2565b159050610b34576000818152600b60205260408120610b34916119cc565b50565b6000808511610b585760405162461bcd60e51b81526004016107389061202e565b6040518060c0016040528086815260200160008152602001868152602001856001600160a01b03168152602001856001600160a01b031681526020018360ff16815250600d6000610ba8600f5490565b8152602080820192909252604090810160009081208451815592840151600184015590830151600283015560608301516003830180546001600160a01b039283166001600160a01b031990911617905560808401516004909301805460a09095015160ff16600160a01b026001600160a81b031990951693909116929092179290921790555b85811015610c5657610c448585610493600f5490565b80610c4e81612013565b915050610c2e565b50600f54604080518781526001600160a01b03871660208201527f7fe7f72f14a53255f3c9e225ab1d40fdb21335b87a7912726a196fb816866ae0910160405180910390a2610ca9600f80546001019055565b6001610cb4600f5490565b610cbe9190612074565b95945050505050565b600061056882611413565b60006001600160a01b038216610cfb576040516323d3ad8160e21b815260040160405180910390fd5b506001600160a01b031660009081526005602052604090205467ffffffffffffffff1690565b6008546001600160a01b03163314610d4b5760405162461bcd60e51b8152600401610738906120cc565b610d556000611486565b565b6000818152600d60205260408120600101546060919067ffffffffffffffff811115610d8557610d85611b9c565b604051908082528060200260200182016040528015610dae578160200160208202803683370190505b509050600060015b6001610dc160005490565b610dcb9190612074565b811015610e26576000818152600e6020526040902054851415610e145780838381518110610dfb57610dfb612101565b602090810291909101015281610e1081612013565b9250505b80610e1e81612013565b915050610db6565b50909392505050565b6000818152600d6020526040902054610e825760405162461bcd60e51b815260206004820152601560248201527424b73b30b634b21032b234ba34b7b7273ab6b132b960591b6044820152606401610738565b6000818152600d60205260409020805460019091015410610ee55760405162461bcd60e51b815260206004820152601c60248201527f546869732065646974696f6e20697320616c72656164792066756c6c000000006044820152606401610738565b6000818152600d60205260409020600301546001600160a01b03163314610f455760405162461bcd60e51b81526020600482015260146024820152732737ba1037bbb732b91037b31032b234ba34b7b760611b6044820152606401610738565b610f508360016114d8565b610f6e6001610f5e60005490565b610f689190612074565b836114f6565b6000818152600d60205260408120600101805491610f8b83612013565b90915550506000818152600d6020526040902060018101549054610faf9190612074565b6000828152600d60205260408120600201919091558190600e906001610fd460005490565b610fde9190612074565b8152602081019190915260400160002055505050565b60606003805461057d90611fc2565b6001600160a01b03821633141561102d5760405163b06307db60e01b815260040160405180910390fd5b3360008181526007602090815260408083206001600160a01b03871680855290835292819020805460ff191686151590811790915590519081529192917f17307eab39ab6107e8899845ad3d59bd9653f200f220920489ca2b5937696c31910160405180910390a35050565b6110a4848484610882565b6001600160a01b0383163b156110dd576110c084848484611581565b6110dd576040516368d2bf6b60e11b815260040160405180910390fd5b50505050565b60606110ee826113ec565b6111545760405162461bcd60e51b815260206004820152603160248201527f45524337323155524953746f726167653a2055524920717565727920666f72206044820152703737b732bc34b9ba32b73a103a37b5b2b760791b6064820152608401610738565b6000828152600b60205260408120805461116d90611fc2565b80601f016020809104026020016040519081016040528092919081815260200182805461119990611fc2565b80156111e65780601f106111bb576101008083540402835291602001916111e6565b820191906000526020600020905b8154815290600101906020018083116111c957829003601f168201915b50505050509050600061120460408051602081019091526000815290565b9050805160001415611217575092915050565b815115611249578082604051602001611231929190612117565b60405160208183030381529060405292505050919050565b61087a84611666565b61125d8360016114d8565b61126b6001610f5e60005490565b610aef600161127960005490565b6112839190612074565b600090815260096020908152604080832080546001600160a01b0319166001600160a01b038916179055600a9091529020805460ff191660ff8416179055565b6008546060906001600160a01b031633146112f05760405162461bcd60e51b8152600401610738906120cc565b600c805461057d90611fc2565b6008546001600160a01b031633146113275760405162461bcd60e51b8152600401610738906120cc565b6001600160a01b03811661138c5760405162461bcd60e51b815260206004820152602660248201527f4f776e61626c653a206e6577206f776e657220697320746865207a65726f206160448201526564647265737360d01b6064820152608401610738565b610b3481611486565b80546001019055565b60006301ffc9a760e01b6001600160e01b0319831614806113cf57506380ac58cd60e01b6001600160e01b03198316145b806105685750506001600160e01b031916635b5e139f60e01b1490565b6000805482108015610568575050600090815260046020526040902054600160e01b161590565b60008160005481101561146257600081815260046020526040902054600160e01b8116611460575b8061145957506000190160008181526004602052604090205461143b565b9392505050565b505b604051636f96cda160e11b815260040160405180910390fd5b610b348160006116f7565b600880546001600160a01b038381166001600160a01b0319831681179093556040519116919082907f8be0079c531659141344cd1fd0a4f28419497f9722a3daafe3b4186f6b6457e090600090a35050565b6114f282826040518060200160405280600081525061183a565b5050565b6114ff826113ec565b6115625760405162461bcd60e51b815260206004820152602e60248201527f45524337323155524953746f726167653a2055524920736574206f66206e6f6e60448201526d32bc34b9ba32b73a103a37b5b2b760911b6064820152608401610738565b6000828152600b602090815260409091208251610aef92840190611a06565b604051630a85bd0160e11b81526000906001600160a01b0385169063150b7a02906115b6903390899088908890600401612146565b6020604051808303816000875af19250505080156115f1575060408051601f3d908101601f191682019092526115ee91810190612183565b60015b61164c573d80801561161f576040519150601f19603f3d011682016040523d82523d6000602084013e611624565b606091505b508051611644576040516368d2bf6b60e11b815260040160405180910390fd5b805181602001fd5b6001600160e01b031916630a85bd0160e11b14905061087a565b6060611671826113ec565b61168e57604051630a14c4b560e41b815260040160405180910390fd5b60006116a560408051602081019091526000815290565b90508051600014156116c65760405180602001604052806000815250611459565b806116d0846118a0565b6040516020016116e1929190612117565b6040516020818303038152906040529392505050565b600061170283611413565b90508060008061172086600090815260066020526040902080549091565b915091508415611760576117358184336108d7565b611760576117438333610502565b61176057604051632ce44b5f60e11b815260040160405180910390fd5b801561176b57600082555b6001600160a01b038316600081815260056020526040902080546fffffffffffffffffffffffffffffffff0190554260a01b17600360e01b17600087815260046020526040902055600160e11b84166117f257600186016000818152600460205260409020546117f05760005481146117f05760008181526004602052604090208590555b505b60405186906000906001600160a01b038616907fddf252ad1be2c89b69c2b068fc378daa952ba7f163c4a11628f55a4df523b3ef908390a45050600180548101905550505050565b61184483836118ef565b6001600160a01b0383163b15610aef576000548281035b61186e6000868380600101945086611581565b61188b576040516368d2bf6b60e11b815260040160405180910390fd5b81811061185b57816000541461071057600080fd5b604080516080810191829052607f0190826030600a8206018353600a90045b80156118dd57600183039250600a81066030018353600a90046118bf565b50819003601f19909101908152919050565b6000546001600160a01b03831661191857604051622e076360e81b815260040160405180910390fd5b816119365760405163b562e8dd60e01b815260040160405180910390fd5b6001600160a01b038316600081815260056020526040902080546801000000000000000185020190554260a01b6001841460e11b1717600082815260046020526040902055808281015b6040516001830192906001600160a01b038716906000907fddf252ad1be2c89b69c2b068fc378daa952ba7f163c4a11628f55a4df523b3ef908290a48082106119805760005550505050565b5080546119d890611fc2565b6000825580601f106119e8575050565b601f016020900490600052602060002090810190610b349190611a8a565b828054611a1290611fc2565b90600052602060002090601f016020900481019282611a345760008555611a7a565b82601f10611a4d57805160ff1916838001178555611a7a565b82800160010185558215611a7a579182015b82811115611a7a578251825591602001919060010190611a5f565b50611a86929150611a8a565b5090565b5b80821115611a865760008155600101611a8b565b6001600160e01b031981168114610b3457600080fd5b600060208284031215611ac757600080fd5b813561145981611a9f565b60005b83811015611aed578181015183820152602001611ad5565b838111156110dd5750506000910152565b60008151808452611b16816020860160208601611ad2565b601f01601f19169290920160200192915050565b6020815260006114596020830184611afe565b600060208284031215611b4f57600080fd5b5035919050565b80356001600160a01b0381168114611b6d57600080fd5b919050565b60008060408385031215611b8557600080fd5b611b8e83611b56565b946020939093013593505050565b634e487b7160e01b600052604160045260246000fd5b600067ffffffffffffffff80841115611bcd57611bcd611b9c565b604051601f8501601f19908116603f01168101908282118183101715611bf557611bf5611b9c565b81604052809350858152868686011115611c0e57600080fd5b858560208301376000602087830101525050509392505050565b600082601f830112611c3957600080fd5b61145983833560208501611bb2565b60008060008060808587031215611c5e57600080fd5b611c6785611b56565b9350602085013567ffffffffffffffff811115611c8357600080fd5b611c8f87828801611c28565b93505060408501359150606085013561ffff81168114611cae57600080fd5b939692955090935050565b803560ff81168114611b6d57600080fd5b600080600060608486031215611cdf57600080fd5b83359250611cef60208501611b56565b9150611cfd60408501611cb9565b90509250925092565b600080600060608486031215611d1b57600080fd5b611d2484611b56565b9250611d3260208501611b56565b9150604084013590509250925092565b60008060408385031215611d5557600080fd5b50508035926020909101359150565b60008060008060808587031215611d7a57600080fd5b84359350611d8a60208601611b56565b9250604085013567ffffffffffffffff811115611da657600080fd5b611db287828801611c28565b925050611dc160608601611cb9565b905092959194509250565b600060208284031215611dde57600080fd5b61145982611b56565b6020808252825182820181905260009190848201906040850190845b81811015611e1f57835183529284019291840191600101611e03565b50909695505050505050565b600080600060608486031215611e4057600080fd5b611e4984611b56565b9250602084013567ffffffffffffffff811115611e6557600080fd5b611e7186828701611c28565b925050604084013590509250925092565b60008060408385031215611e9557600080fd5b611e9e83611b56565b915060208301358015158114611eb357600080fd5b809150509250929050565b60008060008060808587031215611ed457600080fd5b611edd85611b56565b9350611eeb60208601611b56565b925060408501359150606085013567ffffffffffffffff811115611f0e57600080fd5b8501601f81018713611f1f57600080fd5b611f2e87823560208401611bb2565b91505092959194509250565b600080600060608486031215611f4f57600080fd5b611f5884611b56565b9250602084013567ffffffffffffffff811115611f7457600080fd5b611f8086828701611c28565b925050611cfd60408501611cb9565b60008060408385031215611fa257600080fd5b611fab83611b56565b9150611fb960208401611b56565b90509250929050565b600181811c90821680611fd657607f821691505b60208210811415611ff757634e487b7160e01b600052602260045260246000fd5b50919050565b634e487b7160e01b600052601160045260246000fd5b600060001982141561202757612027611ffd565b5060010190565b60208082526026908201527f5175616e74697479206d7573742062652067726561746572207468616e207a65604082015265726f2028302960d01b606082015260800190565b60008282101561208657612086611ffd565b500390565b60008160001904831182151516156120a5576120a5611ffd565b500290565b6000826120c757634e487b7160e01b600052601260045260246000fd5b500490565b6020808252818101527f4f776e61626c653a2063616c6c6572206973206e6f7420746865206f776e6572604082015260600190565b634e487b7160e01b600052603260045260246000fd5b60008351612129818460208801611ad2565b83519083019061213d818360208801611ad2565b01949350505050565b6001600160a01b038581168252841660208201526040810183905260806060820181905260009061217990830184611afe565b9695505050505050565b60006020828403121561219557600080fd5b815161145981611a9f56fea2646970667358221220219d5538b5e00e9384ccdfc88946e4cc6c1aed9e10aae04a66d3b95a2a8a34ca64736f6c634300080a0033",
  "linkReferences": {},
  "deployedLinkReferences": {}
}