{
  "_format": "hh-sol-artifact-1",
  "contractName": "SoundchainMarketplace",
  "sourceName": "contracts/Marketplace.sol",
  "abi": [
    {
      "inputs": [
        {
          "internalType": "address payable",
          "name": "_feeRecipient",
          "type": "address"
        },
        {
          "internalType": "address",
          "name": "_OGUNToken",
          "type": "address"
        },
        {
          "internalType": "uint16",
          "name": "_platformFee",
          "type": "uint16"
        }
      ],
      "stateMutability": "nonpayable",
      "type": "constructor"
    },
    {
      "anonymous": false,
      "inputs": [
        {
          "indexed": true,
          "internalType": "address",
          "name": "owner",
          "type": "address"
        },
        {
          "indexed": true,
          "internalType": "address",
          "name": "nft",
          "type": "address"
        },
        {
          "indexed": false,
          "internalType": "uint256",
          "name": "tokenId",
          "type": "uint256"
        }
      ],
      "name": "ItemCanceled",
      "type": "event"
    },
    {
      "anonymous": false,
      "inputs": [
        {
          "indexed": true,
          "internalType": "address",
          "name": "owner",
          "type": "address"
        },
        {
          "indexed": true,
          "internalType": "address",
          "name": "nft",
          "type": "address"
        },
        {
          "indexed": false,
          "internalType": "uint256",
          "name": "tokenId",
          "type": "uint256"
        },
        {
          "indexed": false,
          "internalType": "uint256",
          "name": "quantity",
          "type": "uint256"
        },
        {
          "indexed": false,
          "internalType": "uint256",
          "name": "pricePerItem",
          "type": "uint256"
        },
        {
          "indexed": false,
          "internalType": "uint256",
          "name": "OGUNPricePerItem",
          "type": "uint256"
        },
        {
          "indexed": false,
          "internalType": "bool",
          "name": "acceptsMATIC",
          "type": "bool"
        },
        {
          "indexed": false,
          "internalType": "bool",
          "name": "acceptsOGUN",
          "type": "bool"
        },
        {
          "indexed": false,
          "internalType": "uint256",
          "name": "startingTime",
          "type": "uint256"
        }
      ],
      "name": "ItemListed",
      "type": "event"
    },
    {
      "anonymous": false,
      "inputs": [
        {
          "indexed": true,
          "internalType": "address",
          "name": "seller",
          "type": "address"
        },
        {
          "indexed": true,
          "internalType": "address",
          "name": "buyer",
          "type": "address"
        },
        {
          "indexed": true,
          "internalType": "address",
          "name": "nft",
          "type": "address"
        },
        {
          "indexed": false,
          "internalType": "uint256",
          "name": "tokenId",
          "type": "uint256"
        },
        {
          "indexed": false,
          "internalType": "uint256",
          "name": "quantity",
          "type": "uint256"
        },
        {
          "indexed": false,
          "internalType": "uint256",
          "name": "pricePerItem",
          "type": "uint256"
        },
        {
          "indexed": false,
          "internalType": "bool",
          "name": "isPaymentOGUN",
          "type": "bool"
        }
      ],
      "name": "ItemSold",
      "type": "event"
    },
    {
      "anonymous": false,
      "inputs": [
        {
          "indexed": true,
          "internalType": "address",
          "name": "owner",
          "type": "address"
        },
        {
          "indexed": true,
          "internalType": "address",
          "name": "nft",
          "type": "address"
        },
        {
          "indexed": false,
          "internalType": "uint256",
          "name": "tokenId",
          "type": "uint256"
        },
        {
          "indexed": false,
          "internalType": "uint256",
          "name": "newPrice",
          "type": "uint256"
        },
        {
          "indexed": false,
          "internalType": "uint256",
          "name": "newOGUNPrice",
          "type": "uint256"
        },
        {
          "indexed": false,
          "internalType": "bool",
          "name": "acceptsMATIC",
          "type": "bool"
        },
        {
          "indexed": false,
          "internalType": "bool",
          "name": "acceptsOGUN",
          "type": "bool"
        },
        {
          "indexed": false,
          "internalType": "uint256",
          "name": "startingTime",
          "type": "uint256"
        }
      ],
      "name": "ItemUpdated",
      "type": "event"
    },
    {
      "anonymous": false,
      "inputs": [
        {
          "indexed": true,
          "internalType": "address",
          "name": "previousOwner",
          "type": "address"
        },
        {
          "indexed": true,
          "internalType": "address",
          "name": "newOwner",
          "type": "address"
        }
      ],
      "name": "OwnershipTransferred",
      "type": "event"
    },
    {
      "anonymous": false,
      "inputs": [
        {
          "indexed": false,
          "internalType": "uint16",
          "name": "platformFee",
          "type": "uint16"
        }
      ],
      "name": "UpdatePlatformFee",
      "type": "event"
    },
    {
      "anonymous": false,
      "inputs": [
        {
          "indexed": false,
          "internalType": "address payable",
          "name": "platformFeeRecipient",
          "type": "address"
        }
      ],
      "name": "UpdatePlatformFeeRecipient",
      "type": "event"
    },
    {
      "inputs": [],
      "name": "OGUNToken",
      "outputs": [
        {
          "internalType": "contract IERC20",
          "name": "",
          "type": "address"
        }
      ],
      "stateMutability": "view",
      "type": "function"
    },
    {
      "inputs": [
        {
          "internalType": "address",
          "name": "_nftAddress",
          "type": "address"
        },
        {
          "internalType": "uint256",
          "name": "_tokenId",
          "type": "uint256"
        },
        {
          "internalType": "address payable",
          "name": "_owner",
          "type": "address"
        },
        {
          "internalType": "bool",
          "name": "_isPaymentOGUN",
          "type": "bool"
        }
      ],
      "name": "buyItem",
      "outputs": [],
      "stateMutability": "payable",
      "type": "function"
    },
    {
      "inputs": [
        {
          "internalType": "address",
          "name": "_nftAddress",
          "type": "address"
        },
        {
          "internalType": "uint256",
          "name": "_tokenId",
          "type": "uint256"
        }
      ],
      "name": "cancelListing",
      "outputs": [],
      "stateMutability": "nonpayable",
      "type": "function"
    },
    {
      "inputs": [],
      "name": "feeRecipient",
      "outputs": [
        {
          "internalType": "address payable",
          "name": "",
          "type": "address"
        }
      ],
      "stateMutability": "view",
      "type": "function"
    },
    {
      "inputs": [
        {
          "internalType": "address",
          "name": "_nftAddress",
          "type": "address"
        },
        {
          "internalType": "uint256",
          "name": "_tokenId",
          "type": "uint256"
        },
        {
          "internalType": "uint256",
          "name": "_quantity",
          "type": "uint256"
        },
        {
          "internalType": "uint256",
          "name": "_pricePerItem",
          "type": "uint256"
        },
        {
          "internalType": "uint256",
          "name": "_OGUNPricePerItem",
          "type": "uint256"
        },
        {
          "internalType": "bool",
          "name": "_acceptsMATIC",
          "type": "bool"
        },
        {
          "internalType": "bool",
          "name": "_acceptsOGUN",
          "type": "bool"
        },
        {
          "internalType": "uint256",
          "name": "_startingTime",
          "type": "uint256"
        }
      ],
      "name": "listItem",
      "outputs": [],
      "stateMutability": "nonpayable",
      "type": "function"
    },
    {
      "inputs": [
        {
          "internalType": "address",
          "name": "",
          "type": "address"
        },
        {
          "internalType": "uint256",
          "name": "",
          "type": "uint256"
        },
        {
          "internalType": "address",
          "name": "",
          "type": "address"
        }
      ],
      "name": "listings",
      "outputs": [
        {
          "internalType": "uint256",
          "name": "quantity",
          "type": "uint256"
        },
        {
          "internalType": "uint256",
          "name": "pricePerItem",
          "type": "uint256"
        },
        {
          "internalType": "uint256",
          "name": "OGUNPricePerItem",
          "type": "uint256"
        },
        {
          "internalType": "bool",
          "name": "acceptsMATIC",
          "type": "bool"
        },
        {
          "internalType": "bool",
          "name": "acceptsOGUN",
          "type": "bool"
        },
        {
          "internalType": "uint256",
          "name": "startingTime",
          "type": "uint256"
        }
      ],
      "stateMutability": "view",
      "type": "function"
    },
    {
      "inputs": [],
      "name": "owner",
      "outputs": [
        {
          "internalType": "address",
          "name": "",
          "type": "address"
        }
      ],
      "stateMutability": "view",
      "type": "function"
    },
    {
      "inputs": [],
      "name": "platformFee",
      "outputs": [
        {
          "internalType": "uint16",
          "name": "",
          "type": "uint16"
        }
      ],
      "stateMutability": "view",
      "type": "function"
    },
    {
      "inputs": [],
      "name": "renounceOwnership",
      "outputs": [],
      "stateMutability": "nonpayable",
      "type": "function"
    },
    {
      "inputs": [
        {
          "internalType": "address",
          "name": "newOwner",
          "type": "address"
        }
      ],
      "name": "transferOwnership",
      "outputs": [],
      "stateMutability": "nonpayable",
      "type": "function"
    },
    {
      "inputs": [
        {
          "internalType": "address",
          "name": "_nftAddress",
          "type": "address"
        },
        {
          "internalType": "uint256",
          "name": "_tokenId",
          "type": "uint256"
        },
        {
          "internalType": "uint256",
          "name": "_newPrice",
          "type": "uint256"
        },
        {
          "internalType": "uint256",
          "name": "_newOGUNPrice",
          "type": "uint256"
        },
        {
          "internalType": "bool",
          "name": "_acceptsMATIC",
          "type": "bool"
        },
        {
          "internalType": "bool",
          "name": "_acceptsOGUN",
          "type": "bool"
        },
        {
          "internalType": "uint256",
          "name": "_startingTime",
          "type": "uint256"
        }
      ],
      "name": "updateListing",
      "outputs": [],
      "stateMutability": "nonpayable",
      "type": "function"
    },
    {
      "inputs": [
        {
          "internalType": "uint16",
          "name": "_platformFee",
          "type": "uint16"
        }
      ],
      "name": "updatePlatformFee",
      "outputs": [],
      "stateMutability": "nonpayable",
      "type": "function"
    },
    {
      "inputs": [
        {
          "internalType": "address payable",
          "name": "_platformFeeRecipient",
          "type": "address"
        }
      ],
      "name": "updatePlatformFeeRecipient",
      "outputs": [],
      "stateMutability": "nonpayable",
      "type": "function"
    }
  ],
  "bytecode": "0x60a06040523480156200001157600080fd5b50604051620022e8380380620022e88339810160408190526200003491620000e6565b6200003f336200007d565b600180556001600160a01b03918216608052600380549390921662010000026001600160b01b031990931661ffff9091161791909117905562000140565b600080546001600160a01b038381166001600160a01b0319831681178455604051919092169283917f8be0079c531659141344cd1fd0a4f28419497f9722a3daafe3b4186f6b6457e09190a35050565b6001600160a01b0381168114620000e357600080fd5b50565b600080600060608486031215620000fc57600080fd5b83516200010981620000cd565b60208501519093506200011c81620000cd565b604085015190925061ffff811681146200013557600080fd5b809150509250925092565b608051612170620001786000396000818161024901528181610aad0152818161134e015281816114c401526115ca01526121706000f3fe6080604052600436106100c25760003560e01c80638da5cb5b1161007f578063b2ddee0611610059578063b2ddee061461028b578063ce513d3a146102ab578063f2fde38b146102cb578063f5fe7f71146102eb57600080fd5b80638da5cb5b14610219578063a770da2014610237578063afb069521461026b57600080fd5b806326232a2e146100c757806339640bb6146100fa578063469048401461011c57806364e21bb91461015a5780636bd3a64b1461016d578063715018a614610204575b600080fd5b3480156100d357600080fd5b506003546100e29061ffff1681565b60405161ffff90911681526020015b60405180910390f35b34801561010657600080fd5b5061011a610115366004611cc9565b61030b565b005b34801561012857600080fd5b50600354610142906201000090046001600160a01b031681565b6040516001600160a01b0390911681526020016100f1565b61011a610168366004611d45565b610744565b34801561017957600080fd5b506101d3610188366004611d98565b600260208181526000948552604080862082529385528385209052908352912080546001820154928201546003830154600490930154919392909160ff808316926101009004169086565b60408051968752602087019590955293850192909252151560608401521515608083015260a082015260c0016100f1565b34801561021057600080fd5b5061011a610cec565b34801561022557600080fd5b506000546001600160a01b0316610142565b34801561024357600080fd5b506101427f000000000000000000000000000000000000000000000000000000000000000081565b34801561027757600080fd5b5061011a610286366004611dda565b610d22565b34801561029757600080fd5b5061011a6102a6366004611dfe565b610d97565b3480156102b757600080fd5b5061011a6102c6366004611e2a565b610e6e565b3480156102d757600080fd5b5061011a6102e6366004611e9c565b611138565b3480156102f757600080fd5b5061011a610306366004611e9c565b6111d3565b6001600160a01b03881660009081526002602081815260408084208b855282528084203380865290835293819020815160c08101835281548082526001830154948201949094529381015491840191909152600381015460ff8082161515606086015261010090910416151560808401526004015460a08301528a928a929091156103ce5760405162461bcd60e51b815260206004820152600e60248201526d185b1c9958591e481b1a5cdd195960921b60448201526064015b60405180910390fd5b6040516301ffc9a760e01b81526380ac58cd60e01b60048201526001600160a01b038d16906301ffc9a790602401602060405180830381865afa158015610419573d6000803e3d6000fd5b505050506040513d601f19601f8201168201806040525081019061043d9190611eb9565b1561059b578b336040516331a9108f60e11b8152600481018e90526001600160a01b0391821691831690636352211e90602401602060405180830381865afa15801561048d573d6000803e3d6000fd5b505050506040513d601f19601f820116820180604052508101906104b19190611ed6565b6001600160a01b0316146104d75760405162461bcd60e51b81526004016103c590611ef3565b6001600160a01b03811663e985e9c5336040516001600160e01b031960e084901b1681526001600160a01b039091166004820152306024820152604401602060405180830381865afa158015610531573d6000803e3d6000fd5b505050506040513d601f19601f820116820180604052508101906105559190611eb9565b6105955760405162461bcd60e51b81526020600482015260116024820152701a5d195b481b9bdd08185c1c1c9bdd9959607a1b60448201526064016103c5565b506105d9565b60405162461bcd60e51b8152602060048201526013602482015272696e76616c6964206e6674206164647265737360681b60448201526064016103c5565b86806105e25750855b6105fe5760405162461bcd60e51b81526004016103c590611f1c565b6040805160c0810182528b815260208082018c90528183018b90528915156060830152881515608083015260a082018890526001600160a01b038f166000908152600282528381208f82529091529182209091336001600160a01b0390811682526020808301939093526040918201600020845181559284015160018401559083015160028301556060830151600383018054608086015115156101000261ff00199315159390931661ffff199091161791909117905560a0909201516004909101558c166106ca3390565b604080518e8152602081018e90529081018c9052606081018b9052891515608082015288151560a082015260c081018890526001600160a01b0391909116907f3e525878a5c06d5b45743edd66dc00069a6078f6336073f54bc331cae70dddbb9060e00160405180910390a3505050505050505050505050565b600260015414156107675760405162461bcd60e51b81526004016103c590611f5d565b600260018181556001600160a01b038087166000908152602084815260408083208984528252808320938816835292815290829020825160c081018452815480825294820154928101929092529384015491810191909152600383015460ff80821615156060840152610100909104161515608082015260049092015460a08301528591859185919061080c5760405162461bcd60e51b81526004016103c590611f94565b6001600160a01b0388811660008181526002602081815260408084208d85528252808420958c16845294815291849020845160c081018652815481526001820154938101939093529081015482850152600381015460ff80821615156060850152610100909104161515608083015260049081015460a083015292516301ffc9a760e01b81526380ac58cd60e01b938101939093528a928a928a92916301ffc9a790602401602060405180830381865afa1580156108ce573d6000803e3d6000fd5b505050506040513d601f19601f820116820180604052508101906108f29190611eb9565b1561059b576040516331a9108f60e11b81526004810184905284906001600160a01b038481169190831690636352211e90602401602060405180830381865afa158015610943573d6000803e3d6000fd5b505050506040513d601f19601f820116820180604052508101906109679190611ed6565b6001600160a01b03161461098d5760405162461bcd60e51b81526004016103c590611ef3565b5060a08101514210156109d55760405162461bcd60e51b815260206004820152601060248201526f6974656d206e6f742062757961626c6560801b60448201526064016103c5565b6000600260008e6001600160a01b03166001600160a01b0316815260200190815260200160002060008d815260200190815260200160002060008c6001600160a01b03166001600160a01b031681526020019081526020016000206040518060c00160405290816000820154815260200160018201548152602001600282015481526020016003820160009054906101000a900460ff161515151581526020016003820160019054906101000a900460ff1615151515815260200160048201548152505090508915610c0c5760006001600160a01b037f00000000000000000000000000000000000000000000000000000000000000001663dd62ed3e336040516001600160e01b031960e084901b1681526001600160a01b039091166004820152306024820152604401602060405180830381865afa158015610b1d573d6000803e3d6000fd5b505050506040513d601f19601f82011682018060405250810190610b419190611fbd565b82516040840151919250610b559190611255565b811015610ba45760405162461bcd60e51b815260206004820152601b60248201527f696e73756666696369656e742062616c616e636520746f20627579000000000060448201526064016103c5565b60808201511515600114610c065760405162461bcd60e51b815260206004820152602360248201527f746869732070757263686173652063616e277420626520646f6e6520696e204f60448201526223aaa760e91b60648201526084016103c5565b50610ccd565b80516020820151610c1c91611255565b341015610c6b5760405162461bcd60e51b815260206004820152601b60248201527f696e73756666696369656e742062616c616e636520746f20627579000000000060448201526064016103c5565b60608101511515600114610ccd5760405162461bcd60e51b8152602060048201526024808201527f746869732070757263686173652063616e277420626520646f6e6520696e204d6044820152634154494360e01b60648201526084016103c5565b610cd98d8d8d8d611268565b5050600180555050505050505050505050565b6000546001600160a01b03163314610d165760405162461bcd60e51b81526004016103c590611fd6565b610d2060006117e2565b565b6000546001600160a01b03163314610d4c5760405162461bcd60e51b81526004016103c590611fd6565b6003805461ffff191661ffff83169081179091556040519081527fcabead39256298cdf7d1228eee68b47bc54a2192283d8d93574da08d2d7ac303906020015b60405180910390a150565b60026001541415610dba5760405162461bcd60e51b81526004016103c590611f5d565b600260018181556001600160a01b03841660009081526020838152604080832086845282528083203380855290835292819020815160c081018352815480825295820154938101939093529485015490820152600384015460ff80821615156060840152610100909104161515608082015260049093015460a084015284928492610e575760405162461bcd60e51b81526004016103c590611f94565b610e62868633611832565b50506001805550505050565b60026001541415610e915760405162461bcd60e51b81526004016103c590611f5d565b600260018181556001600160a01b0389166000908152602083815260408083208b845282528083203380855290835292819020815160c081018352815480825295820154938101939093529485015490820152600384015460ff80821615156060840152610100909104161515608082015260049093015460a084015289928992610f2e5760405162461bcd60e51b81526004016103c590611f94565b6001600160a01b038b1660008181526002602090815260408083208e8452825280832033845282529182902082516301ffc9a760e01b81526380ac58cd60e01b600482015292519093926301ffc9a79260248083019391928290030181865afa158015610f9f573d6000803e3d6000fd5b505050506040513d601f19601f82011682018060405250810190610fc39190611eb9565b1561059b578b336040516331a9108f60e11b8152600481018e90526001600160a01b0391821691831690636352211e90602401602060405180830381865afa158015611013573d6000803e3d6000fd5b505050506040513d601f19601f820116820180604052508101906110379190611ed6565b6001600160a01b03161461105d5760405162461bcd60e51b81526004016103c590611ef3565b5087806110675750865b6110835760405162461bcd60e51b81526004016103c590611f1c565b600181018a9055600381018054600283018b905561ffff191689151561ff0019161761010089151502179055600481018690556001600160a01b038c1633604080518e8152602081018e90529081018c90528a15156060820152891515608082015260a081018990526001600160a01b0391909116907f803ebeb96a46ee85996f7bee39b94f74582e64772eff5975945aca58d89c0ad69060c00160405180910390a350506001805550505050505050505050565b6000546001600160a01b031633146111625760405162461bcd60e51b81526004016103c590611fd6565b6001600160a01b0381166111c75760405162461bcd60e51b815260206004820152602660248201527f4f776e61626c653a206e6577206f776e657220697320746865207a65726f206160448201526564647265737360d01b60648201526084016103c5565b6111d0816117e2565b50565b6000546001600160a01b031633146111fd5760405162461bcd60e51b81526004016103c590611fd6565b6003805462010000600160b01b031916620100006001600160a01b038416908102919091179091556040519081527fe57e7c1f36cc83fade34e32351e6eee7eb9da532662b1b5da10c631e8222aca790602001610d8c565b60006112618284612021565b9392505050565b6001600160a01b03808516600090815260026020818152604080842088855282528084209487168452938152838320845160c081018652815481526001820154928101929092529182015493810193909352600381015460ff8082161515606086015261010090910416151560808401526004015460a083015282156112ff57815160408301516112f891611255565b9050611312565b8151602083015161130f91611255565b90505b600354600090611335906127109061132f90859061ffff16611255565b906119ca565b905083156113835761137e336003546001600160a01b037f00000000000000000000000000000000000000000000000000000000000000008116929162010000900416846119d6565b611424565b6003546040516000916201000090046001600160a01b03169083908381818185875af1925050503d80600081146113d6576040519150601f19603f3d011682016040523d82523d6000602084013e6113db565b606091505b50509050806114225760405162461bcd60e51b8152602060048201526013602482015272199959481d1c985b9cd9995c8819985a5b1959606a1b60448201526064016103c5565b505b6000806001600160a01b038916632a55205a896114418688612040565b6040516001600160e01b031960e085901b168152600481019290925260248201526044016040805180830381865afa158015611481573d6000803e3d6000fd5b505050506040513d601f19601f820116820180604052508101906114a59190612057565b90925090506001600160a01b038216156115ab5785156114f9576114f47f00000000000000000000000000000000000000000000000000000000000000006001600160a01b03163384846119d6565b61159e565b6000826001600160a01b03168260405160006040518083038185875af1925050503d8060008114611546576040519150601f19603f3d011682016040523d82523d6000602084013e61154b565b606091505b505090508061159c5760405162461bcd60e51b815260206004820152601b60248201527f726f79616c747920666565207472616e73666572206661696c6564000000000060448201526064016103c5565b505b6115a88382611a36565b92505b85156115f7576115f233886115c08787611a42565b6001600160a01b037f0000000000000000000000000000000000000000000000000000000000000000169291906119d6565b611699565b60006001600160a01b03881661160d8686611a42565b604051600081818185875af1925050503d8060008114611649576040519150601f19603f3d011682016040523d82523d6000602084013e61164e565b606091505b50509050806116975760405162461bcd60e51b81526020600482015260156024820152741bdddb995c881d1c985b9cd9995c8819985a5b1959605a1b60448201526064016103c5565b505b6001600160a01b0389166342842e0e88336040516001600160e01b031960e085901b1681526001600160a01b03928316600482015291166024820152604481018b9052606401600060405180830381600087803b1580156116f957600080fd5b505af115801561170d573d6000803e3d6000fd5b50505050886001600160a01b03166117223390565b86516001600160a01b03918216918a16907fdd55b9c855642470e2d7be79adba4f717b0a0c2a8f7afb7951b408b5282275f0908c906117618a826119ca565b604080519384526020840192909252908201528a1515606082015260800160405180910390a45050506001600160a01b039586166000908152600260208181526040808420988452978152878320969098168252949096525050509082208281556001810183905590810182905560038101805461ffff1916905560040155565b600080546001600160a01b038381166001600160a01b0319831681178455604051919092169283917f8be0079c531659141344cd1fd0a4f28419497f9722a3daafe3b4186f6b6457e09190a35050565b6040516301ffc9a760e01b81526380ac58cd60e01b60048201526001600160a01b038416906301ffc9a790602401602060405180830381865afa15801561187d573d6000803e3d6000fd5b505050506040513d601f19601f820116820180604052508101906118a19190611eb9565b1561059b576040516331a9108f60e11b81526004810183905283906001600160a01b038381169190831690636352211e90602401602060405180830381865afa1580156118f2573d6000803e3d6000fd5b505050506040513d601f19601f820116820180604052508101906119169190611ed6565b6001600160a01b03161461193c5760405162461bcd60e51b81526004016103c590611ef3565b506001600160a01b03838116600081815260026020818152604080842088855282528084209587168085529582528084208481556001810185905592830184905560038301805461ffff19169055600490920192909255518581529192917f9ba1a3cb55ce8d63d072a886f94d2a744f50cddf82128e897d0661f5ec623158910160405180910390a3505050565b60006112618284612085565b604080516001600160a01b0385811660248301528416604482015260648082018490528251808303909101815260849091019091526020810180516001600160e01b03166323b872dd60e01b179052611a30908590611a4e565b50505050565b600061126182846120a7565b60006112618284612040565b6000611aa3826040518060400160405280602081526020017f5361666545524332303a206c6f772d6c6576656c2063616c6c206661696c6564815250856001600160a01b0316611b259092919063ffffffff16565b805190915015611b205780806020019051810190611ac19190611eb9565b611b205760405162461bcd60e51b815260206004820152602a60248201527f5361666545524332303a204552433230206f7065726174696f6e20646964206e6044820152691bdd081cdd58d8d9595960b21b60648201526084016103c5565b505050565b6060611b348484600085611b3c565b949350505050565b606082471015611b9d5760405162461bcd60e51b815260206004820152602660248201527f416464726573733a20696e73756666696369656e742062616c616e636520666f6044820152651c8818d85b1b60d21b60648201526084016103c5565b6001600160a01b0385163b611bf45760405162461bcd60e51b815260206004820152601d60248201527f416464726573733a2063616c6c20746f206e6f6e2d636f6e747261637400000060448201526064016103c5565b600080866001600160a01b03168587604051611c1091906120eb565b60006040518083038185875af1925050503d8060008114611c4d576040519150601f19603f3d011682016040523d82523d6000602084013e611c52565b606091505b5091509150611c62828286611c6d565b979650505050505050565b60608315611c7c575081611261565b825115611c8c5782518084602001fd5b8160405162461bcd60e51b81526004016103c59190612107565b6001600160a01b03811681146111d057600080fd5b80151581146111d057600080fd5b600080600080600080600080610100898b031215611ce657600080fd5b8835611cf181611ca6565b97506020890135965060408901359550606089013594506080890135935060a0890135611d1d81611cbb565b925060c0890135611d2d81611cbb565b8092505060e089013590509295985092959890939650565b60008060008060808587031215611d5b57600080fd5b8435611d6681611ca6565b9350602085013592506040850135611d7d81611ca6565b91506060850135611d8d81611cbb565b939692955090935050565b600080600060608486031215611dad57600080fd5b8335611db881611ca6565b9250602084013591506040840135611dcf81611ca6565b809150509250925092565b600060208284031215611dec57600080fd5b813561ffff8116811461126157600080fd5b60008060408385031215611e1157600080fd5b8235611e1c81611ca6565b946020939093013593505050565b600080600080600080600060e0888a031215611e4557600080fd5b8735611e5081611ca6565b96506020880135955060408801359450606088013593506080880135611e7581611cbb565b925060a0880135611e8581611cbb565b8092505060c0880135905092959891949750929550565b600060208284031215611eae57600080fd5b813561126181611ca6565b600060208284031215611ecb57600080fd5b815161126181611cbb565b600060208284031215611ee857600080fd5b815161126181611ca6565b6020808252600f908201526e6e6f74206f776e696e67206974656d60881b604082015260600190565b60208082526021908201527f6974656d2073686f756c642068617665206120776179206f66207061796d656e6040820152601d60fa1b606082015260800190565b6020808252601f908201527f5265656e7472616e637947756172643a207265656e7472616e742063616c6c00604082015260600190565b6020808252600f908201526e6e6f74206c6973746564206974656d60881b604082015260600190565b600060208284031215611fcf57600080fd5b5051919050565b6020808252818101527f4f776e61626c653a2063616c6c6572206973206e6f7420746865206f776e6572604082015260600190565b634e487b7160e01b600052601160045260246000fd5b600081600019048311821515161561203b5761203b61200b565b500290565b6000828210156120525761205261200b565b500390565b6000806040838503121561206a57600080fd5b825161207581611ca6565b6020939093015192949293505050565b6000826120a257634e487b7160e01b600052601260045260246000fd5b500490565b600082198211156120ba576120ba61200b565b500190565b60005b838110156120da5781810151838201526020016120c2565b83811115611a305750506000910152565b600082516120fd8184602087016120bf565b9190910192915050565b60208152600082518060208401526121268160408501602087016120bf565b601f01601f1916919091016040019291505056fea26469706673582212209bb5e03de3932aa6824a0d81b5601d372bee9795e0fa8c12b29a80c573fcc26b64736f6c634300080a0033",
  "linkReferences": {},
  "deployedLinkReferences": {}
}