{
  "_format": "hh-sol-artifact-1",
  "contractName": "SoundchainCollectible",
  "sourceName": "contracts/SoundchainCollectible.sol",
  "abi": [
    {
      "inputs": [],
      "stateMutability": "nonpayable",
      "type": "constructor"
    },
    {
      "anonymous": false,
      "inputs": [
        {
          "indexed": true,
          "internalType": "address",
          "name": "account",
          "type": "address"
        },
        {
          "indexed": true,
          "internalType": "address",
          "name": "operator",
          "type": "address"
        },
        {
          "indexed": false,
          "internalType": "bool",
          "name": "approved",
          "type": "bool"
        }
      ],
      "name": "ApprovalForAll",
      "type": "event"
    },
    {
      "anonymous": false,
      "inputs": [
        {
          "indexed": true,
          "internalType": "address",
          "name": "previousOwner",
          "type": "address"
        },
        {
          "indexed": true,
          "internalType": "address",
          "name": "newOwner",
          "type": "address"
        }
      ],
      "name": "OwnershipTransferred",
      "type": "event"
    },
    {
      "anonymous": false,
      "inputs": [
        {
          "indexed": true,
          "internalType": "address",
          "name": "operator",
          "type": "address"
        },
        {
          "indexed": true,
          "internalType": "address",
          "name": "from",
          "type": "address"
        },
        {
          "indexed": true,
          "internalType": "address",
          "name": "to",
          "type": "address"
        },
        {
          "indexed": false,
          "internalType": "uint256[]",
          "name": "ids",
          "type": "uint256[]"
        },
        {
          "indexed": false,
          "internalType": "uint256[]",
          "name": "values",
          "type": "uint256[]"
        }
      ],
      "name": "TransferBatch",
      "type": "event"
    },
    {
      "anonymous": false,
      "inputs": [
        {
          "indexed": true,
          "internalType": "address",
          "name": "operator",
          "type": "address"
        },
        {
          "indexed": true,
          "internalType": "address",
          "name": "from",
          "type": "address"
        },
        {
          "indexed": true,
          "internalType": "address",
          "name": "to",
          "type": "address"
        },
        {
          "indexed": false,
          "internalType": "uint256",
          "name": "id",
          "type": "uint256"
        },
        {
          "indexed": false,
          "internalType": "uint256",
          "name": "value",
          "type": "uint256"
        }
      ],
      "name": "TransferSingle",
      "type": "event"
    },
    {
      "anonymous": false,
      "inputs": [
        {
          "indexed": false,
          "internalType": "string",
          "name": "value",
          "type": "string"
        },
        {
          "indexed": true,
          "internalType": "uint256",
          "name": "id",
          "type": "uint256"
        }
      ],
      "name": "URI",
      "type": "event"
    },
    {
      "inputs": [
        {
          "internalType": "address",
          "name": "account",
          "type": "address"
        },
        {
          "internalType": "uint256",
          "name": "id",
          "type": "uint256"
        }
      ],
      "name": "balanceOf",
      "outputs": [
        {
          "internalType": "uint256",
          "name": "",
          "type": "uint256"
        }
      ],
      "stateMutability": "view",
      "type": "function"
    },
    {
      "inputs": [
        {
          "internalType": "address[]",
          "name": "accounts",
          "type": "address[]"
        },
        {
          "internalType": "uint256[]",
          "name": "ids",
          "type": "uint256[]"
        }
      ],
      "name": "balanceOfBatch",
      "outputs": [
        {
          "internalType": "uint256[]",
          "name": "",
          "type": "uint256[]"
        }
      ],
      "stateMutability": "view",
      "type": "function"
    },
    {
      "inputs": [
        {
          "internalType": "address",
          "name": "account",
          "type": "address"
        },
        {
          "internalType": "uint256",
          "name": "id",
          "type": "uint256"
        },
        {
          "internalType": "uint256",
          "name": "value",
          "type": "uint256"
        }
      ],
      "name": "burn",
      "outputs": [],
      "stateMutability": "nonpayable",
      "type": "function"
    },
    {
      "inputs": [
        {
          "internalType": "address",
          "name": "account",
          "type": "address"
        },
        {
          "internalType": "uint256[]",
          "name": "ids",
          "type": "uint256[]"
        },
        {
          "internalType": "uint256[]",
          "name": "values",
          "type": "uint256[]"
        }
      ],
      "name": "burnBatch",
      "outputs": [],
      "stateMutability": "nonpayable",
      "type": "function"
    },
    {
      "inputs": [
        {
          "internalType": "address",
          "name": "account",
          "type": "address"
        },
        {
          "internalType": "address",
          "name": "operator",
          "type": "address"
        }
      ],
      "name": "isApprovedForAll",
      "outputs": [
        {
          "internalType": "bool",
          "name": "",
          "type": "bool"
        }
      ],
      "stateMutability": "view",
      "type": "function"
    },
    {
      "inputs": [
        {
          "internalType": "address",
          "name": "account",
          "type": "address"
        },
        {
          "internalType": "uint256",
          "name": "amount",
          "type": "uint256"
        },
        {
          "internalType": "string",
          "name": "_tokenURI",
          "type": "string"
        }
      ],
      "name": "mint",
      "outputs": [],
      "stateMutability": "nonpayable",
      "type": "function"
    },
    {
      "inputs": [],
      "name": "owner",
      "outputs": [
        {
          "internalType": "address",
          "name": "",
          "type": "address"
        }
      ],
      "stateMutability": "view",
      "type": "function"
    },
    {
      "inputs": [],
      "name": "renounceOwnership",
      "outputs": [],
      "stateMutability": "nonpayable",
      "type": "function"
    },
    {
      "inputs": [
        {
          "internalType": "address",
          "name": "from",
          "type": "address"
        },
        {
          "internalType": "address",
          "name": "to",
          "type": "address"
        },
        {
          "internalType": "uint256[]",
          "name": "ids",
          "type": "uint256[]"
        },
        {
          "internalType": "uint256[]",
          "name": "amounts",
          "type": "uint256[]"
        },
        {
          "internalType": "bytes",
          "name": "data",
          "type": "bytes"
        }
      ],
      "name": "safeBatchTransferFrom",
      "outputs": [],
      "stateMutability": "nonpayable",
      "type": "function"
    },
    {
      "inputs": [
        {
          "internalType": "address",
          "name": "from",
          "type": "address"
        },
        {
          "internalType": "address",
          "name": "to",
          "type": "address"
        },
        {
          "internalType": "uint256",
          "name": "id",
          "type": "uint256"
        },
        {
          "internalType": "uint256",
          "name": "amount",
          "type": "uint256"
        },
        {
          "internalType": "bytes",
          "name": "data",
          "type": "bytes"
        }
      ],
      "name": "safeTransferFrom",
      "outputs": [],
      "stateMutability": "nonpayable",
      "type": "function"
    },
    {
      "inputs": [
        {
          "internalType": "address",
          "name": "operator",
          "type": "address"
        },
        {
          "internalType": "bool",
          "name": "approved",
          "type": "bool"
        }
      ],
      "name": "setApprovalForAll",
      "outputs": [],
      "stateMutability": "nonpayable",
      "type": "function"
    },
    {
      "inputs": [
        {
          "internalType": "string",
          "name": "newuri",
          "type": "string"
        }
      ],
      "name": "setURI",
      "outputs": [],
      "stateMutability": "nonpayable",
      "type": "function"
    },
    {
      "inputs": [
        {
          "internalType": "bytes4",
          "name": "interfaceId",
          "type": "bytes4"
        }
      ],
      "name": "supportsInterface",
      "outputs": [
        {
          "internalType": "bool",
          "name": "",
          "type": "bool"
        }
      ],
      "stateMutability": "view",
      "type": "function"
    },
    {
      "inputs": [],
      "name": "tokenURIPrefix",
      "outputs": [
        {
          "internalType": "string",
          "name": "",
          "type": "string"
        }
      ],
      "stateMutability": "view",
      "type": "function"
    },
    {
      "inputs": [
        {
          "internalType": "address",
          "name": "newOwner",
          "type": "address"
        }
      ],
      "name": "transferOwnership",
      "outputs": [],
      "stateMutability": "nonpayable",
      "type": "function"
    },
    {
      "inputs": [
        {
          "internalType": "uint256",
          "name": "_id",
          "type": "uint256"
        }
      ],
      "name": "uri",
      "outputs": [
        {
          "internalType": "string",
          "name": "",
          "type": "string"
        }
      ],
      "stateMutability": "view",
      "type": "function"
    }
  ],
  "bytecode": "0x60806040523480156200001157600080fd5b506040805160208101909152600081526200002c816200003e565b50620000383362000057565b6200018c565b805162000053906004906020840190620000a9565b5050565b600580546001600160a01b038381166001600160a01b0319831681179093556040519116919082907f8be0079c531659141344cd1fd0a4f28419497f9722a3daafe3b4186f6b6457e090600090a35050565b828054620000b7906200014f565b90600052602060002090601f016020900481019282620000db576000855562000126565b82601f10620000f657805160ff191683800117855562000126565b8280016001018555821562000126579182015b828111156200012657825182559160200191906001019062000109565b506200013492915062000138565b5090565b5b8082111562000134576000815560010162000139565b6002810460018216806200016457607f821691505b602082108114156200018657634e487b7160e01b600052602260045260246000fd5b50919050565b611ea2806200019c6000396000f3fe608060405234801561001057600080fd5b50600436106100ff5760003560e01c80638da5cb5b11610097578063e985e9c511610066578063e985e9c51461021e578063f242432a1461025a578063f2fde38b1461026d578063f5298aca14610280576100ff565b80638da5cb5b146101d0578063a22cb465146101f0578063c0ac998314610203578063d3fc98641461020b576100ff565b80632eb2c2d6116100d35780632eb2c2d6146101825780634e1273f4146101955780636b20c454146101b5578063715018a6146101c8576100ff565b8062fdd58e1461010457806301ffc9a71461012a57806302fe53051461014d5780630e89341c14610162575b600080fd5b610117610112366004611728565b610293565b6040519081526020015b60405180910390f35b61013d610138366004611897565b61032c565b6040519015158152602001610121565b61016061015b3660046118cf565b610380565b005b61017561017036600461190a565b6103bb565b6040516101219190611a8b565b610160610190366004611574565b6103c6565b6101a86101a33660046117ce565b61045d565b6040516101219190611a4a565b6101606101c336600461167d565b6105bf565b610160610607565b6101d8610642565b6040516001600160a01b039091168152602001610121565b6101606101fe3660046116ee565b610652565b610175610736565b610160610219366004611751565b6107c4565b61013d61022c366004611542565b6001600160a01b03918216600090815260036020908152604080832093909416825291909152205460ff1690565b61016061026836600461161a565b61082a565b61016061027b366004611521565b61086f565b61016061028e36600461179c565b61090c565b60006001600160a01b0383166103045760405162461bcd60e51b815260206004820152602b60248201527f455243313135353a2062616c616e636520717565727920666f7220746865207a60448201526a65726f206164647265737360a81b60648201526084015b60405180910390fd5b5060009081526002602090815260408083206001600160a01b03949094168352929052205490565b60006001600160e01b03198216636cdb3d1360e11b148061035d57506001600160e01b031982166303a24d0760e21b145b8061037857506301ffc9a760e01b6001600160e01b03198316145b90505b919050565b33610389610642565b6001600160a01b0316146103af5760405162461bcd60e51b81526004016102fb90611c45565b6103b88161094f565b50565b606061037882610966565b6001600160a01b0385163314806103e257506103e2853361022c565b6104495760405162461bcd60e51b815260206004820152603260248201527f455243313135353a207472616e736665722063616c6c6572206973206e6f74206044820152711bdddb995c881b9bdc88185c1c1c9bdd995960721b60648201526084016102fb565b6104568585858585610a08565b5050505050565b606081518351146104c25760405162461bcd60e51b815260206004820152602960248201527f455243313135353a206163636f756e747320616e6420696473206c656e677468604482015268040dad2e6dac2e8c6d60bb1b60648201526084016102fb565b6000835167ffffffffffffffff8111156104ec57634e487b7160e01b600052604160045260246000fd5b604051908082528060200260200182016040528015610515578160200160208202803683370190505b50905060005b84518110156105b75761057c85828151811061054757634e487b7160e01b600052603260045260246000fd5b602002602001015185838151811061056f57634e487b7160e01b600052603260045260246000fd5b6020026020010151610293565b82828151811061059c57634e487b7160e01b600052603260045260246000fd5b60209081029190910101526105b081611d66565b905061051b565b509392505050565b6001600160a01b0383163314806105db57506105db833361022c565b6105f75760405162461bcd60e51b81526004016102fb90611b2a565b610602838383610bc3565b505050565b33610610610642565b6001600160a01b0316146106365760405162461bcd60e51b81526004016102fb90611c45565b6106406000610d5e565b565b6005546001600160a01b03165b90565b336001600160a01b03831614156106bd5760405162461bcd60e51b815260206004820152602960248201527f455243313135353a2073657474696e6720617070726f76616c20737461747573604482015268103337b91039b2b63360b91b60648201526084016102fb565b3360008181526003602090815260408083206001600160a01b0387168085529252909120805460ff1916841515179055906001600160a01b03167f17307eab39ab6107e8899845ad3d59bd9653f200f220920489ca2b5937696c318360405161072a911515815260200190565b60405180910390a35050565b6000805461074390611cfe565b80601f016020809104026020016040519081016040528092919081815260200182805461076f90611cfe565b80156107bc5780601f10610791576101008083540402835291602001916107bc565b820191906000526020600020905b81548152906001019060200180831161079f57829003601f168201915b505050505081565b336107cd610642565b6001600160a01b0316146107f35760405162461bcd60e51b81526004016102fb90611c45565b60006107fe60065490565b905061080c84828585610db0565b6108168183610ebc565b610824600680546001019055565b50505050565b6001600160a01b0385163314806108465750610846853361022c565b6108625760405162461bcd60e51b81526004016102fb90611b2a565b6104568585858585610edb565b33610878610642565b6001600160a01b03161461089e5760405162461bcd60e51b81526004016102fb90611c45565b6001600160a01b0381166109035760405162461bcd60e51b815260206004820152602660248201527f4f776e61626c653a206e6577206f776e657220697320746865207a65726f206160448201526564647265737360d01b60648201526084016102fb565b6103b881610d5e565b6001600160a01b0383163314806109285750610928833361022c565b6109445760405162461bcd60e51b81526004016102fb90611b2a565b610602838383610ffc565b8051610962906004906020840190611390565b5050565b600081815260016020526040902080546060919061098390611cfe565b80601f01602080910402602001604051908101604052809291908181526020018280546109af90611cfe565b80156109fc5780601f106109d1576101008083540402835291602001916109fc565b820191906000526020600020905b8154815290600101906020018083116109df57829003601f168201915b50505050509050919050565b8151835114610a295760405162461bcd60e51b81526004016102fb90611c7a565b6001600160a01b038416610a4f5760405162461bcd60e51b81526004016102fb90611b73565b3360005b8451811015610b55576000858281518110610a7e57634e487b7160e01b600052603260045260246000fd5b602002602001015190506000858381518110610aaa57634e487b7160e01b600052603260045260246000fd5b60209081029190910181015160008481526002835260408082206001600160a01b038e168352909352919091205490915081811015610afb5760405162461bcd60e51b81526004016102fb90611bfb565b60008381526002602090815260408083206001600160a01b038e8116855292528083208585039055908b16825281208054849290610b3a908490611ce6565b9250508190555050505080610b4e90611d66565b9050610a53565b50846001600160a01b0316866001600160a01b0316826001600160a01b03167f4a39dc06d4c0dbc64b70af90fd698a233a518aa5d07e595d983b8c0526c8f7fb8787604051610ba5929190611a5d565b60405180910390a4610bbb818787878787611102565b505050505050565b6001600160a01b038316610be95760405162461bcd60e51b81526004016102fb90611bb8565b8051825114610c0a5760405162461bcd60e51b81526004016102fb90611c7a565b604080516020810190915260009081905233905b8351811015610cff576000848281518110610c4957634e487b7160e01b600052603260045260246000fd5b602002602001015190506000848381518110610c7557634e487b7160e01b600052603260045260246000fd5b60209081029190910181015160008481526002835260408082206001600160a01b038c168352909352919091205490915081811015610cc65760405162461bcd60e51b81526004016102fb90611ae6565b60009283526002602090815260408085206001600160a01b038b1686529091529092209103905580610cf781611d66565b915050610c1e565b5060006001600160a01b0316846001600160a01b0316826001600160a01b03167f4a39dc06d4c0dbc64b70af90fd698a233a518aa5d07e595d983b8c0526c8f7fb8686604051610d50929190611a5d565b60405180910390a450505050565b600580546001600160a01b038381166001600160a01b0319831681179093556040519116919082907f8be0079c531659141344cd1fd0a4f28419497f9722a3daafe3b4186f6b6457e090600090a35050565b6001600160a01b038416610e105760405162461bcd60e51b815260206004820152602160248201527f455243313135353a206d696e7420746f20746865207a65726f206164647265736044820152607360f81b60648201526084016102fb565b33610e2a81600087610e218861126d565b6104568861126d565b60008481526002602090815260408083206001600160a01b038916845290915281208054859290610e5c908490611ce6565b909155505060408051858152602081018590526001600160a01b0380881692600092918516917fc3d58168c5ae7397731d063d5bbf3d657854427343f4c083240f7aacaa2d0f62910160405180910390a4610456816000878787876112c6565b6000828152600160209081526040909120825161060292840190611390565b6001600160a01b038416610f015760405162461bcd60e51b81526004016102fb90611b73565b33610f11818787610e218861126d565b60008481526002602090815260408083206001600160a01b038a16845290915290205483811015610f545760405162461bcd60e51b81526004016102fb90611bfb565b60008581526002602090815260408083206001600160a01b038b8116855292528083208785039055908816825281208054869290610f93908490611ce6565b909155505060408051868152602081018690526001600160a01b03808916928a821692918616917fc3d58168c5ae7397731d063d5bbf3d657854427343f4c083240f7aacaa2d0f62910160405180910390a4610ff38288888888886112c6565b50505050505050565b6001600160a01b0383166110225760405162461bcd60e51b81526004016102fb90611bb8565b33611052818560006110338761126d565b61103c8761126d565b5050604080516020810190915260009052505050565b60008381526002602090815260408083206001600160a01b0388168452909152902054828110156110955760405162461bcd60e51b81526004016102fb90611ae6565b60008481526002602090815260408083206001600160a01b03898116808652918452828520888703905582518981529384018890529092908616917fc3d58168c5ae7397731d063d5bbf3d657854427343f4c083240f7aacaa2d0f62910160405180910390a45050505050565b6001600160a01b0384163b15610bbb5760405163bc197c8160e01b81526001600160a01b0385169063bc197c819061114690899089908890889088906004016119a7565b602060405180830381600087803b15801561116057600080fd5b505af1925050508015611190575060408051601f3d908101601f1916820190925261118d918101906118b3565b60015b61123d5761119c611dad565b806308c379a014156111d657506111b1611dc4565b806111bc57506111d8565b8060405162461bcd60e51b81526004016102fb9190611a8b565b505b60405162461bcd60e51b815260206004820152603460248201527f455243313135353a207472616e7366657220746f206e6f6e20455243313135356044820152732932b1b2b4bb32b91034b6b83632b6b2b73a32b960611b60648201526084016102fb565b6001600160e01b0319811663bc197c8160e01b14610ff35760405162461bcd60e51b81526004016102fb90611a9e565b604080516001808252818301909252606091600091906020808301908036833701905050905082816000815181106112b557634e487b7160e01b600052603260045260246000fd5b602090810291909101015292915050565b6001600160a01b0384163b15610bbb5760405163f23a6e6160e01b81526001600160a01b0385169063f23a6e619061130a9089908990889088908890600401611a05565b602060405180830381600087803b15801561132457600080fd5b505af1925050508015611354575060408051601f3d908101601f19168201909252611351918101906118b3565b60015b6113605761119c611dad565b6001600160e01b0319811663f23a6e6160e01b14610ff35760405162461bcd60e51b81526004016102fb90611a9e565b82805461139c90611cfe565b90600052602060002090601f0160209004810192826113be5760008555611404565b82601f106113d757805160ff1916838001178555611404565b82800160010185558215611404579182015b828111156114045782518255916020019190600101906113e9565b50611410929150611414565b5090565b5b808211156114105760008155600101611415565b80356001600160a01b038116811461037b57600080fd5b600082601f830112611450578081fd5b8135602061145d82611cc2565b60405161146a8282611d39565b838152828101915085830183850287018401881015611487578586fd5b855b858110156114a557813584529284019290840190600101611489565b5090979650505050505050565b600082601f8301126114c2578081fd5b813567ffffffffffffffff8111156114dc576114dc611d97565b6040516114f3601f8301601f191660200182611d39565b818152846020838601011115611507578283fd5b816020850160208301379081016020019190915292915050565b600060208284031215611532578081fd5b61153b82611429565b9392505050565b60008060408385031215611554578081fd5b61155d83611429565b915061156b60208401611429565b90509250929050565b600080600080600060a0868803121561158b578081fd5b61159486611429565b94506115a260208701611429565b9350604086013567ffffffffffffffff808211156115be578283fd5b6115ca89838a01611440565b945060608801359150808211156115df578283fd5b6115eb89838a01611440565b93506080880135915080821115611600578283fd5b5061160d888289016114b2565b9150509295509295909350565b600080600080600060a08688031215611631578081fd5b61163a86611429565b945061164860208701611429565b93506040860135925060608601359150608086013567ffffffffffffffff811115611671578182fd5b61160d888289016114b2565b600080600060608486031215611691578283fd5b61169a84611429565b9250602084013567ffffffffffffffff808211156116b6578384fd5b6116c287838801611440565b935060408601359150808211156116d7578283fd5b506116e486828701611440565b9150509250925092565b60008060408385031215611700578182fd5b61170983611429565b91506020830135801515811461171d578182fd5b809150509250929050565b6000806040838503121561173a578182fd5b61174383611429565b946020939093013593505050565b600080600060608486031215611765578081fd5b61176e84611429565b925060208401359150604084013567ffffffffffffffff811115611790578182fd5b6116e4868287016114b2565b6000806000606084860312156117b0578081fd5b6117b984611429565b95602085013595506040909401359392505050565b600080604083850312156117e0578182fd5b823567ffffffffffffffff808211156117f7578384fd5b818501915085601f83011261180a578384fd5b8135602061181782611cc2565b6040516118248282611d39565b8381528281019150858301838502870184018b1015611841578889fd5b8896505b8487101561186a5761185681611429565b835260019690960195918301918301611845565b5096505086013592505080821115611880578283fd5b5061188d85828601611440565b9150509250929050565b6000602082840312156118a8578081fd5b813561153b81611e56565b6000602082840312156118c4578081fd5b815161153b81611e56565b6000602082840312156118e0578081fd5b813567ffffffffffffffff8111156118f6578182fd5b611902848285016114b2565b949350505050565b60006020828403121561191b578081fd5b5035919050565b6000815180845260208085019450808401835b8381101561195157815187529582019590820190600101611935565b509495945050505050565b60008151808452815b8181101561198157602081850181015186830182015201611965565b818111156119925782602083870101525b50601f01601f19169290920160200192915050565b6001600160a01b0386811682528516602082015260a0604082018190526000906119d390830186611922565b82810360608401526119e58186611922565b905082810360808401526119f9818561195c565b98975050505050505050565b6001600160a01b03868116825285166020820152604081018490526060810183905260a060808201819052600090611a3f9083018461195c565b979650505050505050565b60006020825261153b6020830184611922565b600060408252611a706040830185611922565b8281036020840152611a828185611922565b95945050505050565b60006020825261153b602083018461195c565b60208082526028908201527f455243313135353a204552433131353552656365697665722072656a656374656040820152676420746f6b656e7360c01b606082015260800190565b60208082526024908201527f455243313135353a206275726e20616d6f756e7420657863656564732062616c604082015263616e636560e01b606082015260800190565b60208082526029908201527f455243313135353a2063616c6c6572206973206e6f74206f776e6572206e6f7260408201526808185c1c1c9bdd995960ba1b606082015260800190565b60208082526025908201527f455243313135353a207472616e7366657220746f20746865207a65726f206164604082015264647265737360d81b606082015260800190565b60208082526023908201527f455243313135353a206275726e2066726f6d20746865207a65726f206164647260408201526265737360e81b606082015260800190565b6020808252602a908201527f455243313135353a20696e73756666696369656e742062616c616e636520666f60408201526939103a3930b739b332b960b11b606082015260800190565b6020808252818101527f4f776e61626c653a2063616c6c6572206973206e6f7420746865206f776e6572604082015260600190565b60208082526028908201527f455243313135353a2069647320616e6420616d6f756e7473206c656e677468206040820152670dad2e6dac2e8c6d60c31b606082015260800190565b600067ffffffffffffffff821115611cdc57611cdc611d97565b5060209081020190565b60008219821115611cf957611cf9611d81565b500190565b600281046001821680611d1257607f821691505b60208210811415611d3357634e487b7160e01b600052602260045260246000fd5b50919050565b601f8201601f1916810167ffffffffffffffff81118282101715611d5f57611d5f611d97565b6040525050565b6000600019821415611d7a57611d7a611d81565b5060010190565b634e487b7160e01b600052601160045260246000fd5b634e487b7160e01b600052604160045260246000fd5b600060033d111561064f57600481823e5160e01c90565b600060443d1015611dd45761064f565b6040516003193d81016004833e81513d67ffffffffffffffff8160248401118184111715611e0657505050505061064f565b8285019150815181811115611e205750505050505061064f565b843d8701016020828501011115611e3c5750505050505061064f565b611e4b60208286010187611d39565b509094505050505090565b6001600160e01b0319811681146103b857600080fdfea26469706673582212202695ccea389389a165d795e650f8222f984954c5110109a55d04623c34b45f7f64736f6c63430008020033",
  "linkReferences": {},
  "deployedLinkReferences": {}
}