{
  "_format": "hh-sol-artifact-1",
  "contractName": "SoundchainCollectible",
  "sourceName": "contracts/SoundchainCollectible.sol",
  "abi": [
    {
      "inputs": [],
      "stateMutability": "nonpayable",
      "type": "constructor"
    },
    {
      "anonymous": false,
      "inputs": [
        {
          "indexed": true,
          "internalType": "address",
          "name": "account",
          "type": "address"
        },
        {
          "indexed": true,
          "internalType": "address",
          "name": "operator",
          "type": "address"
        },
        {
          "indexed": false,
          "internalType": "bool",
          "name": "approved",
          "type": "bool"
        }
      ],
      "name": "ApprovalForAll",
      "type": "event"
    },
    {
      "anonymous": false,
      "inputs": [
        {
          "indexed": true,
          "internalType": "address",
          "name": "previousOwner",
          "type": "address"
        },
        {
          "indexed": true,
          "internalType": "address",
          "name": "newOwner",
          "type": "address"
        }
      ],
      "name": "OwnershipTransferred",
      "type": "event"
    },
    {
      "anonymous": false,
      "inputs": [
        {
          "indexed": true,
          "internalType": "address",
          "name": "operator",
          "type": "address"
        },
        {
          "indexed": true,
          "internalType": "address",
          "name": "from",
          "type": "address"
        },
        {
          "indexed": true,
          "internalType": "address",
          "name": "to",
          "type": "address"
        },
        {
          "indexed": false,
          "internalType": "uint256[]",
          "name": "ids",
          "type": "uint256[]"
        },
        {
          "indexed": false,
          "internalType": "uint256[]",
          "name": "values",
          "type": "uint256[]"
        }
      ],
      "name": "TransferBatch",
      "type": "event"
    },
    {
      "anonymous": false,
      "inputs": [
        {
          "indexed": true,
          "internalType": "address",
          "name": "operator",
          "type": "address"
        },
        {
          "indexed": true,
          "internalType": "address",
          "name": "from",
          "type": "address"
        },
        {
          "indexed": true,
          "internalType": "address",
          "name": "to",
          "type": "address"
        },
        {
          "indexed": false,
          "internalType": "uint256",
          "name": "id",
          "type": "uint256"
        },
        {
          "indexed": false,
          "internalType": "uint256",
          "name": "value",
          "type": "uint256"
        }
      ],
      "name": "TransferSingle",
      "type": "event"
    },
    {
      "anonymous": false,
      "inputs": [
        {
          "indexed": false,
          "internalType": "string",
          "name": "value",
          "type": "string"
        },
        {
          "indexed": true,
          "internalType": "uint256",
          "name": "id",
          "type": "uint256"
        }
      ],
      "name": "URI",
      "type": "event"
    },
    {
      "inputs": [],
      "name": "_tokenIdCounter",
      "outputs": [
        {
          "internalType": "uint256",
          "name": "_value",
          "type": "uint256"
        }
      ],
      "stateMutability": "view",
      "type": "function"
    },
    {
      "inputs": [
        {
          "internalType": "address",
          "name": "account",
          "type": "address"
        },
        {
          "internalType": "uint256",
          "name": "id",
          "type": "uint256"
        }
      ],
      "name": "balanceOf",
      "outputs": [
        {
          "internalType": "uint256",
          "name": "",
          "type": "uint256"
        }
      ],
      "stateMutability": "view",
      "type": "function"
    },
    {
      "inputs": [
        {
          "internalType": "address[]",
          "name": "accounts",
          "type": "address[]"
        },
        {
          "internalType": "uint256[]",
          "name": "ids",
          "type": "uint256[]"
        }
      ],
      "name": "balanceOfBatch",
      "outputs": [
        {
          "internalType": "uint256[]",
          "name": "",
          "type": "uint256[]"
        }
      ],
      "stateMutability": "view",
      "type": "function"
    },
    {
      "inputs": [
        {
          "internalType": "address",
          "name": "account",
          "type": "address"
        },
        {
          "internalType": "uint256",
          "name": "id",
          "type": "uint256"
        },
        {
          "internalType": "uint256",
          "name": "value",
          "type": "uint256"
        }
      ],
      "name": "burn",
      "outputs": [],
      "stateMutability": "nonpayable",
      "type": "function"
    },
    {
      "inputs": [
        {
          "internalType": "address",
          "name": "account",
          "type": "address"
        },
        {
          "internalType": "uint256[]",
          "name": "ids",
          "type": "uint256[]"
        },
        {
          "internalType": "uint256[]",
          "name": "values",
          "type": "uint256[]"
        }
      ],
      "name": "burnBatch",
      "outputs": [],
      "stateMutability": "nonpayable",
      "type": "function"
    },
    {
      "inputs": [
        {
          "internalType": "address",
          "name": "account",
          "type": "address"
        },
        {
          "internalType": "address",
          "name": "operator",
          "type": "address"
        }
      ],
      "name": "isApprovedForAll",
      "outputs": [
        {
          "internalType": "bool",
          "name": "",
          "type": "bool"
        }
      ],
      "stateMutability": "view",
      "type": "function"
    },
    {
      "inputs": [
        {
          "internalType": "address",
          "name": "account",
          "type": "address"
        },
        {
          "internalType": "uint256",
          "name": "amount",
          "type": "uint256"
        },
        {
          "internalType": "string",
          "name": "_tokenURI",
          "type": "string"
        }
      ],
      "name": "mint",
      "outputs": [],
      "stateMutability": "nonpayable",
      "type": "function"
    },
    {
      "inputs": [],
      "name": "owner",
      "outputs": [
        {
          "internalType": "address",
          "name": "",
          "type": "address"
        }
      ],
      "stateMutability": "view",
      "type": "function"
    },
    {
      "inputs": [],
      "name": "renounceOwnership",
      "outputs": [],
      "stateMutability": "nonpayable",
      "type": "function"
    },
    {
      "inputs": [
        {
          "internalType": "address",
          "name": "from",
          "type": "address"
        },
        {
          "internalType": "address",
          "name": "to",
          "type": "address"
        },
        {
          "internalType": "uint256[]",
          "name": "ids",
          "type": "uint256[]"
        },
        {
          "internalType": "uint256[]",
          "name": "amounts",
          "type": "uint256[]"
        },
        {
          "internalType": "bytes",
          "name": "data",
          "type": "bytes"
        }
      ],
      "name": "safeBatchTransferFrom",
      "outputs": [],
      "stateMutability": "nonpayable",
      "type": "function"
    },
    {
      "inputs": [
        {
          "internalType": "address",
          "name": "from",
          "type": "address"
        },
        {
          "internalType": "address",
          "name": "to",
          "type": "address"
        },
        {
          "internalType": "uint256",
          "name": "id",
          "type": "uint256"
        },
        {
          "internalType": "uint256",
          "name": "amount",
          "type": "uint256"
        },
        {
          "internalType": "bytes",
          "name": "data",
          "type": "bytes"
        }
      ],
      "name": "safeTransferFrom",
      "outputs": [],
      "stateMutability": "nonpayable",
      "type": "function"
    },
    {
      "inputs": [
        {
          "internalType": "address",
          "name": "operator",
          "type": "address"
        },
        {
          "internalType": "bool",
          "name": "approved",
          "type": "bool"
        }
      ],
      "name": "setApprovalForAll",
      "outputs": [],
      "stateMutability": "nonpayable",
      "type": "function"
    },
    {
      "inputs": [
        {
          "internalType": "string",
          "name": "newuri",
          "type": "string"
        }
      ],
      "name": "setURI",
      "outputs": [],
      "stateMutability": "nonpayable",
      "type": "function"
    },
    {
      "inputs": [
        {
          "internalType": "bytes4",
          "name": "interfaceId",
          "type": "bytes4"
        }
      ],
      "name": "supportsInterface",
      "outputs": [
        {
          "internalType": "bool",
          "name": "",
          "type": "bool"
        }
      ],
      "stateMutability": "view",
      "type": "function"
    },
    {
      "inputs": [],
      "name": "tokenURIPrefix",
      "outputs": [
        {
          "internalType": "string",
          "name": "",
          "type": "string"
        }
      ],
      "stateMutability": "view",
      "type": "function"
    },
    {
      "inputs": [
        {
          "internalType": "address",
          "name": "newOwner",
          "type": "address"
        }
      ],
      "name": "transferOwnership",
      "outputs": [],
      "stateMutability": "nonpayable",
      "type": "function"
    },
    {
      "inputs": [
        {
          "internalType": "uint256",
          "name": "_id",
          "type": "uint256"
        }
      ],
      "name": "uri",
      "outputs": [
        {
          "internalType": "string",
          "name": "",
          "type": "string"
        }
      ],
      "stateMutability": "view",
      "type": "function"
    }
  ],
  "bytecode": "0x60806040523480156200001157600080fd5b506040805160208101909152600081526200002c816200003e565b50620000383362000057565b6200018c565b805162000053906004906020840190620000a9565b5050565b600580546001600160a01b038381166001600160a01b0319831681179093556040519116919082907f8be0079c531659141344cd1fd0a4f28419497f9722a3daafe3b4186f6b6457e090600090a35050565b828054620000b7906200014f565b90600052602060002090601f016020900481019282620000db576000855562000126565b82601f10620000f657805160ff191683800117855562000126565b8280016001018555821562000126579182015b828111156200012657825182559160200191906001019062000109565b506200013492915062000138565b5090565b5b8082111562000134576000815560010162000139565b6002810460018216806200016457607f821691505b602082108114156200018657634e487b7160e01b600052602260045260246000fd5b50919050565b611e88806200019c6000396000f3fe608060405234801561001057600080fd5b506004361061010a5760003560e01c806384c4bd4b116100a2578063d3fc986411610071578063d3fc986414610220578063e985e9c514610233578063f242432a1461026f578063f2fde38b14610282578063f5298aca146102955761010a565b806384c4bd4b146101db5780638da5cb5b146101e5578063a22cb46514610205578063c0ac9983146102185761010a565b80632eb2c2d6116100de5780632eb2c2d61461018d5780634e1273f4146101a05780636b20c454146101c0578063715018a6146101d35761010a565b8062fdd58e1461010f57806301ffc9a71461013557806302fe5305146101585780630e89341c1461016d575b600080fd5b61012261011d36600461170e565b6102a8565b6040519081526020015b60405180910390f35b61014861014336600461187d565b610341565b604051901515815260200161012c565b61016b6101663660046118b5565b610395565b005b61018061017b3660046118f0565b6103d0565b60405161012c9190611a71565b61016b61019b36600461155a565b6103db565b6101b36101ae3660046117b4565b610472565b60405161012c9190611a30565b61016b6101ce366004611663565b6105d4565b61016b61061c565b6006546101229081565b6101ed610657565b6040516001600160a01b03909116815260200161012c565b61016b6102133660046116d4565b610667565b61018061074b565b61016b61022e366004611737565b6107d9565b610148610241366004611528565b6001600160a01b03918216600090815260036020908152604080832093909416825291909152205460ff1690565b61016b61027d366004611600565b610810565b61016b610290366004611507565b610855565b61016b6102a3366004611782565b6108f2565b60006001600160a01b0383166103195760405162461bcd60e51b815260206004820152602b60248201527f455243313135353a2062616c616e636520717565727920666f7220746865207a60448201526a65726f206164647265737360a81b60648201526084015b60405180910390fd5b5060009081526002602090815260408083206001600160a01b03949094168352929052205490565b60006001600160e01b03198216636cdb3d1360e11b148061037257506001600160e01b031982166303a24d0760e21b145b8061038d57506301ffc9a760e01b6001600160e01b03198316145b90505b919050565b3361039e610657565b6001600160a01b0316146103c45760405162461bcd60e51b815260040161031090611c2b565b6103cd81610935565b50565b606061038d8261094c565b6001600160a01b0385163314806103f757506103f78533610241565b61045e5760405162461bcd60e51b815260206004820152603260248201527f455243313135353a207472616e736665722063616c6c6572206973206e6f74206044820152711bdddb995c881b9bdc88185c1c1c9bdd995960721b6064820152608401610310565b61046b85858585856109ee565b5050505050565b606081518351146104d75760405162461bcd60e51b815260206004820152602960248201527f455243313135353a206163636f756e747320616e6420696473206c656e677468604482015268040dad2e6dac2e8c6d60bb1b6064820152608401610310565b6000835167ffffffffffffffff81111561050157634e487b7160e01b600052604160045260246000fd5b60405190808252806020026020018201604052801561052a578160200160208202803683370190505b50905060005b84518110156105cc5761059185828151811061055c57634e487b7160e01b600052603260045260246000fd5b602002602001015185838151811061058457634e487b7160e01b600052603260045260246000fd5b60200260200101516102a8565b8282815181106105b157634e487b7160e01b600052603260045260246000fd5b60209081029190910101526105c581611d4c565b9050610530565b509392505050565b6001600160a01b0383163314806105f057506105f08333610241565b61060c5760405162461bcd60e51b815260040161031090611b10565b610617838383610ba9565b505050565b33610625610657565b6001600160a01b03161461064b5760405162461bcd60e51b815260040161031090611c2b565b6106556000610d44565b565b6005546001600160a01b03165b90565b336001600160a01b03831614156106d25760405162461bcd60e51b815260206004820152602960248201527f455243313135353a2073657474696e6720617070726f76616c20737461747573604482015268103337b91039b2b63360b91b6064820152608401610310565b3360008181526003602090815260408083206001600160a01b0387168085529252909120805460ff1916841515179055906001600160a01b03167f17307eab39ab6107e8899845ad3d59bd9653f200f220920489ca2b5937696c318360405161073f911515815260200190565b60405180910390a35050565b6000805461075890611ce4565b80601f016020809104026020016040519081016040528092919081815260200182805461078490611ce4565b80156107d15780601f106107a6576101008083540402835291602001916107d1565b820191906000526020600020905b8154815290600101906020018083116107b457829003601f168201915b505050505081565b60006107e460065490565b90506107f284828585610d96565b6107fc8183610ea2565b61080a600680546001019055565b50505050565b6001600160a01b03851633148061082c575061082c8533610241565b6108485760405162461bcd60e51b815260040161031090611b10565b61046b8585858585610ec1565b3361085e610657565b6001600160a01b0316146108845760405162461bcd60e51b815260040161031090611c2b565b6001600160a01b0381166108e95760405162461bcd60e51b815260206004820152602660248201527f4f776e61626c653a206e6577206f776e657220697320746865207a65726f206160448201526564647265737360d01b6064820152608401610310565b6103cd81610d44565b6001600160a01b03831633148061090e575061090e8333610241565b61092a5760405162461bcd60e51b815260040161031090611b10565b610617838383610fe2565b8051610948906004906020840190611376565b5050565b600081815260016020526040902080546060919061096990611ce4565b80601f016020809104026020016040519081016040528092919081815260200182805461099590611ce4565b80156109e25780601f106109b7576101008083540402835291602001916109e2565b820191906000526020600020905b8154815290600101906020018083116109c557829003601f168201915b50505050509050919050565b8151835114610a0f5760405162461bcd60e51b815260040161031090611c60565b6001600160a01b038416610a355760405162461bcd60e51b815260040161031090611b59565b3360005b8451811015610b3b576000858281518110610a6457634e487b7160e01b600052603260045260246000fd5b602002602001015190506000858381518110610a9057634e487b7160e01b600052603260045260246000fd5b60209081029190910181015160008481526002835260408082206001600160a01b038e168352909352919091205490915081811015610ae15760405162461bcd60e51b815260040161031090611be1565b60008381526002602090815260408083206001600160a01b038e8116855292528083208585039055908b16825281208054849290610b20908490611ccc565b9250508190555050505080610b3490611d4c565b9050610a39565b50846001600160a01b0316866001600160a01b0316826001600160a01b03167f4a39dc06d4c0dbc64b70af90fd698a233a518aa5d07e595d983b8c0526c8f7fb8787604051610b8b929190611a43565b60405180910390a4610ba18187878787876110e8565b505050505050565b6001600160a01b038316610bcf5760405162461bcd60e51b815260040161031090611b9e565b8051825114610bf05760405162461bcd60e51b815260040161031090611c60565b604080516020810190915260009081905233905b8351811015610ce5576000848281518110610c2f57634e487b7160e01b600052603260045260246000fd5b602002602001015190506000848381518110610c5b57634e487b7160e01b600052603260045260246000fd5b60209081029190910181015160008481526002835260408082206001600160a01b038c168352909352919091205490915081811015610cac5760405162461bcd60e51b815260040161031090611acc565b60009283526002602090815260408085206001600160a01b038b1686529091529092209103905580610cdd81611d4c565b915050610c04565b5060006001600160a01b0316846001600160a01b0316826001600160a01b03167f4a39dc06d4c0dbc64b70af90fd698a233a518aa5d07e595d983b8c0526c8f7fb8686604051610d36929190611a43565b60405180910390a450505050565b600580546001600160a01b038381166001600160a01b0319831681179093556040519116919082907f8be0079c531659141344cd1fd0a4f28419497f9722a3daafe3b4186f6b6457e090600090a35050565b6001600160a01b038416610df65760405162461bcd60e51b815260206004820152602160248201527f455243313135353a206d696e7420746f20746865207a65726f206164647265736044820152607360f81b6064820152608401610310565b33610e1081600087610e0788611253565b61046b88611253565b60008481526002602090815260408083206001600160a01b038916845290915281208054859290610e42908490611ccc565b909155505060408051858152602081018590526001600160a01b0380881692600092918516917fc3d58168c5ae7397731d063d5bbf3d657854427343f4c083240f7aacaa2d0f62910160405180910390a461046b816000878787876112ac565b6000828152600160209081526040909120825161061792840190611376565b6001600160a01b038416610ee75760405162461bcd60e51b815260040161031090611b59565b33610ef7818787610e0788611253565b60008481526002602090815260408083206001600160a01b038a16845290915290205483811015610f3a5760405162461bcd60e51b815260040161031090611be1565b60008581526002602090815260408083206001600160a01b038b8116855292528083208785039055908816825281208054869290610f79908490611ccc565b909155505060408051868152602081018690526001600160a01b03808916928a821692918616917fc3d58168c5ae7397731d063d5bbf3d657854427343f4c083240f7aacaa2d0f62910160405180910390a4610fd98288888888886112ac565b50505050505050565b6001600160a01b0383166110085760405162461bcd60e51b815260040161031090611b9e565b336110388185600061101987611253565b61102287611253565b5050604080516020810190915260009052505050565b60008381526002602090815260408083206001600160a01b03881684529091529020548281101561107b5760405162461bcd60e51b815260040161031090611acc565b60008481526002602090815260408083206001600160a01b03898116808652918452828520888703905582518981529384018890529092908616917fc3d58168c5ae7397731d063d5bbf3d657854427343f4c083240f7aacaa2d0f62910160405180910390a45050505050565b6001600160a01b0384163b15610ba15760405163bc197c8160e01b81526001600160a01b0385169063bc197c819061112c908990899088908890889060040161198d565b602060405180830381600087803b15801561114657600080fd5b505af1925050508015611176575060408051601f3d908101601f1916820190925261117391810190611899565b60015b61122357611182611d93565b806308c379a014156111bc5750611197611daa565b806111a257506111be565b8060405162461bcd60e51b81526004016103109190611a71565b505b60405162461bcd60e51b815260206004820152603460248201527f455243313135353a207472616e7366657220746f206e6f6e20455243313135356044820152732932b1b2b4bb32b91034b6b83632b6b2b73a32b960611b6064820152608401610310565b6001600160e01b0319811663bc197c8160e01b14610fd95760405162461bcd60e51b815260040161031090611a84565b6040805160018082528183019092526060916000919060208083019080368337019050509050828160008151811061129b57634e487b7160e01b600052603260045260246000fd5b602090810291909101015292915050565b6001600160a01b0384163b15610ba15760405163f23a6e6160e01b81526001600160a01b0385169063f23a6e61906112f090899089908890889088906004016119eb565b602060405180830381600087803b15801561130a57600080fd5b505af192505050801561133a575060408051601f3d908101601f1916820190925261133791810190611899565b60015b61134657611182611d93565b6001600160e01b0319811663f23a6e6160e01b14610fd95760405162461bcd60e51b815260040161031090611a84565b82805461138290611ce4565b90600052602060002090601f0160209004810192826113a457600085556113ea565b82601f106113bd57805160ff19168380011785556113ea565b828001600101855582156113ea579182015b828111156113ea5782518255916020019190600101906113cf565b506113f69291506113fa565b5090565b5b808211156113f657600081556001016113fb565b80356001600160a01b038116811461039057600080fd5b600082601f830112611436578081fd5b8135602061144382611ca8565b6040516114508282611d1f565b83815282810191508583018385028701840188101561146d578586fd5b855b8581101561148b5781358452928401929084019060010161146f565b5090979650505050505050565b600082601f8301126114a8578081fd5b813567ffffffffffffffff8111156114c2576114c2611d7d565b6040516114d9601f8301601f191660200182611d1f565b8181528460208386010111156114ed578283fd5b816020850160208301379081016020019190915292915050565b600060208284031215611518578081fd5b6115218261140f565b9392505050565b6000806040838503121561153a578081fd5b6115438361140f565b91506115516020840161140f565b90509250929050565b600080600080600060a08688031215611571578081fd5b61157a8661140f565b94506115886020870161140f565b9350604086013567ffffffffffffffff808211156115a4578283fd5b6115b089838a01611426565b945060608801359150808211156115c5578283fd5b6115d189838a01611426565b935060808801359150808211156115e6578283fd5b506115f388828901611498565b9150509295509295909350565b600080600080600060a08688031215611617578081fd5b6116208661140f565b945061162e6020870161140f565b93506040860135925060608601359150608086013567ffffffffffffffff811115611657578182fd5b6115f388828901611498565b600080600060608486031215611677578283fd5b6116808461140f565b9250602084013567ffffffffffffffff8082111561169c578384fd5b6116a887838801611426565b935060408601359150808211156116bd578283fd5b506116ca86828701611426565b9150509250925092565b600080604083850312156116e6578182fd5b6116ef8361140f565b915060208301358015158114611703578182fd5b809150509250929050565b60008060408385031215611720578182fd5b6117298361140f565b946020939093013593505050565b60008060006060848603121561174b578081fd5b6117548461140f565b925060208401359150604084013567ffffffffffffffff811115611776578182fd5b6116ca86828701611498565b600080600060608486031215611796578081fd5b61179f8461140f565b95602085013595506040909401359392505050565b600080604083850312156117c6578182fd5b823567ffffffffffffffff808211156117dd578384fd5b818501915085601f8301126117f0578384fd5b813560206117fd82611ca8565b60405161180a8282611d1f565b8381528281019150858301838502870184018b1015611827578889fd5b8896505b848710156118505761183c8161140f565b83526001969096019591830191830161182b565b5096505086013592505080821115611866578283fd5b5061187385828601611426565b9150509250929050565b60006020828403121561188e578081fd5b813561152181611e3c565b6000602082840312156118aa578081fd5b815161152181611e3c565b6000602082840312156118c6578081fd5b813567ffffffffffffffff8111156118dc578182fd5b6118e884828501611498565b949350505050565b600060208284031215611901578081fd5b5035919050565b6000815180845260208085019450808401835b838110156119375781518752958201959082019060010161191b565b509495945050505050565b60008151808452815b818110156119675760208185018101518683018201520161194b565b818111156119785782602083870101525b50601f01601f19169290920160200192915050565b6001600160a01b0386811682528516602082015260a0604082018190526000906119b990830186611908565b82810360608401526119cb8186611908565b905082810360808401526119df8185611942565b98975050505050505050565b6001600160a01b03868116825285166020820152604081018490526060810183905260a060808201819052600090611a2590830184611942565b979650505050505050565b6000602082526115216020830184611908565b600060408252611a566040830185611908565b8281036020840152611a688185611908565b95945050505050565b6000602082526115216020830184611942565b60208082526028908201527f455243313135353a204552433131353552656365697665722072656a656374656040820152676420746f6b656e7360c01b606082015260800190565b60208082526024908201527f455243313135353a206275726e20616d6f756e7420657863656564732062616c604082015263616e636560e01b606082015260800190565b60208082526029908201527f455243313135353a2063616c6c6572206973206e6f74206f776e6572206e6f7260408201526808185c1c1c9bdd995960ba1b606082015260800190565b60208082526025908201527f455243313135353a207472616e7366657220746f20746865207a65726f206164604082015264647265737360d81b606082015260800190565b60208082526023908201527f455243313135353a206275726e2066726f6d20746865207a65726f206164647260408201526265737360e81b606082015260800190565b6020808252602a908201527f455243313135353a20696e73756666696369656e742062616c616e636520666f60408201526939103a3930b739b332b960b11b606082015260800190565b6020808252818101527f4f776e61626c653a2063616c6c6572206973206e6f7420746865206f776e6572604082015260600190565b60208082526028908201527f455243313135353a2069647320616e6420616d6f756e7473206c656e677468206040820152670dad2e6dac2e8c6d60c31b606082015260800190565b600067ffffffffffffffff821115611cc257611cc2611d7d565b5060209081020190565b60008219821115611cdf57611cdf611d67565b500190565b600281046001821680611cf857607f821691505b60208210811415611d1957634e487b7160e01b600052602260045260246000fd5b50919050565b601f8201601f1916810167ffffffffffffffff81118282101715611d4557611d45611d7d565b6040525050565b6000600019821415611d6057611d60611d67565b5060010190565b634e487b7160e01b600052601160045260246000fd5b634e487b7160e01b600052604160045260246000fd5b600060033d111561066457600481823e5160e01c90565b600060443d1015611dba57610664565b6040516003193d81016004833e81513d67ffffffffffffffff8160248401118184111715611dec575050505050610664565b8285019150815181811115611e0657505050505050610664565b843d8701016020828501011115611e2257505050505050610664565b611e3160208286010187611d1f565b509094505050505090565b6001600160e01b0319811681146103cd57600080fdfea26469706673582212209bf194e607afb4e649893a50fb8b2ad7426361446cf3f5f3f794d9a168c93ff164736f6c63430008020033",
  "linkReferences": {},
  "deployedLinkReferences": {}
}